{
  "contractName": "BotHull",
  "abi": [
    {
      "inputs": [
        {
          "internalType": "address",
          "name": "_botPartContract",
          "type": "address"
        },
        {
          "internalType": "address",
          "name": "_botInstructionTokenFactory",
          "type": "address"
        }
      ],
      "stateMutability": "nonpayable",
      "type": "constructor"
    },
    {
      "anonymous": false,
      "inputs": [
        {
          "indexed": true,
          "internalType": "address",
          "name": "owner",
          "type": "address"
        },
        {
          "indexed": true,
          "internalType": "address",
          "name": "approved",
          "type": "address"
        },
        {
          "indexed": true,
          "internalType": "uint256",
          "name": "tokenId",
          "type": "uint256"
        }
      ],
      "name": "Approval",
      "type": "event"
    },
    {
      "anonymous": false,
      "inputs": [
        {
          "indexed": true,
          "internalType": "address",
          "name": "owner",
          "type": "address"
        },
        {
          "indexed": true,
          "internalType": "address",
          "name": "operator",
          "type": "address"
        },
        {
          "indexed": false,
          "internalType": "bool",
          "name": "approved",
          "type": "bool"
        }
      ],
      "name": "ApprovalForAll",
      "type": "event"
    },
    {
      "anonymous": false,
      "inputs": [
        {
          "indexed": true,
          "internalType": "bytes32",
          "name": "role",
          "type": "bytes32"
        },
        {
          "indexed": true,
          "internalType": "bytes32",
          "name": "previousAdminRole",
          "type": "bytes32"
        },
        {
          "indexed": true,
          "internalType": "bytes32",
          "name": "newAdminRole",
          "type": "bytes32"
        }
      ],
      "name": "RoleAdminChanged",
      "type": "event"
    },
    {
      "anonymous": false,
      "inputs": [
        {
          "indexed": true,
          "internalType": "bytes32",
          "name": "role",
          "type": "bytes32"
        },
        {
          "indexed": true,
          "internalType": "address",
          "name": "account",
          "type": "address"
        },
        {
          "indexed": true,
          "internalType": "address",
          "name": "sender",
          "type": "address"
        }
      ],
      "name": "RoleGranted",
      "type": "event"
    },
    {
      "anonymous": false,
      "inputs": [
        {
          "indexed": true,
          "internalType": "bytes32",
          "name": "role",
          "type": "bytes32"
        },
        {
          "indexed": true,
          "internalType": "address",
          "name": "account",
          "type": "address"
        },
        {
          "indexed": true,
          "internalType": "address",
          "name": "sender",
          "type": "address"
        }
      ],
      "name": "RoleRevoked",
      "type": "event"
    },
    {
      "anonymous": false,
      "inputs": [
        {
          "indexed": true,
          "internalType": "address",
          "name": "from",
          "type": "address"
        },
        {
          "indexed": true,
          "internalType": "address",
          "name": "to",
          "type": "address"
        },
        {
          "indexed": true,
          "internalType": "uint256",
          "name": "tokenId",
          "type": "uint256"
        }
      ],
      "name": "Transfer",
      "type": "event"
    },
    {
      "inputs": [],
      "name": "DEFAULT_ADMIN_ROLE",
      "outputs": [
        {
          "internalType": "bytes32",
          "name": "",
          "type": "bytes32"
        }
      ],
      "stateMutability": "view",
      "type": "function",
      "constant": true
    },
    {
      "inputs": [],
      "name": "ERC777_INTERFACE",
      "outputs": [
        {
          "internalType": "bytes32",
          "name": "",
          "type": "bytes32"
        }
      ],
      "stateMutability": "view",
      "type": "function",
      "constant": true
    },
    {
      "inputs": [],
      "name": "MAX_PART_SLOTS",
      "outputs": [
        {
          "internalType": "uint8",
          "name": "",
          "type": "uint8"
        }
      ],
      "stateMutability": "view",
      "type": "function",
      "constant": true
    },
    {
      "inputs": [],
      "name": "MINTER_ROLE",
      "outputs": [
        {
          "internalType": "bytes32",
          "name": "",
          "type": "bytes32"
        }
      ],
      "stateMutability": "view",
      "type": "function",
      "constant": true
    },
    {
      "inputs": [],
      "name": "amountInstructions",
      "outputs": [
        {
          "internalType": "uint8",
          "name": "",
          "type": "uint8"
        }
      ],
      "stateMutability": "view",
      "type": "function",
      "constant": true
    },
    {
      "inputs": [
        {
          "internalType": "address",
          "name": "to",
          "type": "address"
        },
        {
          "internalType": "uint256",
          "name": "tokenId",
          "type": "uint256"
        }
      ],
      "name": "approve",
      "outputs": [],
      "stateMutability": "nonpayable",
      "type": "function"
    },
    {
      "inputs": [
        {
          "internalType": "address",
          "name": "owner",
          "type": "address"
        }
      ],
      "name": "balanceOf",
      "outputs": [
        {
          "internalType": "uint256",
          "name": "",
          "type": "uint256"
        }
      ],
      "stateMutability": "view",
      "type": "function",
      "constant": true
    },
    {
      "inputs": [
        {
          "internalType": "uint256",
          "name": "tokenId",
          "type": "uint256"
        }
      ],
      "name": "getApproved",
      "outputs": [
        {
          "internalType": "address",
          "name": "",
          "type": "address"
        }
      ],
      "stateMutability": "view",
      "type": "function",
      "constant": true
    },
    {
      "inputs": [
        {
          "internalType": "bytes32",
          "name": "role",
          "type": "bytes32"
        }
      ],
      "name": "getRoleAdmin",
      "outputs": [
        {
          "internalType": "bytes32",
          "name": "",
          "type": "bytes32"
        }
      ],
      "stateMutability": "view",
      "type": "function",
      "constant": true
    },
    {
      "inputs": [
        {
          "internalType": "bytes32",
          "name": "role",
          "type": "bytes32"
        },
        {
          "internalType": "address",
          "name": "account",
          "type": "address"
        }
      ],
      "name": "grantRole",
      "outputs": [],
      "stateMutability": "nonpayable",
      "type": "function"
    },
    {
      "inputs": [
        {
          "internalType": "bytes32",
          "name": "role",
          "type": "bytes32"
        },
        {
          "internalType": "address",
          "name": "account",
          "type": "address"
        }
      ],
      "name": "hasRole",
      "outputs": [
        {
          "internalType": "bool",
          "name": "",
          "type": "bool"
        }
      ],
      "stateMutability": "view",
      "type": "function",
      "constant": true
    },
    {
      "inputs": [
        {
          "internalType": "uint256",
          "name": "",
          "type": "uint256"
        },
        {
          "internalType": "uint256",
          "name": "",
          "type": "uint256"
        }
      ],
      "name": "instructionData",
      "outputs": [
        {
          "internalType": "uint16",
          "name": "",
          "type": "uint16"
        }
      ],
      "stateMutability": "view",
      "type": "function",
      "constant": true
    },
    {
      "inputs": [
        {
          "internalType": "uint256",
          "name": "",
          "type": "uint256"
        },
        {
          "internalType": "uint256",
          "name": "",
          "type": "uint256"
        }
      ],
      "name": "instructionSlots",
      "outputs": [
        {
          "internalType": "uint8",
          "name": "",
          "type": "uint8"
        }
      ],
      "stateMutability": "view",
      "type": "function",
      "constant": true
    },
    {
      "inputs": [
        {
          "internalType": "uint8",
          "name": "",
          "type": "uint8"
        }
      ],
      "name": "instructionsContracts",
      "outputs": [
        {
          "internalType": "address",
          "name": "",
          "type": "address"
        }
      ],
      "stateMutability": "view",
      "type": "function",
      "constant": true
    },
    {
      "inputs": [
        {
          "internalType": "address",
          "name": "owner",
          "type": "address"
        },
        {
          "internalType": "address",
          "name": "operator",
          "type": "address"
        }
      ],
      "name": "isApprovedForAll",
      "outputs": [
        {
          "internalType": "bool",
          "name": "",
          "type": "bool"
        }
      ],
      "stateMutability": "view",
      "type": "function",
      "constant": true
    },
    {
      "inputs": [],
      "name": "name",
      "outputs": [
        {
          "internalType": "string",
          "name": "",
          "type": "string"
        }
      ],
      "stateMutability": "view",
      "type": "function",
      "constant": true
    },
    {
      "inputs": [
        {
          "internalType": "uint256",
          "name": "tokenId",
          "type": "uint256"
        }
      ],
      "name": "ownerOf",
      "outputs": [
        {
          "internalType": "address",
          "name": "",
          "type": "address"
        }
      ],
      "stateMutability": "view",
      "type": "function",
      "constant": true
    },
    {
      "inputs": [
        {
          "internalType": "uint256",
          "name": "",
          "type": "uint256"
        },
        {
          "internalType": "uint256",
          "name": "",
          "type": "uint256"
        }
      ],
      "name": "partSlots",
      "outputs": [
        {
          "internalType": "uint256",
          "name": "",
          "type": "uint256"
        }
      ],
      "stateMutability": "view",
      "type": "function",
      "constant": true
    },
    {
      "inputs": [
        {
          "internalType": "bytes32",
          "name": "role",
          "type": "bytes32"
        },
        {
          "internalType": "address",
          "name": "account",
          "type": "address"
        }
      ],
      "name": "renounceRole",
      "outputs": [],
      "stateMutability": "nonpayable",
      "type": "function"
    },
    {
      "inputs": [
        {
          "internalType": "bytes32",
          "name": "role",
          "type": "bytes32"
        },
        {
          "internalType": "address",
          "name": "account",
          "type": "address"
        }
      ],
      "name": "revokeRole",
      "outputs": [],
      "stateMutability": "nonpayable",
      "type": "function"
    },
    {
      "inputs": [
        {
          "internalType": "address",
          "name": "from",
          "type": "address"
        },
        {
          "internalType": "address",
          "name": "to",
          "type": "address"
        },
        {
          "internalType": "uint256",
          "name": "tokenId",
          "type": "uint256"
        }
      ],
      "name": "safeTransferFrom",
      "outputs": [],
      "stateMutability": "nonpayable",
      "type": "function"
    },
    {
      "inputs": [
        {
          "internalType": "address",
          "name": "from",
          "type": "address"
        },
        {
          "internalType": "address",
          "name": "to",
          "type": "address"
        },
        {
          "internalType": "uint256",
          "name": "tokenId",
          "type": "uint256"
        },
        {
          "internalType": "bytes",
          "name": "_data",
          "type": "bytes"
        }
      ],
      "name": "safeTransferFrom",
      "outputs": [],
      "stateMutability": "nonpayable",
      "type": "function"
    },
    {
      "inputs": [
        {
          "internalType": "address",
          "name": "operator",
          "type": "address"
        },
        {
          "internalType": "bool",
          "name": "approved",
          "type": "bool"
        }
      ],
      "name": "setApprovalForAll",
      "outputs": [],
      "stateMutability": "nonpayable",
      "type": "function"
    },
    {
      "inputs": [],
      "name": "symbol",
      "outputs": [
        {
          "internalType": "string",
          "name": "",
          "type": "string"
        }
      ],
      "stateMutability": "view",
      "type": "function",
      "constant": true
    },
    {
      "inputs": [
        {
          "internalType": "uint256",
          "name": "tokenId",
          "type": "uint256"
        }
      ],
      "name": "tokenURI",
      "outputs": [
        {
          "internalType": "string",
          "name": "",
          "type": "string"
        }
      ],
      "stateMutability": "view",
      "type": "function",
      "constant": true
    },
    {
      "inputs": [
        {
          "internalType": "address",
          "name": "from",
          "type": "address"
        },
        {
          "internalType": "address",
          "name": "to",
          "type": "address"
        },
        {
          "internalType": "uint256",
          "name": "tokenId",
          "type": "uint256"
        }
      ],
      "name": "transferFrom",
      "outputs": [],
      "stateMutability": "nonpayable",
      "type": "function"
    },
    {
      "inputs": [
        {
          "internalType": "uint8",
          "name": "id",
          "type": "uint8"
        }
      ],
      "name": "getInstructionContract",
      "outputs": [
        {
          "internalType": "address",
          "name": "",
          "type": "address"
        }
      ],
      "stateMutability": "view",
      "type": "function",
      "constant": true
    },
    {
      "inputs": [
        {
          "internalType": "uint8",
          "name": "id",
          "type": "uint8"
        },
        {
          "internalType": "address",
          "name": "instructionContract",
          "type": "address"
        }
      ],
      "name": "registerInstruction",
      "outputs": [],
      "stateMutability": "nonpayable",
      "type": "function"
    },
    {
      "inputs": [
        {
          "internalType": "address",
          "name": "player",
          "type": "address"
        }
      ],
      "name": "mintHull",
      "outputs": [
        {
          "internalType": "uint256",
          "name": "",
          "type": "uint256"
        }
      ],
      "stateMutability": "nonpayable",
      "type": "function"
    },
    {
      "inputs": [
        {
          "internalType": "uint256",
          "name": "botHullID",
          "type": "uint256"
        },
        {
          "internalType": "uint8",
          "name": "slotID",
          "type": "uint8"
        },
        {
          "internalType": "uint256",
          "name": "part",
          "type": "uint256"
        }
      ],
      "name": "fillSlot",
      "outputs": [],
      "stateMutability": "nonpayable",
      "type": "function"
    },
    {
      "inputs": [
        {
          "internalType": "uint256[]",
          "name": "botHullIDs",
          "type": "uint256[]"
        },
        {
          "internalType": "uint8[]",
          "name": "slotIDs",
          "type": "uint8[]"
        },
        {
          "internalType": "uint256[]",
          "name": "parts",
          "type": "uint256[]"
        }
      ],
      "name": "batchFillSlot",
      "outputs": [],
      "stateMutability": "nonpayable",
      "type": "function"
    },
    {
      "inputs": [
        {
          "internalType": "uint256",
          "name": "botHullID",
          "type": "uint256"
        },
        {
          "internalType": "uint8",
          "name": "slotID",
          "type": "uint8"
        }
      ],
      "name": "emptySlot",
      "outputs": [],
      "stateMutability": "nonpayable",
      "type": "function"
    },
    {
      "inputs": [
        {
          "internalType": "uint256[]",
          "name": "botHullIDs",
          "type": "uint256[]"
        },
        {
          "internalType": "uint8[]",
          "name": "slotIDs",
          "type": "uint8[]"
        }
      ],
      "name": "batchEmptySlot",
      "outputs": [],
      "stateMutability": "nonpayable",
      "type": "function"
    },
    {
      "inputs": [
        {
          "internalType": "uint256",
          "name": "botHullID",
          "type": "uint256"
        }
      ],
      "name": "clearBotInstructions",
      "outputs": [],
      "stateMutability": "nonpayable",
      "type": "function"
    },
    {
      "inputs": [
        {
          "internalType": "uint256",
          "name": "botHullID",
          "type": "uint256"
        },
        {
          "internalType": "uint8[]",
          "name": "instructions",
          "type": "uint8[]"
        },
        {
          "internalType": "uint16[]",
          "name": "data",
          "type": "uint16[]"
        }
      ],
      "name": "setupBotInstructions",
      "outputs": [],
      "stateMutability": "nonpayable",
      "type": "function"
    },
    {
      "inputs": [
        {
          "internalType": "address",
          "name": "operator",
          "type": "address"
        },
        {
          "internalType": "address",
          "name": "from",
          "type": "address"
        },
        {
          "internalType": "uint256",
          "name": "tokenId",
          "type": "uint256"
        },
        {
          "internalType": "bytes",
          "name": "data",
          "type": "bytes"
        }
      ],
      "name": "onERC721Received",
      "outputs": [
        {
          "internalType": "bytes4",
          "name": "",
          "type": "bytes4"
        }
      ],
      "stateMutability": "nonpayable",
      "type": "function"
    },
    {
      "inputs": [
        {
          "internalType": "bytes4",
          "name": "interfaceId",
          "type": "bytes4"
        }
      ],
      "name": "supportsInterface",
      "outputs": [
        {
          "internalType": "bool",
          "name": "",
          "type": "bool"
        }
      ],
      "stateMutability": "view",
      "type": "function",
      "constant": true
    },
    {
      "inputs": [
        {
          "internalType": "address",
          "name": "operator",
          "type": "address"
        },
        {
          "internalType": "address",
          "name": "",
          "type": "address"
        },
        {
          "internalType": "address",
          "name": "",
          "type": "address"
        },
        {
          "internalType": "uint256",
          "name": "",
          "type": "uint256"
        },
        {
          "internalType": "bytes",
          "name": "",
          "type": "bytes"
        },
        {
          "internalType": "bytes",
          "name": "",
          "type": "bytes"
        }
      ],
      "name": "tokensReceived",
      "outputs": [],
      "stateMutability": "view",
      "type": "function",
      "constant": true
    }
  ],
  "bytecode": "0x60806040526009805460ff191690553480156200001b57600080fd5b5060405162003966380380620039668339810160408190526200003e9162000376565b6040805180820182526007815266109bdd121d5b1b60ca1b602080830191825283518085019094526002845261084960f31b9084015281519192916200008791600091620002b3565b5080516200009d906001906020840190620002b3565b50506040516329965a1d60e01b815230600482018190527fac7fbab5f54a3ca8194167523c6753bfeb96a445279294b6125b68cce217705460248301526044820152731820a4b7618bde71dce8cdc73aab6c95905fad2491506329965a1d90606401600060405180830381600087803b1580156200011a57600080fd5b505af11580156200012f573d6000803e3d6000fd5b5050600780546001600160a01b0319166001600160a01b038616179055506200017c90507f9f2df0fed2c77648de5860a4cc508cd0818c85b8b8a1ab4ceeef8d981c8956a66000620001ab565b62000189600080620001ab565b62000196600033620001ff565b620001a3600082620001ff565b5050620003ea565b600082815260066020526040902060010154819060405184907fbd79b86ffe0ab8e8776151514217cd7cacd52c909f66475c3af44e129f0b00ff90600090a460009182526006602052604090912060010155565b6200020b82826200020f565b5050565b60008281526006602090815260408083206001600160a01b038516845290915290205460ff166200020b5760008281526006602090815260408083206001600160a01b03851684529091529020805460ff191660011790556200026f3390565b6001600160a01b0316816001600160a01b0316837f2f8788117e7eff1d82e926ec794901d17c78024a50270940304540a733656f0d60405160405180910390a45050565b828054620002c190620003ad565b90600052602060002090601f016020900481019282620002e5576000855562000330565b82601f106200030057805160ff191683800117855562000330565b8280016001018555821562000330579182015b828111156200033057825182559160200191906001019062000313565b506200033e92915062000342565b5090565b5b808211156200033e576000815560010162000343565b80516001600160a01b03811681146200037157600080fd5b919050565b6000806040838503121562000389578182fd5b620003948362000359565b9150620003a46020840162000359565b90509250929050565b600181811c90821680620003c257607f821691505b60208210811415620003e457634e487b7160e01b600052602260045260246000fd5b50919050565b61356c80620003fa6000396000f3fe608060405234801561001057600080fd5b50600436106102915760003560e01c806383b46f3811610160578063b88d4fde116100d8578063d53913931161008c578063d5a2aa0911610071578063d5a2aa0914610612578063e985e9c514610625578063fa432ea81461066157600080fd5b8063d5391393146105d8578063d547741f146105ff57600080fd5b8063c87b56dd116100bd578063c87b56dd1461058c578063d30634711461059f578063d355b2d9146105c557600080fd5b8063b88d4fde14610566578063bc9d92e81461057957600080fd5b8063a22cb4651161012f578063a9662c0c11610114578063a9662c0c1461051f578063b05a141e14610527578063b5dfd9931461055357600080fd5b8063a22cb465146104f9578063a5f50d0b1461050c57600080fd5b806383b46f381461049d57806391d14854146104b057806395d89b41146104e9578063a217fddf146104f157600080fd5b80632f2ff15d1161020e5780636337d088116101c257806370a08231116101a757806370a08231146104425780637feb0f4c14610455578063815fdf1e1461047457600080fd5b80636337d0881461041c5780636352211e1461042f57600080fd5b806336568abe116101f357806336568abe146103cf5780633a2041ec146103e257806342842e0e1461040957600080fd5b80632f2ff15d146103a957806335909a33146103bc57600080fd5b8063095ea7b31161026557806323b872dd1161024a57806323b872dd14610352578063248a9ca31461036557806328b1cb541461039657600080fd5b8063095ea7b314610313578063150b7a021461032657600080fd5b806223de291461029657806301ffc9a7146102ab57806306fdde03146102d3578063081812fc146102e8575b600080fd5b6102a96102a4366004612d38565b610674565b005b6102be6102b9366004613107565b610693565b60405190151581526020015b60405180910390f35b6102db610700565b6040516102ca919061338a565b6102fb6102f63660046130cb565b610792565b6040516001600160a01b0390911681526020016102ca565b6102a9610321366004612fa1565b61083d565b610339610334366004612e26565b61096f565b6040516001600160e01b031990911681526020016102ca565b6102a9610360366004612de6565b610b12565b6103886103733660046130cb565b60009081526006602052604090206001015490565b6040519081526020016102ca565b6102a96103a4366004613157565b610b99565b6102a96103b73660046130e3565b610f0e565b6102a96103ca3660046131de565b610f34565b6102a96103dd3660046130e3565b610f6f565b6103887fac7fbab5f54a3ca8194167523c6753bfeb96a445279294b6125b68cce217705481565b6102a9610417366004612de6565b610ff7565b6102a961042a3660046130cb565b611012565b6102fb61043d3660046130cb565b6112bc565b610388610450366004612cc8565b611347565b6009546104629060ff1681565b60405160ff90911681526020016102ca565b6102fb61048236600461323d565b600a602052600090815260409020546001600160a01b031681565b6102a96104ab366004613209565b6113e1565b6102be6104be3660046130e3565b60009182526006602090815260408084206001600160a01b0393909316845291905290205460ff1690565b6102db6114fd565b610388600081565b6102a9610507366004612f70565b61150c565b6102a961051a366004612fcc565b6115d1565b610462600881565b6102fb61053536600461323d565b60ff166000908152600a60205260409020546001600160a01b031690565b6102a9610561366004613035565b611660565b6102a9610574366004612e97565b611720565b6103886105873660046131bd565b6117ae565b6102db61059a3660046130cb565b6117d3565b6105b26105ad3660046131bd565b6118c9565b60405161ffff90911681526020016102ca565b6104626105d33660046131bd565b611910565b6103887f9f2df0fed2c77648de5860a4cc508cd0818c85b8b8a1ab4ceeef8d981c8956a681565b6102a961060d3660046130e3565b611953565b6102a9610620366004613257565b611979565b6102be610633366004612d00565b6001600160a01b03918216600090815260056020908152604080832093909416825291909152205460ff1690565b61038861066f366004612cc8565b611af7565b6001600160a01b038816301461068957600080fd5b5050505050505050565b60006001600160e01b03198216630a85bd0160e11b14806106dc57506001600160e01b031982167e23de2900000000000000000000000000000000000000000000000000000000145b806106eb57506106eb82611b52565b806106fa57506106fa82611bed565b92915050565b60606000805461070f90613442565b80601f016020809104026020016040519081016040528092919081815260200182805461073b90613442565b80156107885780601f1061075d57610100808354040283529160200191610788565b820191906000526020600020905b81548152906001019060200180831161076b57829003601f168201915b5050505050905090565b6000818152600260205260408120546001600160a01b03166108215760405162461bcd60e51b815260206004820152602c60248201527f4552433732313a20617070726f76656420717565727920666f72206e6f6e657860448201527f697374656e7420746f6b656e000000000000000000000000000000000000000060648201526084015b60405180910390fd5b506000908152600460205260409020546001600160a01b031690565b6000610848826112bc565b9050806001600160a01b0316836001600160a01b031614156108d25760405162461bcd60e51b815260206004820152602160248201527f4552433732313a20617070726f76616c20746f2063757272656e74206f776e6560448201527f72000000000000000000000000000000000000000000000000000000000000006064820152608401610818565b336001600160a01b03821614806108ee57506108ee8133610633565b6109605760405162461bcd60e51b815260206004820152603860248201527f4552433732313a20617070726f76652063616c6c6572206973206e6f74206f7760448201527f6e6572206e6f7220617070726f76656420666f7220616c6c00000000000000006064820152608401610818565b61096a8383611c2b565b505050565b60006001600160a01b0386163014156109905750630a85bd0160e11b610b09565b6007546001600160a01b031633146109a757600080fd5b6001600160a01b038616156109bb57600080fd5b602182146109c857600080fd5b6000610a0984848080601f01602080910402602001604051908101604052809392919081815260200183838082843760009201829052509250611ca6915050565b90506000610a4f85858080601f01602080910402602001604051908101604052809392919081815260200183838082843760009201919091525060209250611d0c915050565b9050866001600160a01b0316610a64836112bc565b6001600160a01b031614610a7757600080fd5b600860ff821610610a8757600080fd5b6000828152600b6020526040902060ff821660088110610ab757634e487b7160e01b600052603260045260246000fd5b015415610ac857610ac88282611d72565b6000828152600b60205260409020869060ff831660088110610afa57634e487b7160e01b600052603260045260246000fd5b015550630a85bd0160e11b9150505b95945050505050565b610b1c3382611e5c565b610b8e5760405162461bcd60e51b815260206004820152603160248201527f4552433732313a207472616e736665722063616c6c6572206973206e6f74206f60448201527f776e6572206e6f7220617070726f7665640000000000000000000000000000006064820152608401610818565b61096a838383611f64565b33610ba3866112bc565b6001600160a01b031614610bb657600080fd5b6000858152600c602052604090205415610bcf57600080fd5b60095460009060ff1667ffffffffffffffff811115610bfe57634e487b7160e01b600052604160045260246000fd5b604051908082528060200260200182016040528015610c27578160200160208202803683370190505b50905060005b84811015610cb65781868683818110610c5657634e487b7160e01b600052603260045260246000fd5b9050602002016020810190610c6b919061323d565b60ff1681518110610c8c57634e487b7160e01b600052603260045260246000fd5b602002602001018051809190610ca190613477565b90525080610cae81613477565b915050610c2d565b5060005b81518160ff161015610ed15760ff81166000908152600a60205260409020546001600160a01b03163014610ebf57818160ff1681518110610d0b57634e487b7160e01b600052603260045260246000fd5b6020026020010151670de0b6b3a7640000610d2691906133c9565b60ff82166000908152600a6020526040908190205490517f70a082310000000000000000000000000000000000000000000000000000000081523360048201526001600160a01b03909116906370a082319060240160206040518083038186803b158015610d9357600080fd5b505afa158015610da7573d6000803e3d6000fd5b505050506040513d601f19601f82011682018060405250810190610dcb919061313f565b1015610dd657600080fd5b60ff81166000818152600a602052604090205483516001600160a01b03909116916362ad1b8391339130918791908110610e2057634e487b7160e01b600052603260045260246000fd5b6020026020010151670de0b6b3a7640000610e3b91906133c9565b6040516001600160e01b031960e086901b1681526001600160a01b039384166004820152929091166024830152604482015260a06064820152600060a4820181905260c0608483015260c482015260e401600060405180830381600087803b158015610ea657600080fd5b505af1158015610eba573d6000803e3d6000fd5b505050505b80610ec981613492565b915050610cba565b506000868152600c60205260409020610eeb9086866129ff565b506000868152600d60205260409020610f05908484612aa8565b50505050505050565b600082815260066020526040902060010154610f2a813361213e565b61096a83836121be565b600860ff821610610f4457600080fd5b33610f4e836112bc565b6001600160a01b031614610f6157600080fd5b610f6b8282611d72565b5050565b6001600160a01b0381163314610fed5760405162461bcd60e51b815260206004820152602f60248201527f416363657373436f6e74726f6c3a2063616e206f6e6c792072656e6f756e636560448201527f20726f6c657320666f722073656c6600000000000000000000000000000000006064820152608401610818565b610f6b8282612260565b61096a83838360405180602001604052806000815250611720565b3361101c826112bc565b6001600160a01b03161461102f57600080fd5b6000818152600c602052604090205461104757600080fd5b60095460009060ff1667ffffffffffffffff81111561107657634e487b7160e01b600052604160045260246000fd5b60405190808252806020026020018201604052801561109f578160200160208202803683370190505b50905060005b6000838152600c6020526040902054811015611157576000838152600c602052604090208054839190839081106110ec57634e487b7160e01b600052603260045260246000fd5b90600052602060002090602091828204019190069054906101000a900460ff1660ff168151811061112d57634e487b7160e01b600052603260045260246000fd5b60200260200101805180919061114290613477565b9052508061114f81613477565b9150506110a5565b506040805160008082526020808301808552868352600c90915292902090516111809290612b43565b506040805160008082526020808301808552868352600d90915292902090516111a99290612baa565b5060005b81518160ff16101561096a5760ff81166000908152600a60205260409020546001600160a01b031630146112aa5760ff81166000818152600a602052604090205483516001600160a01b0390911691639bd9bbc69133918691811061122257634e487b7160e01b600052603260045260246000fd5b6020026020010151670de0b6b3a764000061123d91906133c9565b6040516001600160e01b031960e085901b1681526001600160a01b03909216600483015260248201526060604482015260006064820152608401600060405180830381600087803b15801561129157600080fd5b505af11580156112a5573d6000803e3d6000fd5b505050505b806112b481613492565b9150506111ad565b6000818152600260205260408120546001600160a01b0316806106fa5760405162461bcd60e51b815260206004820152602960248201527f4552433732313a206f776e657220717565727920666f72206e6f6e657869737460448201527f656e7420746f6b656e00000000000000000000000000000000000000000000006064820152608401610818565b60006001600160a01b0382166113c55760405162461bcd60e51b815260206004820152602a60248201527f4552433732313a2062616c616e636520717565727920666f7220746865207a6560448201527f726f2061646472657373000000000000000000000000000000000000000000006064820152608401610818565b506001600160a01b031660009081526003602052604090205490565b600860ff8316106113f157600080fd5b336113fb846112bc565b6001600160a01b03161461140e57600080fd5b6007546040517f6352211e0000000000000000000000000000000000000000000000000000000081526004810183905233916001600160a01b031690636352211e9060240160206040518083038186803b15801561146b57600080fd5b505afa15801561147f573d6000803e3d6000fd5b505050506040513d601f19601f820116820180604052508101906114a39190612ce4565b6001600160a01b0316146114b657600080fd5b6000838152600b6020526040902060ff8316600881106114e657634e487b7160e01b600052603260045260246000fd5b0154156114f257600080fd5b61096a8383836122e3565b60606001805461070f90613442565b6001600160a01b0382163314156115655760405162461bcd60e51b815260206004820152601960248201527f4552433732313a20617070726f766520746f2063616c6c6572000000000000006044820152606401610818565b3360008181526005602090815260408083206001600160a01b03871680855290835292819020805460ff191686151590811790915590519081529192917f17307eab39ab6107e8899845ad3d59bd9653f200f220920489ca2b5937696c31910160405180910390a35050565b8281146115dd57600080fd5b60005b838110156116595761164785858381811061160b57634e487b7160e01b600052603260045260246000fd5b9050602002013584848481811061163257634e487b7160e01b600052603260045260246000fd5b90506020020160208101906103ca919061323d565b8061165181613477565b9150506115e0565b5050505050565b84831461166c57600080fd5b82811461167857600080fd5b60005b85811015610f055761170e8787838181106116a657634e487b7160e01b600052603260045260246000fd5b905060200201358686848181106116cd57634e487b7160e01b600052603260045260246000fd5b90506020020160208101906116e2919061323d565b85858581811061170257634e487b7160e01b600052603260045260246000fd5b905060200201356113e1565b8061171881613477565b91505061167b565b61172a3383611e5c565b61179c5760405162461bcd60e51b815260206004820152603160248201527f4552433732313a207472616e736665722063616c6c6572206973206e6f74206f60448201527f776e6572206e6f7220617070726f7665640000000000000000000000000000006064820152608401610818565b6117a88484848461239f565b50505050565b600b60205281600052604060002081600881106117ca57600080fd5b01549150829050565b6000818152600260205260409020546060906001600160a01b03166118605760405162461bcd60e51b815260206004820152602f60248201527f4552433732314d657461646174613a2055524920717565727920666f72206e6f60448201527f6e6578697374656e7420746f6b656e00000000000000000000000000000000006064820152608401610818565b600061187760408051602081019091526000815290565b9050600081511161189757604051806020016040528060008152506118c2565b806118a184612428565b6040516020016118b292919061329e565b6040516020818303038152906040525b9392505050565b600d60205281600052604060002081815481106118e557600080fd5b9060005260206000209060109182820401919006600202915091509054906101000a900461ffff1681565b600c602052816000526040600020818154811061192c57600080fd5b9060005260206000209060209182820401919006915091509054906101000a900460ff1681565b60008281526006602052604090206001015461196f813361213e565b61096a8383612260565b6000611985813361213e565b6040517faabbb8ca0000000000000000000000000000000000000000000000000000000081526001600160a01b03831660048201527fac7fbab5f54a3ca8194167523c6753bfeb96a445279294b6125b68cce21770546024820152600090731820a4b7618bde71dce8cdc73aab6c95905fad249063aabbb8ca9060440160206040518083038186803b158015611a1a57600080fd5b505afa158015611a2e573d6000803e3d6000fd5b505050506040513d601f19601f82011682018060405250810190611a529190612ce4565b90506001600160a01b038116611a6757600080fd5b60095460ff9081169085161115611a7d57600080fd5b60208460ff1610611a8d57600080fd5b60ff8481166000908152600a60205260408120805473ffffffffffffffffffffffffffffffffffffffff19166001600160a01b038716179055600980549092169190611ad883613492565b91906101000a81548160ff021916908360ff1602179055505050505050565b60007f9f2df0fed2c77648de5860a4cc508cd0818c85b8b8a1ab4ceeef8d981c8956a6611b24813361213e565b611b32600880546001019055565b6000611b3d60085490565b9050611b498482612542565b91505b50919050565b60006001600160e01b031982167f80ac58cd000000000000000000000000000000000000000000000000000000001480611bb557506001600160e01b031982167f5b5e139f00000000000000000000000000000000000000000000000000000000145b806106fa57507f01ffc9a7000000000000000000000000000000000000000000000000000000006001600160e01b03198316146106fa565b60006001600160e01b031982167f7965db0b0000000000000000000000000000000000000000000000000000000014806106fa57506106fa82611b52565b6000818152600460205260409020805473ffffffffffffffffffffffffffffffffffffffff19166001600160a01b0384169081179091558190611c6d826112bc565b6001600160a01b03167f8c5be1e5ebec7d5bd14f71427d1e84f3dd0314c0f7b2291e5b200ac8c7c3b92560405160405180910390a45050565b6000611cb382602061339d565b83511015611d035760405162461bcd60e51b815260206004820152601560248201527f746f55696e743235365f6f75744f66426f756e647300000000000000000000006044820152606401610818565b50016020015190565b6000611d1982600161339d565b83511015611d695760405162461bcd60e51b815260206004820152601360248201527f746f55696e74385f6f75744f66426f756e6473000000000000000000000000006044820152606401610818565b50016001015190565b6007546000838152600b602052604090206001600160a01b03909116906342842e0e903090339060ff861660088110611dbb57634e487b7160e01b600052603260045260246000fd5b01546040516001600160e01b031960e086901b1681526001600160a01b0393841660048201529290911660248301526044820152606401600060405180830381600087803b158015611e0c57600080fd5b505af1158015611e20573d6000803e3d6000fd5b5050506000838152600b6020526040812090915060ff831660088110611e5657634e487b7160e01b600052603260045260246000fd5b01555050565b6000818152600260205260408120546001600160a01b0316611ee65760405162461bcd60e51b815260206004820152602c60248201527f4552433732313a206f70657261746f7220717565727920666f72206e6f6e657860448201527f697374656e7420746f6b656e00000000000000000000000000000000000000006064820152608401610818565b6000611ef1836112bc565b9050806001600160a01b0316846001600160a01b03161480611f2c5750836001600160a01b0316611f2184610792565b6001600160a01b0316145b80611f5c57506001600160a01b0380821660009081526005602090815260408083209388168352929052205460ff165b949350505050565b826001600160a01b0316611f77826112bc565b6001600160a01b031614611ff35760405162461bcd60e51b815260206004820152602960248201527f4552433732313a207472616e73666572206f6620746f6b656e2074686174206960448201527f73206e6f74206f776e00000000000000000000000000000000000000000000006064820152608401610818565b6001600160a01b03821661206e5760405162461bcd60e51b8152602060048201526024808201527f4552433732313a207472616e7366657220746f20746865207a65726f2061646460448201527f72657373000000000000000000000000000000000000000000000000000000006064820152608401610818565b612079600082611c2b565b6001600160a01b03831660009081526003602052604081208054600192906120a29084906133e8565b90915550506001600160a01b03821660009081526003602052604081208054600192906120d090849061339d565b9091555050600081815260026020526040808220805473ffffffffffffffffffffffffffffffffffffffff19166001600160a01b0386811691821790925591518493918716917fddf252ad1be2c89b69c2b068fc378daa952ba7f163c4a11628f55a4df523b3ef91a4505050565b60008281526006602090815260408083206001600160a01b038516845290915290205460ff16610f6b5761217c816001600160a01b03166014612691565b612187836020612691565b6040516020016121989291906132cd565b60408051601f198184030181529082905262461bcd60e51b82526108189160040161338a565b60008281526006602090815260408083206001600160a01b038516845290915290205460ff16610f6b5760008281526006602090815260408083206001600160a01b03851684529091529020805460ff1916600117905561221c3390565b6001600160a01b0316816001600160a01b0316837f2f8788117e7eff1d82e926ec794901d17c78024a50270940304540a733656f0d60405160405180910390a45050565b60008281526006602090815260408083206001600160a01b038516845290915290205460ff1615610f6b5760008281526006602090815260408083206001600160a01b0385168085529252808320805460ff1916905551339285917ff6391f5c32d9c69d2a47ea670b442974b53935d1edc7fd64eb21e047a839171b9190a45050565b6007546040517f42842e0e000000000000000000000000000000000000000000000000000000008152336004820152306024820152604481018390526001600160a01b03909116906342842e0e90606401600060405180830381600087803b15801561234e57600080fd5b505af1158015612362573d6000803e3d6000fd5b5050506000848152600b6020526040902082915060ff84166008811061239857634e487b7160e01b600052603260045260246000fd5b0155505050565b6123aa848484611f64565b6123b68484848461289c565b6117a85760405162461bcd60e51b815260206004820152603260248201527f4552433732313a207472616e7366657220746f206e6f6e20455243373231526560448201527f63656976657220696d706c656d656e74657200000000000000000000000000006064820152608401610818565b60608161244c5750506040805180820190915260018152600360fc1b602082015290565b8160005b8115612476578061246081613477565b915061246f9050600a836133b5565b9150612450565b60008167ffffffffffffffff81111561249f57634e487b7160e01b600052604160045260246000fd5b6040519080825280601f01601f1916602001820160405280156124c9576020820181803683370190505b5090505b8415611f5c576124de6001836133e8565b91506124eb600a866134b2565b6124f690603061339d565b60f81b81838151811061251957634e487b7160e01b600052603260045260246000fd5b60200101906001600160f81b031916908160001a90535061253b600a866133b5565b94506124cd565b6001600160a01b0382166125985760405162461bcd60e51b815260206004820181905260248201527f4552433732313a206d696e7420746f20746865207a65726f20616464726573736044820152606401610818565b6000818152600260205260409020546001600160a01b0316156125fd5760405162461bcd60e51b815260206004820152601c60248201527f4552433732313a20746f6b656e20616c7265616479206d696e746564000000006044820152606401610818565b6001600160a01b038216600090815260036020526040812080546001929061262690849061339d565b9091555050600081815260026020526040808220805473ffffffffffffffffffffffffffffffffffffffff19166001600160a01b03861690811790915590518392907fddf252ad1be2c89b69c2b068fc378daa952ba7f163c4a11628f55a4df523b3ef908290a45050565b606060006126a08360026133c9565b6126ab90600261339d565b67ffffffffffffffff8111156126d157634e487b7160e01b600052604160045260246000fd5b6040519080825280601f01601f1916602001820160405280156126fb576020820181803683370190505b509050600360fc1b8160008151811061272457634e487b7160e01b600052603260045260246000fd5b60200101906001600160f81b031916908160001a9053507f78000000000000000000000000000000000000000000000000000000000000008160018151811061277d57634e487b7160e01b600052603260045260246000fd5b60200101906001600160f81b031916908160001a90535060006127a18460026133c9565b6127ac90600161339d565b90505b600181111561284d577f303132333435363738396162636465660000000000000000000000000000000085600f16601081106127fb57634e487b7160e01b600052603260045260246000fd5b1a60f81b82828151811061281f57634e487b7160e01b600052603260045260246000fd5b60200101906001600160f81b031916908160001a90535060049490941c936128468161342b565b90506127af565b5083156118c25760405162461bcd60e51b815260206004820181905260248201527f537472696e67733a20686578206c656e67746820696e73756666696369656e746044820152606401610818565b60006001600160a01b0384163b156129f457604051630a85bd0160e11b81526001600160a01b0385169063150b7a02906128e090339089908890889060040161334e565b602060405180830381600087803b1580156128fa57600080fd5b505af192505050801561292a575060408051601f3d908101601f1916820190925261292791810190613123565b60015b6129da573d808015612958576040519150601f19603f3d011682016040523d82523d6000602084013e61295d565b606091505b5080516129d25760405162461bcd60e51b815260206004820152603260248201527f4552433732313a207472616e7366657220746f206e6f6e20455243373231526560448201527f63656976657220696d706c656d656e74657200000000000000000000000000006064820152608401610818565b805181602001fd5b6001600160e01b031916630a85bd0160e11b149050611f5c565b506001949350505050565b82805482825590600052602060002090601f01602090048101928215612a985791602002820160005b83821115612a6957833560ff1683826101000a81548160ff021916908360ff1602179055509260200192600101602081600001049283019260010302612a28565b8015612a965782816101000a81549060ff0219169055600101602081600001049283019260010302612a69565b505b50612aa4929150612c13565b5090565b82805482825590600052602060002090600f01601090048101928215612a985791602002820160005b83821115612b1557833561ffff1683826101000a81548161ffff021916908361ffff1602179055509260200192600201602081600101049283019260010302612ad1565b8015612a965782816101000a81549061ffff0219169055600201602081600101049283019260010302612b15565b82805482825590600052602060002090601f01602090048101928215612a985791602002820160005b83821115612a6957835183826101000a81548160ff021916908360ff1602179055509260200192600101602081600001049283019260010302612b6c565b82805482825590600052602060002090600f01601090048101928215612a985791602002820160005b83821115612b1557835183826101000a81548161ffff021916908361ffff1602179055509260200192600201602081600101049283019260010302612bd3565b5b80821115612aa45760008155600101612c14565b60008083601f840112612c39578081fd5b50813567ffffffffffffffff811115612c50578182fd5b6020830191508360208260051b8501011115612c6b57600080fd5b9250929050565b60008083601f840112612c83578182fd5b50813567ffffffffffffffff811115612c9a578182fd5b602083019150836020828501011115612c6b57600080fd5b803560ff81168114612cc357600080fd5b919050565b600060208284031215612cd9578081fd5b81356118c281613508565b600060208284031215612cf5578081fd5b81516118c281613508565b60008060408385031215612d12578081fd5b8235612d1d81613508565b91506020830135612d2d81613508565b809150509250929050565b60008060008060008060008060c0898b031215612d53578384fd5b8835612d5e81613508565b97506020890135612d6e81613508565b96506040890135612d7e81613508565b955060608901359450608089013567ffffffffffffffff80821115612da1578586fd5b612dad8c838d01612c72565b909650945060a08b0135915080821115612dc5578384fd5b50612dd28b828c01612c72565b999c989b5096995094979396929594505050565b600080600060608486031215612dfa578283fd5b8335612e0581613508565b92506020840135612e1581613508565b929592945050506040919091013590565b600080600080600060808688031215612e3d578081fd5b8535612e4881613508565b94506020860135612e5881613508565b935060408601359250606086013567ffffffffffffffff811115612e7a578182fd5b612e8688828901612c72565b969995985093965092949392505050565b60008060008060808587031215612eac578384fd5b8435612eb781613508565b93506020850135612ec781613508565b925060408501359150606085013567ffffffffffffffff80821115612eea578283fd5b818701915087601f830112612efd578283fd5b813581811115612f0f57612f0f6134f2565b604051601f8201601f19908116603f01168101908382118183101715612f3757612f376134f2565b816040528281528a6020848701011115612f4f578586fd5b82602086016020830137918201602001949094529598949750929550505050565b60008060408385031215612f82578182fd5b8235612f8d81613508565b915060208301358015158114612d2d578182fd5b60008060408385031215612fb3578182fd5b8235612fbe81613508565b946020939093013593505050565b60008060008060408587031215612fe1578182fd5b843567ffffffffffffffff80821115612ff8578384fd5b61300488838901612c28565b9096509450602087013591508082111561301c578384fd5b5061302987828801612c28565b95989497509550505050565b6000806000806000806060878903121561304d578384fd5b863567ffffffffffffffff80821115613064578586fd5b6130708a838b01612c28565b90985096506020890135915080821115613088578586fd5b6130948a838b01612c28565b909650945060408901359150808211156130ac578384fd5b506130b989828a01612c28565b979a9699509497509295939492505050565b6000602082840312156130dc578081fd5b5035919050565b600080604083850312156130f5578182fd5b823591506020830135612d2d81613508565b600060208284031215613118578081fd5b81356118c281613520565b600060208284031215613134578081fd5b81516118c281613520565b600060208284031215613150578081fd5b5051919050565b60008060008060006060868803121561316e578283fd5b85359450602086013567ffffffffffffffff8082111561318c578485fd5b61319889838a01612c28565b909650945060408801359150808211156131b0578283fd5b50612e8688828901612c28565b600080604083850312156131cf578182fd5b50508035926020909101359150565b600080604083850312156131f0578182fd5b8235915061320060208401612cb2565b90509250929050565b60008060006060848603121561321d578081fd5b8335925061322d60208501612cb2565b9150604084013590509250925092565b60006020828403121561324e578081fd5b6118c282612cb2565b60008060408385031215613269578182fd5b612d1d83612cb2565b6000815180845261328a8160208601602086016133ff565b601f01601f19169290920160200192915050565b600083516132b08184602088016133ff565b8351908301906132c48183602088016133ff565b01949350505050565b7f416363657373436f6e74726f6c3a206163636f756e74200000000000000000008152600083516133058160178501602088016133ff565b7f206973206d697373696e6720726f6c652000000000000000000000000000000060179184019182015283516133428160288401602088016133ff565b01602801949350505050565b60006001600160a01b038087168352808616602084015250836040830152608060608301526133806080830184613272565b9695505050505050565b6020815260006118c26020830184613272565b600082198211156133b0576133b06134c6565b500190565b6000826133c4576133c46134dc565b500490565b60008160001904831182151516156133e3576133e36134c6565b500290565b6000828210156133fa576133fa6134c6565b500390565b60005b8381101561341a578181015183820152602001613402565b838111156117a85750506000910152565b60008161343a5761343a6134c6565b506000190190565b600181811c9082168061345657607f821691505b60208210811415611b4c57634e487b7160e01b600052602260045260246000fd5b600060001982141561348b5761348b6134c6565b5060010190565b600060ff821660ff8114156134a9576134a96134c6565b60010192915050565b6000826134c1576134c16134dc565b500690565b634e487b7160e01b600052601160045260246000fd5b634e487b7160e01b600052601260045260246000fd5b634e487b7160e01b600052604160045260246000fd5b6001600160a01b038116811461351d57600080fd5b50565b6001600160e01b03198116811461351d57600080fdfea26469706673582212207e2ba4638bf06662720de9f5bd17d7da8c98c3a9262d82f80a81a09957f9a90764736f6c63430008040033",
  "immutableReferences": {},
  "source": "// SPDX-License-Identifier: MIT\npragma solidity ^0.8.0;\n\nimport \"@openzeppelin/contracts/access/AccessControl.sol\";\nimport \"@openzeppelin/contracts/token/ERC721/extensions/ERC721Enumerable.sol\";\nimport \"@openzeppelin/contracts/token/ERC721/IERC721Receiver.sol\";\nimport \"@openzeppelin/contracts/token/ERC777/IERC777.sol\";\nimport \"@openzeppelin/contracts/token/ERC777/IERC777Recipient.sol\";\nimport \"@openzeppelin/contracts/utils/Counters.sol\";\nimport \"@openzeppelin/contracts/utils/introspection/ERC165Checker.sol\";\nimport \"@openzeppelin/contracts/utils/introspection/IERC1820Registry.sol\";\nimport \"solidity-bytes-utils/contracts/BytesLib.sol\";\nimport \"./BotPart.sol\";\n\ncontract BotHull is ERC721, IERC721Receiver, IERC777Recipient, AccessControl {\n  using Counters for Counters.Counter;\n\n  IERC1820Registry private constant _ERC1820_REGISTRY = IERC1820Registry(0x1820a4B7618BdE71Dce8cdc73aAB6C95905faD24);\n\n  address private botPartContract;\n\n  bytes32 public constant ERC777_INTERFACE = keccak256(\"ERC777Token\");\n  bytes32 public constant MINTER_ROLE = keccak256(\"MINTER_ROLE\");\n\n  Counters.Counter private _tokenIds;\n\n  uint8 public constant MAX_PART_SLOTS = 8;\n  uint8 public amountInstructions = 0;\n  mapping(uint8 => address) public instructionsContracts;\n\n\n  mapping(uint256 => uint256[MAX_PART_SLOTS]) public partSlots;\n  mapping(uint256 => uint8[]) public instructionSlots;\n  mapping(uint256 => uint16[]) public instructionData;\n\n  constructor(address _botPartContract, address _botInstructionTokenFactory) ERC721(\"BotHull\", \"BH\") {\n    _ERC1820_REGISTRY.setInterfaceImplementer(address(this), 0xac7fbab5f54a3ca8194167523c6753bfeb96a445279294b6125b68cce2177054, address(this));\n\n    botPartContract = _botPartContract;\n    _setRoleAdmin(MINTER_ROLE, DEFAULT_ADMIN_ROLE);\n    _setRoleAdmin(DEFAULT_ADMIN_ROLE, DEFAULT_ADMIN_ROLE);\n    _setupRole(DEFAULT_ADMIN_ROLE, msg.sender);\n    _setupRole(DEFAULT_ADMIN_ROLE, _botInstructionTokenFactory);\n  }\n\n  function getInstructionContract(uint8 id) public view returns (address) {\n    return instructionsContracts[id];\n  }\n\n  function registerInstruction(uint8 id, address instructionContract) public onlyRole(DEFAULT_ADMIN_ROLE) {\n    address implementer = _ERC1820_REGISTRY.getInterfaceImplementer(instructionContract, ERC777_INTERFACE);\n    require(implementer != address(0));\n    require(id <= amountInstructions);\n    require(id < 32);\n    instructionsContracts[id] = instructionContract;\n    amountInstructions++;\n  }\n\n  function mintHull(address player) public onlyRole(MINTER_ROLE) returns (uint256) {\n    _tokenIds.increment();\n\n    uint256 newItemId = _tokenIds.current();\n    _mint(player, newItemId);\n\n    return newItemId;\n  }\n\n  function fillSlot(uint256 botHullID, uint8 slotID, uint256 part) public {\n    require(slotID < MAX_PART_SLOTS);\n    require(ownerOf(botHullID) == msg.sender);\n    require(BotPart(botPartContract).ownerOf(part) == msg.sender);\n    require(partSlots[botHullID][slotID] == 0);\n\n    _fillSlot(botHullID, slotID, part);\n  }\n\n  function _fillSlot(uint256 botHullID, uint8 slotID, uint256 part) private {\n    BotPart(botPartContract).safeTransferFrom(msg.sender, address(this), part);\n    partSlots[botHullID][slotID] = part;\n  }\n\n  function batchFillSlot(uint256[] calldata botHullIDs, uint8[] calldata slotIDs, uint256[] calldata parts) public {\n    require(botHullIDs.length == slotIDs.length);\n    require(slotIDs.length == parts.length);\n\n    for(uint i = 0; i < botHullIDs.length; i++){\n      fillSlot(botHullIDs[i], slotIDs[i], parts[i]);\n    }\n  }\n\n  function emptySlot(uint256 botHullID, uint8 slotID) public {\n    require(slotID < MAX_PART_SLOTS);\n    require(ownerOf(botHullID) == msg.sender);\n\n    _emptySlot(botHullID, slotID);\n  }\n\n  function _emptySlot(uint256 botHullID, uint8 slotID) private {\n    BotPart(botPartContract).safeTransferFrom(address(this), msg.sender, partSlots[botHullID][slotID]);\n    partSlots[botHullID][slotID] = 0;\n  }\n\n  function batchEmptySlot(uint256[] calldata botHullIDs, uint8[] calldata slotIDs) public {\n    require(botHullIDs.length == slotIDs.length);\n\n    for(uint i = 0; i < botHullIDs.length; i++){\n      emptySlot(botHullIDs[i], slotIDs[i]);\n    }\n  }\n\n  function clearBotInstructions(uint256 botHullID) public {\n    require(ownerOf(botHullID) == msg.sender);\n    require(instructionSlots[botHullID].length != 0);\n\n    uint256[] memory depositedInstructionTokens = new uint256[](amountInstructions);\n\n    //Check Valid Instructions and valid Instructions Balances\n    for(uint i = 0; i < instructionSlots[botHullID].length; i++){\n      depositedInstructionTokens[instructionSlots[botHullID][i]]++;\n    }\n\n    instructionSlots[botHullID] = new uint8[](0);\n    instructionData[botHullID] = new uint16[](0);\n\n    // Ignore Instructions which have its Contract set to this contract (=tokenless Instructions)\n    for(uint8 j = 0; j < depositedInstructionTokens.length; j++){\n      if(instructionsContracts[j] != address(this)) {\n        IERC777(instructionsContracts[j]).send(msg.sender, depositedInstructionTokens[j] * 10**18, \"\");\n      }\n    }\n\n  }\n\n  function setupBotInstructions(uint256 botHullID, uint8[] calldata instructions, uint16[] calldata data) public {\n    require(ownerOf(botHullID) == msg.sender);\n    require(instructionSlots[botHullID].length == 0);\n\n    uint256[] memory requiredAmounts = new uint256[](amountInstructions);\n\n    //Check Valid Instructions and valid Instructions Balances\n    for(uint i = 0; i < instructions.length; i++){\n      requiredAmounts[instructions[i]]++;\n    }\n    // Ignore Instructions which have its Contract set to this contract (=tokenless Instructions)\n    for(uint8 j = 0; j < requiredAmounts.length; j++){\n      if(instructionsContracts[j] != address(this)) {\n        require(IERC777(instructionsContracts[j]).balanceOf(msg.sender) >= requiredAmounts[j] * 10**18);\n        IERC777(instructionsContracts[j]).operatorSend(msg.sender, address(this), requiredAmounts[j] * 10**18, \"\", \"\");\n      }\n    }\n\n    instructionSlots[botHullID] = instructions;\n    instructionData[botHullID] = data;\n  }\n\n  function onERC721Received(address operator, address from, uint256 tokenId, bytes calldata data) external override returns (bytes4){\n    if(operator == address(this)){\n      return IERC721Receiver.onERC721Received.selector;\n    }\n    require(msg.sender == botPartContract);\n    require(operator == address(0));\n    // 32 Bytes for BotHullID + 1 Byte for slotID\n    require(data.length== 32 + 1);\n    uint256 botHullID = BytesLib.toUint256(data, 0);\n    uint8 slotID = BytesLib.toUint8(data, 32);\n\n    require(ownerOf(botHullID) == from);\n    require(slotID < MAX_PART_SLOTS);\n\n    if(partSlots[botHullID][slotID] != 0){\n      _emptySlot(botHullID, slotID);\n    }\n    partSlots[botHullID][slotID] = tokenId;\n\n    return IERC721Receiver.onERC721Received.selector;\n  }\n\n  function supportsInterface(bytes4 interfaceId) public view virtual override(AccessControl, ERC721) returns (bool) {\n    return interfaceId == type(IERC721Receiver).interfaceId ||\n           interfaceId == type(IERC777Recipient).interfaceId ||\n            ERC721.supportsInterface(interfaceId) ||\n            AccessControl.supportsInterface(interfaceId);\n  }\n\n  function tokensReceived(\n      address operator,\n      address,\n      address,\n      uint256,\n      bytes calldata,\n      bytes calldata\n  ) external view override {\n    require(operator == address(this));\n  }\n\n}\n",
  "sourcePath": "/home/zorro/git/blockchain__general/prototype/contracts/polygon/BotHull.sol",
  "compiler": {
    "name": "solc",
    "version": "0.8.4+commit.c7e474f2.Emscripten.clang"
  },
  "schemaVersion": "3.2.0",
  "updatedAt": "2021-06-25T10:01:04.825Z",
  "networkType": "ethereum",
  "devdoc": {
    "kind": "dev",
    "methods": {
      "approve(address,uint256)": {
        "details": "See {IERC721-approve}."
      },
      "balanceOf(address)": {
        "details": "See {IERC721-balanceOf}."
      },
      "getApproved(uint256)": {
        "details": "See {IERC721-getApproved}."
      },
      "getRoleAdmin(bytes32)": {
        "details": "Returns the admin role that controls `role`. See {grantRole} and {revokeRole}. To change a role's admin, use {_setRoleAdmin}."
      },
      "grantRole(bytes32,address)": {
        "details": "Grants `role` to `account`. If `account` had not been already granted `role`, emits a {RoleGranted} event. Requirements: - the caller must have ``role``'s admin role."
      },
      "hasRole(bytes32,address)": {
        "details": "Returns `true` if `account` has been granted `role`."
      },
      "isApprovedForAll(address,address)": {
        "details": "See {IERC721-isApprovedForAll}."
      },
      "name()": {
        "details": "See {IERC721Metadata-name}."
      },
      "onERC721Received(address,address,uint256,bytes)": {
        "details": "Whenever an {IERC721} `tokenId` token is transferred to this contract via {IERC721-safeTransferFrom} by `operator` from `from`, this function is called. It must return its Solidity selector to confirm the token transfer. If any other value is returned or the interface is not implemented by the recipient, the transfer will be reverted. The selector can be obtained in Solidity with `IERC721.onERC721Received.selector`."
      },
      "ownerOf(uint256)": {
        "details": "See {IERC721-ownerOf}."
      },
      "renounceRole(bytes32,address)": {
        "details": "Revokes `role` from the calling account. Roles are often managed via {grantRole} and {revokeRole}: this function's purpose is to provide a mechanism for accounts to lose their privileges if they are compromised (such as when a trusted device is misplaced). If the calling account had been granted `role`, emits a {RoleRevoked} event. Requirements: - the caller must be `account`."
      },
      "revokeRole(bytes32,address)": {
        "details": "Revokes `role` from `account`. If `account` had been granted `role`, emits a {RoleRevoked} event. Requirements: - the caller must have ``role``'s admin role."
      },
      "safeTransferFrom(address,address,uint256)": {
        "details": "See {IERC721-safeTransferFrom}."
      },
      "safeTransferFrom(address,address,uint256,bytes)": {
        "details": "See {IERC721-safeTransferFrom}."
      },
      "setApprovalForAll(address,bool)": {
        "details": "See {IERC721-setApprovalForAll}."
      },
      "symbol()": {
        "details": "See {IERC721Metadata-symbol}."
      },
      "tokenURI(uint256)": {
        "details": "See {IERC721Metadata-tokenURI}."
      },
      "transferFrom(address,address,uint256)": {
        "details": "See {IERC721-transferFrom}."
      }
    },
    "version": 1
  },
  "userdoc": {
    "kind": "user",
    "methods": {},
    "version": 1
  }
}