{
  "contractName": "BotHull",
  "abi": [
    {
      "inputs": [
        {
          "internalType": "address",
          "name": "_botPartContract",
          "type": "address"
        },
        {
          "internalType": "address",
          "name": "_metaTransactionForwarder",
          "type": "address"
        }
      ],
      "stateMutability": "nonpayable",
      "type": "constructor"
    },
    {
      "anonymous": false,
      "inputs": [
        {
          "indexed": true,
          "internalType": "address",
          "name": "owner",
          "type": "address"
        },
        {
          "indexed": true,
          "internalType": "address",
          "name": "approved",
          "type": "address"
        },
        {
          "indexed": true,
          "internalType": "uint256",
          "name": "tokenId",
          "type": "uint256"
        }
      ],
      "name": "Approval",
      "type": "event"
    },
    {
      "anonymous": false,
      "inputs": [
        {
          "indexed": true,
          "internalType": "address",
          "name": "owner",
          "type": "address"
        },
        {
          "indexed": true,
          "internalType": "address",
          "name": "operator",
          "type": "address"
        },
        {
          "indexed": false,
          "internalType": "bool",
          "name": "approved",
          "type": "bool"
        }
      ],
      "name": "ApprovalForAll",
      "type": "event"
    },
    {
      "anonymous": false,
      "inputs": [
        {
          "indexed": true,
          "internalType": "bytes32",
          "name": "role",
          "type": "bytes32"
        },
        {
          "indexed": true,
          "internalType": "bytes32",
          "name": "previousAdminRole",
          "type": "bytes32"
        },
        {
          "indexed": true,
          "internalType": "bytes32",
          "name": "newAdminRole",
          "type": "bytes32"
        }
      ],
      "name": "RoleAdminChanged",
      "type": "event"
    },
    {
      "anonymous": false,
      "inputs": [
        {
          "indexed": true,
          "internalType": "bytes32",
          "name": "role",
          "type": "bytes32"
        },
        {
          "indexed": true,
          "internalType": "address",
          "name": "account",
          "type": "address"
        },
        {
          "indexed": true,
          "internalType": "address",
          "name": "sender",
          "type": "address"
        }
      ],
      "name": "RoleGranted",
      "type": "event"
    },
    {
      "anonymous": false,
      "inputs": [
        {
          "indexed": true,
          "internalType": "bytes32",
          "name": "role",
          "type": "bytes32"
        },
        {
          "indexed": true,
          "internalType": "address",
          "name": "account",
          "type": "address"
        },
        {
          "indexed": true,
          "internalType": "address",
          "name": "sender",
          "type": "address"
        }
      ],
      "name": "RoleRevoked",
      "type": "event"
    },
    {
      "anonymous": false,
      "inputs": [
        {
          "indexed": true,
          "internalType": "address",
          "name": "from",
          "type": "address"
        },
        {
          "indexed": true,
          "internalType": "address",
          "name": "to",
          "type": "address"
        },
        {
          "indexed": true,
          "internalType": "uint256",
          "name": "tokenId",
          "type": "uint256"
        }
      ],
      "name": "Transfer",
      "type": "event"
    },
    {
      "inputs": [],
      "name": "DEFAULT_ADMIN_ROLE",
      "outputs": [
        {
          "internalType": "bytes32",
          "name": "",
          "type": "bytes32"
        }
      ],
      "stateMutability": "view",
      "type": "function",
      "constant": true
    },
    {
      "inputs": [],
      "name": "ERC777_INTERFACE",
      "outputs": [
        {
          "internalType": "bytes32",
          "name": "",
          "type": "bytes32"
        }
      ],
      "stateMutability": "view",
      "type": "function",
      "constant": true
    },
    {
      "inputs": [],
      "name": "MAX_PART_SLOTS",
      "outputs": [
        {
          "internalType": "uint8",
          "name": "",
          "type": "uint8"
        }
      ],
      "stateMutability": "view",
      "type": "function",
      "constant": true
    },
    {
      "inputs": [],
      "name": "MINTER_ROLE",
      "outputs": [
        {
          "internalType": "bytes32",
          "name": "",
          "type": "bytes32"
        }
      ],
      "stateMutability": "view",
      "type": "function",
      "constant": true
    },
    {
      "inputs": [
        {
          "internalType": "address",
          "name": "to",
          "type": "address"
        },
        {
          "internalType": "uint256",
          "name": "tokenId",
          "type": "uint256"
        }
      ],
      "name": "approve",
      "outputs": [],
      "stateMutability": "nonpayable",
      "type": "function"
    },
    {
      "inputs": [
        {
          "internalType": "address",
          "name": "owner",
          "type": "address"
        }
      ],
      "name": "balanceOf",
      "outputs": [
        {
          "internalType": "uint256",
          "name": "",
          "type": "uint256"
        }
      ],
      "stateMutability": "view",
      "type": "function",
      "constant": true
    },
    {
      "inputs": [
        {
          "internalType": "uint256",
          "name": "tokenId",
          "type": "uint256"
        }
      ],
      "name": "getApproved",
      "outputs": [
        {
          "internalType": "address",
          "name": "",
          "type": "address"
        }
      ],
      "stateMutability": "view",
      "type": "function",
      "constant": true
    },
    {
      "inputs": [
        {
          "internalType": "bytes32",
          "name": "role",
          "type": "bytes32"
        }
      ],
      "name": "getRoleAdmin",
      "outputs": [
        {
          "internalType": "bytes32",
          "name": "",
          "type": "bytes32"
        }
      ],
      "stateMutability": "view",
      "type": "function",
      "constant": true
    },
    {
      "inputs": [
        {
          "internalType": "bytes32",
          "name": "role",
          "type": "bytes32"
        },
        {
          "internalType": "address",
          "name": "account",
          "type": "address"
        }
      ],
      "name": "grantRole",
      "outputs": [],
      "stateMutability": "nonpayable",
      "type": "function"
    },
    {
      "inputs": [
        {
          "internalType": "bytes32",
          "name": "role",
          "type": "bytes32"
        },
        {
          "internalType": "address",
          "name": "account",
          "type": "address"
        }
      ],
      "name": "hasRole",
      "outputs": [
        {
          "internalType": "bool",
          "name": "",
          "type": "bool"
        }
      ],
      "stateMutability": "view",
      "type": "function",
      "constant": true
    },
    {
      "inputs": [
        {
          "internalType": "address",
          "name": "owner",
          "type": "address"
        },
        {
          "internalType": "address",
          "name": "operator",
          "type": "address"
        }
      ],
      "name": "isApprovedForAll",
      "outputs": [
        {
          "internalType": "bool",
          "name": "",
          "type": "bool"
        }
      ],
      "stateMutability": "view",
      "type": "function",
      "constant": true
    },
    {
      "inputs": [],
      "name": "metaTransactionForwarder",
      "outputs": [
        {
          "internalType": "address",
          "name": "",
          "type": "address"
        }
      ],
      "stateMutability": "view",
      "type": "function",
      "constant": true
    },
    {
      "inputs": [],
      "name": "name",
      "outputs": [
        {
          "internalType": "string",
          "name": "",
          "type": "string"
        }
      ],
      "stateMutability": "view",
      "type": "function",
      "constant": true
    },
    {
      "inputs": [
        {
          "internalType": "uint256",
          "name": "tokenId",
          "type": "uint256"
        }
      ],
      "name": "ownerOf",
      "outputs": [
        {
          "internalType": "address",
          "name": "",
          "type": "address"
        }
      ],
      "stateMutability": "view",
      "type": "function",
      "constant": true
    },
    {
      "inputs": [
        {
          "internalType": "uint256",
          "name": "",
          "type": "uint256"
        },
        {
          "internalType": "uint256",
          "name": "",
          "type": "uint256"
        }
      ],
      "name": "partSlots",
      "outputs": [
        {
          "internalType": "uint256",
          "name": "",
          "type": "uint256"
        }
      ],
      "stateMutability": "view",
      "type": "function",
      "constant": true
    },
    {
      "inputs": [
        {
          "internalType": "bytes32",
          "name": "role",
          "type": "bytes32"
        },
        {
          "internalType": "address",
          "name": "account",
          "type": "address"
        }
      ],
      "name": "renounceRole",
      "outputs": [],
      "stateMutability": "nonpayable",
      "type": "function"
    },
    {
      "inputs": [
        {
          "internalType": "bytes32",
          "name": "role",
          "type": "bytes32"
        },
        {
          "internalType": "address",
          "name": "account",
          "type": "address"
        }
      ],
      "name": "revokeRole",
      "outputs": [],
      "stateMutability": "nonpayable",
      "type": "function"
    },
    {
      "inputs": [
        {
          "internalType": "address",
          "name": "from",
          "type": "address"
        },
        {
          "internalType": "address",
          "name": "to",
          "type": "address"
        },
        {
          "internalType": "uint256",
          "name": "tokenId",
          "type": "uint256"
        }
      ],
      "name": "safeTransferFrom",
      "outputs": [],
      "stateMutability": "nonpayable",
      "type": "function"
    },
    {
      "inputs": [
        {
          "internalType": "address",
          "name": "from",
          "type": "address"
        },
        {
          "internalType": "address",
          "name": "to",
          "type": "address"
        },
        {
          "internalType": "uint256",
          "name": "tokenId",
          "type": "uint256"
        },
        {
          "internalType": "bytes",
          "name": "_data",
          "type": "bytes"
        }
      ],
      "name": "safeTransferFrom",
      "outputs": [],
      "stateMutability": "nonpayable",
      "type": "function"
    },
    {
      "inputs": [
        {
          "internalType": "address",
          "name": "operator",
          "type": "address"
        },
        {
          "internalType": "bool",
          "name": "approved",
          "type": "bool"
        }
      ],
      "name": "setApprovalForAll",
      "outputs": [],
      "stateMutability": "nonpayable",
      "type": "function"
    },
    {
      "inputs": [],
      "name": "symbol",
      "outputs": [
        {
          "internalType": "string",
          "name": "",
          "type": "string"
        }
      ],
      "stateMutability": "view",
      "type": "function",
      "constant": true
    },
    {
      "inputs": [
        {
          "internalType": "uint256",
          "name": "tokenId",
          "type": "uint256"
        }
      ],
      "name": "tokenURI",
      "outputs": [
        {
          "internalType": "string",
          "name": "",
          "type": "string"
        }
      ],
      "stateMutability": "view",
      "type": "function",
      "constant": true
    },
    {
      "inputs": [
        {
          "internalType": "address",
          "name": "from",
          "type": "address"
        },
        {
          "internalType": "address",
          "name": "to",
          "type": "address"
        },
        {
          "internalType": "uint256",
          "name": "tokenId",
          "type": "uint256"
        }
      ],
      "name": "transferFrom",
      "outputs": [],
      "stateMutability": "nonpayable",
      "type": "function"
    },
    {
      "inputs": [
        {
          "internalType": "address",
          "name": "player",
          "type": "address"
        }
      ],
      "name": "mintHull",
      "outputs": [
        {
          "internalType": "uint256",
          "name": "",
          "type": "uint256"
        }
      ],
      "stateMutability": "nonpayable",
      "type": "function"
    },
    {
      "inputs": [
        {
          "internalType": "uint256",
          "name": "botHullID",
          "type": "uint256"
        },
        {
          "internalType": "uint8",
          "name": "slotID",
          "type": "uint8"
        },
        {
          "internalType": "uint256",
          "name": "part",
          "type": "uint256"
        },
        {
          "internalType": "address",
          "name": "from",
          "type": "address"
        }
      ],
      "name": "fillSlot",
      "outputs": [],
      "stateMutability": "nonpayable",
      "type": "function"
    },
    {
      "inputs": [
        {
          "internalType": "uint256",
          "name": "botHullID",
          "type": "uint256"
        }
      ],
      "name": "getPartSlots",
      "outputs": [
        {
          "internalType": "uint256[4]",
          "name": "",
          "type": "uint256[4]"
        }
      ],
      "stateMutability": "view",
      "type": "function",
      "constant": true
    },
    {
      "inputs": [
        {
          "internalType": "uint256[]",
          "name": "botHullIDs",
          "type": "uint256[]"
        },
        {
          "internalType": "uint8[]",
          "name": "slotIDs",
          "type": "uint8[]"
        },
        {
          "internalType": "uint256[]",
          "name": "parts",
          "type": "uint256[]"
        },
        {
          "internalType": "address",
          "name": "from",
          "type": "address"
        }
      ],
      "name": "batchFillSlot",
      "outputs": [],
      "stateMutability": "nonpayable",
      "type": "function"
    },
    {
      "inputs": [
        {
          "internalType": "uint256",
          "name": "botHullID",
          "type": "uint256"
        },
        {
          "internalType": "uint8",
          "name": "slotID",
          "type": "uint8"
        },
        {
          "internalType": "address",
          "name": "from",
          "type": "address"
        }
      ],
      "name": "emptySlot",
      "outputs": [],
      "stateMutability": "nonpayable",
      "type": "function"
    },
    {
      "inputs": [
        {
          "internalType": "uint256[]",
          "name": "botHullIDs",
          "type": "uint256[]"
        },
        {
          "internalType": "uint8[]",
          "name": "slotIDs",
          "type": "uint8[]"
        },
        {
          "internalType": "address",
          "name": "from",
          "type": "address"
        }
      ],
      "name": "batchEmptySlot",
      "outputs": [],
      "stateMutability": "nonpayable",
      "type": "function"
    },
    {
      "inputs": [
        {
          "internalType": "address",
          "name": "operator",
          "type": "address"
        },
        {
          "internalType": "address",
          "name": "from",
          "type": "address"
        },
        {
          "internalType": "uint256",
          "name": "tokenId",
          "type": "uint256"
        },
        {
          "internalType": "bytes",
          "name": "data",
          "type": "bytes"
        }
      ],
      "name": "onERC721Received",
      "outputs": [
        {
          "internalType": "bytes4",
          "name": "",
          "type": "bytes4"
        }
      ],
      "stateMutability": "nonpayable",
      "type": "function"
    },
    {
      "inputs": [
        {
          "internalType": "bytes4",
          "name": "interfaceId",
          "type": "bytes4"
        }
      ],
      "name": "supportsInterface",
      "outputs": [
        {
          "internalType": "bool",
          "name": "",
          "type": "bool"
        }
      ],
      "stateMutability": "view",
      "type": "function",
      "constant": true
    }
  ],
  "bytecode": "0x60806040523480156200001157600080fd5b5060405162002dd738038062002dd7833981016040819052620000349162000375565b6040805180820182526007815266109bdd121d5b1b60ca1b602080830191825283518085019094526002845261084960f31b9084015281519192916200007d91600091620002b2565b50805162000093906001906020840190620002b2565b50506040516329965a1d60e01b815230600482018190527fac7fbab5f54a3ca8194167523c6753bfeb96a445279294b6125b68cce217705460248301526044820152731820a4b7618bde71dce8cdc73aab6c95905fad2491506329965a1d90606401600060405180830381600087803b1580156200011057600080fd5b505af115801562000125573d6000803e3d6000fd5b5050600780546001600160a01b0319166001600160a01b038616179055506200017290507f9f2df0fed2c77648de5860a4cc508cd0818c85b8b8a1ab4ceeef8d981c8956a66000620001b3565b6200017f600080620001b3565b6200018c600033620001fe565b600880546001600160a01b0319166001600160a01b039290921691909117905550620003e9565b600082815260066020526040808220600101805490849055905190918391839186917fbd79b86ffe0ab8e8776151514217cd7cacd52c909f66475c3af44e129f0b00ff9190a4505050565b6200020a82826200020e565b5050565b60008281526006602090815260408083206001600160a01b038516845290915290205460ff166200020a5760008281526006602090815260408083206001600160a01b03851684529091529020805460ff191660011790556200026e3390565b6001600160a01b0316816001600160a01b0316837f2f8788117e7eff1d82e926ec794901d17c78024a50270940304540a733656f0d60405160405180910390a45050565b828054620002c090620003ac565b90600052602060002090601f016020900481019282620002e457600085556200032f565b82601f10620002ff57805160ff19168380011785556200032f565b828001600101855582156200032f579182015b828111156200032f57825182559160200191906001019062000312565b506200033d92915062000341565b5090565b5b808211156200033d576000815560010162000342565b80516001600160a01b03811681146200037057600080fd5b919050565b6000806040838503121562000388578182fd5b620003938362000358565b9150620003a36020840162000358565b90509250929050565b600181811c90821680620003c157607f821691505b60208210811415620003e357634e487b7160e01b600052602260045260246000fd5b50919050565b6129de80620003f96000396000f3fe608060405234801561001057600080fd5b50600436106101e55760003560e01c806370a082311161010f578063bc9d92e8116100a2578063d547741f11610071578063d547741f1461049f578063e985e9c5146104b2578063fa22eed4146104ee578063fa432ea81461050157600080fd5b8063bc9d92e81461043f578063be24a60314610452578063c87b56dd14610465578063d53913931461047857600080fd5b8063a22cb465116100de578063a22cb465146103df578063a9662c0c146103f2578063b6f7e4a81461040c578063b88d4fde1461042c57600080fd5b806370a082311461038357806391d148541461039657806395d89b41146103cf578063a217fddf146103d757600080fd5b8063248a9ca31161018757806342842e0e1161015657806342842e0e146103375780634458455b1461034a5780636352211e1461035d57806367621f991461037057600080fd5b8063248a9ca3146102b95780632f2ff15d146102ea57806336568abe146102fd5780633a2041ec1461031057600080fd5b8063095ea7b3116101c3578063095ea7b314610252578063150b7a021461026757806318f428d51461029357806323b872dd146102a657600080fd5b806301ffc9a7146101ea57806306fdde0314610212578063081812fc14610227575b600080fd5b6101fd6101f83660046125da565b610514565b60405190151581526020015b60405180910390f35b61021a610581565b604051610209919061281c565b61023a61023536600461259e565b610613565b6040516001600160a01b039091168152602001610209565b610265610260366004612448565b6106be565b005b61027a6102753660046122a4565b6107f0565b6040516001600160e01b03199091168152602001610209565b60085461023a906001600160a01b031681565b6102656102b4366004612264565b610994565b6102dc6102c736600461259e565b60009081526006602052604090206001015490565b604051908152602001610209565b6102656102f83660046125b6565b610a1b565b61026561030b3660046125b6565b610a41565b6102dc7fac7fbab5f54a3ca8194167523c6753bfeb96a445279294b6125b68cce217705481565b610265610345366004612264565b610acd565b610265610358366004612672565b610ae8565b61023a61036b36600461259e565b610c40565b61026561037e366004612633565b610ccb565b6102dc6103913660046121f4565b610d36565b6101fd6103a43660046125b6565b60009182526006602090815260408084206001600160a01b0393909316845291905290205460ff1690565b61021a610dd0565b6102dc600081565b6102656103ed366004612417565b610ddf565b6103fa600481565b60405160ff9091168152602001610209565b61041f61041a36600461259e565b610ea4565b60405161020991906127eb565b61026561043a36600461233e565b610eec565b6102dc61044d366004612612565b610f74565b6102656104603660046124f4565b610f99565b61021a61047336600461259e565b61108e565b6102dc7f9f2df0fed2c77648de5860a4cc508cd0818c85b8b8a1ab4ceeef8d981c8956a681565b6102656104ad3660046125b6565b611184565b6101fd6104c036600461222c565b6001600160a01b03918216600090815260056020908152604080832093909416825291909152205460ff1690565b6102656104fc366004612473565b6111aa565b6102dc61050f3660046121f4565b61126a565b60006001600160e01b03198216630a85bd0160e11b148061055d57506001600160e01b031982167e23de2900000000000000000000000000000000000000000000000000000000145b8061056c575061056c826112c5565b8061057b575061057b82611360565b92915050565b606060008054610590906128d4565b80601f01602080910402602001604051908101604052809291908181526020018280546105bc906128d4565b80156106095780601f106105de57610100808354040283529160200191610609565b820191906000526020600020905b8154815290600101906020018083116105ec57829003601f168201915b5050505050905090565b6000818152600260205260408120546001600160a01b03166106a25760405162461bcd60e51b815260206004820152602c60248201527f4552433732313a20617070726f76656420717565727920666f72206e6f6e657860448201527f697374656e7420746f6b656e000000000000000000000000000000000000000060648201526084015b60405180910390fd5b506000908152600460205260409020546001600160a01b031690565b60006106c982610c40565b9050806001600160a01b0316836001600160a01b031614156107535760405162461bcd60e51b815260206004820152602160248201527f4552433732313a20617070726f76616c20746f2063757272656e74206f776e6560448201527f72000000000000000000000000000000000000000000000000000000000000006064820152608401610699565b336001600160a01b038216148061076f575061076f81336104c0565b6107e15760405162461bcd60e51b815260206004820152603860248201527f4552433732313a20617070726f76652063616c6c6572206973206e6f74206f7760448201527f6e6572206e6f7220617070726f76656420666f7220616c6c00000000000000006064820152608401610699565b6107eb838361139e565b505050565b60006001600160a01b0386163014156108115750630a85bd0160e11b61098b565b6007546001600160a01b0316331461082857600080fd5b6001600160a01b0386161561083c57600080fd5b6021821461084957600080fd5b600061088a84848080601f01602080910402602001604051908101604052809392919081815260200183838082843760009201829052509250611419915050565b905060006108d085858080601f0160208091040260200160405190810160405280939291908181526020018383808284376000920191909152506020925061147f915050565b9050866001600160a01b03166108e583610c40565b6001600160a01b0316146108f857600080fd5b600460ff82161061090857600080fd5b6000828152600a6020526040902060ff82166004811061093857634e487b7160e01b600052603260045260246000fd5b01541561094a5761094a8282896114e5565b6000828152600a60205260409020869060ff83166004811061097c57634e487b7160e01b600052603260045260246000fd5b015550630a85bd0160e11b9150505b95945050505050565b61099e33826115d0565b610a105760405162461bcd60e51b815260206004820152603160248201527f4552433732313a207472616e736665722063616c6c6572206973206e6f74206f60448201527f776e6572206e6f7220617070726f7665640000000000000000000000000000006064820152608401610699565b6107eb8383836116d8565b600082815260066020526040902060010154610a3781336118b2565b6107eb8383611932565b6001600160a01b0381163314610abf5760405162461bcd60e51b815260206004820152602f60248201527f416363657373436f6e74726f6c3a2063616e206f6e6c792072656e6f756e636560448201527f20726f6c657320666f722073656c6600000000000000000000000000000000006064820152608401610699565b610ac982826119d4565b5050565b6107eb83838360405180602001604052806000815250610eec565b600460ff841610610af857600080fd5b336001600160a01b0382161480610b1957506008546001600160a01b031633145b610b2257600080fd5b806001600160a01b0316610b3585610c40565b6001600160a01b031614610b4857600080fd5b6007546040517f6352211e000000000000000000000000000000000000000000000000000000008152600481018490526001600160a01b03838116921690636352211e9060240160206040518083038186803b158015610ba757600080fd5b505afa158015610bbb573d6000803e3d6000fd5b505050506040513d601f19601f82011682018060405250810190610bdf9190612210565b6001600160a01b031614610bf257600080fd5b6000848152600a6020526040902060ff841660048110610c2257634e487b7160e01b600052603260045260246000fd5b015415610c2e57600080fd5b610c3a84848484611a57565b50505050565b6000818152600260205260408120546001600160a01b03168061057b5760405162461bcd60e51b815260206004820152602960248201527f4552433732313a206f776e657220717565727920666f72206e6f6e657869737460448201527f656e7420746f6b656e00000000000000000000000000000000000000000000006064820152608401610699565b600460ff831610610cdb57600080fd5b336001600160a01b0382161480610cfc57506008546001600160a01b031633145b610d0557600080fd5b806001600160a01b0316610d1884610c40565b6001600160a01b031614610d2b57600080fd5b6107eb8383836114e5565b60006001600160a01b038216610db45760405162461bcd60e51b815260206004820152602a60248201527f4552433732313a2062616c616e636520717565727920666f7220746865207a6560448201527f726f2061646472657373000000000000000000000000000000000000000000006064820152608401610699565b506001600160a01b031660009081526003602052604090205490565b606060018054610590906128d4565b6001600160a01b038216331415610e385760405162461bcd60e51b815260206004820152601960248201527f4552433732313a20617070726f766520746f2063616c6c6572000000000000006044820152606401610699565b3360008181526005602090815260408083206001600160a01b03871680855290835292819020805460ff191686151590811790915590519081529192917f17307eab39ab6107e8899845ad3d59bd9653f200f220920489ca2b5937696c31910160405180910390a35050565b610eac612176565b6000828152600a602052604090819020815160808101928390529160049082845b815481526020019060010190808311610ecd5750505050509050919050565b610ef633836115d0565b610f685760405162461bcd60e51b815260206004820152603160248201527f4552433732313a207472616e736665722063616c6c6572206973206e6f74206f60448201527f776e6572206e6f7220617070726f7665640000000000000000000000000000006064820152608401610699565b610c3a84848484611b16565b600a6020528160005260406000208160048110610f9057600080fd5b01549150829050565b336001600160a01b0382161480610fba57506008546001600160a01b031633145b610fc357600080fd5b858414610fcf57600080fd5b838214610fdb57600080fd5b60005b868110156110845761107288888381811061100957634e487b7160e01b600052603260045260246000fd5b9050602002013587878481811061103057634e487b7160e01b600052603260045260246000fd5b905060200201602081019061104591906126b9565b86868581811061106557634e487b7160e01b600052603260045260246000fd5b9050602002013585610ae8565b8061107c81612909565b915050610fde565b5050505050505050565b6000818152600260205260409020546060906001600160a01b031661111b5760405162461bcd60e51b815260206004820152602f60248201527f4552433732314d657461646174613a2055524920717565727920666f72206e6f60448201527f6e6578697374656e7420746f6b656e00000000000000000000000000000000006064820152608401610699565b600061113260408051602081019091526000815290565b90506000815111611152576040518060200160405280600081525061117d565b8061115c84611b9f565b60405160200161116d9291906126ff565b6040516020818303038152906040525b9392505050565b6000828152600660205260409020600101546111a081336118b2565b6107eb83836119d4565b8382146111b657600080fd5b336001600160a01b03821614806111d757506008546001600160a01b031633145b6111e057600080fd5b60005b848110156112625761125086868381811061120e57634e487b7160e01b600052603260045260246000fd5b9050602002013585858481811061123557634e487b7160e01b600052603260045260246000fd5b905060200201602081019061124a91906126b9565b84610ccb565b8061125a81612909565b9150506111e3565b505050505050565b60007f9f2df0fed2c77648de5860a4cc508cd0818c85b8b8a1ab4ceeef8d981c8956a661129781336118b2565b6112a5600980546001019055565b60006112b060095490565b90506112bc8482611cb9565b91505b50919050565b60006001600160e01b031982167f80ac58cd00000000000000000000000000000000000000000000000000000000148061132857506001600160e01b031982167f5b5e139f00000000000000000000000000000000000000000000000000000000145b8061057b57507f01ffc9a7000000000000000000000000000000000000000000000000000000006001600160e01b031983161461057b565b60006001600160e01b031982167f7965db0b00000000000000000000000000000000000000000000000000000000148061057b575061057b826112c5565b6000818152600460205260409020805473ffffffffffffffffffffffffffffffffffffffff19166001600160a01b03841690811790915581906113e082610c40565b6001600160a01b03167f8c5be1e5ebec7d5bd14f71427d1e84f3dd0314c0f7b2291e5b200ac8c7c3b92560405160405180910390a45050565b600061142682602061282f565b835110156114765760405162461bcd60e51b815260206004820152601560248201527f746f55696e743235365f6f75744f66426f756e647300000000000000000000006044820152606401610699565b50016020015190565b600061148c82600161282f565b835110156114dc5760405162461bcd60e51b815260206004820152601360248201527f746f55696e74385f6f75744f66426f756e6473000000000000000000000000006044820152606401610699565b50016001015190565b6007546000848152600a602052604090206001600160a01b03909116906342842e0e903090849060ff87166004811061152e57634e487b7160e01b600052603260045260246000fd5b01546040516001600160e01b031960e086901b1681526001600160a01b0393841660048201529290911660248301526044820152606401600060405180830381600087803b15801561157f57600080fd5b505af1158015611593573d6000803e3d6000fd5b5050506000848152600a6020526040812090915060ff8416600481106115c957634e487b7160e01b600052603260045260246000fd5b0155505050565b6000818152600260205260408120546001600160a01b031661165a5760405162461bcd60e51b815260206004820152602c60248201527f4552433732313a206f70657261746f7220717565727920666f72206e6f6e657860448201527f697374656e7420746f6b656e00000000000000000000000000000000000000006064820152608401610699565b600061166583610c40565b9050806001600160a01b0316846001600160a01b031614806116a05750836001600160a01b031661169584610613565b6001600160a01b0316145b806116d057506001600160a01b0380821660009081526005602090815260408083209388168352929052205460ff165b949350505050565b826001600160a01b03166116eb82610c40565b6001600160a01b0316146117675760405162461bcd60e51b815260206004820152602960248201527f4552433732313a207472616e73666572206f6620746f6b656e2074686174206960448201527f73206e6f74206f776e00000000000000000000000000000000000000000000006064820152608401610699565b6001600160a01b0382166117e25760405162461bcd60e51b8152602060048201526024808201527f4552433732313a207472616e7366657220746f20746865207a65726f2061646460448201527f72657373000000000000000000000000000000000000000000000000000000006064820152608401610699565b6117ed60008261139e565b6001600160a01b038316600090815260036020526040812080546001929061181690849061287a565b90915550506001600160a01b038216600090815260036020526040812080546001929061184490849061282f565b9091555050600081815260026020526040808220805473ffffffffffffffffffffffffffffffffffffffff19166001600160a01b0386811691821790925591518493918716917fddf252ad1be2c89b69c2b068fc378daa952ba7f163c4a11628f55a4df523b3ef91a4505050565b60008281526006602090815260408083206001600160a01b038516845290915290205460ff16610ac9576118f0816001600160a01b03166014611e08565b6118fb836020611e08565b60405160200161190c92919061272e565b60408051601f198184030181529082905262461bcd60e51b82526106999160040161281c565b60008281526006602090815260408083206001600160a01b038516845290915290205460ff16610ac95760008281526006602090815260408083206001600160a01b03851684529091529020805460ff191660011790556119903390565b6001600160a01b0316816001600160a01b0316837f2f8788117e7eff1d82e926ec794901d17c78024a50270940304540a733656f0d60405160405180910390a45050565b60008281526006602090815260408083206001600160a01b038516845290915290205460ff1615610ac95760008281526006602090815260408083206001600160a01b0385168085529252808320805460ff1916905551339285917ff6391f5c32d9c69d2a47ea670b442974b53935d1edc7fd64eb21e047a839171b9190a45050565b6007546040517f42842e0e0000000000000000000000000000000000000000000000000000000081526001600160a01b03838116600483015230602483015260448201859052909116906342842e0e90606401600060405180830381600087803b158015611ac457600080fd5b505af1158015611ad8573d6000803e3d6000fd5b5050506000858152600a6020526040902083915060ff851660048110611b0e57634e487b7160e01b600052603260045260246000fd5b015550505050565b611b218484846116d8565b611b2d84848484612013565b610c3a5760405162461bcd60e51b815260206004820152603260248201527f4552433732313a207472616e7366657220746f206e6f6e20455243373231526560448201527f63656976657220696d706c656d656e74657200000000000000000000000000006064820152608401610699565b606081611bc35750506040805180820190915260018152600360fc1b602082015290565b8160005b8115611bed5780611bd781612909565b9150611be69050600a83612847565b9150611bc7565b60008167ffffffffffffffff811115611c1657634e487b7160e01b600052604160045260246000fd5b6040519080825280601f01601f191660200182016040528015611c40576020820181803683370190505b5090505b84156116d057611c5560018361287a565b9150611c62600a86612924565b611c6d90603061282f565b60f81b818381518110611c9057634e487b7160e01b600052603260045260246000fd5b60200101906001600160f81b031916908160001a905350611cb2600a86612847565b9450611c44565b6001600160a01b038216611d0f5760405162461bcd60e51b815260206004820181905260248201527f4552433732313a206d696e7420746f20746865207a65726f20616464726573736044820152606401610699565b6000818152600260205260409020546001600160a01b031615611d745760405162461bcd60e51b815260206004820152601c60248201527f4552433732313a20746f6b656e20616c7265616479206d696e746564000000006044820152606401610699565b6001600160a01b0382166000908152600360205260408120805460019290611d9d90849061282f565b9091555050600081815260026020526040808220805473ffffffffffffffffffffffffffffffffffffffff19166001600160a01b03861690811790915590518392907fddf252ad1be2c89b69c2b068fc378daa952ba7f163c4a11628f55a4df523b3ef908290a45050565b60606000611e1783600261285b565b611e2290600261282f565b67ffffffffffffffff811115611e4857634e487b7160e01b600052604160045260246000fd5b6040519080825280601f01601f191660200182016040528015611e72576020820181803683370190505b509050600360fc1b81600081518110611e9b57634e487b7160e01b600052603260045260246000fd5b60200101906001600160f81b031916908160001a9053507f780000000000000000000000000000000000000000000000000000000000000081600181518110611ef457634e487b7160e01b600052603260045260246000fd5b60200101906001600160f81b031916908160001a9053506000611f1884600261285b565b611f2390600161282f565b90505b6001811115611fc4577f303132333435363738396162636465660000000000000000000000000000000085600f1660108110611f7257634e487b7160e01b600052603260045260246000fd5b1a60f81b828281518110611f9657634e487b7160e01b600052603260045260246000fd5b60200101906001600160f81b031916908160001a90535060049490941c93611fbd816128bd565b9050611f26565b50831561117d5760405162461bcd60e51b815260206004820181905260248201527f537472696e67733a20686578206c656e67746820696e73756666696369656e746044820152606401610699565b60006001600160a01b0384163b1561216b57604051630a85bd0160e11b81526001600160a01b0385169063150b7a02906120579033908990889088906004016127af565b602060405180830381600087803b15801561207157600080fd5b505af19250505080156120a1575060408051601f3d908101601f1916820190925261209e918101906125f6565b60015b612151573d8080156120cf576040519150601f19603f3d011682016040523d82523d6000602084013e6120d4565b606091505b5080516121495760405162461bcd60e51b815260206004820152603260248201527f4552433732313a207472616e7366657220746f206e6f6e20455243373231526560448201527f63656976657220696d706c656d656e74657200000000000000000000000000006064820152608401610699565b805181602001fd5b6001600160e01b031916630a85bd0160e11b1490506116d0565b506001949350505050565b60405180608001604052806004906020820280368337509192915050565b60008083601f8401126121a5578081fd5b50813567ffffffffffffffff8111156121bc578182fd5b6020830191508360208260051b85010111156121d757600080fd5b9250929050565b803560ff811681146121ef57600080fd5b919050565b600060208284031215612205578081fd5b813561117d8161297a565b600060208284031215612221578081fd5b815161117d8161297a565b6000806040838503121561223e578081fd5b82356122498161297a565b915060208301356122598161297a565b809150509250929050565b600080600060608486031215612278578081fd5b83356122838161297a565b925060208401356122938161297a565b929592945050506040919091013590565b6000806000806000608086880312156122bb578081fd5b85356122c68161297a565b945060208601356122d68161297a565b935060408601359250606086013567ffffffffffffffff808211156122f9578283fd5b818801915088601f83011261230c578283fd5b81358181111561231a578384fd5b89602082850101111561232b578384fd5b9699959850939650602001949392505050565b60008060008060808587031215612353578384fd5b843561235e8161297a565b9350602085013561236e8161297a565b925060408501359150606085013567ffffffffffffffff80821115612391578283fd5b818701915087601f8301126123a4578283fd5b8135818111156123b6576123b6612964565b604051601f8201601f19908116603f011681019083821181831017156123de576123de612964565b816040528281528a60208487010111156123f6578586fd5b82602086016020830137918201602001949094529598949750929550505050565b60008060408385031215612429578182fd5b82356124348161297a565b915060208301358015158114612259578182fd5b6000806040838503121561245a578182fd5b82356124658161297a565b946020939093013593505050565b60008060008060006060868803121561248a578081fd5b853567ffffffffffffffff808211156124a1578283fd5b6124ad89838a01612194565b909750955060208801359150808211156124c5578283fd5b506124d288828901612194565b90945092505060408601356124e68161297a565b809150509295509295909350565b60008060008060008060006080888a03121561250e578485fd5b873567ffffffffffffffff80821115612525578687fd5b6125318b838c01612194565b909950975060208a0135915080821115612549578687fd5b6125558b838c01612194565b909750955060408a013591508082111561256d578384fd5b5061257a8a828b01612194565b909450925050606088013561258e8161297a565b8091505092959891949750929550565b6000602082840312156125af578081fd5b5035919050565b600080604083850312156125c8578182fd5b8235915060208301356122598161297a565b6000602082840312156125eb578081fd5b813561117d81612992565b600060208284031215612607578081fd5b815161117d81612992565b60008060408385031215612624578182fd5b50508035926020909101359150565b600080600060608486031215612647578081fd5b83359250612657602085016121de565b915060408401356126678161297a565b809150509250925092565b60008060008060808587031215612687578182fd5b84359350612697602086016121de565b92506040850135915060608501356126ae8161297a565b939692955090935050565b6000602082840312156126ca578081fd5b61117d826121de565b600081518084526126eb816020860160208601612891565b601f01601f19169290920160200192915050565b60008351612711818460208801612891565b835190830190612725818360208801612891565b01949350505050565b7f416363657373436f6e74726f6c3a206163636f756e7420000000000000000000815260008351612766816017850160208801612891565b7f206973206d697373696e6720726f6c652000000000000000000000000000000060179184019182015283516127a3816028840160208801612891565b01602801949350505050565b60006001600160a01b038087168352808616602084015250836040830152608060608301526127e160808301846126d3565b9695505050505050565b60808101818360005b60048110156128135781518352602092830192909101906001016127f4565b50505092915050565b60208152600061117d60208301846126d3565b6000821982111561284257612842612938565b500190565b6000826128565761285661294e565b500490565b600081600019048311821515161561287557612875612938565b500290565b60008282101561288c5761288c612938565b500390565b60005b838110156128ac578181015183820152602001612894565b83811115610c3a5750506000910152565b6000816128cc576128cc612938565b506000190190565b600181811c908216806128e857607f821691505b602082108114156112bf57634e487b7160e01b600052602260045260246000fd5b600060001982141561291d5761291d612938565b5060010190565b6000826129335761293361294e565b500690565b634e487b7160e01b600052601160045260246000fd5b634e487b7160e01b600052601260045260246000fd5b634e487b7160e01b600052604160045260246000fd5b6001600160a01b038116811461298f57600080fd5b50565b6001600160e01b03198116811461298f57600080fdfea2646970667358221220c2023639630581e255f88d1a0f0a27356e4d39ed362eec73c803cacd117c210464736f6c63430008040033",
  "immutableReferences": {},
  "source": "// SPDX-License-Identifier: MIT\npragma solidity ^0.8.0;\n\nimport \"@openzeppelin/contracts/access/AccessControl.sol\";\nimport \"@openzeppelin/contracts/token/ERC721/extensions/ERC721Enumerable.sol\";\nimport \"@openzeppelin/contracts/token/ERC721/IERC721Receiver.sol\";\nimport \"@openzeppelin/contracts/token/ERC777/IERC777.sol\";\nimport \"@openzeppelin/contracts/token/ERC777/IERC777Recipient.sol\";\nimport \"@openzeppelin/contracts/utils/Counters.sol\";\nimport \"@openzeppelin/contracts/utils/introspection/ERC165Checker.sol\";\nimport \"@openzeppelin/contracts/utils/introspection/IERC1820Registry.sol\";\nimport \"solidity-bytes-utils/contracts/BytesLib.sol\";\nimport \"./BotPart.sol\";\n\ncontract BotHull is ERC721, IERC721Receiver, AccessControl {\n  using Counters for Counters.Counter;\n\n  IERC1820Registry private constant _ERC1820_REGISTRY = IERC1820Registry(0x1820a4B7618BdE71Dce8cdc73aAB6C95905faD24);\n\n  address private botPartContract;\n  address public metaTransactionForwarder;\n\n  bytes32 public constant ERC777_INTERFACE = keccak256(\"ERC777Token\");\n  bytes32 public constant MINTER_ROLE = keccak256(\"MINTER_ROLE\");\n\n  Counters.Counter private _tokenIds;\n\n  uint8 public constant MAX_PART_SLOTS = 4;\n\n\n  mapping(uint256 => uint256[MAX_PART_SLOTS]) public partSlots;\n\n  constructor(address _botPartContract, address _metaTransactionForwarder) ERC721(\"BotHull\", \"BH\") {\n    _ERC1820_REGISTRY.setInterfaceImplementer(address(this), 0xac7fbab5f54a3ca8194167523c6753bfeb96a445279294b6125b68cce2177054, address(this));\n\n    botPartContract = _botPartContract;\n    _setRoleAdmin(MINTER_ROLE, DEFAULT_ADMIN_ROLE);\n    _setRoleAdmin(DEFAULT_ADMIN_ROLE, DEFAULT_ADMIN_ROLE);\n    _setupRole(DEFAULT_ADMIN_ROLE, msg.sender);\n\n    metaTransactionForwarder = _metaTransactionForwarder;\n  }\n\n  function mintHull(address player) public onlyRole(MINTER_ROLE) returns (uint256) {\n    _tokenIds.increment();\n\n    uint256 newItemId = _tokenIds.current();\n    _mint(player, newItemId);\n\n    return newItemId;\n  }\n\n  function fillSlot(uint256 botHullID, uint8 slotID, uint256 part, address from) public {\n    require(slotID < MAX_PART_SLOTS);\n    require(msg.sender == from || msg.sender == metaTransactionForwarder);\n    require(ownerOf(botHullID) == from);\n    require(BotPart(botPartContract).ownerOf(part) == from);\n    require(partSlots[botHullID][slotID] == 0);\n\n    _fillSlot(botHullID, slotID, part, from);\n  }\n\n  function getPartSlots(uint256 botHullID) view public returns (uint256[4] memory){\n    return partSlots[botHullID];\n  }\n\n  function _fillSlot(uint256 botHullID, uint8 slotID, uint256 part, address from) private {\n    BotPart(botPartContract).safeTransferFrom(from, address(this), part);\n    partSlots[botHullID][slotID] = part;\n  }\n\n  function batchFillSlot(uint256[] calldata botHullIDs, uint8[] calldata slotIDs, uint256[] calldata parts, address from) public {\n    require(msg.sender == from || msg.sender == metaTransactionForwarder);\n    require(botHullIDs.length == slotIDs.length);\n    require(slotIDs.length == parts.length);\n\n    for(uint i = 0; i < botHullIDs.length; i++){\n      fillSlot(botHullIDs[i], slotIDs[i], parts[i], from);\n    }\n  }\n\n  function emptySlot(uint256 botHullID, uint8 slotID, address from) public {\n    require(slotID < MAX_PART_SLOTS);\n    require(msg.sender == from || msg.sender == metaTransactionForwarder);\n    require(ownerOf(botHullID) == from);\n\n    _emptySlot(botHullID, slotID, from);\n  }\n\n  function _emptySlot(uint256 botHullID, uint8 slotID, address from) private {\n    BotPart(botPartContract).safeTransferFrom(address(this), from, partSlots[botHullID][slotID]);\n    partSlots[botHullID][slotID] = 0;\n  }\n\n  function batchEmptySlot(uint256[] calldata botHullIDs, uint8[] calldata slotIDs, address from) public {\n    require(botHullIDs.length == slotIDs.length);\n    require(msg.sender == from || msg.sender == metaTransactionForwarder);\n\n    for(uint i = 0; i < botHullIDs.length; i++){\n      emptySlot(botHullIDs[i], slotIDs[i], from);\n    }\n  }\n\n  function onERC721Received(address operator, address from, uint256 tokenId, bytes calldata data) external override returns (bytes4){\n    if(operator == address(this)){\n      return IERC721Receiver.onERC721Received.selector;\n    }\n    require(msg.sender == botPartContract);\n    require(operator == address(0));\n    // 32 Bytes for BotHullID + 1 Byte for slotID\n    require(data.length== 32 + 1);\n    uint256 botHullID = BytesLib.toUint256(data, 0);\n    uint8 slotID = BytesLib.toUint8(data, 32);\n\n    require(ownerOf(botHullID) == from);\n    require(slotID < MAX_PART_SLOTS);\n\n    if(partSlots[botHullID][slotID] != 0){\n      _emptySlot(botHullID, slotID, from);\n    }\n    partSlots[botHullID][slotID] = tokenId;\n\n    return IERC721Receiver.onERC721Received.selector;\n  }\n\n  function supportsInterface(bytes4 interfaceId) public view virtual override(AccessControl, ERC721) returns (bool) {\n    return interfaceId == type(IERC721Receiver).interfaceId ||\n           interfaceId == type(IERC777Recipient).interfaceId ||\n            ERC721.supportsInterface(interfaceId) ||\n            AccessControl.supportsInterface(interfaceId);\n  }\n\n}\n\n",
  "sourcePath": "/home/zorro/git/blockchain__general/prototype/contracts/polygon/BotHull.sol",
  "compiler": {
    "name": "solc",
    "version": "0.8.4+commit.c7e474f2.Emscripten.clang"
  },
  "schemaVersion": "3.4.3",
  "updatedAt": "2021-08-26T20:31:35.239Z",
  "networkType": "ethereum",
  "devdoc": {
    "kind": "dev",
    "methods": {
      "approve(address,uint256)": {
        "details": "See {IERC721-approve}."
      },
      "balanceOf(address)": {
        "details": "See {IERC721-balanceOf}."
      },
      "getApproved(uint256)": {
        "details": "See {IERC721-getApproved}."
      },
      "getRoleAdmin(bytes32)": {
        "details": "Returns the admin role that controls `role`. See {grantRole} and {revokeRole}. To change a role's admin, use {_setRoleAdmin}."
      },
      "grantRole(bytes32,address)": {
        "details": "Grants `role` to `account`. If `account` had not been already granted `role`, emits a {RoleGranted} event. Requirements: - the caller must have ``role``'s admin role."
      },
      "hasRole(bytes32,address)": {
        "details": "Returns `true` if `account` has been granted `role`."
      },
      "isApprovedForAll(address,address)": {
        "details": "See {IERC721-isApprovedForAll}."
      },
      "name()": {
        "details": "See {IERC721Metadata-name}."
      },
      "onERC721Received(address,address,uint256,bytes)": {
        "details": "Whenever an {IERC721} `tokenId` token is transferred to this contract via {IERC721-safeTransferFrom} by `operator` from `from`, this function is called. It must return its Solidity selector to confirm the token transfer. If any other value is returned or the interface is not implemented by the recipient, the transfer will be reverted. The selector can be obtained in Solidity with `IERC721.onERC721Received.selector`."
      },
      "ownerOf(uint256)": {
        "details": "See {IERC721-ownerOf}."
      },
      "renounceRole(bytes32,address)": {
        "details": "Revokes `role` from the calling account. Roles are often managed via {grantRole} and {revokeRole}: this function's purpose is to provide a mechanism for accounts to lose their privileges if they are compromised (such as when a trusted device is misplaced). If the calling account had been granted `role`, emits a {RoleRevoked} event. Requirements: - the caller must be `account`."
      },
      "revokeRole(bytes32,address)": {
        "details": "Revokes `role` from `account`. If `account` had been granted `role`, emits a {RoleRevoked} event. Requirements: - the caller must have ``role``'s admin role."
      },
      "safeTransferFrom(address,address,uint256)": {
        "details": "See {IERC721-safeTransferFrom}."
      },
      "safeTransferFrom(address,address,uint256,bytes)": {
        "details": "See {IERC721-safeTransferFrom}."
      },
      "setApprovalForAll(address,bool)": {
        "details": "See {IERC721-setApprovalForAll}."
      },
      "symbol()": {
        "details": "See {IERC721Metadata-symbol}."
      },
      "tokenURI(uint256)": {
        "details": "See {IERC721Metadata-tokenURI}."
      },
      "transferFrom(address,address,uint256)": {
        "details": "See {IERC721-transferFrom}."
      }
    },
    "version": 1
  },
  "userdoc": {
    "kind": "user",
    "methods": {},
    "version": 1
  },
  "db": {
    "callBytecode": {
      "id": "0x675bac6d3675348863c4890cf057d4924c810bb2236d07a11bba9d7a91f44b8a"
    },
    "createBytecode": {
      "id": "0xe8ece9f6d6edbffdcbac81be5e9c8e57c38a7b2bc56dfe7632135f542e6a1f89"
    },
    "contract": {
      "id": "0x4678ae8a591f0493b18734a327a5630ed714866faa7d2deb29a7d3008346f4d1"
    }
  }
}