{
  "contractName": "BotHull",
  "abi": [
    {
      "inputs": [
        {
          "internalType": "address",
          "name": "_botPartContract",
          "type": "address"
        },
        {
          "internalType": "address",
          "name": "_metaTransactionForwarder",
          "type": "address"
        }
      ],
      "stateMutability": "nonpayable",
      "type": "constructor"
    },
    {
      "anonymous": false,
      "inputs": [
        {
          "indexed": true,
          "internalType": "address",
          "name": "owner",
          "type": "address"
        },
        {
          "indexed": true,
          "internalType": "address",
          "name": "approved",
          "type": "address"
        },
        {
          "indexed": true,
          "internalType": "uint256",
          "name": "tokenId",
          "type": "uint256"
        }
      ],
      "name": "Approval",
      "type": "event"
    },
    {
      "anonymous": false,
      "inputs": [
        {
          "indexed": true,
          "internalType": "address",
          "name": "owner",
          "type": "address"
        },
        {
          "indexed": true,
          "internalType": "address",
          "name": "operator",
          "type": "address"
        },
        {
          "indexed": false,
          "internalType": "bool",
          "name": "approved",
          "type": "bool"
        }
      ],
      "name": "ApprovalForAll",
      "type": "event"
    },
    {
      "anonymous": false,
      "inputs": [
        {
          "indexed": true,
          "internalType": "bytes32",
          "name": "role",
          "type": "bytes32"
        },
        {
          "indexed": true,
          "internalType": "bytes32",
          "name": "previousAdminRole",
          "type": "bytes32"
        },
        {
          "indexed": true,
          "internalType": "bytes32",
          "name": "newAdminRole",
          "type": "bytes32"
        }
      ],
      "name": "RoleAdminChanged",
      "type": "event"
    },
    {
      "anonymous": false,
      "inputs": [
        {
          "indexed": true,
          "internalType": "bytes32",
          "name": "role",
          "type": "bytes32"
        },
        {
          "indexed": true,
          "internalType": "address",
          "name": "account",
          "type": "address"
        },
        {
          "indexed": true,
          "internalType": "address",
          "name": "sender",
          "type": "address"
        }
      ],
      "name": "RoleGranted",
      "type": "event"
    },
    {
      "anonymous": false,
      "inputs": [
        {
          "indexed": true,
          "internalType": "bytes32",
          "name": "role",
          "type": "bytes32"
        },
        {
          "indexed": true,
          "internalType": "address",
          "name": "account",
          "type": "address"
        },
        {
          "indexed": true,
          "internalType": "address",
          "name": "sender",
          "type": "address"
        }
      ],
      "name": "RoleRevoked",
      "type": "event"
    },
    {
      "anonymous": false,
      "inputs": [
        {
          "indexed": true,
          "internalType": "address",
          "name": "from",
          "type": "address"
        },
        {
          "indexed": true,
          "internalType": "address",
          "name": "to",
          "type": "address"
        },
        {
          "indexed": true,
          "internalType": "uint256",
          "name": "tokenId",
          "type": "uint256"
        }
      ],
      "name": "Transfer",
      "type": "event"
    },
    {
      "inputs": [],
      "name": "DEFAULT_ADMIN_ROLE",
      "outputs": [
        {
          "internalType": "bytes32",
          "name": "",
          "type": "bytes32"
        }
      ],
      "stateMutability": "view",
      "type": "function",
      "constant": true
    },
    {
      "inputs": [],
      "name": "ERC777_INTERFACE",
      "outputs": [
        {
          "internalType": "bytes32",
          "name": "",
          "type": "bytes32"
        }
      ],
      "stateMutability": "view",
      "type": "function",
      "constant": true
    },
    {
      "inputs": [],
      "name": "MAX_PART_SLOTS",
      "outputs": [
        {
          "internalType": "uint8",
          "name": "",
          "type": "uint8"
        }
      ],
      "stateMutability": "view",
      "type": "function",
      "constant": true
    },
    {
      "inputs": [],
      "name": "MINTER_ROLE",
      "outputs": [
        {
          "internalType": "bytes32",
          "name": "",
          "type": "bytes32"
        }
      ],
      "stateMutability": "view",
      "type": "function",
      "constant": true
    },
    {
      "inputs": [
        {
          "internalType": "address",
          "name": "to",
          "type": "address"
        },
        {
          "internalType": "uint256",
          "name": "tokenId",
          "type": "uint256"
        }
      ],
      "name": "approve",
      "outputs": [],
      "stateMutability": "nonpayable",
      "type": "function"
    },
    {
      "inputs": [
        {
          "internalType": "address",
          "name": "owner",
          "type": "address"
        }
      ],
      "name": "balanceOf",
      "outputs": [
        {
          "internalType": "uint256",
          "name": "",
          "type": "uint256"
        }
      ],
      "stateMutability": "view",
      "type": "function",
      "constant": true
    },
    {
      "inputs": [
        {
          "internalType": "uint256",
          "name": "tokenId",
          "type": "uint256"
        }
      ],
      "name": "getApproved",
      "outputs": [
        {
          "internalType": "address",
          "name": "",
          "type": "address"
        }
      ],
      "stateMutability": "view",
      "type": "function",
      "constant": true
    },
    {
      "inputs": [
        {
          "internalType": "bytes32",
          "name": "role",
          "type": "bytes32"
        }
      ],
      "name": "getRoleAdmin",
      "outputs": [
        {
          "internalType": "bytes32",
          "name": "",
          "type": "bytes32"
        }
      ],
      "stateMutability": "view",
      "type": "function",
      "constant": true
    },
    {
      "inputs": [
        {
          "internalType": "bytes32",
          "name": "role",
          "type": "bytes32"
        },
        {
          "internalType": "address",
          "name": "account",
          "type": "address"
        }
      ],
      "name": "grantRole",
      "outputs": [],
      "stateMutability": "nonpayable",
      "type": "function"
    },
    {
      "inputs": [
        {
          "internalType": "bytes32",
          "name": "role",
          "type": "bytes32"
        },
        {
          "internalType": "address",
          "name": "account",
          "type": "address"
        }
      ],
      "name": "hasRole",
      "outputs": [
        {
          "internalType": "bool",
          "name": "",
          "type": "bool"
        }
      ],
      "stateMutability": "view",
      "type": "function",
      "constant": true
    },
    {
      "inputs": [
        {
          "internalType": "address",
          "name": "owner",
          "type": "address"
        },
        {
          "internalType": "address",
          "name": "operator",
          "type": "address"
        }
      ],
      "name": "isApprovedForAll",
      "outputs": [
        {
          "internalType": "bool",
          "name": "",
          "type": "bool"
        }
      ],
      "stateMutability": "view",
      "type": "function",
      "constant": true
    },
    {
      "inputs": [],
      "name": "metaTransactionForwarder",
      "outputs": [
        {
          "internalType": "address",
          "name": "",
          "type": "address"
        }
      ],
      "stateMutability": "view",
      "type": "function",
      "constant": true
    },
    {
      "inputs": [],
      "name": "name",
      "outputs": [
        {
          "internalType": "string",
          "name": "",
          "type": "string"
        }
      ],
      "stateMutability": "view",
      "type": "function",
      "constant": true
    },
    {
      "inputs": [
        {
          "internalType": "uint256",
          "name": "tokenId",
          "type": "uint256"
        }
      ],
      "name": "ownerOf",
      "outputs": [
        {
          "internalType": "address",
          "name": "",
          "type": "address"
        }
      ],
      "stateMutability": "view",
      "type": "function",
      "constant": true
    },
    {
      "inputs": [
        {
          "internalType": "uint256",
          "name": "",
          "type": "uint256"
        },
        {
          "internalType": "uint256",
          "name": "",
          "type": "uint256"
        }
      ],
      "name": "partSlots",
      "outputs": [
        {
          "internalType": "uint256",
          "name": "",
          "type": "uint256"
        }
      ],
      "stateMutability": "view",
      "type": "function",
      "constant": true
    },
    {
      "inputs": [
        {
          "internalType": "bytes32",
          "name": "role",
          "type": "bytes32"
        },
        {
          "internalType": "address",
          "name": "account",
          "type": "address"
        }
      ],
      "name": "renounceRole",
      "outputs": [],
      "stateMutability": "nonpayable",
      "type": "function"
    },
    {
      "inputs": [
        {
          "internalType": "bytes32",
          "name": "role",
          "type": "bytes32"
        },
        {
          "internalType": "address",
          "name": "account",
          "type": "address"
        }
      ],
      "name": "revokeRole",
      "outputs": [],
      "stateMutability": "nonpayable",
      "type": "function"
    },
    {
      "inputs": [
        {
          "internalType": "address",
          "name": "from",
          "type": "address"
        },
        {
          "internalType": "address",
          "name": "to",
          "type": "address"
        },
        {
          "internalType": "uint256",
          "name": "tokenId",
          "type": "uint256"
        }
      ],
      "name": "safeTransferFrom",
      "outputs": [],
      "stateMutability": "nonpayable",
      "type": "function"
    },
    {
      "inputs": [
        {
          "internalType": "address",
          "name": "from",
          "type": "address"
        },
        {
          "internalType": "address",
          "name": "to",
          "type": "address"
        },
        {
          "internalType": "uint256",
          "name": "tokenId",
          "type": "uint256"
        },
        {
          "internalType": "bytes",
          "name": "_data",
          "type": "bytes"
        }
      ],
      "name": "safeTransferFrom",
      "outputs": [],
      "stateMutability": "nonpayable",
      "type": "function"
    },
    {
      "inputs": [
        {
          "internalType": "address",
          "name": "operator",
          "type": "address"
        },
        {
          "internalType": "bool",
          "name": "approved",
          "type": "bool"
        }
      ],
      "name": "setApprovalForAll",
      "outputs": [],
      "stateMutability": "nonpayable",
      "type": "function"
    },
    {
      "inputs": [],
      "name": "symbol",
      "outputs": [
        {
          "internalType": "string",
          "name": "",
          "type": "string"
        }
      ],
      "stateMutability": "view",
      "type": "function",
      "constant": true
    },
    {
      "inputs": [
        {
          "internalType": "uint256",
          "name": "tokenId",
          "type": "uint256"
        }
      ],
      "name": "tokenURI",
      "outputs": [
        {
          "internalType": "string",
          "name": "",
          "type": "string"
        }
      ],
      "stateMutability": "view",
      "type": "function",
      "constant": true
    },
    {
      "inputs": [
        {
          "internalType": "address",
          "name": "from",
          "type": "address"
        },
        {
          "internalType": "address",
          "name": "to",
          "type": "address"
        },
        {
          "internalType": "uint256",
          "name": "tokenId",
          "type": "uint256"
        }
      ],
      "name": "transferFrom",
      "outputs": [],
      "stateMutability": "nonpayable",
      "type": "function"
    },
    {
      "inputs": [
        {
          "internalType": "address",
          "name": "player",
          "type": "address"
        }
      ],
      "name": "mintHull",
      "outputs": [
        {
          "internalType": "uint256",
          "name": "",
          "type": "uint256"
        }
      ],
      "stateMutability": "nonpayable",
      "type": "function"
    },
    {
      "inputs": [
        {
          "internalType": "uint256",
          "name": "botHullID",
          "type": "uint256"
        },
        {
          "internalType": "uint8",
          "name": "slotID",
          "type": "uint8"
        },
        {
          "internalType": "uint256",
          "name": "part",
          "type": "uint256"
        },
        {
          "internalType": "address",
          "name": "from",
          "type": "address"
        }
      ],
      "name": "fillSlot",
      "outputs": [],
      "stateMutability": "nonpayable",
      "type": "function"
    },
    {
      "inputs": [
        {
          "internalType": "uint256[]",
          "name": "botHullIDs",
          "type": "uint256[]"
        },
        {
          "internalType": "uint8[]",
          "name": "slotIDs",
          "type": "uint8[]"
        },
        {
          "internalType": "uint256[]",
          "name": "parts",
          "type": "uint256[]"
        },
        {
          "internalType": "address",
          "name": "from",
          "type": "address"
        }
      ],
      "name": "batchFillSlot",
      "outputs": [],
      "stateMutability": "nonpayable",
      "type": "function"
    },
    {
      "inputs": [
        {
          "internalType": "uint256",
          "name": "botHullID",
          "type": "uint256"
        },
        {
          "internalType": "uint8",
          "name": "slotID",
          "type": "uint8"
        },
        {
          "internalType": "address",
          "name": "from",
          "type": "address"
        }
      ],
      "name": "emptySlot",
      "outputs": [],
      "stateMutability": "nonpayable",
      "type": "function"
    },
    {
      "inputs": [
        {
          "internalType": "uint256[]",
          "name": "botHullIDs",
          "type": "uint256[]"
        },
        {
          "internalType": "uint8[]",
          "name": "slotIDs",
          "type": "uint8[]"
        },
        {
          "internalType": "address",
          "name": "from",
          "type": "address"
        }
      ],
      "name": "batchEmptySlot",
      "outputs": [],
      "stateMutability": "nonpayable",
      "type": "function"
    },
    {
      "inputs": [
        {
          "internalType": "address",
          "name": "operator",
          "type": "address"
        },
        {
          "internalType": "address",
          "name": "from",
          "type": "address"
        },
        {
          "internalType": "uint256",
          "name": "tokenId",
          "type": "uint256"
        },
        {
          "internalType": "bytes",
          "name": "data",
          "type": "bytes"
        }
      ],
      "name": "onERC721Received",
      "outputs": [
        {
          "internalType": "bytes4",
          "name": "",
          "type": "bytes4"
        }
      ],
      "stateMutability": "nonpayable",
      "type": "function"
    },
    {
      "inputs": [
        {
          "internalType": "bytes4",
          "name": "interfaceId",
          "type": "bytes4"
        }
      ],
      "name": "supportsInterface",
      "outputs": [
        {
          "internalType": "bool",
          "name": "",
          "type": "bool"
        }
      ],
      "stateMutability": "view",
      "type": "function",
      "constant": true
    }
  ],
  "bytecode": "0x60806040523480156200001157600080fd5b5060405162002d1e38038062002d1e83398101604081905262000034916200037e565b6040805180820182526007815266109bdd121d5b1b60ca1b602080830191825283518085019094526002845261084960f31b9084015281519192916200007d91600091620002bb565b50805162000093906001906020840190620002bb565b50506040516329965a1d60e01b815230600482018190527fac7fbab5f54a3ca8194167523c6753bfeb96a445279294b6125b68cce217705460248301526044820152731820a4b7618bde71dce8cdc73aab6c95905fad2491506329965a1d90606401600060405180830381600087803b1580156200011057600080fd5b505af115801562000125573d6000803e3d6000fd5b5050600780546001600160a01b0319166001600160a01b038616179055506200017290507f9f2df0fed2c77648de5860a4cc508cd0818c85b8b8a1ab4ceeef8d981c8956a66000620001b3565b6200017f600080620001b3565b6200018c60003362000207565b600880546001600160a01b0319166001600160a01b039290921691909117905550620003f2565b600082815260066020526040902060010154819060405184907fbd79b86ffe0ab8e8776151514217cd7cacd52c909f66475c3af44e129f0b00ff90600090a460009182526006602052604090912060010155565b62000213828262000217565b5050565b60008281526006602090815260408083206001600160a01b038516845290915290205460ff16620002135760008281526006602090815260408083206001600160a01b03851684529091529020805460ff19166001179055620002773390565b6001600160a01b0316816001600160a01b0316837f2f8788117e7eff1d82e926ec794901d17c78024a50270940304540a733656f0d60405160405180910390a45050565b828054620002c990620003b5565b90600052602060002090601f016020900481019282620002ed576000855562000338565b82601f106200030857805160ff191683800117855562000338565b8280016001018555821562000338579182015b82811115620003385782518255916020019190600101906200031b565b50620003469291506200034a565b5090565b5b808211156200034657600081556001016200034b565b80516001600160a01b03811681146200037957600080fd5b919050565b6000806040838503121562000391578182fd5b6200039c8362000361565b9150620003ac6020840162000361565b90509250929050565b600181811c90821680620003ca57607f821691505b60208210811415620003ec57634e487b7160e01b600052602260045260246000fd5b50919050565b61291c80620004026000396000f3fe608060405234801561001057600080fd5b50600436106101da5760003560e01c806370a0823111610104578063bc9d92e8116100a2578063d547741f11610071578063d547741f14610474578063e985e9c514610487578063fa22eed4146104c3578063fa432ea8146104d657600080fd5b8063bc9d92e814610414578063be24a60314610427578063c87b56dd1461043a578063d53913931461044d57600080fd5b8063a217fddf116100de578063a217fddf146103cc578063a22cb465146103d4578063a9662c0c146103e7578063b88d4fde1461040157600080fd5b806370a082311461037857806391d148541461038b57806395d89b41146103c457600080fd5b8063248a9ca31161017c57806342842e0e1161014b57806342842e0e1461032c5780634458455b1461033f5780636352211e1461035257806367621f991461036557600080fd5b8063248a9ca3146102ae5780632f2ff15d146102df57806336568abe146102f25780633a2041ec1461030557600080fd5b8063095ea7b3116101b8578063095ea7b314610247578063150b7a021461025c57806318f428d51461028857806323b872dd1461029b57600080fd5b806301ffc9a7146101df57806306fdde0314610207578063081812fc1461021c575b600080fd5b6101f26101ed366004612549565b6104e9565b60405190151581526020015b60405180910390f35b61020f610556565b6040516101fe919061275a565b61022f61022a36600461250d565b6105e8565b6040516001600160a01b0390911681526020016101fe565b61025a6102553660046123b7565b610693565b005b61026f61026a366004612213565b6107c5565b6040516001600160e01b031990911681526020016101fe565b60085461022f906001600160a01b031681565b61025a6102a93660046121d3565b610969565b6102d16102bc36600461250d565b60009081526006602052604090206001015490565b6040519081526020016101fe565b61025a6102ed366004612525565b6109f0565b61025a610300366004612525565b610a16565b6102d17fac7fbab5f54a3ca8194167523c6753bfeb96a445279294b6125b68cce217705481565b61025a61033a3660046121d3565b610aa2565b61025a61034d3660046125e1565b610abd565b61022f61036036600461250d565b610c15565b61025a6103733660046125a2565b610ca0565b6102d1610386366004612163565b610d0b565b6101f2610399366004612525565b60009182526006602090815260408084206001600160a01b0393909316845291905290205460ff1690565b61020f610da5565b6102d1600081565b61025a6103e2366004612386565b610db4565b6103ef600881565b60405160ff90911681526020016101fe565b61025a61040f3660046122ad565b610e79565b6102d1610422366004612581565b610f01565b61025a610435366004612463565b610f26565b61020f61044836600461250d565b61101b565b6102d17f9f2df0fed2c77648de5860a4cc508cd0818c85b8b8a1ab4ceeef8d981c8956a681565b61025a610482366004612525565b611111565b6101f261049536600461219b565b6001600160a01b03918216600090815260056020908152604080832093909416825291909152205460ff1690565b61025a6104d13660046123e2565b611137565b6102d16104e4366004612163565b6111f7565b60006001600160e01b03198216630a85bd0160e11b148061053257506001600160e01b031982167e23de2900000000000000000000000000000000000000000000000000000000145b80610541575061054182611252565b806105505750610550826112ed565b92915050565b60606000805461056590612812565b80601f016020809104026020016040519081016040528092919081815260200182805461059190612812565b80156105de5780601f106105b3576101008083540402835291602001916105de565b820191906000526020600020905b8154815290600101906020018083116105c157829003601f168201915b5050505050905090565b6000818152600260205260408120546001600160a01b03166106775760405162461bcd60e51b815260206004820152602c60248201527f4552433732313a20617070726f76656420717565727920666f72206e6f6e657860448201527f697374656e7420746f6b656e000000000000000000000000000000000000000060648201526084015b60405180910390fd5b506000908152600460205260409020546001600160a01b031690565b600061069e82610c15565b9050806001600160a01b0316836001600160a01b031614156107285760405162461bcd60e51b815260206004820152602160248201527f4552433732313a20617070726f76616c20746f2063757272656e74206f776e6560448201527f7200000000000000000000000000000000000000000000000000000000000000606482015260840161066e565b336001600160a01b038216148061074457506107448133610495565b6107b65760405162461bcd60e51b815260206004820152603860248201527f4552433732313a20617070726f76652063616c6c6572206973206e6f74206f7760448201527f6e6572206e6f7220617070726f76656420666f7220616c6c0000000000000000606482015260840161066e565b6107c0838361132b565b505050565b60006001600160a01b0386163014156107e65750630a85bd0160e11b610960565b6007546001600160a01b031633146107fd57600080fd5b6001600160a01b0386161561081157600080fd5b6021821461081e57600080fd5b600061085f84848080601f016020809104026020016040519081016040528093929190818152602001838380828437600092018290525092506113a6915050565b905060006108a585858080601f0160208091040260200160405190810160405280939291908181526020018383808284376000920191909152506020925061140c915050565b9050866001600160a01b03166108ba83610c15565b6001600160a01b0316146108cd57600080fd5b600860ff8216106108dd57600080fd5b6000828152600a6020526040902060ff82166008811061090d57634e487b7160e01b600052603260045260246000fd5b01541561091f5761091f828289611472565b6000828152600a60205260409020869060ff83166008811061095157634e487b7160e01b600052603260045260246000fd5b015550630a85bd0160e11b9150505b95945050505050565b610973338261155d565b6109e55760405162461bcd60e51b815260206004820152603160248201527f4552433732313a207472616e736665722063616c6c6572206973206e6f74206f60448201527f776e6572206e6f7220617070726f766564000000000000000000000000000000606482015260840161066e565b6107c0838383611665565b600082815260066020526040902060010154610a0c813361183f565b6107c083836118bf565b6001600160a01b0381163314610a945760405162461bcd60e51b815260206004820152602f60248201527f416363657373436f6e74726f6c3a2063616e206f6e6c792072656e6f756e636560448201527f20726f6c657320666f722073656c660000000000000000000000000000000000606482015260840161066e565b610a9e8282611961565b5050565b6107c083838360405180602001604052806000815250610e79565b600860ff841610610acd57600080fd5b336001600160a01b0382161480610aee57506008546001600160a01b031633145b610af757600080fd5b806001600160a01b0316610b0a85610c15565b6001600160a01b031614610b1d57600080fd5b6007546040517f6352211e000000000000000000000000000000000000000000000000000000008152600481018490526001600160a01b03838116921690636352211e9060240160206040518083038186803b158015610b7c57600080fd5b505afa158015610b90573d6000803e3d6000fd5b505050506040513d601f19601f82011682018060405250810190610bb4919061217f565b6001600160a01b031614610bc757600080fd5b6000848152600a6020526040902060ff841660088110610bf757634e487b7160e01b600052603260045260246000fd5b015415610c0357600080fd5b610c0f848484846119e4565b50505050565b6000818152600260205260408120546001600160a01b0316806105505760405162461bcd60e51b815260206004820152602960248201527f4552433732313a206f776e657220717565727920666f72206e6f6e657869737460448201527f656e7420746f6b656e0000000000000000000000000000000000000000000000606482015260840161066e565b600860ff831610610cb057600080fd5b336001600160a01b0382161480610cd157506008546001600160a01b031633145b610cda57600080fd5b806001600160a01b0316610ced84610c15565b6001600160a01b031614610d0057600080fd5b6107c0838383611472565b60006001600160a01b038216610d895760405162461bcd60e51b815260206004820152602a60248201527f4552433732313a2062616c616e636520717565727920666f7220746865207a6560448201527f726f206164647265737300000000000000000000000000000000000000000000606482015260840161066e565b506001600160a01b031660009081526003602052604090205490565b60606001805461056590612812565b6001600160a01b038216331415610e0d5760405162461bcd60e51b815260206004820152601960248201527f4552433732313a20617070726f766520746f2063616c6c657200000000000000604482015260640161066e565b3360008181526005602090815260408083206001600160a01b03871680855290835292819020805460ff191686151590811790915590519081529192917f17307eab39ab6107e8899845ad3d59bd9653f200f220920489ca2b5937696c31910160405180910390a35050565b610e83338361155d565b610ef55760405162461bcd60e51b815260206004820152603160248201527f4552433732313a207472616e736665722063616c6c6572206973206e6f74206f60448201527f776e6572206e6f7220617070726f766564000000000000000000000000000000606482015260840161066e565b610c0f84848484611aa3565b600a6020528160005260406000208160088110610f1d57600080fd5b01549150829050565b336001600160a01b0382161480610f4757506008546001600160a01b031633145b610f5057600080fd5b858414610f5c57600080fd5b838214610f6857600080fd5b60005b8681101561101157610fff888883818110610f9657634e487b7160e01b600052603260045260246000fd5b90506020020135878784818110610fbd57634e487b7160e01b600052603260045260246000fd5b9050602002016020810190610fd29190612628565b868685818110610ff257634e487b7160e01b600052603260045260246000fd5b9050602002013585610abd565b8061100981612847565b915050610f6b565b5050505050505050565b6000818152600260205260409020546060906001600160a01b03166110a85760405162461bcd60e51b815260206004820152602f60248201527f4552433732314d657461646174613a2055524920717565727920666f72206e6f60448201527f6e6578697374656e7420746f6b656e0000000000000000000000000000000000606482015260840161066e565b60006110bf60408051602081019091526000815290565b905060008151116110df576040518060200160405280600081525061110a565b806110e984611b2c565b6040516020016110fa92919061266e565b6040516020818303038152906040525b9392505050565b60008281526006602052604090206001015461112d813361183f565b6107c08383611961565b83821461114357600080fd5b336001600160a01b038216148061116457506008546001600160a01b031633145b61116d57600080fd5b60005b848110156111ef576111dd86868381811061119b57634e487b7160e01b600052603260045260246000fd5b905060200201358585848181106111c257634e487b7160e01b600052603260045260246000fd5b90506020020160208101906111d79190612628565b84610ca0565b806111e781612847565b915050611170565b505050505050565b60007f9f2df0fed2c77648de5860a4cc508cd0818c85b8b8a1ab4ceeef8d981c8956a6611224813361183f565b611232600980546001019055565b600061123d60095490565b90506112498482611c46565b91505b50919050565b60006001600160e01b031982167f80ac58cd0000000000000000000000000000000000000000000000000000000014806112b557506001600160e01b031982167f5b5e139f00000000000000000000000000000000000000000000000000000000145b8061055057507f01ffc9a7000000000000000000000000000000000000000000000000000000006001600160e01b0319831614610550565b60006001600160e01b031982167f7965db0b000000000000000000000000000000000000000000000000000000001480610550575061055082611252565b6000818152600460205260409020805473ffffffffffffffffffffffffffffffffffffffff19166001600160a01b038416908117909155819061136d82610c15565b6001600160a01b03167f8c5be1e5ebec7d5bd14f71427d1e84f3dd0314c0f7b2291e5b200ac8c7c3b92560405160405180910390a45050565b60006113b382602061276d565b835110156114035760405162461bcd60e51b815260206004820152601560248201527f746f55696e743235365f6f75744f66426f756e64730000000000000000000000604482015260640161066e565b50016020015190565b600061141982600161276d565b835110156114695760405162461bcd60e51b815260206004820152601360248201527f746f55696e74385f6f75744f66426f756e647300000000000000000000000000604482015260640161066e565b50016001015190565b6007546000848152600a602052604090206001600160a01b03909116906342842e0e903090849060ff8716600881106114bb57634e487b7160e01b600052603260045260246000fd5b01546040516001600160e01b031960e086901b1681526001600160a01b0393841660048201529290911660248301526044820152606401600060405180830381600087803b15801561150c57600080fd5b505af1158015611520573d6000803e3d6000fd5b5050506000848152600a6020526040812090915060ff84166008811061155657634e487b7160e01b600052603260045260246000fd5b0155505050565b6000818152600260205260408120546001600160a01b03166115e75760405162461bcd60e51b815260206004820152602c60248201527f4552433732313a206f70657261746f7220717565727920666f72206e6f6e657860448201527f697374656e7420746f6b656e0000000000000000000000000000000000000000606482015260840161066e565b60006115f283610c15565b9050806001600160a01b0316846001600160a01b0316148061162d5750836001600160a01b0316611622846105e8565b6001600160a01b0316145b8061165d57506001600160a01b0380821660009081526005602090815260408083209388168352929052205460ff165b949350505050565b826001600160a01b031661167882610c15565b6001600160a01b0316146116f45760405162461bcd60e51b815260206004820152602960248201527f4552433732313a207472616e73666572206f6620746f6b656e2074686174206960448201527f73206e6f74206f776e0000000000000000000000000000000000000000000000606482015260840161066e565b6001600160a01b03821661176f5760405162461bcd60e51b8152602060048201526024808201527f4552433732313a207472616e7366657220746f20746865207a65726f2061646460448201527f7265737300000000000000000000000000000000000000000000000000000000606482015260840161066e565b61177a60008261132b565b6001600160a01b03831660009081526003602052604081208054600192906117a39084906127b8565b90915550506001600160a01b03821660009081526003602052604081208054600192906117d190849061276d565b9091555050600081815260026020526040808220805473ffffffffffffffffffffffffffffffffffffffff19166001600160a01b0386811691821790925591518493918716917fddf252ad1be2c89b69c2b068fc378daa952ba7f163c4a11628f55a4df523b3ef91a4505050565b60008281526006602090815260408083206001600160a01b038516845290915290205460ff16610a9e5761187d816001600160a01b03166014611d95565b611888836020611d95565b60405160200161189992919061269d565b60408051601f198184030181529082905262461bcd60e51b825261066e9160040161275a565b60008281526006602090815260408083206001600160a01b038516845290915290205460ff16610a9e5760008281526006602090815260408083206001600160a01b03851684529091529020805460ff1916600117905561191d3390565b6001600160a01b0316816001600160a01b0316837f2f8788117e7eff1d82e926ec794901d17c78024a50270940304540a733656f0d60405160405180910390a45050565b60008281526006602090815260408083206001600160a01b038516845290915290205460ff1615610a9e5760008281526006602090815260408083206001600160a01b0385168085529252808320805460ff1916905551339285917ff6391f5c32d9c69d2a47ea670b442974b53935d1edc7fd64eb21e047a839171b9190a45050565b6007546040517f42842e0e0000000000000000000000000000000000000000000000000000000081526001600160a01b03838116600483015230602483015260448201859052909116906342842e0e90606401600060405180830381600087803b158015611a5157600080fd5b505af1158015611a65573d6000803e3d6000fd5b5050506000858152600a6020526040902083915060ff851660088110611a9b57634e487b7160e01b600052603260045260246000fd5b015550505050565b611aae848484611665565b611aba84848484611fa0565b610c0f5760405162461bcd60e51b815260206004820152603260248201527f4552433732313a207472616e7366657220746f206e6f6e20455243373231526560448201527f63656976657220696d706c656d656e7465720000000000000000000000000000606482015260840161066e565b606081611b505750506040805180820190915260018152600360fc1b602082015290565b8160005b8115611b7a5780611b6481612847565b9150611b739050600a83612785565b9150611b54565b60008167ffffffffffffffff811115611ba357634e487b7160e01b600052604160045260246000fd5b6040519080825280601f01601f191660200182016040528015611bcd576020820181803683370190505b5090505b841561165d57611be26001836127b8565b9150611bef600a86612862565b611bfa90603061276d565b60f81b818381518110611c1d57634e487b7160e01b600052603260045260246000fd5b60200101906001600160f81b031916908160001a905350611c3f600a86612785565b9450611bd1565b6001600160a01b038216611c9c5760405162461bcd60e51b815260206004820181905260248201527f4552433732313a206d696e7420746f20746865207a65726f2061646472657373604482015260640161066e565b6000818152600260205260409020546001600160a01b031615611d015760405162461bcd60e51b815260206004820152601c60248201527f4552433732313a20746f6b656e20616c7265616479206d696e74656400000000604482015260640161066e565b6001600160a01b0382166000908152600360205260408120805460019290611d2a90849061276d565b9091555050600081815260026020526040808220805473ffffffffffffffffffffffffffffffffffffffff19166001600160a01b03861690811790915590518392907fddf252ad1be2c89b69c2b068fc378daa952ba7f163c4a11628f55a4df523b3ef908290a45050565b60606000611da4836002612799565b611daf90600261276d565b67ffffffffffffffff811115611dd557634e487b7160e01b600052604160045260246000fd5b6040519080825280601f01601f191660200182016040528015611dff576020820181803683370190505b509050600360fc1b81600081518110611e2857634e487b7160e01b600052603260045260246000fd5b60200101906001600160f81b031916908160001a9053507f780000000000000000000000000000000000000000000000000000000000000081600181518110611e8157634e487b7160e01b600052603260045260246000fd5b60200101906001600160f81b031916908160001a9053506000611ea5846002612799565b611eb090600161276d565b90505b6001811115611f51577f303132333435363738396162636465660000000000000000000000000000000085600f1660108110611eff57634e487b7160e01b600052603260045260246000fd5b1a60f81b828281518110611f2357634e487b7160e01b600052603260045260246000fd5b60200101906001600160f81b031916908160001a90535060049490941c93611f4a816127fb565b9050611eb3565b50831561110a5760405162461bcd60e51b815260206004820181905260248201527f537472696e67733a20686578206c656e67746820696e73756666696369656e74604482015260640161066e565b60006001600160a01b0384163b156120f857604051630a85bd0160e11b81526001600160a01b0385169063150b7a0290611fe490339089908890889060040161271e565b602060405180830381600087803b158015611ffe57600080fd5b505af192505050801561202e575060408051601f3d908101601f1916820190925261202b91810190612565565b60015b6120de573d80801561205c576040519150601f19603f3d011682016040523d82523d6000602084013e612061565b606091505b5080516120d65760405162461bcd60e51b815260206004820152603260248201527f4552433732313a207472616e7366657220746f206e6f6e20455243373231526560448201527f63656976657220696d706c656d656e7465720000000000000000000000000000606482015260840161066e565b805181602001fd5b6001600160e01b031916630a85bd0160e11b14905061165d565b506001949350505050565b60008083601f840112612114578081fd5b50813567ffffffffffffffff81111561212b578182fd5b6020830191508360208260051b850101111561214657600080fd5b9250929050565b803560ff8116811461215e57600080fd5b919050565b600060208284031215612174578081fd5b813561110a816128b8565b600060208284031215612190578081fd5b815161110a816128b8565b600080604083850312156121ad578081fd5b82356121b8816128b8565b915060208301356121c8816128b8565b809150509250929050565b6000806000606084860312156121e7578081fd5b83356121f2816128b8565b92506020840135612202816128b8565b929592945050506040919091013590565b60008060008060006080868803121561222a578081fd5b8535612235816128b8565b94506020860135612245816128b8565b935060408601359250606086013567ffffffffffffffff80821115612268578283fd5b818801915088601f83011261227b578283fd5b813581811115612289578384fd5b89602082850101111561229a578384fd5b9699959850939650602001949392505050565b600080600080608085870312156122c2578384fd5b84356122cd816128b8565b935060208501356122dd816128b8565b925060408501359150606085013567ffffffffffffffff80821115612300578283fd5b818701915087601f830112612313578283fd5b813581811115612325576123256128a2565b604051601f8201601f19908116603f0116810190838211818310171561234d5761234d6128a2565b816040528281528a6020848701011115612365578586fd5b82602086016020830137918201602001949094529598949750929550505050565b60008060408385031215612398578182fd5b82356123a3816128b8565b9150602083013580151581146121c8578182fd5b600080604083850312156123c9578182fd5b82356123d4816128b8565b946020939093013593505050565b6000806000806000606086880312156123f9578081fd5b853567ffffffffffffffff80821115612410578283fd5b61241c89838a01612103565b90975095506020880135915080821115612434578283fd5b5061244188828901612103565b9094509250506040860135612455816128b8565b809150509295509295909350565b60008060008060008060006080888a03121561247d578485fd5b873567ffffffffffffffff80821115612494578687fd5b6124a08b838c01612103565b909950975060208a01359150808211156124b8578687fd5b6124c48b838c01612103565b909750955060408a01359150808211156124dc578384fd5b506124e98a828b01612103565b90945092505060608801356124fd816128b8565b8091505092959891949750929550565b60006020828403121561251e578081fd5b5035919050565b60008060408385031215612537578182fd5b8235915060208301356121c8816128b8565b60006020828403121561255a578081fd5b813561110a816128d0565b600060208284031215612576578081fd5b815161110a816128d0565b60008060408385031215612593578182fd5b50508035926020909101359150565b6000806000606084860312156125b6578081fd5b833592506125c66020850161214d565b915060408401356125d6816128b8565b809150509250925092565b600080600080608085870312156125f6578182fd5b843593506126066020860161214d565b925060408501359150606085013561261d816128b8565b939692955090935050565b600060208284031215612639578081fd5b61110a8261214d565b6000815180845261265a8160208601602086016127cf565b601f01601f19169290920160200192915050565b600083516126808184602088016127cf565b8351908301906126948183602088016127cf565b01949350505050565b7f416363657373436f6e74726f6c3a206163636f756e74200000000000000000008152600083516126d58160178501602088016127cf565b7f206973206d697373696e6720726f6c652000000000000000000000000000000060179184019182015283516127128160288401602088016127cf565b01602801949350505050565b60006001600160a01b038087168352808616602084015250836040830152608060608301526127506080830184612642565b9695505050505050565b60208152600061110a6020830184612642565b6000821982111561278057612780612876565b500190565b6000826127945761279461288c565b500490565b60008160001904831182151516156127b3576127b3612876565b500290565b6000828210156127ca576127ca612876565b500390565b60005b838110156127ea5781810151838201526020016127d2565b83811115610c0f5750506000910152565b60008161280a5761280a612876565b506000190190565b600181811c9082168061282657607f821691505b6020821081141561124c57634e487b7160e01b600052602260045260246000fd5b600060001982141561285b5761285b612876565b5060010190565b6000826128715761287161288c565b500690565b634e487b7160e01b600052601160045260246000fd5b634e487b7160e01b600052601260045260246000fd5b634e487b7160e01b600052604160045260246000fd5b6001600160a01b03811681146128cd57600080fd5b50565b6001600160e01b0319811681146128cd57600080fdfea2646970667358221220efa875213df42defaa4d01f9c11824485a6336b9e66f287bd0f849c93c6f229164736f6c63430008040033",
  "immutableReferences": {},
  "source": "// SPDX-License-Identifier: MIT\npragma solidity ^0.8.0;\n\nimport \"@openzeppelin/contracts/access/AccessControl.sol\";\nimport \"@openzeppelin/contracts/token/ERC721/extensions/ERC721Enumerable.sol\";\nimport \"@openzeppelin/contracts/token/ERC721/IERC721Receiver.sol\";\nimport \"@openzeppelin/contracts/token/ERC777/IERC777.sol\";\nimport \"@openzeppelin/contracts/token/ERC777/IERC777Recipient.sol\";\nimport \"@openzeppelin/contracts/utils/Counters.sol\";\nimport \"@openzeppelin/contracts/utils/introspection/ERC165Checker.sol\";\nimport \"@openzeppelin/contracts/utils/introspection/IERC1820Registry.sol\";\nimport \"solidity-bytes-utils/contracts/BytesLib.sol\";\nimport \"./BotPart.sol\";\n\ncontract BotHull is ERC721, IERC721Receiver, AccessControl {\n  using Counters for Counters.Counter;\n\n  IERC1820Registry private constant _ERC1820_REGISTRY = IERC1820Registry(0x1820a4B7618BdE71Dce8cdc73aAB6C95905faD24);\n\n  address private botPartContract;\n  address public metaTransactionForwarder;\n\n  bytes32 public constant ERC777_INTERFACE = keccak256(\"ERC777Token\");\n  bytes32 public constant MINTER_ROLE = keccak256(\"MINTER_ROLE\");\n\n  Counters.Counter private _tokenIds;\n\n  uint8 public constant MAX_PART_SLOTS = 8;\n\n\n  mapping(uint256 => uint256[MAX_PART_SLOTS]) public partSlots;\n\n  constructor(address _botPartContract, address _metaTransactionForwarder) ERC721(\"BotHull\", \"BH\") {\n    _ERC1820_REGISTRY.setInterfaceImplementer(address(this), 0xac7fbab5f54a3ca8194167523c6753bfeb96a445279294b6125b68cce2177054, address(this));\n\n    botPartContract = _botPartContract;\n    _setRoleAdmin(MINTER_ROLE, DEFAULT_ADMIN_ROLE);\n    _setRoleAdmin(DEFAULT_ADMIN_ROLE, DEFAULT_ADMIN_ROLE);\n    _setupRole(DEFAULT_ADMIN_ROLE, msg.sender);\n\n    metaTransactionForwarder = _metaTransactionForwarder;\n  }\n\n  function mintHull(address player) public onlyRole(MINTER_ROLE) returns (uint256) {\n    _tokenIds.increment();\n\n    uint256 newItemId = _tokenIds.current();\n    _mint(player, newItemId);\n\n    return newItemId;\n  }\n\n  function fillSlot(uint256 botHullID, uint8 slotID, uint256 part, address from) public {\n    require(slotID < MAX_PART_SLOTS);\n    require(msg.sender == from || msg.sender == metaTransactionForwarder);\n    require(ownerOf(botHullID) == from);\n    require(BotPart(botPartContract).ownerOf(part) == from);\n    require(partSlots[botHullID][slotID] == 0);\n\n    _fillSlot(botHullID, slotID, part, from);\n  }\n\n  function _fillSlot(uint256 botHullID, uint8 slotID, uint256 part, address from) private {\n    BotPart(botPartContract).safeTransferFrom(from, address(this), part);\n    partSlots[botHullID][slotID] = part;\n  }\n\n  function batchFillSlot(uint256[] calldata botHullIDs, uint8[] calldata slotIDs, uint256[] calldata parts, address from) public {\n    require(msg.sender == from || msg.sender == metaTransactionForwarder);\n    require(botHullIDs.length == slotIDs.length);\n    require(slotIDs.length == parts.length);\n\n    for(uint i = 0; i < botHullIDs.length; i++){\n      fillSlot(botHullIDs[i], slotIDs[i], parts[i], from);\n    }\n  }\n\n  function emptySlot(uint256 botHullID, uint8 slotID, address from) public {\n    require(slotID < MAX_PART_SLOTS);\n    require(msg.sender == from || msg.sender == metaTransactionForwarder);\n    require(ownerOf(botHullID) == from);\n\n    _emptySlot(botHullID, slotID, from);\n  }\n\n  function _emptySlot(uint256 botHullID, uint8 slotID, address from) private {\n    BotPart(botPartContract).safeTransferFrom(address(this), from, partSlots[botHullID][slotID]);\n    partSlots[botHullID][slotID] = 0;\n  }\n\n  function batchEmptySlot(uint256[] calldata botHullIDs, uint8[] calldata slotIDs, address from) public {\n    require(botHullIDs.length == slotIDs.length);\n    require(msg.sender == from || msg.sender == metaTransactionForwarder);\n\n    for(uint i = 0; i < botHullIDs.length; i++){\n      emptySlot(botHullIDs[i], slotIDs[i], from);\n    }\n  }\n\n  function onERC721Received(address operator, address from, uint256 tokenId, bytes calldata data) external override returns (bytes4){\n    if(operator == address(this)){\n      return IERC721Receiver.onERC721Received.selector;\n    }\n    require(msg.sender == botPartContract);\n    require(operator == address(0));\n    // 32 Bytes for BotHullID + 1 Byte for slotID\n    require(data.length== 32 + 1);\n    uint256 botHullID = BytesLib.toUint256(data, 0);\n    uint8 slotID = BytesLib.toUint8(data, 32);\n\n    require(ownerOf(botHullID) == from);\n    require(slotID < MAX_PART_SLOTS);\n\n    if(partSlots[botHullID][slotID] != 0){\n      _emptySlot(botHullID, slotID, from);\n    }\n    partSlots[botHullID][slotID] = tokenId;\n\n    return IERC721Receiver.onERC721Received.selector;\n  }\n\n  function supportsInterface(bytes4 interfaceId) public view virtual override(AccessControl, ERC721) returns (bool) {\n    return interfaceId == type(IERC721Receiver).interfaceId ||\n           interfaceId == type(IERC777Recipient).interfaceId ||\n            ERC721.supportsInterface(interfaceId) ||\n            AccessControl.supportsInterface(interfaceId);\n  }\n\n}\n\n",
  "sourcePath": "/home/zorro/git/blockchain__general/prototype/contracts/polygon/BotHull.sol",
  "compiler": {
    "name": "solc",
    "version": "0.8.4+commit.c7e474f2.Emscripten.clang"
  },
  "schemaVersion": "3.2.0",
  "updatedAt": "2021-07-22T23:36:49.775Z",
  "networkType": "ethereum",
  "devdoc": {
    "kind": "dev",
    "methods": {
      "approve(address,uint256)": {
        "details": "See {IERC721-approve}."
      },
      "balanceOf(address)": {
        "details": "See {IERC721-balanceOf}."
      },
      "getApproved(uint256)": {
        "details": "See {IERC721-getApproved}."
      },
      "getRoleAdmin(bytes32)": {
        "details": "Returns the admin role that controls `role`. See {grantRole} and {revokeRole}. To change a role's admin, use {_setRoleAdmin}."
      },
      "grantRole(bytes32,address)": {
        "details": "Grants `role` to `account`. If `account` had not been already granted `role`, emits a {RoleGranted} event. Requirements: - the caller must have ``role``'s admin role."
      },
      "hasRole(bytes32,address)": {
        "details": "Returns `true` if `account` has been granted `role`."
      },
      "isApprovedForAll(address,address)": {
        "details": "See {IERC721-isApprovedForAll}."
      },
      "name()": {
        "details": "See {IERC721Metadata-name}."
      },
      "onERC721Received(address,address,uint256,bytes)": {
        "details": "Whenever an {IERC721} `tokenId` token is transferred to this contract via {IERC721-safeTransferFrom} by `operator` from `from`, this function is called. It must return its Solidity selector to confirm the token transfer. If any other value is returned or the interface is not implemented by the recipient, the transfer will be reverted. The selector can be obtained in Solidity with `IERC721.onERC721Received.selector`."
      },
      "ownerOf(uint256)": {
        "details": "See {IERC721-ownerOf}."
      },
      "renounceRole(bytes32,address)": {
        "details": "Revokes `role` from the calling account. Roles are often managed via {grantRole} and {revokeRole}: this function's purpose is to provide a mechanism for accounts to lose their privileges if they are compromised (such as when a trusted device is misplaced). If the calling account had been granted `role`, emits a {RoleRevoked} event. Requirements: - the caller must be `account`."
      },
      "revokeRole(bytes32,address)": {
        "details": "Revokes `role` from `account`. If `account` had been granted `role`, emits a {RoleRevoked} event. Requirements: - the caller must have ``role``'s admin role."
      },
      "safeTransferFrom(address,address,uint256)": {
        "details": "See {IERC721-safeTransferFrom}."
      },
      "safeTransferFrom(address,address,uint256,bytes)": {
        "details": "See {IERC721-safeTransferFrom}."
      },
      "setApprovalForAll(address,bool)": {
        "details": "See {IERC721-setApprovalForAll}."
      },
      "symbol()": {
        "details": "See {IERC721Metadata-symbol}."
      },
      "tokenURI(uint256)": {
        "details": "See {IERC721Metadata-tokenURI}."
      },
      "transferFrom(address,address,uint256)": {
        "details": "See {IERC721-transferFrom}."
      }
    },
    "version": 1
  },
  "userdoc": {
    "kind": "user",
    "methods": {},
    "version": 1
  }
}