{
  "contractName": "BotPart",
  "abi": [
    {
      "inputs": [
        {
          "internalType": "address",
          "name": "_metaTransactionForwarder",
          "type": "address"
        }
      ],
      "stateMutability": "nonpayable",
      "type": "constructor"
    },
    {
      "anonymous": false,
      "inputs": [
        {
          "indexed": true,
          "internalType": "address",
          "name": "owner",
          "type": "address"
        },
        {
          "indexed": true,
          "internalType": "address",
          "name": "approved",
          "type": "address"
        },
        {
          "indexed": true,
          "internalType": "uint256",
          "name": "tokenId",
          "type": "uint256"
        }
      ],
      "name": "Approval",
      "type": "event"
    },
    {
      "anonymous": false,
      "inputs": [
        {
          "indexed": true,
          "internalType": "address",
          "name": "owner",
          "type": "address"
        },
        {
          "indexed": true,
          "internalType": "address",
          "name": "operator",
          "type": "address"
        },
        {
          "indexed": false,
          "internalType": "bool",
          "name": "approved",
          "type": "bool"
        }
      ],
      "name": "ApprovalForAll",
      "type": "event"
    },
    {
      "anonymous": false,
      "inputs": [
        {
          "indexed": false,
          "internalType": "address",
          "name": "account",
          "type": "address"
        }
      ],
      "name": "Paused",
      "type": "event"
    },
    {
      "anonymous": false,
      "inputs": [
        {
          "indexed": true,
          "internalType": "bytes32",
          "name": "role",
          "type": "bytes32"
        },
        {
          "indexed": true,
          "internalType": "bytes32",
          "name": "previousAdminRole",
          "type": "bytes32"
        },
        {
          "indexed": true,
          "internalType": "bytes32",
          "name": "newAdminRole",
          "type": "bytes32"
        }
      ],
      "name": "RoleAdminChanged",
      "type": "event"
    },
    {
      "anonymous": false,
      "inputs": [
        {
          "indexed": true,
          "internalType": "bytes32",
          "name": "role",
          "type": "bytes32"
        },
        {
          "indexed": true,
          "internalType": "address",
          "name": "account",
          "type": "address"
        },
        {
          "indexed": true,
          "internalType": "address",
          "name": "sender",
          "type": "address"
        }
      ],
      "name": "RoleGranted",
      "type": "event"
    },
    {
      "anonymous": false,
      "inputs": [
        {
          "indexed": true,
          "internalType": "bytes32",
          "name": "role",
          "type": "bytes32"
        },
        {
          "indexed": true,
          "internalType": "address",
          "name": "account",
          "type": "address"
        },
        {
          "indexed": true,
          "internalType": "address",
          "name": "sender",
          "type": "address"
        }
      ],
      "name": "RoleRevoked",
      "type": "event"
    },
    {
      "anonymous": false,
      "inputs": [
        {
          "indexed": true,
          "internalType": "address",
          "name": "from",
          "type": "address"
        },
        {
          "indexed": true,
          "internalType": "address",
          "name": "to",
          "type": "address"
        },
        {
          "indexed": true,
          "internalType": "uint256",
          "name": "tokenId",
          "type": "uint256"
        }
      ],
      "name": "Transfer",
      "type": "event"
    },
    {
      "anonymous": false,
      "inputs": [
        {
          "indexed": false,
          "internalType": "address",
          "name": "account",
          "type": "address"
        }
      ],
      "name": "Unpaused",
      "type": "event"
    },
    {
      "inputs": [],
      "name": "DEFAULT_ADMIN_ROLE",
      "outputs": [
        {
          "internalType": "bytes32",
          "name": "",
          "type": "bytes32"
        }
      ],
      "stateMutability": "view",
      "type": "function",
      "constant": true
    },
    {
      "inputs": [],
      "name": "MINTER_ROLE",
      "outputs": [
        {
          "internalType": "bytes32",
          "name": "",
          "type": "bytes32"
        }
      ],
      "stateMutability": "view",
      "type": "function",
      "constant": true
    },
    {
      "inputs": [],
      "name": "PAUSER_ROLE",
      "outputs": [
        {
          "internalType": "bytes32",
          "name": "",
          "type": "bytes32"
        }
      ],
      "stateMutability": "view",
      "type": "function",
      "constant": true
    },
    {
      "inputs": [
        {
          "internalType": "address",
          "name": "to",
          "type": "address"
        },
        {
          "internalType": "uint256",
          "name": "tokenId",
          "type": "uint256"
        }
      ],
      "name": "approve",
      "outputs": [],
      "stateMutability": "nonpayable",
      "type": "function"
    },
    {
      "inputs": [
        {
          "internalType": "address",
          "name": "owner",
          "type": "address"
        }
      ],
      "name": "balanceOf",
      "outputs": [
        {
          "internalType": "uint256",
          "name": "",
          "type": "uint256"
        }
      ],
      "stateMutability": "view",
      "type": "function",
      "constant": true
    },
    {
      "inputs": [
        {
          "internalType": "uint256",
          "name": "tokenId",
          "type": "uint256"
        }
      ],
      "name": "burn",
      "outputs": [],
      "stateMutability": "nonpayable",
      "type": "function"
    },
    {
      "inputs": [
        {
          "internalType": "uint256",
          "name": "tokenId",
          "type": "uint256"
        }
      ],
      "name": "getApproved",
      "outputs": [
        {
          "internalType": "address",
          "name": "",
          "type": "address"
        }
      ],
      "stateMutability": "view",
      "type": "function",
      "constant": true
    },
    {
      "inputs": [
        {
          "internalType": "bytes32",
          "name": "role",
          "type": "bytes32"
        }
      ],
      "name": "getRoleAdmin",
      "outputs": [
        {
          "internalType": "bytes32",
          "name": "",
          "type": "bytes32"
        }
      ],
      "stateMutability": "view",
      "type": "function",
      "constant": true
    },
    {
      "inputs": [
        {
          "internalType": "bytes32",
          "name": "role",
          "type": "bytes32"
        },
        {
          "internalType": "uint256",
          "name": "index",
          "type": "uint256"
        }
      ],
      "name": "getRoleMember",
      "outputs": [
        {
          "internalType": "address",
          "name": "",
          "type": "address"
        }
      ],
      "stateMutability": "view",
      "type": "function",
      "constant": true
    },
    {
      "inputs": [
        {
          "internalType": "bytes32",
          "name": "role",
          "type": "bytes32"
        }
      ],
      "name": "getRoleMemberCount",
      "outputs": [
        {
          "internalType": "uint256",
          "name": "",
          "type": "uint256"
        }
      ],
      "stateMutability": "view",
      "type": "function",
      "constant": true
    },
    {
      "inputs": [
        {
          "internalType": "bytes32",
          "name": "role",
          "type": "bytes32"
        },
        {
          "internalType": "address",
          "name": "account",
          "type": "address"
        }
      ],
      "name": "grantRole",
      "outputs": [],
      "stateMutability": "nonpayable",
      "type": "function"
    },
    {
      "inputs": [
        {
          "internalType": "bytes32",
          "name": "role",
          "type": "bytes32"
        },
        {
          "internalType": "address",
          "name": "account",
          "type": "address"
        }
      ],
      "name": "hasRole",
      "outputs": [
        {
          "internalType": "bool",
          "name": "",
          "type": "bool"
        }
      ],
      "stateMutability": "view",
      "type": "function",
      "constant": true
    },
    {
      "inputs": [
        {
          "internalType": "address",
          "name": "owner",
          "type": "address"
        },
        {
          "internalType": "address",
          "name": "operator",
          "type": "address"
        }
      ],
      "name": "isApprovedForAll",
      "outputs": [
        {
          "internalType": "bool",
          "name": "",
          "type": "bool"
        }
      ],
      "stateMutability": "view",
      "type": "function",
      "constant": true
    },
    {
      "inputs": [],
      "name": "metaTransactionForwarder",
      "outputs": [
        {
          "internalType": "address",
          "name": "",
          "type": "address"
        }
      ],
      "stateMutability": "view",
      "type": "function",
      "constant": true
    },
    {
      "inputs": [],
      "name": "name",
      "outputs": [
        {
          "internalType": "string",
          "name": "",
          "type": "string"
        }
      ],
      "stateMutability": "view",
      "type": "function",
      "constant": true
    },
    {
      "inputs": [
        {
          "internalType": "uint256",
          "name": "tokenId",
          "type": "uint256"
        }
      ],
      "name": "ownerOf",
      "outputs": [
        {
          "internalType": "address",
          "name": "",
          "type": "address"
        }
      ],
      "stateMutability": "view",
      "type": "function",
      "constant": true
    },
    {
      "inputs": [],
      "name": "pause",
      "outputs": [],
      "stateMutability": "nonpayable",
      "type": "function"
    },
    {
      "inputs": [],
      "name": "paused",
      "outputs": [
        {
          "internalType": "bool",
          "name": "",
          "type": "bool"
        }
      ],
      "stateMutability": "view",
      "type": "function",
      "constant": true
    },
    {
      "inputs": [
        {
          "internalType": "bytes32",
          "name": "role",
          "type": "bytes32"
        },
        {
          "internalType": "address",
          "name": "account",
          "type": "address"
        }
      ],
      "name": "renounceRole",
      "outputs": [],
      "stateMutability": "nonpayable",
      "type": "function"
    },
    {
      "inputs": [
        {
          "internalType": "bytes32",
          "name": "role",
          "type": "bytes32"
        },
        {
          "internalType": "address",
          "name": "account",
          "type": "address"
        }
      ],
      "name": "revokeRole",
      "outputs": [],
      "stateMutability": "nonpayable",
      "type": "function"
    },
    {
      "inputs": [
        {
          "internalType": "address",
          "name": "from",
          "type": "address"
        },
        {
          "internalType": "address",
          "name": "to",
          "type": "address"
        },
        {
          "internalType": "uint256",
          "name": "tokenId",
          "type": "uint256"
        }
      ],
      "name": "safeTransferFrom",
      "outputs": [],
      "stateMutability": "nonpayable",
      "type": "function"
    },
    {
      "inputs": [
        {
          "internalType": "address",
          "name": "from",
          "type": "address"
        },
        {
          "internalType": "address",
          "name": "to",
          "type": "address"
        },
        {
          "internalType": "uint256",
          "name": "tokenId",
          "type": "uint256"
        },
        {
          "internalType": "bytes",
          "name": "_data",
          "type": "bytes"
        }
      ],
      "name": "safeTransferFrom",
      "outputs": [],
      "stateMutability": "nonpayable",
      "type": "function"
    },
    {
      "inputs": [
        {
          "internalType": "address",
          "name": "operator",
          "type": "address"
        },
        {
          "internalType": "bool",
          "name": "approved",
          "type": "bool"
        }
      ],
      "name": "setApprovalForAll",
      "outputs": [],
      "stateMutability": "nonpayable",
      "type": "function"
    },
    {
      "inputs": [
        {
          "internalType": "bytes4",
          "name": "interfaceId",
          "type": "bytes4"
        }
      ],
      "name": "supportsInterface",
      "outputs": [
        {
          "internalType": "bool",
          "name": "",
          "type": "bool"
        }
      ],
      "stateMutability": "view",
      "type": "function",
      "constant": true
    },
    {
      "inputs": [],
      "name": "symbol",
      "outputs": [
        {
          "internalType": "string",
          "name": "",
          "type": "string"
        }
      ],
      "stateMutability": "view",
      "type": "function",
      "constant": true
    },
    {
      "inputs": [
        {
          "internalType": "uint256",
          "name": "index",
          "type": "uint256"
        }
      ],
      "name": "tokenByIndex",
      "outputs": [
        {
          "internalType": "uint256",
          "name": "",
          "type": "uint256"
        }
      ],
      "stateMutability": "view",
      "type": "function",
      "constant": true
    },
    {
      "inputs": [
        {
          "internalType": "address",
          "name": "owner",
          "type": "address"
        },
        {
          "internalType": "uint256",
          "name": "index",
          "type": "uint256"
        }
      ],
      "name": "tokenOfOwnerByIndex",
      "outputs": [
        {
          "internalType": "uint256",
          "name": "",
          "type": "uint256"
        }
      ],
      "stateMutability": "view",
      "type": "function",
      "constant": true
    },
    {
      "inputs": [
        {
          "internalType": "uint256",
          "name": "",
          "type": "uint256"
        }
      ],
      "name": "tokenPartType",
      "outputs": [
        {
          "internalType": "uint32",
          "name": "",
          "type": "uint32"
        }
      ],
      "stateMutability": "view",
      "type": "function",
      "constant": true
    },
    {
      "inputs": [
        {
          "internalType": "uint256",
          "name": "",
          "type": "uint256"
        },
        {
          "internalType": "uint256",
          "name": "",
          "type": "uint256"
        }
      ],
      "name": "tokenStats",
      "outputs": [
        {
          "internalType": "uint256",
          "name": "",
          "type": "uint256"
        }
      ],
      "stateMutability": "view",
      "type": "function",
      "constant": true
    },
    {
      "inputs": [
        {
          "internalType": "uint256",
          "name": "tokenId",
          "type": "uint256"
        }
      ],
      "name": "tokenURI",
      "outputs": [
        {
          "internalType": "string",
          "name": "",
          "type": "string"
        }
      ],
      "stateMutability": "view",
      "type": "function",
      "constant": true
    },
    {
      "inputs": [],
      "name": "totalSupply",
      "outputs": [
        {
          "internalType": "uint256",
          "name": "",
          "type": "uint256"
        }
      ],
      "stateMutability": "view",
      "type": "function",
      "constant": true
    },
    {
      "inputs": [
        {
          "internalType": "address",
          "name": "from",
          "type": "address"
        },
        {
          "internalType": "address",
          "name": "to",
          "type": "address"
        },
        {
          "internalType": "uint256",
          "name": "tokenId",
          "type": "uint256"
        }
      ],
      "name": "transferFrom",
      "outputs": [],
      "stateMutability": "nonpayable",
      "type": "function"
    },
    {
      "inputs": [],
      "name": "unpause",
      "outputs": [],
      "stateMutability": "nonpayable",
      "type": "function"
    },
    {
      "inputs": [
        {
          "internalType": "address",
          "name": "",
          "type": "address"
        }
      ],
      "name": "mint",
      "outputs": [],
      "stateMutability": "pure",
      "type": "function",
      "constant": true
    },
    {
      "inputs": [
        {
          "internalType": "address",
          "name": "player",
          "type": "address"
        },
        {
          "internalType": "uint32",
          "name": "_tokenPartType",
          "type": "uint32"
        },
        {
          "internalType": "uint256[]",
          "name": "_tokenStats",
          "type": "uint256[]"
        }
      ],
      "name": "mintItem",
      "outputs": [
        {
          "internalType": "uint256",
          "name": "",
          "type": "uint256"
        }
      ],
      "stateMutability": "nonpayable",
      "type": "function"
    },
    {
      "inputs": [
        {
          "internalType": "address",
          "name": "to",
          "type": "address"
        },
        {
          "internalType": "uint256",
          "name": "tokenId",
          "type": "uint256"
        },
        {
          "internalType": "address",
          "name": "from",
          "type": "address"
        }
      ],
      "name": "metaApprove",
      "outputs": [],
      "stateMutability": "nonpayable",
      "type": "function"
    },
    {
      "inputs": [
        {
          "internalType": "address",
          "name": "to",
          "type": "address"
        },
        {
          "internalType": "uint256",
          "name": "tokenId",
          "type": "uint256"
        },
        {
          "internalType": "bytes",
          "name": "_data",
          "type": "bytes"
        },
        {
          "internalType": "address",
          "name": "from",
          "type": "address"
        }
      ],
      "name": "metaSafeTransfer",
      "outputs": [],
      "stateMutability": "nonpayable",
      "type": "function"
    }
  ],
  "bytecode": "0x60806040523480156200001157600080fd5b506040516200331f3803806200331f8339810160408190526200003491620003f4565b60405180604001604052806007815260200166109bdd14185c9d60ca1b81525060405180604001604052806002815260200161042560f41b815250604051806040016040528060078152602001667465737455524960c81b81525082828160029080519060200190620000a99291906200034e565b508051620000bf9060039060208401906200034e565b5050600c805460ff19169055508051620000e190600e9060208401906200034e565b50620000ef60003362000195565b6200010a600080516020620032ff8339815191523362000195565b62000125600080516020620032df8339815191523362000195565b506200013791506000905080620001d8565b62000153600080516020620032ff8339815191526000620001d8565b6200016f600080516020620032df8339815191526000620001d8565b601280546001600160a01b0319166001600160a01b039290921691909117905562000461565b620001ac82826200022c60201b620012971760201c565b6000828152600160209081526040909120620001d3918390620012a56200023c821b17901c565b505050565b600082815260208190526040902060010154819060405184907fbd79b86ffe0ab8e8776151514217cd7cacd52c909f66475c3af44e129f0b00ff90600090a460009182526020829052604090912060010155565b6200023882826200025c565b5050565b600062000253836001600160a01b038416620002fc565b90505b92915050565b6000828152602081815260408083206001600160a01b038516845290915290205460ff1662000238576000828152602081815260408083206001600160a01b03851684529091529020805460ff19166001179055620002b83390565b6001600160a01b0316816001600160a01b0316837f2f8788117e7eff1d82e926ec794901d17c78024a50270940304540a733656f0d60405160405180910390a45050565b6000818152600183016020526040812054620003455750815460018181018455600084815260208082209093018490558454848252828601909352604090209190915562000256565b50600062000256565b8280546200035c9062000424565b90600052602060002090601f016020900481019282620003805760008555620003cb565b82601f106200039b57805160ff1916838001178555620003cb565b82800160010185558215620003cb579182015b82811115620003cb578251825591602001919060010190620003ae565b50620003d9929150620003dd565b5090565b5b80821115620003d95760008155600101620003de565b60006020828403121562000406578081fd5b81516001600160a01b03811681146200041d578182fd5b9392505050565b600181811c908216806200043957607f821691505b602082108114156200045b57634e487b7160e01b600052602260045260246000fd5b50919050565b612e6e80620004716000396000f3fe608060405234801561001057600080fd5b50600436106102775760003560e01c80636352211e11610160578063a217fddf116100d8578063d53913931161008c578063e63ab1e911610071578063e63ab1e914610572578063e985e9c514610599578063f3ecec06146105d557600080fd5b8063d539139314610538578063d547741f1461055f57600080fd5b8063b88d4fde116100bd578063b88d4fde146104ff578063c87b56dd14610512578063ca15c8731461052557600080fd5b8063a217fddf146104e4578063a22cb465146104ec57600080fd5b80637c2a0e2d1161012f5780639010d07c116101145780639010d07c1461049257806391d14854146104a557806395d89b41146104dc57600080fd5b80637c2a0e2d146104775780638456cb591461048a57600080fd5b80636352211e1461040357806364282d0b146104165780636a6278421461045157806370a082311461046457600080fd5b80632f2ff15d116101f357806342842e0e116101c25780634f6ccce7116101a75780634f6ccce7146103d25780635b6d9504146103e55780635c975abb146103f857600080fd5b806342842e0e146103ac57806342966c68146103bf57600080fd5b80632f2ff15d1461036b5780632f745c591461037e57806336568abe146103915780633f4ba83a146103a457600080fd5b80630b56761c1161024a57806318f428d51161022f57806318f428d51461032257806323b872dd14610335578063248a9ca31461034857600080fd5b80630b56761c146102f957806318160ddd1461031a57600080fd5b806301ffc9a71461027c57806306fdde03146102a4578063081812fc146102b9578063095ea7b3146102e4575b600080fd5b61028f61028a366004612b78565b6105e8565b60405190151581526020015b60405180910390f35b6102ac6105f9565b60405161029b9190612cbe565b6102cc6102c7366004612b1d565b61068b565b6040516001600160a01b03909116815260200161029b565b6102f76102f23660046129bd565b610736565b005b61030c610307366004612a87565b61084c565b60405190815260200161029b565b600a5461030c565b6012546102cc906001600160a01b031681565b6102f76103433660046128e2565b6108d4565b61030c610356366004612b1d565b60009081526020819052604090206001015490565b6102f7610379366004612b35565b61095c565b61030c61038c3660046129bd565b61097e565b6102f761039f366004612b35565b610a26565b6102f7610a48565b6102f76103ba3660046128e2565b610af0565b6102f76103cd366004612b1d565b610b0b565b61030c6103e0366004612b1d565b610b92565b6102f76103f3366004612a21565b610c44565b600c5460ff1661028f565b6102cc610411366004612b1d565b610c76565b61043c610424366004612b1d565b60106020526000908152604090205463ffffffff1681565b60405163ffffffff909116815260200161029b565b6102f761045f366004612896565b610d01565b61030c610472366004612896565b610d49565b6102f76104853660046129e6565b610de3565b6102f7610f3e565b6102cc6104a0366004612b57565b610fe2565b61028f6104b3366004612b35565b6000918252602082815260408084206001600160a01b0393909316845291905290205460ff1690565b6102ac611001565b61030c600081565b6102f76104fa366004612983565b611010565b6102f761050d36600461291d565b6110d5565b6102ac610520366004612b1d565b61115d565b61030c610533366004612b1d565b611245565b61030c7f9f2df0fed2c77648de5860a4cc508cd0818c85b8b8a1ab4ceeef8d981c8956a681565b6102f761056d366004612b35565b61125c565b61030c7f65d7a28e3265b37a6474929f336521b332c1681b933f6cb9f3376673440d862a81565b61028f6105a73660046128b0565b6001600160a01b03918216600090815260076020908152604080832093909416825291909152205460ff1690565b61030c6105e3366004612b57565b611266565b60006105f3826112ba565b92915050565b60606002805461060890612d76565b80601f016020809104026020016040519081016040528092919081815260200182805461063490612d76565b80156106815780601f1061065657610100808354040283529160200191610681565b820191906000526020600020905b81548152906001019060200180831161066457829003601f168201915b5050505050905090565b6000818152600460205260408120546001600160a01b031661071a5760405162461bcd60e51b815260206004820152602c60248201527f4552433732313a20617070726f76656420717565727920666f72206e6f6e657860448201527f697374656e7420746f6b656e000000000000000000000000000000000000000060648201526084015b60405180910390fd5b506000908152600660205260409020546001600160a01b031690565b600061074182610c76565b9050806001600160a01b0316836001600160a01b031614156107af5760405162461bcd60e51b815260206004820152602160248201527f4552433732313a20617070726f76616c20746f2063757272656e74206f776e656044820152603960f91b6064820152608401610711565b336001600160a01b03821614806107cb57506107cb81336105a7565b61083d5760405162461bcd60e51b815260206004820152603860248201527f4552433732313a20617070726f76652063616c6c6572206973206e6f74206f7760448201527f6e6572206e6f7220617070726f76656420666f7220616c6c00000000000000006064820152608401610711565b61084783836112f8565b505050565b60007f9f2df0fed2c77648de5860a4cc508cd0818c85b8b8a1ab4ceeef8d981c8956a66108798133611373565b610887600f80546001019055565b6000610892600f5490565b905061089e87826113f1565b6000818152601060205260409020805463ffffffff191663ffffffff88161790556108ca81868661154c565b9695505050505050565b6108df335b82611565565b6109515760405162461bcd60e51b815260206004820152603160248201527f4552433732313a207472616e736665722063616c6c6572206973206e6f74206f60448201527f776e6572206e6f7220617070726f7665640000000000000000000000000000006064820152608401610711565b61084783838361166d565b6109668282611852565b600082815260016020526040902061084790826112a5565b600061098983610d49565b82106109fd5760405162461bcd60e51b815260206004820152602b60248201527f455243373231456e756d657261626c653a206f776e657220696e646578206f7560448201527f74206f6620626f756e64730000000000000000000000000000000000000000006064820152608401610711565b506001600160a01b03919091166000908152600860209081526040808320938352929052205490565b610a308282611878565b60008281526001602052604090206108479082611900565b610a727f65d7a28e3265b37a6474929f336521b332c1681b933f6cb9f3376673440d862a336104b3565b610ae6576040805162461bcd60e51b81526020600482015260248101919091527f4552433732315072657365744d696e7465725061757365724175746f49643a2060448201527f6d75737420686176652070617573657220726f6c6520746f20756e70617573656064820152608401610711565b610aee611915565b565b610847838383604051806020016040528060008152506110d5565b610b14336108d9565b610b865760405162461bcd60e51b815260206004820152603060248201527f4552433732314275726e61626c653a2063616c6c6572206973206e6f74206f7760448201527f6e6572206e6f7220617070726f766564000000000000000000000000000000006064820152608401610711565b610b8f816119b1565b50565b6000610b9d600a5490565b8210610c115760405162461bcd60e51b815260206004820152602c60248201527f455243373231456e756d657261626c653a20676c6f62616c20696e646578206f60448201527f7574206f6620626f756e647300000000000000000000000000000000000000006064820152608401610711565b600a8281548110610c3257634e487b7160e01b600052603260045260246000fd5b90600052602060002001549050919050565b6012546001600160a01b0316336001600160a01b031614610c6457600080fd5b610c7081858585611a65565b50505050565b6000818152600460205260408120546001600160a01b0316806105f35760405162461bcd60e51b815260206004820152602960248201527f4552433732313a206f776e657220717565727920666f72206e6f6e657869737460448201527f656e7420746f6b656e00000000000000000000000000000000000000000000006064820152608401610711565b60405162461bcd60e51b815260206004820152601260248201527f46756e6374696f6e206e6f7420757365642100000000000000000000000000006044820152606401610711565b60006001600160a01b038216610dc75760405162461bcd60e51b815260206004820152602a60248201527f4552433732313a2062616c616e636520717565727920666f7220746865207a6560448201527f726f2061646472657373000000000000000000000000000000000000000000006064820152608401610711565b506001600160a01b031660009081526005602052604090205490565b6000610dee83610c76565b9050806001600160a01b0316846001600160a01b03161415610e5c5760405162461bcd60e51b815260206004820152602160248201527f4552433732313a20617070726f76616c20746f2063757272656e74206f776e656044820152603960f91b6064820152608401610711565b6012546001600160a01b0316336001600160a01b031614610e7c57600080fd5b806001600160a01b0316826001600160a01b0316141580610ec257506001600160a01b0380821660009081526007602090815260408083209386168352929052205460ff165b610f345760405162461bcd60e51b815260206004820152603860248201527f4552433732313a20617070726f76652063616c6c6572206973206e6f74206f7760448201527f6e6572206e6f7220617070726f76656420666f7220616c6c00000000000000006064820152608401610711565b610c7084846112f8565b610f687f65d7a28e3265b37a6474929f336521b332c1681b933f6cb9f3376673440d862a336104b3565b610fda5760405162461bcd60e51b815260206004820152603e60248201527f4552433732315072657365744d696e7465725061757365724175746f49643a2060448201527f6d75737420686176652070617573657220726f6c6520746f20706175736500006064820152608401610711565b610aee611aee565b6000828152600160205260408120610ffa9083611b76565b9392505050565b60606003805461060890612d76565b6001600160a01b0382163314156110695760405162461bcd60e51b815260206004820152601960248201527f4552433732313a20617070726f766520746f2063616c6c6572000000000000006044820152606401610711565b3360008181526007602090815260408083206001600160a01b03871680855290835292819020805460ff191686151590811790915590519081529192917f17307eab39ab6107e8899845ad3d59bd9653f200f220920489ca2b5937696c31910160405180910390a35050565b6110df3383611565565b6111515760405162461bcd60e51b815260206004820152603160248201527f4552433732313a207472616e736665722063616c6c6572206973206e6f74206f60448201527f776e6572206e6f7220617070726f7665640000000000000000000000000000006064820152608401610711565b610c7084848484611a65565b6000818152600460205260409020546060906001600160a01b03166111ea5760405162461bcd60e51b815260206004820152602f60248201527f4552433732314d657461646174613a2055524920717565727920666f72206e6f60448201527f6e6578697374656e7420746f6b656e00000000000000000000000000000000006064820152608401610711565b60006111f4611b82565b905060008151116112145760405180602001604052806000815250610ffa565b8061121e84611b91565b60405160200161122f929190612bdc565b6040516020818303038152906040529392505050565b60008181526001602052604081206105f390611cab565b610a308282611cb5565b6011602052816000526040600020818154811061128257600080fd5b90600052602060002001600091509150505481565b6112a18282611cdb565b5050565b6000610ffa836001600160a01b038416611d79565b60006001600160e01b031982167f780e9d630000000000000000000000000000000000000000000000000000000014806105f357506105f382611dc8565b6000818152600660205260409020805473ffffffffffffffffffffffffffffffffffffffff19166001600160a01b038416908117909155819061133a82610c76565b6001600160a01b03167f8c5be1e5ebec7d5bd14f71427d1e84f3dd0314c0f7b2291e5b200ac8c7c3b92560405160405180910390a45050565b6000828152602081815260408083206001600160a01b038516845290915290205460ff166112a1576113af816001600160a01b03166014611e3a565b6113ba836020611e3a565b6040516020016113cb929190612c0b565b60408051601f198184030181529082905262461bcd60e51b825261071191600401612cbe565b6001600160a01b0382166114475760405162461bcd60e51b815260206004820181905260248201527f4552433732313a206d696e7420746f20746865207a65726f20616464726573736044820152606401610711565b6000818152600460205260409020546001600160a01b0316156114ac5760405162461bcd60e51b815260206004820152601c60248201527f4552433732313a20746f6b656e20616c7265616479206d696e746564000000006044820152606401610711565b6114b860008383612045565b6001600160a01b03821660009081526005602052604081208054600192906114e1908490612cd1565b9091555050600081815260046020526040808220805473ffffffffffffffffffffffffffffffffffffffff19166001600160a01b03861690811790915590518392907fddf252ad1be2c89b69c2b068fc378daa952ba7f163c4a11628f55a4df523b3ef908290a45050565b6000838152601160205260409020610c70908383612793565b6000818152600460205260408120546001600160a01b03166115ef5760405162461bcd60e51b815260206004820152602c60248201527f4552433732313a206f70657261746f7220717565727920666f72206e6f6e657860448201527f697374656e7420746f6b656e00000000000000000000000000000000000000006064820152608401610711565b60006115fa83610c76565b9050806001600160a01b0316846001600160a01b031614806116355750836001600160a01b031661162a8461068b565b6001600160a01b0316145b8061166557506001600160a01b0380821660009081526007602090815260408083209388168352929052205460ff165b949350505050565b826001600160a01b031661168082610c76565b6001600160a01b0316146116fc5760405162461bcd60e51b815260206004820152602960248201527f4552433732313a207472616e73666572206f6620746f6b656e2074686174206960448201527f73206e6f74206f776e00000000000000000000000000000000000000000000006064820152608401610711565b6001600160a01b0382166117775760405162461bcd60e51b8152602060048201526024808201527f4552433732313a207472616e7366657220746f20746865207a65726f2061646460448201527f72657373000000000000000000000000000000000000000000000000000000006064820152608401610711565b611782838383612045565b61178d6000826112f8565b6001600160a01b03831660009081526005602052604081208054600192906117b6908490612d1c565b90915550506001600160a01b03821660009081526005602052604081208054600192906117e4908490612cd1565b9091555050600081815260046020526040808220805473ffffffffffffffffffffffffffffffffffffffff19166001600160a01b0386811691821790925591518493918716917fddf252ad1be2c89b69c2b068fc378daa952ba7f163c4a11628f55a4df523b3ef91a4505050565b60008281526020819052604090206001015461186e8133611373565b6108478383611cdb565b6001600160a01b03811633146118f65760405162461bcd60e51b815260206004820152602f60248201527f416363657373436f6e74726f6c3a2063616e206f6e6c792072656e6f756e636560448201527f20726f6c657320666f722073656c6600000000000000000000000000000000006064820152608401610711565b6112a18282612050565b6000610ffa836001600160a01b0384166120cf565b600c5460ff166119675760405162461bcd60e51b815260206004820152601460248201527f5061757361626c653a206e6f74207061757365640000000000000000000000006044820152606401610711565b600c805460ff191690557f5db9ee0a495bf2e6ff9c91a7834c1ba4fdd244a5e8aa4e537bd38aeae4b073aa335b6040516001600160a01b03909116815260200160405180910390a1565b60006119bc82610c76565b90506119ca81600084612045565b6119d56000836112f8565b6001600160a01b03811660009081526005602052604081208054600192906119fe908490612d1c565b9091555050600082815260046020526040808220805473ffffffffffffffffffffffffffffffffffffffff19169055518391906001600160a01b038416907fddf252ad1be2c89b69c2b068fc378daa952ba7f163c4a11628f55a4df523b3ef908390a45050565b611a7084848461166d565b611a7c848484846121e6565b610c705760405162461bcd60e51b815260206004820152603260248201527f4552433732313a207472616e7366657220746f206e6f6e20455243373231526560448201527f63656976657220696d706c656d656e74657200000000000000000000000000006064820152608401610711565b600c5460ff1615611b415760405162461bcd60e51b815260206004820152601060248201527f5061757361626c653a20706175736564000000000000000000000000000000006044820152606401610711565b600c805460ff191660011790557f62e78cea01bee320cd4e420270b5ea74000d11b0c9f74754ebdbfc544b05a2586119943390565b6000610ffa8383612349565b6060600e805461060890612d76565b606081611bb55750506040805180820190915260018152600360fc1b602082015290565b8160005b8115611bdf5780611bc981612db1565b9150611bd89050600a83612ce9565b9150611bb9565b60008167ffffffffffffffff811115611c0857634e487b7160e01b600052604160045260246000fd5b6040519080825280601f01601f191660200182016040528015611c32576020820181803683370190505b5090505b841561166557611c47600183612d1c565b9150611c54600a86612dcc565b611c5f906030612cd1565b60f81b818381518110611c8257634e487b7160e01b600052603260045260246000fd5b60200101906001600160f81b031916908160001a905350611ca4600a86612ce9565b9450611c36565b60006105f3825490565b600082815260208190526040902060010154611cd18133611373565b6108478383612050565b6000828152602081815260408083206001600160a01b038516845290915290205460ff166112a1576000828152602081815260408083206001600160a01b03851684529091529020805460ff19166001179055611d353390565b6001600160a01b0316816001600160a01b0316837f2f8788117e7eff1d82e926ec794901d17c78024a50270940304540a733656f0d60405160405180910390a45050565b6000818152600183016020526040812054611dc0575081546001818101845560008481526020808220909301849055845484825282860190935260409020919091556105f3565b5060006105f3565b60006001600160e01b031982167f80ac58cd000000000000000000000000000000000000000000000000000000001480611e2b57506001600160e01b031982167f5b5e139f00000000000000000000000000000000000000000000000000000000145b806105f357506105f3826123f8565b60606000611e49836002612cfd565b611e54906002612cd1565b67ffffffffffffffff811115611e7a57634e487b7160e01b600052604160045260246000fd5b6040519080825280601f01601f191660200182016040528015611ea4576020820181803683370190505b509050600360fc1b81600081518110611ecd57634e487b7160e01b600052603260045260246000fd5b60200101906001600160f81b031916908160001a9053507f780000000000000000000000000000000000000000000000000000000000000081600181518110611f2657634e487b7160e01b600052603260045260246000fd5b60200101906001600160f81b031916908160001a9053506000611f4a846002612cfd565b611f55906001612cd1565b90505b6001811115611ff6577f303132333435363738396162636465660000000000000000000000000000000085600f1660108110611fa457634e487b7160e01b600052603260045260246000fd5b1a60f81b828281518110611fc857634e487b7160e01b600052603260045260246000fd5b60200101906001600160f81b031916908160001a90535060049490941c93611fef81612d5f565b9050611f58565b508315610ffa5760405162461bcd60e51b815260206004820181905260248201527f537472696e67733a20686578206c656e67746820696e73756666696369656e746044820152606401610711565b610847838383612436565b6000828152602081815260408083206001600160a01b038516845290915290205460ff16156112a1576000828152602081815260408083206001600160a01b0385168085529252808320805460ff1916905551339285917ff6391f5c32d9c69d2a47ea670b442974b53935d1edc7fd64eb21e047a839171b9190a45050565b600081815260018301602052604081205480156121dc5760006120f3600183612d1c565b855490915060009061210790600190612d1c565b9050600086600001828154811061212e57634e487b7160e01b600052603260045260246000fd5b906000526020600020015490508087600001848154811061215f57634e487b7160e01b600052603260045260246000fd5b6000918252602080832090910192909255828152600189019091526040902084905586548790806121a057634e487b7160e01b600052603160045260246000fd5b600190038181906000526020600020016000905590558660010160008781526020019081526020016000206000905560019450505050506105f3565b60009150506105f3565b60006001600160a01b0384163b1561233e57604051630a85bd0160e11b81526001600160a01b0385169063150b7a029061222a903390899088908890600401612c8c565b602060405180830381600087803b15801561224457600080fd5b505af1925050508015612274575060408051601f3d908101601f1916820190925261227191810190612b94565b60015b612324573d8080156122a2576040519150601f19603f3d011682016040523d82523d6000602084013e6122a7565b606091505b50805161231c5760405162461bcd60e51b815260206004820152603260248201527f4552433732313a207472616e7366657220746f206e6f6e20455243373231526560448201527f63656976657220696d706c656d656e74657200000000000000000000000000006064820152608401610711565b805181602001fd5b6001600160e01b031916630a85bd0160e11b149050611665565b506001949350505050565b815460009082106123c25760405162461bcd60e51b815260206004820152602260248201527f456e756d657261626c655365743a20696e646578206f7574206f6620626f756e60448201527f64730000000000000000000000000000000000000000000000000000000000006064820152608401610711565b8260000182815481106123e557634e487b7160e01b600052603260045260246000fd5b9060005260206000200154905092915050565b60006001600160e01b031982167f5a05180f0000000000000000000000000000000000000000000000000000000014806105f357506105f3826124ba565b612441838383612521565b600c5460ff16156108475760405162461bcd60e51b815260206004820152602b60248201527f4552433732315061757361626c653a20746f6b656e207472616e73666572207760448201527f68696c65207061757365640000000000000000000000000000000000000000006064820152608401610711565b60006001600160e01b031982167f7965db0b0000000000000000000000000000000000000000000000000000000014806105f357507f01ffc9a7000000000000000000000000000000000000000000000000000000006001600160e01b03198316146105f3565b6001600160a01b03831661257c5761257781600a80546000838152600b60205260408120829055600182018355919091527fc65a7bb8d6351c1cf70c95a316cc6a92839c986682d98bc35f958f4883f9d2a80155565b61259f565b816001600160a01b0316836001600160a01b03161461259f5761259f83826125d9565b6001600160a01b0382166125b65761084781612676565b826001600160a01b0316826001600160a01b03161461084757610847828261274f565b600060016125e684610d49565b6125f09190612d1c565b600083815260096020526040902054909150808214612643576001600160a01b03841660009081526008602090815260408083208584528252808320548484528184208190558352600990915290208190555b5060009182526009602090815260408084208490556001600160a01b039094168352600881528383209183525290812055565b600a5460009061268890600190612d1c565b6000838152600b6020526040812054600a80549394509092849081106126be57634e487b7160e01b600052603260045260246000fd5b9060005260206000200154905080600a83815481106126ed57634e487b7160e01b600052603260045260246000fd5b6000918252602080832090910192909255828152600b9091526040808220849055858252812055600a80548061273357634e487b7160e01b600052603160045260246000fd5b6001900381819060005260206000200160009055905550505050565b600061275a83610d49565b6001600160a01b039093166000908152600860209081526040808320868452825280832085905593825260099052919091209190915550565b8280548282559060005260206000209081019282156127ce579160200282015b828111156127ce5782358255916020019190600101906127b3565b506127da9291506127de565b5090565b5b808211156127da57600081556001016127df565b80356001600160a01b038116811461280a57600080fd5b919050565b600082601f83011261281f578081fd5b813567ffffffffffffffff8082111561283a5761283a612e0c565b604051601f8301601f19908116603f0116810190828211818310171561286257612862612e0c565b8160405283815286602085880101111561287a578485fd5b8360208701602083013792830160200193909352509392505050565b6000602082840312156128a7578081fd5b610ffa826127f3565b600080604083850312156128c2578081fd5b6128cb836127f3565b91506128d9602084016127f3565b90509250929050565b6000806000606084860312156128f6578081fd5b6128ff846127f3565b925061290d602085016127f3565b9150604084013590509250925092565b60008060008060808587031215612932578081fd5b61293b856127f3565b9350612949602086016127f3565b925060408501359150606085013567ffffffffffffffff81111561296b578182fd5b6129778782880161280f565b91505092959194509250565b60008060408385031215612995578182fd5b61299e836127f3565b9150602083013580151581146129b2578182fd5b809150509250929050565b600080604083850312156129cf578182fd5b6129d8836127f3565b946020939093013593505050565b6000806000606084860312156129fa578283fd5b612a03846127f3565b925060208401359150612a18604085016127f3565b90509250925092565b60008060008060808587031215612a36578384fd5b612a3f856127f3565b935060208501359250604085013567ffffffffffffffff811115612a61578283fd5b612a6d8782880161280f565b925050612a7c606086016127f3565b905092959194509250565b60008060008060608587031215612a9c578384fd5b612aa5856127f3565b9350602085013563ffffffff81168114612abd578384fd5b9250604085013567ffffffffffffffff80821115612ad9578384fd5b818701915087601f830112612aec578384fd5b813581811115612afa578485fd5b8860208260051b8501011115612b0e578485fd5b95989497505060200194505050565b600060208284031215612b2e578081fd5b5035919050565b60008060408385031215612b47578182fd5b823591506128d9602084016127f3565b60008060408385031215612b69578182fd5b50508035926020909101359150565b600060208284031215612b89578081fd5b8135610ffa81612e22565b600060208284031215612ba5578081fd5b8151610ffa81612e22565b60008151808452612bc8816020860160208601612d33565b601f01601f19169290920160200192915050565b60008351612bee818460208801612d33565b835190830190612c02818360208801612d33565b01949350505050565b7f416363657373436f6e74726f6c3a206163636f756e7420000000000000000000815260008351612c43816017850160208801612d33565b7f206973206d697373696e6720726f6c65200000000000000000000000000000006017918401918201528351612c80816028840160208801612d33565b01602801949350505050565b60006001600160a01b038087168352808616602084015250836040830152608060608301526108ca6080830184612bb0565b602081526000610ffa6020830184612bb0565b60008219821115612ce457612ce4612de0565b500190565b600082612cf857612cf8612df6565b500490565b6000816000190483118215151615612d1757612d17612de0565b500290565b600082821015612d2e57612d2e612de0565b500390565b60005b83811015612d4e578181015183820152602001612d36565b83811115610c705750506000910152565b600081612d6e57612d6e612de0565b506000190190565b600181811c90821680612d8a57607f821691505b60208210811415612dab57634e487b7160e01b600052602260045260246000fd5b50919050565b6000600019821415612dc557612dc5612de0565b5060010190565b600082612ddb57612ddb612df6565b500690565b634e487b7160e01b600052601160045260246000fd5b634e487b7160e01b600052601260045260246000fd5b634e487b7160e01b600052604160045260246000fd5b6001600160e01b031981168114610b8f57600080fdfea26469706673582212208267fc0b50459228281b8c08a0841a2d789ec7a992cb085254c5cc1c37a7338364736f6c6343000804003365d7a28e3265b37a6474929f336521b332c1681b933f6cb9f3376673440d862a9f2df0fed2c77648de5860a4cc508cd0818c85b8b8a1ab4ceeef8d981c8956a6",
  "immutableReferences": {},
  "source": "// SPDX-License-Identifier: MIT\npragma solidity ^0.8.0;\n\nimport \"@openzeppelin/contracts/access/AccessControl.sol\";\nimport \"@openzeppelin/contracts/token/ERC721/presets/ERC721PresetMinterPauserAutoId.sol\";\nimport \"@openzeppelin/contracts/utils/Counters.sol\";\n\n\ncontract BotPart is ERC721PresetMinterPauserAutoId {\n  using Counters for Counters.Counter;\n\n  Counters.Counter private _tokenIds;\n\n  mapping(uint256 => uint32) public tokenPartType; // Lowest PartType starts at = 0x00000020 = 32\n  mapping(uint256 => uint256[]) public tokenStats;\n  \n  address public metaTransactionForwarder;\n\n  constructor(address _metaTransactionForwarder) ERC721PresetMinterPauserAutoId(\"BotPart\", \"BP\", \"testURI\") {\n    _setRoleAdmin(DEFAULT_ADMIN_ROLE, DEFAULT_ADMIN_ROLE);\n    _setRoleAdmin(MINTER_ROLE, DEFAULT_ADMIN_ROLE);\n    _setRoleAdmin(PAUSER_ROLE, DEFAULT_ADMIN_ROLE);\n\n    metaTransactionForwarder = _metaTransactionForwarder;\n  }\n\n  function mint(address) pure public override {\n    revert(\"Function not used!\");\n  }\n\n  function mintItem(address player, uint32 _tokenPartType, uint256[] calldata _tokenStats) public onlyRole(MINTER_ROLE) returns (uint256) {\n    _tokenIds.increment();\n\n    uint256 newItemId = _tokenIds.current();\n    _mint(player, newItemId);\n    _setTokenPartType(newItemId, _tokenPartType);\n    _setTokenStats(newItemId, _tokenStats);\n\n    return newItemId;\n  }\n\n  function _setTokenPartType(uint256 tokenID, uint32 partType) private {\n    tokenPartType[tokenID] = partType;\n  }\n\n  function _setTokenStats(uint256 tokenID, uint256[] calldata _tokenStats) private {\n    tokenStats[tokenID] = _tokenStats;\n  }\n\n  function metaApprove(address to, uint256 tokenId, address from) public {\n        address owner = ERC721.ownerOf(tokenId);\n        require(to != owner, \"ERC721: approval to current owner\");\n\n        require(_msgSender() == metaTransactionForwarder);\n        require(from != owner || isApprovedForAll(owner, from),\n            \"ERC721: approve caller is not owner nor approved for all\"\n        );\n\n        _approve(to, tokenId);\n  }\n\n  function metaSafeTransfer(address to, uint256 tokenId, bytes memory _data, address from) public {\n        require(_msgSender() == metaTransactionForwarder);\n        _safeTransfer(from, to, tokenId, _data);\n  }\n\n}\n\n",
  "sourcePath": "/home/zorro/git/blockchain__general/prototype/contracts/polygon/BotPart.sol",
  "compiler": {
    "name": "solc",
    "version": "0.8.4+commit.c7e474f2.Emscripten.clang"
  },
  "schemaVersion": "3.2.0",
  "updatedAt": "2021-07-22T23:36:49.763Z",
  "networkType": "ethereum",
  "devdoc": {
    "kind": "dev",
    "methods": {
      "approve(address,uint256)": {
        "details": "See {IERC721-approve}."
      },
      "balanceOf(address)": {
        "details": "See {IERC721-balanceOf}."
      },
      "burn(uint256)": {
        "details": "Burns `tokenId`. See {ERC721-_burn}. Requirements: - The caller must own `tokenId` or be an approved operator."
      },
      "getApproved(uint256)": {
        "details": "See {IERC721-getApproved}."
      },
      "getRoleAdmin(bytes32)": {
        "details": "Returns the admin role that controls `role`. See {grantRole} and {revokeRole}. To change a role's admin, use {_setRoleAdmin}."
      },
      "getRoleMember(bytes32,uint256)": {
        "details": "Returns one of the accounts that have `role`. `index` must be a value between 0 and {getRoleMemberCount}, non-inclusive. Role bearers are not sorted in any particular way, and their ordering may change at any point. WARNING: When using {getRoleMember} and {getRoleMemberCount}, make sure you perform all queries on the same block. See the following https://forum.openzeppelin.com/t/iterating-over-elements-on-enumerableset-in-openzeppelin-contracts/2296[forum post] for more information."
      },
      "getRoleMemberCount(bytes32)": {
        "details": "Returns the number of accounts that have `role`. Can be used together with {getRoleMember} to enumerate all bearers of a role."
      },
      "grantRole(bytes32,address)": {
        "details": "Overload {grantRole} to track enumerable memberships"
      },
      "hasRole(bytes32,address)": {
        "details": "Returns `true` if `account` has been granted `role`."
      },
      "isApprovedForAll(address,address)": {
        "details": "See {IERC721-isApprovedForAll}."
      },
      "name()": {
        "details": "See {IERC721Metadata-name}."
      },
      "ownerOf(uint256)": {
        "details": "See {IERC721-ownerOf}."
      },
      "pause()": {
        "details": "Pauses all token transfers. See {ERC721Pausable} and {Pausable-_pause}. Requirements: - the caller must have the `PAUSER_ROLE`."
      },
      "paused()": {
        "details": "Returns true if the contract is paused, and false otherwise."
      },
      "renounceRole(bytes32,address)": {
        "details": "Overload {renounceRole} to track enumerable memberships"
      },
      "revokeRole(bytes32,address)": {
        "details": "Overload {revokeRole} to track enumerable memberships"
      },
      "safeTransferFrom(address,address,uint256)": {
        "details": "See {IERC721-safeTransferFrom}."
      },
      "safeTransferFrom(address,address,uint256,bytes)": {
        "details": "See {IERC721-safeTransferFrom}."
      },
      "setApprovalForAll(address,bool)": {
        "details": "See {IERC721-setApprovalForAll}."
      },
      "supportsInterface(bytes4)": {
        "details": "See {IERC165-supportsInterface}."
      },
      "symbol()": {
        "details": "See {IERC721Metadata-symbol}."
      },
      "tokenByIndex(uint256)": {
        "details": "See {IERC721Enumerable-tokenByIndex}."
      },
      "tokenOfOwnerByIndex(address,uint256)": {
        "details": "See {IERC721Enumerable-tokenOfOwnerByIndex}."
      },
      "tokenURI(uint256)": {
        "details": "See {IERC721Metadata-tokenURI}."
      },
      "totalSupply()": {
        "details": "See {IERC721Enumerable-totalSupply}."
      },
      "transferFrom(address,address,uint256)": {
        "details": "See {IERC721-transferFrom}."
      },
      "unpause()": {
        "details": "Unpauses all token transfers. See {ERC721Pausable} and {Pausable-_unpause}. Requirements: - the caller must have the `PAUSER_ROLE`."
      }
    },
    "version": 1
  },
  "userdoc": {
    "kind": "user",
    "methods": {},
    "version": 1
  }
}