{
  "contractName": "BotPart",
  "abi": [
    {
      "inputs": [
        {
          "internalType": "address",
          "name": "_metaTransactionForwarder",
          "type": "address"
        }
      ],
      "stateMutability": "nonpayable",
      "type": "constructor"
    },
    {
      "anonymous": false,
      "inputs": [
        {
          "indexed": true,
          "internalType": "address",
          "name": "owner",
          "type": "address"
        },
        {
          "indexed": true,
          "internalType": "address",
          "name": "approved",
          "type": "address"
        },
        {
          "indexed": true,
          "internalType": "uint256",
          "name": "tokenId",
          "type": "uint256"
        }
      ],
      "name": "Approval",
      "type": "event"
    },
    {
      "anonymous": false,
      "inputs": [
        {
          "indexed": true,
          "internalType": "address",
          "name": "owner",
          "type": "address"
        },
        {
          "indexed": true,
          "internalType": "address",
          "name": "operator",
          "type": "address"
        },
        {
          "indexed": false,
          "internalType": "bool",
          "name": "approved",
          "type": "bool"
        }
      ],
      "name": "ApprovalForAll",
      "type": "event"
    },
    {
      "anonymous": false,
      "inputs": [
        {
          "indexed": false,
          "internalType": "address",
          "name": "account",
          "type": "address"
        }
      ],
      "name": "Paused",
      "type": "event"
    },
    {
      "anonymous": false,
      "inputs": [
        {
          "indexed": true,
          "internalType": "bytes32",
          "name": "role",
          "type": "bytes32"
        },
        {
          "indexed": true,
          "internalType": "bytes32",
          "name": "previousAdminRole",
          "type": "bytes32"
        },
        {
          "indexed": true,
          "internalType": "bytes32",
          "name": "newAdminRole",
          "type": "bytes32"
        }
      ],
      "name": "RoleAdminChanged",
      "type": "event"
    },
    {
      "anonymous": false,
      "inputs": [
        {
          "indexed": true,
          "internalType": "bytes32",
          "name": "role",
          "type": "bytes32"
        },
        {
          "indexed": true,
          "internalType": "address",
          "name": "account",
          "type": "address"
        },
        {
          "indexed": true,
          "internalType": "address",
          "name": "sender",
          "type": "address"
        }
      ],
      "name": "RoleGranted",
      "type": "event"
    },
    {
      "anonymous": false,
      "inputs": [
        {
          "indexed": true,
          "internalType": "bytes32",
          "name": "role",
          "type": "bytes32"
        },
        {
          "indexed": true,
          "internalType": "address",
          "name": "account",
          "type": "address"
        },
        {
          "indexed": true,
          "internalType": "address",
          "name": "sender",
          "type": "address"
        }
      ],
      "name": "RoleRevoked",
      "type": "event"
    },
    {
      "anonymous": false,
      "inputs": [
        {
          "indexed": true,
          "internalType": "address",
          "name": "from",
          "type": "address"
        },
        {
          "indexed": true,
          "internalType": "address",
          "name": "to",
          "type": "address"
        },
        {
          "indexed": true,
          "internalType": "uint256",
          "name": "tokenId",
          "type": "uint256"
        }
      ],
      "name": "Transfer",
      "type": "event"
    },
    {
      "anonymous": false,
      "inputs": [
        {
          "indexed": false,
          "internalType": "address",
          "name": "account",
          "type": "address"
        }
      ],
      "name": "Unpaused",
      "type": "event"
    },
    {
      "inputs": [],
      "name": "DEFAULT_ADMIN_ROLE",
      "outputs": [
        {
          "internalType": "bytes32",
          "name": "",
          "type": "bytes32"
        }
      ],
      "stateMutability": "view",
      "type": "function",
      "constant": true
    },
    {
      "inputs": [],
      "name": "MINTER_ROLE",
      "outputs": [
        {
          "internalType": "bytes32",
          "name": "",
          "type": "bytes32"
        }
      ],
      "stateMutability": "view",
      "type": "function",
      "constant": true
    },
    {
      "inputs": [],
      "name": "PAUSER_ROLE",
      "outputs": [
        {
          "internalType": "bytes32",
          "name": "",
          "type": "bytes32"
        }
      ],
      "stateMutability": "view",
      "type": "function",
      "constant": true
    },
    {
      "inputs": [
        {
          "internalType": "address",
          "name": "to",
          "type": "address"
        },
        {
          "internalType": "uint256",
          "name": "tokenId",
          "type": "uint256"
        }
      ],
      "name": "approve",
      "outputs": [],
      "stateMutability": "nonpayable",
      "type": "function"
    },
    {
      "inputs": [
        {
          "internalType": "address",
          "name": "owner",
          "type": "address"
        }
      ],
      "name": "balanceOf",
      "outputs": [
        {
          "internalType": "uint256",
          "name": "",
          "type": "uint256"
        }
      ],
      "stateMutability": "view",
      "type": "function",
      "constant": true
    },
    {
      "inputs": [
        {
          "internalType": "uint256",
          "name": "tokenId",
          "type": "uint256"
        }
      ],
      "name": "burn",
      "outputs": [],
      "stateMutability": "nonpayable",
      "type": "function"
    },
    {
      "inputs": [
        {
          "internalType": "uint256",
          "name": "tokenId",
          "type": "uint256"
        }
      ],
      "name": "getApproved",
      "outputs": [
        {
          "internalType": "address",
          "name": "",
          "type": "address"
        }
      ],
      "stateMutability": "view",
      "type": "function",
      "constant": true
    },
    {
      "inputs": [
        {
          "internalType": "bytes32",
          "name": "role",
          "type": "bytes32"
        }
      ],
      "name": "getRoleAdmin",
      "outputs": [
        {
          "internalType": "bytes32",
          "name": "",
          "type": "bytes32"
        }
      ],
      "stateMutability": "view",
      "type": "function",
      "constant": true
    },
    {
      "inputs": [
        {
          "internalType": "bytes32",
          "name": "role",
          "type": "bytes32"
        },
        {
          "internalType": "uint256",
          "name": "index",
          "type": "uint256"
        }
      ],
      "name": "getRoleMember",
      "outputs": [
        {
          "internalType": "address",
          "name": "",
          "type": "address"
        }
      ],
      "stateMutability": "view",
      "type": "function",
      "constant": true
    },
    {
      "inputs": [
        {
          "internalType": "bytes32",
          "name": "role",
          "type": "bytes32"
        }
      ],
      "name": "getRoleMemberCount",
      "outputs": [
        {
          "internalType": "uint256",
          "name": "",
          "type": "uint256"
        }
      ],
      "stateMutability": "view",
      "type": "function",
      "constant": true
    },
    {
      "inputs": [
        {
          "internalType": "bytes32",
          "name": "role",
          "type": "bytes32"
        },
        {
          "internalType": "address",
          "name": "account",
          "type": "address"
        }
      ],
      "name": "grantRole",
      "outputs": [],
      "stateMutability": "nonpayable",
      "type": "function"
    },
    {
      "inputs": [
        {
          "internalType": "bytes32",
          "name": "role",
          "type": "bytes32"
        },
        {
          "internalType": "address",
          "name": "account",
          "type": "address"
        }
      ],
      "name": "hasRole",
      "outputs": [
        {
          "internalType": "bool",
          "name": "",
          "type": "bool"
        }
      ],
      "stateMutability": "view",
      "type": "function",
      "constant": true
    },
    {
      "inputs": [
        {
          "internalType": "address",
          "name": "owner",
          "type": "address"
        },
        {
          "internalType": "address",
          "name": "operator",
          "type": "address"
        }
      ],
      "name": "isApprovedForAll",
      "outputs": [
        {
          "internalType": "bool",
          "name": "",
          "type": "bool"
        }
      ],
      "stateMutability": "view",
      "type": "function",
      "constant": true
    },
    {
      "inputs": [],
      "name": "metaTransactionForwarder",
      "outputs": [
        {
          "internalType": "address",
          "name": "",
          "type": "address"
        }
      ],
      "stateMutability": "view",
      "type": "function",
      "constant": true
    },
    {
      "inputs": [],
      "name": "name",
      "outputs": [
        {
          "internalType": "string",
          "name": "",
          "type": "string"
        }
      ],
      "stateMutability": "view",
      "type": "function",
      "constant": true
    },
    {
      "inputs": [
        {
          "internalType": "uint256",
          "name": "tokenId",
          "type": "uint256"
        }
      ],
      "name": "ownerOf",
      "outputs": [
        {
          "internalType": "address",
          "name": "",
          "type": "address"
        }
      ],
      "stateMutability": "view",
      "type": "function",
      "constant": true
    },
    {
      "inputs": [],
      "name": "pause",
      "outputs": [],
      "stateMutability": "nonpayable",
      "type": "function"
    },
    {
      "inputs": [],
      "name": "paused",
      "outputs": [
        {
          "internalType": "bool",
          "name": "",
          "type": "bool"
        }
      ],
      "stateMutability": "view",
      "type": "function",
      "constant": true
    },
    {
      "inputs": [
        {
          "internalType": "bytes32",
          "name": "role",
          "type": "bytes32"
        },
        {
          "internalType": "address",
          "name": "account",
          "type": "address"
        }
      ],
      "name": "renounceRole",
      "outputs": [],
      "stateMutability": "nonpayable",
      "type": "function"
    },
    {
      "inputs": [
        {
          "internalType": "bytes32",
          "name": "role",
          "type": "bytes32"
        },
        {
          "internalType": "address",
          "name": "account",
          "type": "address"
        }
      ],
      "name": "revokeRole",
      "outputs": [],
      "stateMutability": "nonpayable",
      "type": "function"
    },
    {
      "inputs": [
        {
          "internalType": "address",
          "name": "from",
          "type": "address"
        },
        {
          "internalType": "address",
          "name": "to",
          "type": "address"
        },
        {
          "internalType": "uint256",
          "name": "tokenId",
          "type": "uint256"
        }
      ],
      "name": "safeTransferFrom",
      "outputs": [],
      "stateMutability": "nonpayable",
      "type": "function"
    },
    {
      "inputs": [
        {
          "internalType": "address",
          "name": "from",
          "type": "address"
        },
        {
          "internalType": "address",
          "name": "to",
          "type": "address"
        },
        {
          "internalType": "uint256",
          "name": "tokenId",
          "type": "uint256"
        },
        {
          "internalType": "bytes",
          "name": "_data",
          "type": "bytes"
        }
      ],
      "name": "safeTransferFrom",
      "outputs": [],
      "stateMutability": "nonpayable",
      "type": "function"
    },
    {
      "inputs": [
        {
          "internalType": "address",
          "name": "operator",
          "type": "address"
        },
        {
          "internalType": "bool",
          "name": "approved",
          "type": "bool"
        }
      ],
      "name": "setApprovalForAll",
      "outputs": [],
      "stateMutability": "nonpayable",
      "type": "function"
    },
    {
      "inputs": [
        {
          "internalType": "bytes4",
          "name": "interfaceId",
          "type": "bytes4"
        }
      ],
      "name": "supportsInterface",
      "outputs": [
        {
          "internalType": "bool",
          "name": "",
          "type": "bool"
        }
      ],
      "stateMutability": "view",
      "type": "function",
      "constant": true
    },
    {
      "inputs": [],
      "name": "symbol",
      "outputs": [
        {
          "internalType": "string",
          "name": "",
          "type": "string"
        }
      ],
      "stateMutability": "view",
      "type": "function",
      "constant": true
    },
    {
      "inputs": [
        {
          "internalType": "uint256",
          "name": "index",
          "type": "uint256"
        }
      ],
      "name": "tokenByIndex",
      "outputs": [
        {
          "internalType": "uint256",
          "name": "",
          "type": "uint256"
        }
      ],
      "stateMutability": "view",
      "type": "function",
      "constant": true
    },
    {
      "inputs": [
        {
          "internalType": "address",
          "name": "owner",
          "type": "address"
        },
        {
          "internalType": "uint256",
          "name": "index",
          "type": "uint256"
        }
      ],
      "name": "tokenOfOwnerByIndex",
      "outputs": [
        {
          "internalType": "uint256",
          "name": "",
          "type": "uint256"
        }
      ],
      "stateMutability": "view",
      "type": "function",
      "constant": true
    },
    {
      "inputs": [
        {
          "internalType": "uint256",
          "name": "tokenId",
          "type": "uint256"
        }
      ],
      "name": "tokenURI",
      "outputs": [
        {
          "internalType": "string",
          "name": "",
          "type": "string"
        }
      ],
      "stateMutability": "view",
      "type": "function",
      "constant": true
    },
    {
      "inputs": [],
      "name": "totalSupply",
      "outputs": [
        {
          "internalType": "uint256",
          "name": "",
          "type": "uint256"
        }
      ],
      "stateMutability": "view",
      "type": "function",
      "constant": true
    },
    {
      "inputs": [
        {
          "internalType": "address",
          "name": "from",
          "type": "address"
        },
        {
          "internalType": "address",
          "name": "to",
          "type": "address"
        },
        {
          "internalType": "uint256",
          "name": "tokenId",
          "type": "uint256"
        }
      ],
      "name": "transferFrom",
      "outputs": [],
      "stateMutability": "nonpayable",
      "type": "function"
    },
    {
      "inputs": [],
      "name": "unpause",
      "outputs": [],
      "stateMutability": "nonpayable",
      "type": "function"
    },
    {
      "inputs": [
        {
          "internalType": "address",
          "name": "",
          "type": "address"
        }
      ],
      "name": "mint",
      "outputs": [],
      "stateMutability": "pure",
      "type": "function",
      "constant": true
    },
    {
      "inputs": [
        {
          "internalType": "address",
          "name": "player",
          "type": "address"
        },
        {
          "internalType": "uint32",
          "name": "_tokenPartType",
          "type": "uint32"
        },
        {
          "internalType": "uint128",
          "name": "_tokenStats",
          "type": "uint128"
        }
      ],
      "name": "mintItem",
      "outputs": [
        {
          "internalType": "uint256",
          "name": "",
          "type": "uint256"
        }
      ],
      "stateMutability": "nonpayable",
      "type": "function"
    },
    {
      "inputs": [
        {
          "internalType": "uint256",
          "name": "tokenID",
          "type": "uint256"
        }
      ],
      "name": "exists",
      "outputs": [
        {
          "internalType": "bool",
          "name": "",
          "type": "bool"
        }
      ],
      "stateMutability": "view",
      "type": "function",
      "constant": true
    },
    {
      "inputs": [
        {
          "internalType": "uint256",
          "name": "tokenID",
          "type": "uint256"
        },
        {
          "internalType": "uint8",
          "name": "statNumber",
          "type": "uint8"
        }
      ],
      "name": "getRawTokenStat",
      "outputs": [
        {
          "internalType": "uint32",
          "name": "",
          "type": "uint32"
        }
      ],
      "stateMutability": "view",
      "type": "function",
      "constant": true
    },
    {
      "inputs": [
        {
          "internalType": "uint256",
          "name": "tokenID",
          "type": "uint256"
        }
      ],
      "name": "getBotPartType",
      "outputs": [
        {
          "internalType": "uint32",
          "name": "",
          "type": "uint32"
        }
      ],
      "stateMutability": "view",
      "type": "function",
      "constant": true
    },
    {
      "inputs": [
        {
          "internalType": "address",
          "name": "to",
          "type": "address"
        },
        {
          "internalType": "uint256",
          "name": "tokenId",
          "type": "uint256"
        },
        {
          "internalType": "address",
          "name": "from",
          "type": "address"
        }
      ],
      "name": "metaApprove",
      "outputs": [],
      "stateMutability": "nonpayable",
      "type": "function"
    },
    {
      "inputs": [
        {
          "internalType": "address",
          "name": "to",
          "type": "address"
        },
        {
          "internalType": "uint256",
          "name": "tokenId",
          "type": "uint256"
        },
        {
          "internalType": "bytes",
          "name": "_data",
          "type": "bytes"
        },
        {
          "internalType": "address",
          "name": "from",
          "type": "address"
        }
      ],
      "name": "metaSafeTransfer",
      "outputs": [],
      "stateMutability": "nonpayable",
      "type": "function"
    }
  ],
  "bytecode": "0x60806040523480156200001157600080fd5b50604051620033c5380380620033c58339810160408190526200003491620003eb565b60405180604001604052806007815260200166109bdd14185c9d60ca1b81525060405180604001604052806002815260200161042560f41b815250604051806040016040528060078152602001667465737455524960c81b81525082828160029080519060200190620000a992919062000345565b508051620000bf90600390602084019062000345565b5050600c805460ff19169055508051620000e190600e90602084019062000345565b50620000ef60003362000195565b6200010a600080516020620033a58339815191523362000195565b62000125600080516020620033858339815191523362000195565b506200013791506000905080620001d8565b62000153600080516020620033a58339815191526000620001d8565b6200016f600080516020620033858339815191526000620001d8565b601280546001600160a01b0319166001600160a01b039290921691909117905562000458565b620001ac82826200022360201b620013411760201c565b6000828152600160209081526040909120620001d39183906200134f62000233821b17901c565b505050565b600082815260208190526040808220600101805490849055905190918391839186917fbd79b86ffe0ab8e8776151514217cd7cacd52c909f66475c3af44e129f0b00ff9190a4505050565b6200022f828262000253565b5050565b60006200024a836001600160a01b038416620002f3565b90505b92915050565b6000828152602081815260408083206001600160a01b038516845290915290205460ff166200022f576000828152602081815260408083206001600160a01b03851684529091529020805460ff19166001179055620002af3390565b6001600160a01b0316816001600160a01b0316837f2f8788117e7eff1d82e926ec794901d17c78024a50270940304540a733656f0d60405160405180910390a45050565b60008181526001830160205260408120546200033c575081546001818101845560008481526020808220909301849055845484825282860190935260409020919091556200024d565b5060006200024d565b82805462000353906200041b565b90600052602060002090601f016020900481019282620003775760008555620003c2565b82601f106200039257805160ff1916838001178555620003c2565b82800160010185558215620003c2579182015b82811115620003c2578251825591602001919060010190620003a5565b50620003d0929150620003d4565b5090565b5b80821115620003d05760008155600101620003d5565b600060208284031215620003fd578081fd5b81516001600160a01b038116811462000414578182fd5b9392505050565b600181811c908216806200043057607f821691505b602082108114156200045257634e487b7160e01b600052602260045260246000fd5b50919050565b612f1d80620004686000396000f3fe608060405234801561001057600080fd5b50600436106102925760003560e01c80635c975abb11610160578063a217fddf116100d8578063d53913931161008c578063e63ab1e911610071578063e63ab1e9146105c1578063e985e9c5146105e8578063fd6c18611461062457600080fd5b8063d539139314610587578063d547741f146105ae57600080fd5b8063b88d4fde116100bd578063b88d4fde1461054e578063c87b56dd14610561578063ca15c8731461057457600080fd5b8063a217fddf14610533578063a22cb4651461053b57600080fd5b80637c2a0e2d1161012f5780639010d07c116101145780639010d07c146104e157806391d14854146104f457806395d89b411461052b57600080fd5b80637c2a0e2d146104c65780638456cb59146104d957600080fd5b80635c975abb146104825780636352211e1461048d5780636a627842146104a057806370a08231146104b357600080fd5b8063248a9ca31161020e57806342842e0e116101c25780634f558e79116101a75780634f558e79146104285780634f6ccce71461045c5780635b6d95041461046f57600080fd5b806342842e0e1461040257806342966c681461041557600080fd5b80632f745c59116101f35780632f745c59146103d457806336568abe146103e75780633f4ba83a146103fa57600080fd5b8063248a9ca31461039e5780632f2ff15d146103c157600080fd5b80631775dd9a1161026557806318f428d51161024a57806318f428d51461033d5780631f534e081461035057806323b872dd1461038b57600080fd5b80631775dd9a1461031457806318160ddd1461033557600080fd5b806301ffc9a71461029757806306fdde03146102bf578063081812fc146102d4578063095ea7b3146102ff575b600080fd5b6102aa6102a5366004612bcb565b610637565b60405190151581526020015b60405180910390f35b6102c7610648565b6040516102b69190612d44565b6102e76102e2366004612b70565b6106da565b6040516001600160a01b0390911681526020016102b6565b61031261030d366004612a42565b610785565b005b610327610322366004612b0c565b61089b565b6040519081526020016102b6565b600a54610327565b6012546102e7906001600160a01b031681565b61037661035e366004612b70565b60009081526010602052604090205463ffffffff1690565b60405163ffffffff90911681526020016102b6565b610312610399366004612967565b61096c565b6103276103ac366004612b70565b60009081526020819052604090206001015490565b6103126103cf366004612b88565b6109f4565b6103276103e2366004612a42565b610a16565b6103126103f5366004612b88565b610abe565b610312610ae0565b610312610410366004612967565b610b88565b610312610423366004612b70565b610ba3565b6102aa610436366004612b70565b6000908152601160205260409020546fffffffffffffffffffffffffffffffff16151590565b61032761046a366004612b70565b610c2a565b61031261047d366004612aa6565b610cdc565b600c5460ff166102aa565b6102e761049b366004612b70565b610d0e565b6103126104ae36600461291b565b610d99565b6103276104c136600461291b565b610de1565b6103126104d4366004612a6b565b610e7b565b610312610fd6565b6102e76104ef366004612baa565b61107a565b6102aa610502366004612b88565b6000918252602082815260408084206001600160a01b0393909316845291905290205460ff1690565b6102c7611099565b610327600081565b610312610549366004612a08565b6110a8565b61031261055c3660046129a2565b61116d565b6102c761056f366004612b70565b6111f5565b610327610582366004612b70565b6112dd565b6103277f9f2df0fed2c77648de5860a4cc508cd0818c85b8b8a1ab4ceeef8d981c8956a681565b6103126105bc366004612b88565b6112f4565b6103277f65d7a28e3265b37a6474929f336521b332c1681b933f6cb9f3376673440d862a81565b6102aa6105f6366004612935565b6001600160a01b03918216600090815260076020908152604080832093909416825291909152205460ff1690565b610376610632366004612c03565b6112fe565b600061064282611364565b92915050565b60606002805461065790612e25565b80601f016020809104026020016040519081016040528092919081815260200182805461068390612e25565b80156106d05780601f106106a5576101008083540402835291602001916106d0565b820191906000526020600020905b8154815290600101906020018083116106b357829003601f168201915b5050505050905090565b6000818152600460205260408120546001600160a01b03166107695760405162461bcd60e51b815260206004820152602c60248201527f4552433732313a20617070726f76656420717565727920666f72206e6f6e657860448201527f697374656e7420746f6b656e000000000000000000000000000000000000000060648201526084015b60405180910390fd5b506000908152600660205260409020546001600160a01b031690565b600061079082610d0e565b9050806001600160a01b0316836001600160a01b031614156107fe5760405162461bcd60e51b815260206004820152602160248201527f4552433732313a20617070726f76616c20746f2063757272656e74206f776e656044820152603960f91b6064820152608401610760565b336001600160a01b038216148061081a575061081a81336105f6565b61088c5760405162461bcd60e51b815260206004820152603860248201527f4552433732313a20617070726f76652063616c6c6572206973206e6f74206f7760448201527f6e6572206e6f7220617070726f76656420666f7220616c6c00000000000000006064820152608401610760565b61089683836113a2565b505050565b60007f9f2df0fed2c77648de5860a4cc508cd0818c85b8b8a1ab4ceeef8d981c8956a66108c8813361141d565b6108d6600f80546001019055565b60006108e1600f5490565b90506108ed868261149b565b6000818152601060205260409020805463ffffffff191663ffffffff87161790556fffffffffffffffffffffffffffffffff841661092a57600193505b600081815260116020526040902080546fffffffffffffffffffffffffffffffff19166fffffffffffffffffffffffffffffffff861617905595945050505050565b610977335b826115f6565b6109e95760405162461bcd60e51b815260206004820152603160248201527f4552433732313a207472616e736665722063616c6c6572206973206e6f74206f60448201527f776e6572206e6f7220617070726f7665640000000000000000000000000000006064820152608401610760565b6108968383836116fe565b6109fe82826118e3565b6000828152600160205260409020610896908261134f565b6000610a2183610de1565b8210610a955760405162461bcd60e51b815260206004820152602b60248201527f455243373231456e756d657261626c653a206f776e657220696e646578206f7560448201527f74206f6620626f756e64730000000000000000000000000000000000000000006064820152608401610760565b506001600160a01b03919091166000908152600860209081526040808320938352929052205490565b610ac88282611909565b60008281526001602052604090206108969082611991565b610b0a7f65d7a28e3265b37a6474929f336521b332c1681b933f6cb9f3376673440d862a33610502565b610b7e576040805162461bcd60e51b81526020600482015260248101919091527f4552433732315072657365744d696e7465725061757365724175746f49643a2060448201527f6d75737420686176652070617573657220726f6c6520746f20756e70617573656064820152608401610760565b610b866119a6565b565b6108968383836040518060200160405280600081525061116d565b610bac33610971565b610c1e5760405162461bcd60e51b815260206004820152603060248201527f4552433732314275726e61626c653a2063616c6c6572206973206e6f74206f7760448201527f6e6572206e6f7220617070726f766564000000000000000000000000000000006064820152608401610760565b610c2781611a42565b50565b6000610c35600a5490565b8210610ca95760405162461bcd60e51b815260206004820152602c60248201527f455243373231456e756d657261626c653a20676c6f62616c20696e646578206f60448201527f7574206f6620626f756e647300000000000000000000000000000000000000006064820152608401610760565b600a8281548110610cca57634e487b7160e01b600052603260045260246000fd5b90600052602060002001549050919050565b6012546001600160a01b0316336001600160a01b031614610cfc57600080fd5b610d0881858585611a87565b50505050565b6000818152600460205260408120546001600160a01b0316806106425760405162461bcd60e51b815260206004820152602960248201527f4552433732313a206f776e657220717565727920666f72206e6f6e657869737460448201527f656e7420746f6b656e00000000000000000000000000000000000000000000006064820152608401610760565b60405162461bcd60e51b815260206004820152601160248201527f46756e6374696f6e2064697361626c65640000000000000000000000000000006044820152606401610760565b60006001600160a01b038216610e5f5760405162461bcd60e51b815260206004820152602a60248201527f4552433732313a2062616c616e636520717565727920666f7220746865207a6560448201527f726f2061646472657373000000000000000000000000000000000000000000006064820152608401610760565b506001600160a01b031660009081526005602052604090205490565b6000610e8683610d0e565b9050806001600160a01b0316846001600160a01b03161415610ef45760405162461bcd60e51b815260206004820152602160248201527f4552433732313a20617070726f76616c20746f2063757272656e74206f776e656044820152603960f91b6064820152608401610760565b6012546001600160a01b0316336001600160a01b031614610f1457600080fd5b806001600160a01b0316826001600160a01b0316141580610f5a57506001600160a01b0380821660009081526007602090815260408083209386168352929052205460ff165b610fcc5760405162461bcd60e51b815260206004820152603860248201527f4552433732313a20617070726f76652063616c6c6572206973206e6f74206f7760448201527f6e6572206e6f7220617070726f76656420666f7220616c6c00000000000000006064820152608401610760565b610d0884846113a2565b6110007f65d7a28e3265b37a6474929f336521b332c1681b933f6cb9f3376673440d862a33610502565b6110725760405162461bcd60e51b815260206004820152603e60248201527f4552433732315072657365744d696e7465725061757365724175746f49643a2060448201527f6d75737420686176652070617573657220726f6c6520746f20706175736500006064820152608401610760565b610b86611b10565b60008281526001602052604081206110929083611b98565b9392505050565b60606003805461065790612e25565b6001600160a01b0382163314156111015760405162461bcd60e51b815260206004820152601960248201527f4552433732313a20617070726f766520746f2063616c6c6572000000000000006044820152606401610760565b3360008181526007602090815260408083206001600160a01b03871680855290835292819020805460ff191686151590811790915590519081529192917f17307eab39ab6107e8899845ad3d59bd9653f200f220920489ca2b5937696c31910160405180910390a35050565b61117733836115f6565b6111e95760405162461bcd60e51b815260206004820152603160248201527f4552433732313a207472616e736665722063616c6c6572206973206e6f74206f60448201527f776e6572206e6f7220617070726f7665640000000000000000000000000000006064820152608401610760565b610d0884848484611a87565b6000818152600460205260409020546060906001600160a01b03166112825760405162461bcd60e51b815260206004820152602f60248201527f4552433732314d657461646174613a2055524920717565727920666f72206e6f60448201527f6e6578697374656e7420746f6b656e00000000000000000000000000000000006064820152608401610760565b600061128c611ba4565b905060008151116112ac5760405180602001604052806000815250611092565b806112b684611bb3565b6040516020016112c7929190612c58565b6040516020818303038152906040529392505050565b600081815260016020526040812061064290611ccd565b610ac88282611cd7565b600061109261130e836020612da2565b6000858152601160205260409020546fffffffffffffffffffffffffffffffff1660ff919091161c63ffffffff16611cfd565b61134b8282611d7d565b5050565b6000611092836001600160a01b038416611e1b565b60006001600160e01b031982167f780e9d63000000000000000000000000000000000000000000000000000000001480610642575061064282611e6a565b6000818152600660205260409020805473ffffffffffffffffffffffffffffffffffffffff19166001600160a01b03841690811790915581906113e482610d0e565b6001600160a01b03167f8c5be1e5ebec7d5bd14f71427d1e84f3dd0314c0f7b2291e5b200ac8c7c3b92560405160405180910390a45050565b6000828152602081815260408083206001600160a01b038516845290915290205460ff1661134b57611459816001600160a01b03166014611edc565b611464836020611edc565b604051602001611475929190612c87565b60408051601f198184030181529082905262461bcd60e51b825261076091600401612d44565b6001600160a01b0382166114f15760405162461bcd60e51b815260206004820181905260248201527f4552433732313a206d696e7420746f20746865207a65726f20616464726573736044820152606401610760565b6000818152600460205260409020546001600160a01b0316156115565760405162461bcd60e51b815260206004820152601c60248201527f4552433732313a20746f6b656e20616c7265616479206d696e746564000000006044820152606401610760565b611562600083836120e7565b6001600160a01b038216600090815260056020526040812080546001929061158b908490612d57565b9091555050600081815260046020526040808220805473ffffffffffffffffffffffffffffffffffffffff19166001600160a01b03861690811790915590518392907fddf252ad1be2c89b69c2b068fc378daa952ba7f163c4a11628f55a4df523b3ef908290a45050565b6000818152600460205260408120546001600160a01b03166116805760405162461bcd60e51b815260206004820152602c60248201527f4552433732313a206f70657261746f7220717565727920666f72206e6f6e657860448201527f697374656e7420746f6b656e00000000000000000000000000000000000000006064820152608401610760565b600061168b83610d0e565b9050806001600160a01b0316846001600160a01b031614806116c65750836001600160a01b03166116bb846106da565b6001600160a01b0316145b806116f657506001600160a01b0380821660009081526007602090815260408083209388168352929052205460ff165b949350505050565b826001600160a01b031661171182610d0e565b6001600160a01b03161461178d5760405162461bcd60e51b815260206004820152602960248201527f4552433732313a207472616e73666572206f6620746f6b656e2074686174206960448201527f73206e6f74206f776e00000000000000000000000000000000000000000000006064820152608401610760565b6001600160a01b0382166118085760405162461bcd60e51b8152602060048201526024808201527f4552433732313a207472616e7366657220746f20746865207a65726f2061646460448201527f72657373000000000000000000000000000000000000000000000000000000006064820152608401610760565b6118138383836120e7565b61181e6000826113a2565b6001600160a01b0383166000908152600560205260408120805460019290611847908490612dcb565b90915550506001600160a01b0382166000908152600560205260408120805460019290611875908490612d57565b9091555050600081815260046020526040808220805473ffffffffffffffffffffffffffffffffffffffff19166001600160a01b0386811691821790925591518493918716917fddf252ad1be2c89b69c2b068fc378daa952ba7f163c4a11628f55a4df523b3ef91a4505050565b6000828152602081905260409020600101546118ff813361141d565b6108968383611d7d565b6001600160a01b03811633146119875760405162461bcd60e51b815260206004820152602f60248201527f416363657373436f6e74726f6c3a2063616e206f6e6c792072656e6f756e636560448201527f20726f6c657320666f722073656c6600000000000000000000000000000000006064820152608401610760565b61134b82826120f2565b6000611092836001600160a01b038416612171565b600c5460ff166119f85760405162461bcd60e51b815260206004820152601460248201527f5061757361626c653a206e6f74207061757365640000000000000000000000006044820152606401610760565b600c805460ff191690557f5db9ee0a495bf2e6ff9c91a7834c1ba4fdd244a5e8aa4e537bd38aeae4b073aa335b6040516001600160a01b03909116815260200160405180910390a1565b611a4b8161228e565b6000908152601060209081526040808320805463ffffffff191690556011909152902080546fffffffffffffffffffffffffffffffff19169055565b611a928484846116fe565b611a9e84848484612342565b610d085760405162461bcd60e51b815260206004820152603260248201527f4552433732313a207472616e7366657220746f206e6f6e20455243373231526560448201527f63656976657220696d706c656d656e74657200000000000000000000000000006064820152608401610760565b600c5460ff1615611b635760405162461bcd60e51b815260206004820152601060248201527f5061757361626c653a20706175736564000000000000000000000000000000006044820152606401610760565b600c805460ff191660011790557f62e78cea01bee320cd4e420270b5ea74000d11b0c9f74754ebdbfc544b05a258611a253390565b600061109283836124a5565b6060600e805461065790612e25565b606081611bd75750506040805180820190915260018152600360fc1b602082015290565b8160005b8115611c015780611beb81612e60565b9150611bfa9050600a83612d6f565b9150611bdb565b60008167ffffffffffffffff811115611c2a57634e487b7160e01b600052604160045260246000fd5b6040519080825280601f01601f191660200182016040528015611c54576020820181803683370190505b5090505b84156116f657611c69600183612dcb565b9150611c76600a86612e7b565b611c81906030612d57565b60f81b818381518110611ca457634e487b7160e01b600052603260045260246000fd5b60200101906001600160f81b031916908160001a905350611cc6600a86612d6f565b9450611c58565b6000610642825490565b600082815260208190526040902060010154611cf3813361141d565b61089683836120f2565b600063ffffffff821115611d795760405162461bcd60e51b815260206004820152602660248201527f53616665436173743a2076616c756520646f65736e27742066697420696e203360448201527f32206269747300000000000000000000000000000000000000000000000000006064820152608401610760565b5090565b6000828152602081815260408083206001600160a01b038516845290915290205460ff1661134b576000828152602081815260408083206001600160a01b03851684529091529020805460ff19166001179055611dd73390565b6001600160a01b0316816001600160a01b0316837f2f8788117e7eff1d82e926ec794901d17c78024a50270940304540a733656f0d60405160405180910390a45050565b6000818152600183016020526040812054611e6257508154600181810184556000848152602080822090930184905584548482528286019093526040902091909155610642565b506000610642565b60006001600160e01b031982167f80ac58cd000000000000000000000000000000000000000000000000000000001480611ecd57506001600160e01b031982167f5b5e139f00000000000000000000000000000000000000000000000000000000145b806106425750610642826124dd565b60606000611eeb836002612d83565b611ef6906002612d57565b67ffffffffffffffff811115611f1c57634e487b7160e01b600052604160045260246000fd5b6040519080825280601f01601f191660200182016040528015611f46576020820181803683370190505b509050600360fc1b81600081518110611f6f57634e487b7160e01b600052603260045260246000fd5b60200101906001600160f81b031916908160001a9053507f780000000000000000000000000000000000000000000000000000000000000081600181518110611fc857634e487b7160e01b600052603260045260246000fd5b60200101906001600160f81b031916908160001a9053506000611fec846002612d83565b611ff7906001612d57565b90505b6001811115612098577f303132333435363738396162636465660000000000000000000000000000000085600f166010811061204657634e487b7160e01b600052603260045260246000fd5b1a60f81b82828151811061206a57634e487b7160e01b600052603260045260246000fd5b60200101906001600160f81b031916908160001a90535060049490941c9361209181612e0e565b9050611ffa565b5083156110925760405162461bcd60e51b815260206004820181905260248201527f537472696e67733a20686578206c656e67746820696e73756666696369656e746044820152606401610760565b61089683838361251b565b6000828152602081815260408083206001600160a01b038516845290915290205460ff161561134b576000828152602081815260408083206001600160a01b0385168085529252808320805460ff1916905551339285917ff6391f5c32d9c69d2a47ea670b442974b53935d1edc7fd64eb21e047a839171b9190a45050565b60008181526001830160205260408120548015612284576000612195600183612dcb565b85549091506000906121a990600190612dcb565b905081811461222a5760008660000182815481106121d757634e487b7160e01b600052603260045260246000fd5b906000526020600020015490508087600001848154811061220857634e487b7160e01b600052603260045260246000fd5b6000918252602080832090910192909255918252600188019052604090208390555b855486908061224957634e487b7160e01b600052603160045260246000fd5b600190038181906000526020600020016000905590558560010160008681526020019081526020016000206000905560019350505050610642565b6000915050610642565b600061229982610d0e565b90506122a7816000846120e7565b6122b26000836113a2565b6001600160a01b03811660009081526005602052604081208054600192906122db908490612dcb565b9091555050600082815260046020526040808220805473ffffffffffffffffffffffffffffffffffffffff19169055518391906001600160a01b038416907fddf252ad1be2c89b69c2b068fc378daa952ba7f163c4a11628f55a4df523b3ef908390a45050565b60006001600160a01b0384163b1561249a57604051630a85bd0160e11b81526001600160a01b0385169063150b7a0290612386903390899088908890600401612d08565b602060405180830381600087803b1580156123a057600080fd5b505af19250505080156123d0575060408051601f3d908101601f191682019092526123cd91810190612be7565b60015b612480573d8080156123fe576040519150601f19603f3d011682016040523d82523d6000602084013e612403565b606091505b5080516124785760405162461bcd60e51b815260206004820152603260248201527f4552433732313a207472616e7366657220746f206e6f6e20455243373231526560448201527f63656976657220696d706c656d656e74657200000000000000000000000000006064820152608401610760565b805181602001fd5b6001600160e01b031916630a85bd0160e11b1490506116f6565b506001949350505050565b60008260000182815481106124ca57634e487b7160e01b600052603260045260246000fd5b9060005260206000200154905092915050565b60006001600160e01b031982167f5a05180f00000000000000000000000000000000000000000000000000000000148061064257506106428261259f565b612526838383612606565b600c5460ff16156108965760405162461bcd60e51b815260206004820152602b60248201527f4552433732315061757361626c653a20746f6b656e207472616e73666572207760448201527f68696c65207061757365640000000000000000000000000000000000000000006064820152608401610760565b60006001600160e01b031982167f7965db0b00000000000000000000000000000000000000000000000000000000148061064257507f01ffc9a7000000000000000000000000000000000000000000000000000000006001600160e01b0319831614610642565b6001600160a01b0383166126615761265c81600a80546000838152600b60205260408120829055600182018355919091527fc65a7bb8d6351c1cf70c95a316cc6a92839c986682d98bc35f958f4883f9d2a80155565b612684565b816001600160a01b0316836001600160a01b0316146126845761268483826126be565b6001600160a01b03821661269b576108968161275b565b826001600160a01b0316826001600160a01b031614610896576108968282612834565b600060016126cb84610de1565b6126d59190612dcb565b600083815260096020526040902054909150808214612728576001600160a01b03841660009081526008602090815260408083208584528252808320548484528184208190558352600990915290208190555b5060009182526009602090815260408084208490556001600160a01b039094168352600881528383209183525290812055565b600a5460009061276d90600190612dcb565b6000838152600b6020526040812054600a80549394509092849081106127a357634e487b7160e01b600052603260045260246000fd5b9060005260206000200154905080600a83815481106127d257634e487b7160e01b600052603260045260246000fd5b6000918252602080832090910192909255828152600b9091526040808220849055858252812055600a80548061281857634e487b7160e01b600052603160045260246000fd5b6001900381819060005260206000200160009055905550505050565b600061283f83610de1565b6001600160a01b039093166000908152600860209081526040808320868452825280832085905593825260099052919091209190915550565b80356001600160a01b038116811461288f57600080fd5b919050565b600082601f8301126128a4578081fd5b813567ffffffffffffffff808211156128bf576128bf612ebb565b604051601f8301601f19908116603f011681019082821181831017156128e7576128e7612ebb565b816040528381528660208588010111156128ff578485fd5b8360208701602083013792830160200193909352509392505050565b60006020828403121561292c578081fd5b61109282612878565b60008060408385031215612947578081fd5b61295083612878565b915061295e60208401612878565b90509250929050565b60008060006060848603121561297b578081fd5b61298484612878565b925061299260208501612878565b9150604084013590509250925092565b600080600080608085870312156129b7578081fd5b6129c085612878565b93506129ce60208601612878565b925060408501359150606085013567ffffffffffffffff8111156129f0578182fd5b6129fc87828801612894565b91505092959194509250565b60008060408385031215612a1a578182fd5b612a2383612878565b915060208301358015158114612a37578182fd5b809150509250929050565b60008060408385031215612a54578182fd5b612a5d83612878565b946020939093013593505050565b600080600060608486031215612a7f578283fd5b612a8884612878565b925060208401359150612a9d60408501612878565b90509250925092565b60008060008060808587031215612abb578384fd5b612ac485612878565b935060208501359250604085013567ffffffffffffffff811115612ae6578283fd5b612af287828801612894565b925050612b0160608601612878565b905092959194509250565b600080600060608486031215612b20578283fd5b612b2984612878565b9250602084013563ffffffff81168114612b41578283fd5b915060408401356fffffffffffffffffffffffffffffffff81168114612b65578182fd5b809150509250925092565b600060208284031215612b81578081fd5b5035919050565b60008060408385031215612b9a578182fd5b8235915061295e60208401612878565b60008060408385031215612bbc578182fd5b50508035926020909101359150565b600060208284031215612bdc578081fd5b813561109281612ed1565b600060208284031215612bf8578081fd5b815161109281612ed1565b60008060408385031215612c15578182fd5b82359150602083013560ff81168114612a37578182fd5b60008151808452612c44816020860160208601612de2565b601f01601f19169290920160200192915050565b60008351612c6a818460208801612de2565b835190830190612c7e818360208801612de2565b01949350505050565b7f416363657373436f6e74726f6c3a206163636f756e7420000000000000000000815260008351612cbf816017850160208801612de2565b7f206973206d697373696e6720726f6c65200000000000000000000000000000006017918401918201528351612cfc816028840160208801612de2565b01602801949350505050565b60006001600160a01b03808716835280861660208401525083604083015260806060830152612d3a6080830184612c2c565b9695505050505050565b6020815260006110926020830184612c2c565b60008219821115612d6a57612d6a612e8f565b500190565b600082612d7e57612d7e612ea5565b500490565b6000816000190483118215151615612d9d57612d9d612e8f565b500290565b600060ff821660ff84168160ff0481118215151615612dc357612dc3612e8f565b029392505050565b600082821015612ddd57612ddd612e8f565b500390565b60005b83811015612dfd578181015183820152602001612de5565b83811115610d085750506000910152565b600081612e1d57612e1d612e8f565b506000190190565b600181811c90821680612e3957607f821691505b60208210811415612e5a57634e487b7160e01b600052602260045260246000fd5b50919050565b6000600019821415612e7457612e74612e8f565b5060010190565b600082612e8a57612e8a612ea5565b500690565b634e487b7160e01b600052601160045260246000fd5b634e487b7160e01b600052601260045260246000fd5b634e487b7160e01b600052604160045260246000fd5b6001600160e01b031981168114610c2757600080fdfea2646970667358221220d9a01f090312d7fb9b1f9c392d71771d14d1746193f5da83948ebd6eb55f976764736f6c6343000804003365d7a28e3265b37a6474929f336521b332c1681b933f6cb9f3376673440d862a9f2df0fed2c77648de5860a4cc508cd0818c85b8b8a1ab4ceeef8d981c8956a6",
  "immutableReferences": {},
  "source": "// SPDX-License-Identifier: MIT\npragma solidity ^0.8.0;\n\nimport \"@openzeppelin/contracts/access/AccessControl.sol\";\nimport \"@openzeppelin/contracts/token/ERC721/presets/ERC721PresetMinterPauserAutoId.sol\";\nimport \"@openzeppelin/contracts/utils/Counters.sol\";\nimport \"@openzeppelin/contracts/utils/math/SafeCast.sol\";\n\n\ncontract BotPart is ERC721PresetMinterPauserAutoId {\n  using Counters for Counters.Counter;\n\n  Counters.Counter private _tokenIds;\n\n  mapping(uint256 => uint32) private tokenPartType;\n  mapping(uint256 => uint128) private tokenStats;\n  \n  address public metaTransactionForwarder;\n\n  constructor(address _metaTransactionForwarder) ERC721PresetMinterPauserAutoId(\"BotPart\", \"BP\", \"testURI\") {\n    _setRoleAdmin(DEFAULT_ADMIN_ROLE, DEFAULT_ADMIN_ROLE);\n    _setRoleAdmin(MINTER_ROLE, DEFAULT_ADMIN_ROLE);\n    _setRoleAdmin(PAUSER_ROLE, DEFAULT_ADMIN_ROLE);\n\n    metaTransactionForwarder = _metaTransactionForwarder;\n  }\n\n  function mint(address) pure public override {\n    revert(\"Function disabled\");\n  }\n\n  function mintItem(address player, uint32 _tokenPartType, uint128 _tokenStats) public onlyRole(MINTER_ROLE) returns (uint256) {\n    _tokenIds.increment();\n\n    uint256 newItemId = _tokenIds.current();\n    _mint(player, newItemId);\n    _setTokenPartType(newItemId, _tokenPartType);\n    // Disallow zero Stats (highly unlikely)\n    if(_tokenStats == 0){\n      _tokenStats = 1;\n    }\n    _setTokenStats(newItemId, _tokenStats);\n\n    return newItemId;\n  }\n\n  function _burn(uint256 tokenId) internal virtual override {\n        super._burn(tokenId);\n\n        delete tokenPartType[tokenId];\n        delete tokenStats[tokenId];\n  }\n\n  function _setTokenPartType(uint256 tokenID, uint32 partType) private {\n    tokenPartType[tokenID] = partType;\n  }\n\n  function _setTokenStats(uint256 tokenID, uint128 _tokenStats) private {\n    tokenStats[tokenID] = _tokenStats;\n  }\n\n  function exists(uint256 tokenID) view public returns (bool) {\n    return tokenStats[tokenID] != 0;\n  }\n\n  function getRawTokenStat(uint256 tokenID, uint8 statNumber) view public returns (uint32) {\n    return SafeCast.toUint32((tokenStats[tokenID] >> (statNumber*32)) & 0xFFFFFFFF);\n  }\n\n  function getBotPartType(uint256 tokenID) view public returns (uint32){\n    return tokenPartType[tokenID];\n  }\n\n  function metaApprove(address to, uint256 tokenId, address from) public {\n        address owner = ERC721.ownerOf(tokenId);\n        require(to != owner, \"ERC721: approval to current owner\");\n\n        require(_msgSender() == metaTransactionForwarder);\n        require(from != owner || isApprovedForAll(owner, from),\n            \"ERC721: approve caller is not owner nor approved for all\"\n        );\n\n        _approve(to, tokenId);\n  }\n\n  function metaSafeTransfer(address to, uint256 tokenId, bytes memory _data, address from) public {\n        require(_msgSender() == metaTransactionForwarder);\n        _safeTransfer(from, to, tokenId, _data);\n  }\n\n}\n\n",
  "sourcePath": "/home/zorro/git/blockchain__general/prototype/contracts/polygon/BotPart.sol",
  "compiler": {
    "name": "solc",
    "version": "0.8.4+commit.c7e474f2.Emscripten.clang"
  },
  "schemaVersion": "3.4.3",
  "updatedAt": "2021-08-26T20:31:35.212Z",
  "networkType": "ethereum",
  "devdoc": {
    "kind": "dev",
    "methods": {
      "approve(address,uint256)": {
        "details": "See {IERC721-approve}."
      },
      "balanceOf(address)": {
        "details": "See {IERC721-balanceOf}."
      },
      "burn(uint256)": {
        "details": "Burns `tokenId`. See {ERC721-_burn}. Requirements: - The caller must own `tokenId` or be an approved operator."
      },
      "getApproved(uint256)": {
        "details": "See {IERC721-getApproved}."
      },
      "getRoleAdmin(bytes32)": {
        "details": "Returns the admin role that controls `role`. See {grantRole} and {revokeRole}. To change a role's admin, use {_setRoleAdmin}."
      },
      "getRoleMember(bytes32,uint256)": {
        "details": "Returns one of the accounts that have `role`. `index` must be a value between 0 and {getRoleMemberCount}, non-inclusive. Role bearers are not sorted in any particular way, and their ordering may change at any point. WARNING: When using {getRoleMember} and {getRoleMemberCount}, make sure you perform all queries on the same block. See the following https://forum.openzeppelin.com/t/iterating-over-elements-on-enumerableset-in-openzeppelin-contracts/2296[forum post] for more information."
      },
      "getRoleMemberCount(bytes32)": {
        "details": "Returns the number of accounts that have `role`. Can be used together with {getRoleMember} to enumerate all bearers of a role."
      },
      "grantRole(bytes32,address)": {
        "details": "Overload {grantRole} to track enumerable memberships"
      },
      "hasRole(bytes32,address)": {
        "details": "Returns `true` if `account` has been granted `role`."
      },
      "isApprovedForAll(address,address)": {
        "details": "See {IERC721-isApprovedForAll}."
      },
      "name()": {
        "details": "See {IERC721Metadata-name}."
      },
      "ownerOf(uint256)": {
        "details": "See {IERC721-ownerOf}."
      },
      "pause()": {
        "details": "Pauses all token transfers. See {ERC721Pausable} and {Pausable-_pause}. Requirements: - the caller must have the `PAUSER_ROLE`."
      },
      "paused()": {
        "details": "Returns true if the contract is paused, and false otherwise."
      },
      "renounceRole(bytes32,address)": {
        "details": "Overload {renounceRole} to track enumerable memberships"
      },
      "revokeRole(bytes32,address)": {
        "details": "Overload {revokeRole} to track enumerable memberships"
      },
      "safeTransferFrom(address,address,uint256)": {
        "details": "See {IERC721-safeTransferFrom}."
      },
      "safeTransferFrom(address,address,uint256,bytes)": {
        "details": "See {IERC721-safeTransferFrom}."
      },
      "setApprovalForAll(address,bool)": {
        "details": "See {IERC721-setApprovalForAll}."
      },
      "supportsInterface(bytes4)": {
        "details": "See {IERC165-supportsInterface}."
      },
      "symbol()": {
        "details": "See {IERC721Metadata-symbol}."
      },
      "tokenByIndex(uint256)": {
        "details": "See {IERC721Enumerable-tokenByIndex}."
      },
      "tokenOfOwnerByIndex(address,uint256)": {
        "details": "See {IERC721Enumerable-tokenOfOwnerByIndex}."
      },
      "tokenURI(uint256)": {
        "details": "See {IERC721Metadata-tokenURI}."
      },
      "totalSupply()": {
        "details": "See {IERC721Enumerable-totalSupply}."
      },
      "transferFrom(address,address,uint256)": {
        "details": "See {IERC721-transferFrom}."
      },
      "unpause()": {
        "details": "Unpauses all token transfers. See {ERC721Pausable} and {Pausable-_unpause}. Requirements: - the caller must have the `PAUSER_ROLE`."
      }
    },
    "version": 1
  },
  "userdoc": {
    "kind": "user",
    "methods": {},
    "version": 1
  },
  "db": {
    "callBytecode": {
      "id": "0xc8da3a3982215890c75a702432b3d630f1be4703bf446aa218028c79815f10f1"
    },
    "createBytecode": {
      "id": "0x845b823e6f06f92b42aa0a4eb00d178fe095672f633ec01491c2828750183c3a"
    },
    "contract": {
      "id": "0xe851ab277f1b822f00cae812d08cb7a08151db8e4493bb2ee2f6e91f9f42e210"
    }
  }
}