{
  "contractName": "BotPart",
  "abi": [
    {
      "inputs": [],
      "stateMutability": "nonpayable",
      "type": "constructor"
    },
    {
      "anonymous": false,
      "inputs": [
        {
          "indexed": true,
          "internalType": "address",
          "name": "owner",
          "type": "address"
        },
        {
          "indexed": true,
          "internalType": "address",
          "name": "approved",
          "type": "address"
        },
        {
          "indexed": true,
          "internalType": "uint256",
          "name": "tokenId",
          "type": "uint256"
        }
      ],
      "name": "Approval",
      "type": "event"
    },
    {
      "anonymous": false,
      "inputs": [
        {
          "indexed": true,
          "internalType": "address",
          "name": "owner",
          "type": "address"
        },
        {
          "indexed": true,
          "internalType": "address",
          "name": "operator",
          "type": "address"
        },
        {
          "indexed": false,
          "internalType": "bool",
          "name": "approved",
          "type": "bool"
        }
      ],
      "name": "ApprovalForAll",
      "type": "event"
    },
    {
      "anonymous": false,
      "inputs": [
        {
          "indexed": false,
          "internalType": "address",
          "name": "account",
          "type": "address"
        }
      ],
      "name": "Paused",
      "type": "event"
    },
    {
      "anonymous": false,
      "inputs": [
        {
          "indexed": true,
          "internalType": "bytes32",
          "name": "role",
          "type": "bytes32"
        },
        {
          "indexed": true,
          "internalType": "bytes32",
          "name": "previousAdminRole",
          "type": "bytes32"
        },
        {
          "indexed": true,
          "internalType": "bytes32",
          "name": "newAdminRole",
          "type": "bytes32"
        }
      ],
      "name": "RoleAdminChanged",
      "type": "event"
    },
    {
      "anonymous": false,
      "inputs": [
        {
          "indexed": true,
          "internalType": "bytes32",
          "name": "role",
          "type": "bytes32"
        },
        {
          "indexed": true,
          "internalType": "address",
          "name": "account",
          "type": "address"
        },
        {
          "indexed": true,
          "internalType": "address",
          "name": "sender",
          "type": "address"
        }
      ],
      "name": "RoleGranted",
      "type": "event"
    },
    {
      "anonymous": false,
      "inputs": [
        {
          "indexed": true,
          "internalType": "bytes32",
          "name": "role",
          "type": "bytes32"
        },
        {
          "indexed": true,
          "internalType": "address",
          "name": "account",
          "type": "address"
        },
        {
          "indexed": true,
          "internalType": "address",
          "name": "sender",
          "type": "address"
        }
      ],
      "name": "RoleRevoked",
      "type": "event"
    },
    {
      "anonymous": false,
      "inputs": [
        {
          "indexed": true,
          "internalType": "address",
          "name": "from",
          "type": "address"
        },
        {
          "indexed": true,
          "internalType": "address",
          "name": "to",
          "type": "address"
        },
        {
          "indexed": true,
          "internalType": "uint256",
          "name": "tokenId",
          "type": "uint256"
        }
      ],
      "name": "Transfer",
      "type": "event"
    },
    {
      "anonymous": false,
      "inputs": [
        {
          "indexed": false,
          "internalType": "address",
          "name": "account",
          "type": "address"
        }
      ],
      "name": "Unpaused",
      "type": "event"
    },
    {
      "inputs": [],
      "name": "DEFAULT_ADMIN_ROLE",
      "outputs": [
        {
          "internalType": "bytes32",
          "name": "",
          "type": "bytes32"
        }
      ],
      "stateMutability": "view",
      "type": "function",
      "constant": true
    },
    {
      "inputs": [],
      "name": "MINTER_ROLE",
      "outputs": [
        {
          "internalType": "bytes32",
          "name": "",
          "type": "bytes32"
        }
      ],
      "stateMutability": "view",
      "type": "function",
      "constant": true
    },
    {
      "inputs": [],
      "name": "PAUSER_ROLE",
      "outputs": [
        {
          "internalType": "bytes32",
          "name": "",
          "type": "bytes32"
        }
      ],
      "stateMutability": "view",
      "type": "function",
      "constant": true
    },
    {
      "inputs": [
        {
          "internalType": "address",
          "name": "to",
          "type": "address"
        },
        {
          "internalType": "uint256",
          "name": "tokenId",
          "type": "uint256"
        }
      ],
      "name": "approve",
      "outputs": [],
      "stateMutability": "nonpayable",
      "type": "function"
    },
    {
      "inputs": [
        {
          "internalType": "address",
          "name": "owner",
          "type": "address"
        }
      ],
      "name": "balanceOf",
      "outputs": [
        {
          "internalType": "uint256",
          "name": "",
          "type": "uint256"
        }
      ],
      "stateMutability": "view",
      "type": "function",
      "constant": true
    },
    {
      "inputs": [
        {
          "internalType": "uint256",
          "name": "tokenId",
          "type": "uint256"
        }
      ],
      "name": "burn",
      "outputs": [],
      "stateMutability": "nonpayable",
      "type": "function"
    },
    {
      "inputs": [
        {
          "internalType": "uint256",
          "name": "tokenId",
          "type": "uint256"
        }
      ],
      "name": "getApproved",
      "outputs": [
        {
          "internalType": "address",
          "name": "",
          "type": "address"
        }
      ],
      "stateMutability": "view",
      "type": "function",
      "constant": true
    },
    {
      "inputs": [
        {
          "internalType": "bytes32",
          "name": "role",
          "type": "bytes32"
        }
      ],
      "name": "getRoleAdmin",
      "outputs": [
        {
          "internalType": "bytes32",
          "name": "",
          "type": "bytes32"
        }
      ],
      "stateMutability": "view",
      "type": "function",
      "constant": true
    },
    {
      "inputs": [
        {
          "internalType": "bytes32",
          "name": "role",
          "type": "bytes32"
        },
        {
          "internalType": "uint256",
          "name": "index",
          "type": "uint256"
        }
      ],
      "name": "getRoleMember",
      "outputs": [
        {
          "internalType": "address",
          "name": "",
          "type": "address"
        }
      ],
      "stateMutability": "view",
      "type": "function",
      "constant": true
    },
    {
      "inputs": [
        {
          "internalType": "bytes32",
          "name": "role",
          "type": "bytes32"
        }
      ],
      "name": "getRoleMemberCount",
      "outputs": [
        {
          "internalType": "uint256",
          "name": "",
          "type": "uint256"
        }
      ],
      "stateMutability": "view",
      "type": "function",
      "constant": true
    },
    {
      "inputs": [
        {
          "internalType": "bytes32",
          "name": "role",
          "type": "bytes32"
        },
        {
          "internalType": "address",
          "name": "account",
          "type": "address"
        }
      ],
      "name": "grantRole",
      "outputs": [],
      "stateMutability": "nonpayable",
      "type": "function"
    },
    {
      "inputs": [
        {
          "internalType": "bytes32",
          "name": "role",
          "type": "bytes32"
        },
        {
          "internalType": "address",
          "name": "account",
          "type": "address"
        }
      ],
      "name": "hasRole",
      "outputs": [
        {
          "internalType": "bool",
          "name": "",
          "type": "bool"
        }
      ],
      "stateMutability": "view",
      "type": "function",
      "constant": true
    },
    {
      "inputs": [
        {
          "internalType": "address",
          "name": "owner",
          "type": "address"
        },
        {
          "internalType": "address",
          "name": "operator",
          "type": "address"
        }
      ],
      "name": "isApprovedForAll",
      "outputs": [
        {
          "internalType": "bool",
          "name": "",
          "type": "bool"
        }
      ],
      "stateMutability": "view",
      "type": "function",
      "constant": true
    },
    {
      "inputs": [],
      "name": "name",
      "outputs": [
        {
          "internalType": "string",
          "name": "",
          "type": "string"
        }
      ],
      "stateMutability": "view",
      "type": "function",
      "constant": true
    },
    {
      "inputs": [
        {
          "internalType": "uint256",
          "name": "tokenId",
          "type": "uint256"
        }
      ],
      "name": "ownerOf",
      "outputs": [
        {
          "internalType": "address",
          "name": "",
          "type": "address"
        }
      ],
      "stateMutability": "view",
      "type": "function",
      "constant": true
    },
    {
      "inputs": [],
      "name": "pause",
      "outputs": [],
      "stateMutability": "nonpayable",
      "type": "function"
    },
    {
      "inputs": [],
      "name": "paused",
      "outputs": [
        {
          "internalType": "bool",
          "name": "",
          "type": "bool"
        }
      ],
      "stateMutability": "view",
      "type": "function",
      "constant": true
    },
    {
      "inputs": [
        {
          "internalType": "bytes32",
          "name": "role",
          "type": "bytes32"
        },
        {
          "internalType": "address",
          "name": "account",
          "type": "address"
        }
      ],
      "name": "renounceRole",
      "outputs": [],
      "stateMutability": "nonpayable",
      "type": "function"
    },
    {
      "inputs": [
        {
          "internalType": "bytes32",
          "name": "role",
          "type": "bytes32"
        },
        {
          "internalType": "address",
          "name": "account",
          "type": "address"
        }
      ],
      "name": "revokeRole",
      "outputs": [],
      "stateMutability": "nonpayable",
      "type": "function"
    },
    {
      "inputs": [
        {
          "internalType": "address",
          "name": "from",
          "type": "address"
        },
        {
          "internalType": "address",
          "name": "to",
          "type": "address"
        },
        {
          "internalType": "uint256",
          "name": "tokenId",
          "type": "uint256"
        }
      ],
      "name": "safeTransferFrom",
      "outputs": [],
      "stateMutability": "nonpayable",
      "type": "function"
    },
    {
      "inputs": [
        {
          "internalType": "address",
          "name": "from",
          "type": "address"
        },
        {
          "internalType": "address",
          "name": "to",
          "type": "address"
        },
        {
          "internalType": "uint256",
          "name": "tokenId",
          "type": "uint256"
        },
        {
          "internalType": "bytes",
          "name": "_data",
          "type": "bytes"
        }
      ],
      "name": "safeTransferFrom",
      "outputs": [],
      "stateMutability": "nonpayable",
      "type": "function"
    },
    {
      "inputs": [
        {
          "internalType": "address",
          "name": "operator",
          "type": "address"
        },
        {
          "internalType": "bool",
          "name": "approved",
          "type": "bool"
        }
      ],
      "name": "setApprovalForAll",
      "outputs": [],
      "stateMutability": "nonpayable",
      "type": "function"
    },
    {
      "inputs": [
        {
          "internalType": "bytes4",
          "name": "interfaceId",
          "type": "bytes4"
        }
      ],
      "name": "supportsInterface",
      "outputs": [
        {
          "internalType": "bool",
          "name": "",
          "type": "bool"
        }
      ],
      "stateMutability": "view",
      "type": "function",
      "constant": true
    },
    {
      "inputs": [],
      "name": "symbol",
      "outputs": [
        {
          "internalType": "string",
          "name": "",
          "type": "string"
        }
      ],
      "stateMutability": "view",
      "type": "function",
      "constant": true
    },
    {
      "inputs": [
        {
          "internalType": "uint256",
          "name": "index",
          "type": "uint256"
        }
      ],
      "name": "tokenByIndex",
      "outputs": [
        {
          "internalType": "uint256",
          "name": "",
          "type": "uint256"
        }
      ],
      "stateMutability": "view",
      "type": "function",
      "constant": true
    },
    {
      "inputs": [
        {
          "internalType": "address",
          "name": "owner",
          "type": "address"
        },
        {
          "internalType": "uint256",
          "name": "index",
          "type": "uint256"
        }
      ],
      "name": "tokenOfOwnerByIndex",
      "outputs": [
        {
          "internalType": "uint256",
          "name": "",
          "type": "uint256"
        }
      ],
      "stateMutability": "view",
      "type": "function",
      "constant": true
    },
    {
      "inputs": [
        {
          "internalType": "uint256",
          "name": "",
          "type": "uint256"
        }
      ],
      "name": "tokenPartType",
      "outputs": [
        {
          "internalType": "uint32",
          "name": "",
          "type": "uint32"
        }
      ],
      "stateMutability": "view",
      "type": "function",
      "constant": true
    },
    {
      "inputs": [
        {
          "internalType": "uint256",
          "name": "",
          "type": "uint256"
        },
        {
          "internalType": "uint256",
          "name": "",
          "type": "uint256"
        }
      ],
      "name": "tokenStats",
      "outputs": [
        {
          "internalType": "uint256",
          "name": "",
          "type": "uint256"
        }
      ],
      "stateMutability": "view",
      "type": "function",
      "constant": true
    },
    {
      "inputs": [
        {
          "internalType": "uint256",
          "name": "tokenId",
          "type": "uint256"
        }
      ],
      "name": "tokenURI",
      "outputs": [
        {
          "internalType": "string",
          "name": "",
          "type": "string"
        }
      ],
      "stateMutability": "view",
      "type": "function",
      "constant": true
    },
    {
      "inputs": [],
      "name": "totalSupply",
      "outputs": [
        {
          "internalType": "uint256",
          "name": "",
          "type": "uint256"
        }
      ],
      "stateMutability": "view",
      "type": "function",
      "constant": true
    },
    {
      "inputs": [
        {
          "internalType": "address",
          "name": "from",
          "type": "address"
        },
        {
          "internalType": "address",
          "name": "to",
          "type": "address"
        },
        {
          "internalType": "uint256",
          "name": "tokenId",
          "type": "uint256"
        }
      ],
      "name": "transferFrom",
      "outputs": [],
      "stateMutability": "nonpayable",
      "type": "function"
    },
    {
      "inputs": [],
      "name": "unpause",
      "outputs": [],
      "stateMutability": "nonpayable",
      "type": "function"
    },
    {
      "inputs": [
        {
          "internalType": "address",
          "name": "",
          "type": "address"
        }
      ],
      "name": "mint",
      "outputs": [],
      "stateMutability": "pure",
      "type": "function",
      "constant": true
    },
    {
      "inputs": [
        {
          "internalType": "address",
          "name": "player",
          "type": "address"
        },
        {
          "internalType": "uint32",
          "name": "_tokenPartType",
          "type": "uint32"
        },
        {
          "internalType": "uint256[]",
          "name": "_tokenStats",
          "type": "uint256[]"
        }
      ],
      "name": "mintItem",
      "outputs": [
        {
          "internalType": "uint256",
          "name": "",
          "type": "uint256"
        }
      ],
      "stateMutability": "nonpayable",
      "type": "function"
    }
  ],
  "bytecode": "0x60806040523480156200001157600080fd5b5060405180604001604052806007815260200166109bdd14185c9d60ca1b81525060405180604001604052806002815260200161042560f41b815250604051806040016040528060078152602001667465737455524960c81b81525082828160029080519060200190620000879291906200030c565b5080516200009d9060039060208401906200030c565b5050600c805460ff19169055508051620000bf90600e9060208401906200030c565b50620000cd60003362000153565b620000e860008051602062002fdf8339815191523362000153565b6200010360008051602062002fbf8339815191523362000153565b50620001159150600090508062000196565b6200013160008051602062002fdf833981519152600062000196565b6200014d60008051602062002fbf833981519152600062000196565b620003ef565b6200016a8282620001ea60201b620010a21760201c565b600082815260016020908152604090912062000191918390620010b0620001fa821b17901c565b505050565b600082815260208190526040902060010154819060405184907fbd79b86ffe0ab8e8776151514217cd7cacd52c909f66475c3af44e129f0b00ff90600090a460009182526020829052604090912060010155565b620001f682826200021a565b5050565b600062000211836001600160a01b038416620002ba565b90505b92915050565b6000828152602081815260408083206001600160a01b038516845290915290205460ff16620001f6576000828152602081815260408083206001600160a01b03851684529091529020805460ff19166001179055620002763390565b6001600160a01b0316816001600160a01b0316837f2f8788117e7eff1d82e926ec794901d17c78024a50270940304540a733656f0d60405160405180910390a45050565b6000818152600183016020526040812054620003035750815460018181018455600084815260208082209093018490558454848252828601909352604090209190915562000214565b50600062000214565b8280546200031a90620003b2565b90600052602060002090601f0160209004810192826200033e576000855562000389565b82601f106200035957805160ff191683800117855562000389565b8280016001018555821562000389579182015b82811115620003895782518255916020019190600101906200036c565b50620003979291506200039b565b5090565b5b808211156200039757600081556001016200039c565b600181811c90821680620003c757607f821691505b60208210811415620003e957634e487b7160e01b600052602260045260246000fd5b50919050565b612bc080620003ff6000396000f3fe608060405234801561001057600080fd5b50600436106102265760003560e01c806364282d0b1161012a578063a22cb465116100bd578063d53913931161008c578063e63ab1e911610071578063e63ab1e9146104e8578063e985e9c51461050f578063f3ecec061461054b57600080fd5b8063d5391393146104ae578063d547741f146104d557600080fd5b8063a22cb46514610462578063b88d4fde14610475578063c87b56dd14610488578063ca15c8731461049b57600080fd5b80639010d07c116100f95780639010d07c1461040857806391d148541461041b57806395d89b4114610452578063a217fddf1461045a57600080fd5b806364282d0b1461039f5780636a627842146103da57806370a08231146103ed5780638456cb591461040057600080fd5b80632f2ff15d116101bd57806342842e0e1161018c5780634f6ccce7116101715780634f6ccce71461036e5780635c975abb146103815780636352211e1461038c57600080fd5b806342842e0e1461034857806342966c681461035b57600080fd5b80632f2ff15d146103075780632f745c591461031a57806336568abe1461032d5780633f4ba83a1461034057600080fd5b80630b56761c116101f95780630b56761c146102a857806318160ddd146102c957806323b872dd146102d1578063248a9ca3146102e457600080fd5b806301ffc9a71461022b57806306fdde0314610253578063081812fc14610268578063095ea7b314610293575b600080fd5b61023e6102393660046128ca565b61055e565b60405190151581526020015b60405180910390f35b61025b61056f565b60405161024a9190612a10565b61027b61027636600461286f565b610601565b6040516001600160a01b03909116815260200161024a565b6102a66102a13660046127b0565b6106ac565b005b6102bb6102b63660046127d9565b6107de565b60405190815260200161024a565b600a546102bb565b6102a66102df366004612666565b610866565b6102bb6102f236600461286f565b60009081526020819052604090206001015490565b6102a6610315366004612887565b6108ee565b6102bb6103283660046127b0565b610910565b6102a661033b366004612887565b6109b8565b6102a66109da565b6102a6610356366004612666565b610a82565b6102a661036936600461286f565b610a9d565b6102bb61037c36600461286f565b610b24565b600c5460ff1661023e565b61027b61039a36600461286f565b610bd6565b6103c56103ad36600461286f565b60106020526000908152604090205463ffffffff1681565b60405163ffffffff909116815260200161024a565b6102a66103e836600461261a565b610c61565b6102bb6103fb36600461261a565b610ca9565b6102a6610d43565b61027b6104163660046128a9565b610de7565b61023e610429366004612887565b6000918252602082815260408084206001600160a01b0393909316845291905290205460ff1690565b61025b610e06565b6102bb600081565b6102a6610470366004612776565b610e15565b6102a66104833660046126a1565b610eda565b61025b61049636600461286f565b610f68565b6102bb6104a936600461286f565b611050565b6102bb7f9f2df0fed2c77648de5860a4cc508cd0818c85b8b8a1ab4ceeef8d981c8956a681565b6102a66104e3366004612887565b611067565b6102bb7f65d7a28e3265b37a6474929f336521b332c1681b933f6cb9f3376673440d862a81565b61023e61051d366004612634565b6001600160a01b03918216600090815260076020908152604080832093909416825291909152205460ff1690565b6102bb6105593660046128a9565b611071565b6000610569826110c5565b92915050565b60606002805461057e90612ac8565b80601f01602080910402602001604051908101604052809291908181526020018280546105aa90612ac8565b80156105f75780601f106105cc576101008083540402835291602001916105f7565b820191906000526020600020905b8154815290600101906020018083116105da57829003601f168201915b5050505050905090565b6000818152600460205260408120546001600160a01b03166106905760405162461bcd60e51b815260206004820152602c60248201527f4552433732313a20617070726f76656420717565727920666f72206e6f6e657860448201527f697374656e7420746f6b656e000000000000000000000000000000000000000060648201526084015b60405180910390fd5b506000908152600660205260409020546001600160a01b031690565b60006106b782610bd6565b9050806001600160a01b0316836001600160a01b031614156107415760405162461bcd60e51b815260206004820152602160248201527f4552433732313a20617070726f76616c20746f2063757272656e74206f776e6560448201527f72000000000000000000000000000000000000000000000000000000000000006064820152608401610687565b336001600160a01b038216148061075d575061075d813361051d565b6107cf5760405162461bcd60e51b815260206004820152603860248201527f4552433732313a20617070726f76652063616c6c6572206973206e6f74206f7760448201527f6e6572206e6f7220617070726f76656420666f7220616c6c00000000000000006064820152608401610687565b6107d98383611103565b505050565b60007f9f2df0fed2c77648de5860a4cc508cd0818c85b8b8a1ab4ceeef8d981c8956a661080b813361117e565b610819600f80546001019055565b6000610824600f5490565b905061083087826111fc565b6000818152601060205260409020805463ffffffff191663ffffffff881617905561085c818686611357565b9695505050505050565b610871335b82611370565b6108e35760405162461bcd60e51b815260206004820152603160248201527f4552433732313a207472616e736665722063616c6c6572206973206e6f74206f60448201527f776e6572206e6f7220617070726f7665640000000000000000000000000000006064820152608401610687565b6107d9838383611478565b6108f8828261165d565b60008281526001602052604090206107d990826110b0565b600061091b83610ca9565b821061098f5760405162461bcd60e51b815260206004820152602b60248201527f455243373231456e756d657261626c653a206f776e657220696e646578206f7560448201527f74206f6620626f756e64730000000000000000000000000000000000000000006064820152608401610687565b506001600160a01b03919091166000908152600860209081526040808320938352929052205490565b6109c28282611683565b60008281526001602052604090206107d9908261170b565b610a047f65d7a28e3265b37a6474929f336521b332c1681b933f6cb9f3376673440d862a33610429565b610a78576040805162461bcd60e51b81526020600482015260248101919091527f4552433732315072657365744d696e7465725061757365724175746f49643a2060448201527f6d75737420686176652070617573657220726f6c6520746f20756e70617573656064820152608401610687565b610a80611720565b565b6107d983838360405180602001604052806000815250610eda565b610aa63361086b565b610b185760405162461bcd60e51b815260206004820152603060248201527f4552433732314275726e61626c653a2063616c6c6572206973206e6f74206f7760448201527f6e6572206e6f7220617070726f766564000000000000000000000000000000006064820152608401610687565b610b21816117bc565b50565b6000610b2f600a5490565b8210610ba35760405162461bcd60e51b815260206004820152602c60248201527f455243373231456e756d657261626c653a20676c6f62616c20696e646578206f60448201527f7574206f6620626f756e647300000000000000000000000000000000000000006064820152608401610687565b600a8281548110610bc457634e487b7160e01b600052603260045260246000fd5b90600052602060002001549050919050565b6000818152600460205260408120546001600160a01b0316806105695760405162461bcd60e51b815260206004820152602960248201527f4552433732313a206f776e657220717565727920666f72206e6f6e657869737460448201527f656e7420746f6b656e00000000000000000000000000000000000000000000006064820152608401610687565b60405162461bcd60e51b815260206004820152601260248201527f46756e6374696f6e206e6f7420757365642100000000000000000000000000006044820152606401610687565b60006001600160a01b038216610d275760405162461bcd60e51b815260206004820152602a60248201527f4552433732313a2062616c616e636520717565727920666f7220746865207a6560448201527f726f2061646472657373000000000000000000000000000000000000000000006064820152608401610687565b506001600160a01b031660009081526005602052604090205490565b610d6d7f65d7a28e3265b37a6474929f336521b332c1681b933f6cb9f3376673440d862a33610429565b610ddf5760405162461bcd60e51b815260206004820152603e60248201527f4552433732315072657365744d696e7465725061757365724175746f49643a2060448201527f6d75737420686176652070617573657220726f6c6520746f20706175736500006064820152608401610687565b610a80611870565b6000828152600160205260408120610dff90836118f8565b9392505050565b60606003805461057e90612ac8565b6001600160a01b038216331415610e6e5760405162461bcd60e51b815260206004820152601960248201527f4552433732313a20617070726f766520746f2063616c6c6572000000000000006044820152606401610687565b3360008181526007602090815260408083206001600160a01b03871680855290835292819020805460ff191686151590811790915590519081529192917f17307eab39ab6107e8899845ad3d59bd9653f200f220920489ca2b5937696c31910160405180910390a35050565b610ee43383611370565b610f565760405162461bcd60e51b815260206004820152603160248201527f4552433732313a207472616e736665722063616c6c6572206973206e6f74206f60448201527f776e6572206e6f7220617070726f7665640000000000000000000000000000006064820152608401610687565b610f6284848484611904565b50505050565b6000818152600460205260409020546060906001600160a01b0316610ff55760405162461bcd60e51b815260206004820152602f60248201527f4552433732314d657461646174613a2055524920717565727920666f72206e6f60448201527f6e6578697374656e7420746f6b656e00000000000000000000000000000000006064820152608401610687565b6000610fff61198d565b9050600081511161101f5760405180602001604052806000815250610dff565b806110298461199c565b60405160200161103a92919061292e565b6040516020818303038152906040529392505050565b600081815260016020526040812061056990611ab6565b6109c28282611ac0565b6011602052816000526040600020818154811061108d57600080fd5b90600052602060002001600091509150505481565b6110ac8282611ae6565b5050565b6000610dff836001600160a01b038416611b84565b60006001600160e01b031982167f780e9d63000000000000000000000000000000000000000000000000000000001480610569575061056982611bd3565b6000818152600660205260409020805473ffffffffffffffffffffffffffffffffffffffff19166001600160a01b038416908117909155819061114582610bd6565b6001600160a01b03167f8c5be1e5ebec7d5bd14f71427d1e84f3dd0314c0f7b2291e5b200ac8c7c3b92560405160405180910390a45050565b6000828152602081815260408083206001600160a01b038516845290915290205460ff166110ac576111ba816001600160a01b03166014611c45565b6111c5836020611c45565b6040516020016111d692919061295d565b60408051601f198184030181529082905262461bcd60e51b825261068791600401612a10565b6001600160a01b0382166112525760405162461bcd60e51b815260206004820181905260248201527f4552433732313a206d696e7420746f20746865207a65726f20616464726573736044820152606401610687565b6000818152600460205260409020546001600160a01b0316156112b75760405162461bcd60e51b815260206004820152601c60248201527f4552433732313a20746f6b656e20616c7265616479206d696e746564000000006044820152606401610687565b6112c360008383611e50565b6001600160a01b03821660009081526005602052604081208054600192906112ec908490612a23565b9091555050600081815260046020526040808220805473ffffffffffffffffffffffffffffffffffffffff19166001600160a01b03861690811790915590518392907fddf252ad1be2c89b69c2b068fc378daa952ba7f163c4a11628f55a4df523b3ef908290a45050565b6000838152601160205260409020610f6290838361259e565b6000818152600460205260408120546001600160a01b03166113fa5760405162461bcd60e51b815260206004820152602c60248201527f4552433732313a206f70657261746f7220717565727920666f72206e6f6e657860448201527f697374656e7420746f6b656e00000000000000000000000000000000000000006064820152608401610687565b600061140583610bd6565b9050806001600160a01b0316846001600160a01b031614806114405750836001600160a01b031661143584610601565b6001600160a01b0316145b8061147057506001600160a01b0380821660009081526007602090815260408083209388168352929052205460ff165b949350505050565b826001600160a01b031661148b82610bd6565b6001600160a01b0316146115075760405162461bcd60e51b815260206004820152602960248201527f4552433732313a207472616e73666572206f6620746f6b656e2074686174206960448201527f73206e6f74206f776e00000000000000000000000000000000000000000000006064820152608401610687565b6001600160a01b0382166115825760405162461bcd60e51b8152602060048201526024808201527f4552433732313a207472616e7366657220746f20746865207a65726f2061646460448201527f72657373000000000000000000000000000000000000000000000000000000006064820152608401610687565b61158d838383611e50565b611598600082611103565b6001600160a01b03831660009081526005602052604081208054600192906115c1908490612a6e565b90915550506001600160a01b03821660009081526005602052604081208054600192906115ef908490612a23565b9091555050600081815260046020526040808220805473ffffffffffffffffffffffffffffffffffffffff19166001600160a01b0386811691821790925591518493918716917fddf252ad1be2c89b69c2b068fc378daa952ba7f163c4a11628f55a4df523b3ef91a4505050565b600082815260208190526040902060010154611679813361117e565b6107d98383611ae6565b6001600160a01b03811633146117015760405162461bcd60e51b815260206004820152602f60248201527f416363657373436f6e74726f6c3a2063616e206f6e6c792072656e6f756e636560448201527f20726f6c657320666f722073656c6600000000000000000000000000000000006064820152608401610687565b6110ac8282611e5b565b6000610dff836001600160a01b038416611eda565b600c5460ff166117725760405162461bcd60e51b815260206004820152601460248201527f5061757361626c653a206e6f74207061757365640000000000000000000000006044820152606401610687565b600c805460ff191690557f5db9ee0a495bf2e6ff9c91a7834c1ba4fdd244a5e8aa4e537bd38aeae4b073aa335b6040516001600160a01b03909116815260200160405180910390a1565b60006117c782610bd6565b90506117d581600084611e50565b6117e0600083611103565b6001600160a01b0381166000908152600560205260408120805460019290611809908490612a6e565b9091555050600082815260046020526040808220805473ffffffffffffffffffffffffffffffffffffffff19169055518391906001600160a01b038416907fddf252ad1be2c89b69c2b068fc378daa952ba7f163c4a11628f55a4df523b3ef908390a45050565b600c5460ff16156118c35760405162461bcd60e51b815260206004820152601060248201527f5061757361626c653a20706175736564000000000000000000000000000000006044820152606401610687565b600c805460ff191660011790557f62e78cea01bee320cd4e420270b5ea74000d11b0c9f74754ebdbfc544b05a25861179f3390565b6000610dff8383611ff1565b61190f848484611478565b61191b848484846120a0565b610f625760405162461bcd60e51b815260206004820152603260248201527f4552433732313a207472616e7366657220746f206e6f6e20455243373231526560448201527f63656976657220696d706c656d656e74657200000000000000000000000000006064820152608401610687565b6060600e805461057e90612ac8565b6060816119c05750506040805180820190915260018152600360fc1b602082015290565b8160005b81156119ea57806119d481612b03565b91506119e39050600a83612a3b565b91506119c4565b60008167ffffffffffffffff811115611a1357634e487b7160e01b600052604160045260246000fd5b6040519080825280601f01601f191660200182016040528015611a3d576020820181803683370190505b5090505b841561147057611a52600183612a6e565b9150611a5f600a86612b1e565b611a6a906030612a23565b60f81b818381518110611a8d57634e487b7160e01b600052603260045260246000fd5b60200101906001600160f81b031916908160001a905350611aaf600a86612a3b565b9450611a41565b6000610569825490565b600082815260208190526040902060010154611adc813361117e565b6107d98383611e5b565b6000828152602081815260408083206001600160a01b038516845290915290205460ff166110ac576000828152602081815260408083206001600160a01b03851684529091529020805460ff19166001179055611b403390565b6001600160a01b0316816001600160a01b0316837f2f8788117e7eff1d82e926ec794901d17c78024a50270940304540a733656f0d60405160405180910390a45050565b6000818152600183016020526040812054611bcb57508154600181810184556000848152602080822090930184905584548482528286019093526040902091909155610569565b506000610569565b60006001600160e01b031982167f80ac58cd000000000000000000000000000000000000000000000000000000001480611c3657506001600160e01b031982167f5b5e139f00000000000000000000000000000000000000000000000000000000145b80610569575061056982612203565b60606000611c54836002612a4f565b611c5f906002612a23565b67ffffffffffffffff811115611c8557634e487b7160e01b600052604160045260246000fd5b6040519080825280601f01601f191660200182016040528015611caf576020820181803683370190505b509050600360fc1b81600081518110611cd857634e487b7160e01b600052603260045260246000fd5b60200101906001600160f81b031916908160001a9053507f780000000000000000000000000000000000000000000000000000000000000081600181518110611d3157634e487b7160e01b600052603260045260246000fd5b60200101906001600160f81b031916908160001a9053506000611d55846002612a4f565b611d60906001612a23565b90505b6001811115611e01577f303132333435363738396162636465660000000000000000000000000000000085600f1660108110611daf57634e487b7160e01b600052603260045260246000fd5b1a60f81b828281518110611dd357634e487b7160e01b600052603260045260246000fd5b60200101906001600160f81b031916908160001a90535060049490941c93611dfa81612ab1565b9050611d63565b508315610dff5760405162461bcd60e51b815260206004820181905260248201527f537472696e67733a20686578206c656e67746820696e73756666696369656e746044820152606401610687565b6107d9838383612241565b6000828152602081815260408083206001600160a01b038516845290915290205460ff16156110ac576000828152602081815260408083206001600160a01b0385168085529252808320805460ff1916905551339285917ff6391f5c32d9c69d2a47ea670b442974b53935d1edc7fd64eb21e047a839171b9190a45050565b60008181526001830160205260408120548015611fe7576000611efe600183612a6e565b8554909150600090611f1290600190612a6e565b90506000866000018281548110611f3957634e487b7160e01b600052603260045260246000fd5b9060005260206000200154905080876000018481548110611f6a57634e487b7160e01b600052603260045260246000fd5b600091825260208083209091019290925582815260018901909152604090208490558654879080611fab57634e487b7160e01b600052603160045260246000fd5b60019003818190600052602060002001600090559055866001016000878152602001908152602001600020600090556001945050505050610569565b6000915050610569565b8154600090821061206a5760405162461bcd60e51b815260206004820152602260248201527f456e756d657261626c655365743a20696e646578206f7574206f6620626f756e60448201527f64730000000000000000000000000000000000000000000000000000000000006064820152608401610687565b82600001828154811061208d57634e487b7160e01b600052603260045260246000fd5b9060005260206000200154905092915050565b60006001600160a01b0384163b156121f857604051630a85bd0160e11b81526001600160a01b0385169063150b7a02906120e49033908990889088906004016129de565b602060405180830381600087803b1580156120fe57600080fd5b505af192505050801561212e575060408051601f3d908101601f1916820190925261212b918101906128e6565b60015b6121de573d80801561215c576040519150601f19603f3d011682016040523d82523d6000602084013e612161565b606091505b5080516121d65760405162461bcd60e51b815260206004820152603260248201527f4552433732313a207472616e7366657220746f206e6f6e20455243373231526560448201527f63656976657220696d706c656d656e74657200000000000000000000000000006064820152608401610687565b805181602001fd5b6001600160e01b031916630a85bd0160e11b149050611470565b506001949350505050565b60006001600160e01b031982167f5a05180f0000000000000000000000000000000000000000000000000000000014806105695750610569826122c5565b61224c83838361232c565b600c5460ff16156107d95760405162461bcd60e51b815260206004820152602b60248201527f4552433732315061757361626c653a20746f6b656e207472616e73666572207760448201527f68696c65207061757365640000000000000000000000000000000000000000006064820152608401610687565b60006001600160e01b031982167f7965db0b00000000000000000000000000000000000000000000000000000000148061056957507f01ffc9a7000000000000000000000000000000000000000000000000000000006001600160e01b0319831614610569565b6001600160a01b0383166123875761238281600a80546000838152600b60205260408120829055600182018355919091527fc65a7bb8d6351c1cf70c95a316cc6a92839c986682d98bc35f958f4883f9d2a80155565b6123aa565b816001600160a01b0316836001600160a01b0316146123aa576123aa83826123e4565b6001600160a01b0382166123c1576107d981612481565b826001600160a01b0316826001600160a01b0316146107d9576107d9828261255a565b600060016123f184610ca9565b6123fb9190612a6e565b60008381526009602052604090205490915080821461244e576001600160a01b03841660009081526008602090815260408083208584528252808320548484528184208190558352600990915290208190555b5060009182526009602090815260408084208490556001600160a01b039094168352600881528383209183525290812055565b600a5460009061249390600190612a6e565b6000838152600b6020526040812054600a80549394509092849081106124c957634e487b7160e01b600052603260045260246000fd5b9060005260206000200154905080600a83815481106124f857634e487b7160e01b600052603260045260246000fd5b6000918252602080832090910192909255828152600b9091526040808220849055858252812055600a80548061253e57634e487b7160e01b600052603160045260246000fd5b6001900381819060005260206000200160009055905550505050565b600061256583610ca9565b6001600160a01b039093166000908152600860209081526040808320868452825280832085905593825260099052919091209190915550565b8280548282559060005260206000209081019282156125d9579160200282015b828111156125d95782358255916020019190600101906125be565b506125e59291506125e9565b5090565b5b808211156125e557600081556001016125ea565b80356001600160a01b038116811461261557600080fd5b919050565b60006020828403121561262b578081fd5b610dff826125fe565b60008060408385031215612646578081fd5b61264f836125fe565b915061265d602084016125fe565b90509250929050565b60008060006060848603121561267a578081fd5b612683846125fe565b9250612691602085016125fe565b9150604084013590509250925092565b600080600080608085870312156126b6578081fd5b6126bf856125fe565b93506126cd602086016125fe565b925060408501359150606085013567ffffffffffffffff808211156126f0578283fd5b818701915087601f830112612703578283fd5b81358181111561271557612715612b5e565b604051601f8201601f19908116603f0116810190838211818310171561273d5761273d612b5e565b816040528281528a6020848701011115612755578586fd5b82602086016020830137918201602001949094529598949750929550505050565b60008060408385031215612788578182fd5b612791836125fe565b9150602083013580151581146127a5578182fd5b809150509250929050565b600080604083850312156127c2578182fd5b6127cb836125fe565b946020939093013593505050565b600080600080606085870312156127ee578384fd5b6127f7856125fe565b9350602085013563ffffffff8116811461280f578384fd5b9250604085013567ffffffffffffffff8082111561282b578384fd5b818701915087601f83011261283e578384fd5b81358181111561284c578485fd5b8860208260051b8501011115612860578485fd5b95989497505060200194505050565b600060208284031215612880578081fd5b5035919050565b60008060408385031215612899578182fd5b8235915061265d602084016125fe565b600080604083850312156128bb578182fd5b50508035926020909101359150565b6000602082840312156128db578081fd5b8135610dff81612b74565b6000602082840312156128f7578081fd5b8151610dff81612b74565b6000815180845261291a816020860160208601612a85565b601f01601f19169290920160200192915050565b60008351612940818460208801612a85565b835190830190612954818360208801612a85565b01949350505050565b7f416363657373436f6e74726f6c3a206163636f756e7420000000000000000000815260008351612995816017850160208801612a85565b7f206973206d697373696e6720726f6c652000000000000000000000000000000060179184019182015283516129d2816028840160208801612a85565b01602801949350505050565b60006001600160a01b0380871683528086166020840152508360408301526080606083015261085c6080830184612902565b602081526000610dff6020830184612902565b60008219821115612a3657612a36612b32565b500190565b600082612a4a57612a4a612b48565b500490565b6000816000190483118215151615612a6957612a69612b32565b500290565b600082821015612a8057612a80612b32565b500390565b60005b83811015612aa0578181015183820152602001612a88565b83811115610f625750506000910152565b600081612ac057612ac0612b32565b506000190190565b600181811c90821680612adc57607f821691505b60208210811415612afd57634e487b7160e01b600052602260045260246000fd5b50919050565b6000600019821415612b1757612b17612b32565b5060010190565b600082612b2d57612b2d612b48565b500690565b634e487b7160e01b600052601160045260246000fd5b634e487b7160e01b600052601260045260246000fd5b634e487b7160e01b600052604160045260246000fd5b6001600160e01b031981168114610b2157600080fdfea26469706673582212208394d19be93eab3c5e001c79cd5d81055e921eb178a7164309682d12d180e5d064736f6c6343000804003365d7a28e3265b37a6474929f336521b332c1681b933f6cb9f3376673440d862a9f2df0fed2c77648de5860a4cc508cd0818c85b8b8a1ab4ceeef8d981c8956a6",
  "immutableReferences": {},
  "source": "// SPDX-License-Identifier: MIT\npragma solidity ^0.8.0;\n\nimport \"@openzeppelin/contracts/access/AccessControl.sol\";\nimport \"@openzeppelin/contracts/token/ERC721/presets/ERC721PresetMinterPauserAutoId.sol\";\nimport \"@openzeppelin/contracts/utils/Counters.sol\";\n\n\ncontract BotPart is ERC721PresetMinterPauserAutoId {\n  using Counters for Counters.Counter;\n\n  Counters.Counter private _tokenIds;\n\n  mapping(uint256 => uint32) public tokenPartType; // Lowest PartType starts at = 0x00000020 = 32\n  mapping(uint256 => uint256[]) public tokenStats;\n\n\n  constructor() ERC721PresetMinterPauserAutoId(\"BotPart\", \"BP\", \"testURI\") {\n    _setRoleAdmin(DEFAULT_ADMIN_ROLE, DEFAULT_ADMIN_ROLE);\n    _setRoleAdmin(MINTER_ROLE, DEFAULT_ADMIN_ROLE);\n    _setRoleAdmin(PAUSER_ROLE, DEFAULT_ADMIN_ROLE);\n  }\n\n  function mint(address) pure public override {\n    revert(\"Function not used!\");\n  }\n\n  function mintItem(address player, uint32 _tokenPartType, uint256[] calldata _tokenStats) public onlyRole(MINTER_ROLE) returns (uint256) {\n    _tokenIds.increment();\n\n    uint256 newItemId = _tokenIds.current();\n    _mint(player, newItemId);\n    _setTokenPartType(newItemId, _tokenPartType);\n    _setTokenStats(newItemId, _tokenStats);\n\n    return newItemId;\n  }\n\n  function _setTokenPartType(uint256 tokenID, uint32 partType) private {\n    tokenPartType[tokenID] = partType;\n  }\n\n  function _setTokenStats(uint256 tokenID, uint256[] calldata _tokenStats) private {\n    tokenStats[tokenID] = _tokenStats;\n  }\n\n}\n",
  "sourcePath": "/home/zorro/git/blockchain__general/prototype/contracts/polygon/BotPart.sol",
  "compiler": {
    "name": "solc",
    "version": "0.8.4+commit.c7e474f2.Emscripten.clang"
  },
  "schemaVersion": "3.2.0",
  "updatedAt": "2021-06-25T10:01:04.810Z",
  "networkType": "ethereum",
  "devdoc": {
    "kind": "dev",
    "methods": {
      "approve(address,uint256)": {
        "details": "See {IERC721-approve}."
      },
      "balanceOf(address)": {
        "details": "See {IERC721-balanceOf}."
      },
      "burn(uint256)": {
        "details": "Burns `tokenId`. See {ERC721-_burn}. Requirements: - The caller must own `tokenId` or be an approved operator."
      },
      "getApproved(uint256)": {
        "details": "See {IERC721-getApproved}."
      },
      "getRoleAdmin(bytes32)": {
        "details": "Returns the admin role that controls `role`. See {grantRole} and {revokeRole}. To change a role's admin, use {_setRoleAdmin}."
      },
      "getRoleMember(bytes32,uint256)": {
        "details": "Returns one of the accounts that have `role`. `index` must be a value between 0 and {getRoleMemberCount}, non-inclusive. Role bearers are not sorted in any particular way, and their ordering may change at any point. WARNING: When using {getRoleMember} and {getRoleMemberCount}, make sure you perform all queries on the same block. See the following https://forum.openzeppelin.com/t/iterating-over-elements-on-enumerableset-in-openzeppelin-contracts/2296[forum post] for more information."
      },
      "getRoleMemberCount(bytes32)": {
        "details": "Returns the number of accounts that have `role`. Can be used together with {getRoleMember} to enumerate all bearers of a role."
      },
      "grantRole(bytes32,address)": {
        "details": "Overload {grantRole} to track enumerable memberships"
      },
      "hasRole(bytes32,address)": {
        "details": "Returns `true` if `account` has been granted `role`."
      },
      "isApprovedForAll(address,address)": {
        "details": "See {IERC721-isApprovedForAll}."
      },
      "name()": {
        "details": "See {IERC721Metadata-name}."
      },
      "ownerOf(uint256)": {
        "details": "See {IERC721-ownerOf}."
      },
      "pause()": {
        "details": "Pauses all token transfers. See {ERC721Pausable} and {Pausable-_pause}. Requirements: - the caller must have the `PAUSER_ROLE`."
      },
      "paused()": {
        "details": "Returns true if the contract is paused, and false otherwise."
      },
      "renounceRole(bytes32,address)": {
        "details": "Overload {renounceRole} to track enumerable memberships"
      },
      "revokeRole(bytes32,address)": {
        "details": "Overload {revokeRole} to track enumerable memberships"
      },
      "safeTransferFrom(address,address,uint256)": {
        "details": "See {IERC721-safeTransferFrom}."
      },
      "safeTransferFrom(address,address,uint256,bytes)": {
        "details": "See {IERC721-safeTransferFrom}."
      },
      "setApprovalForAll(address,bool)": {
        "details": "See {IERC721-setApprovalForAll}."
      },
      "supportsInterface(bytes4)": {
        "details": "See {IERC165-supportsInterface}."
      },
      "symbol()": {
        "details": "See {IERC721Metadata-symbol}."
      },
      "tokenByIndex(uint256)": {
        "details": "See {IERC721Enumerable-tokenByIndex}."
      },
      "tokenOfOwnerByIndex(address,uint256)": {
        "details": "See {IERC721Enumerable-tokenOfOwnerByIndex}."
      },
      "tokenURI(uint256)": {
        "details": "See {IERC721Metadata-tokenURI}."
      },
      "totalSupply()": {
        "details": "See {IERC721Enumerable-totalSupply}."
      },
      "transferFrom(address,address,uint256)": {
        "details": "See {IERC721-transferFrom}."
      },
      "unpause()": {
        "details": "Unpauses all token transfers. See {ERC721Pausable} and {Pausable-_unpause}. Requirements: - the caller must have the `PAUSER_ROLE`."
      }
    },
    "version": 1
  },
  "userdoc": {
    "kind": "user",
    "methods": {},
    "version": 1
  }
}