{
  "contractName": "BotPart",
  "abi": [
    {
      "inputs": [
        {
          "internalType": "address",
          "name": "_metaTransactionForwarder",
          "type": "address"
        }
      ],
      "stateMutability": "nonpayable",
      "type": "constructor"
    },
    {
      "anonymous": false,
      "inputs": [
        {
          "indexed": true,
          "internalType": "address",
          "name": "owner",
          "type": "address"
        },
        {
          "indexed": true,
          "internalType": "address",
          "name": "approved",
          "type": "address"
        },
        {
          "indexed": true,
          "internalType": "uint256",
          "name": "tokenId",
          "type": "uint256"
        }
      ],
      "name": "Approval",
      "type": "event"
    },
    {
      "anonymous": false,
      "inputs": [
        {
          "indexed": true,
          "internalType": "address",
          "name": "owner",
          "type": "address"
        },
        {
          "indexed": true,
          "internalType": "address",
          "name": "operator",
          "type": "address"
        },
        {
          "indexed": false,
          "internalType": "bool",
          "name": "approved",
          "type": "bool"
        }
      ],
      "name": "ApprovalForAll",
      "type": "event"
    },
    {
      "anonymous": false,
      "inputs": [
        {
          "indexed": false,
          "internalType": "address",
          "name": "account",
          "type": "address"
        }
      ],
      "name": "Paused",
      "type": "event"
    },
    {
      "anonymous": false,
      "inputs": [
        {
          "indexed": true,
          "internalType": "bytes32",
          "name": "role",
          "type": "bytes32"
        },
        {
          "indexed": true,
          "internalType": "bytes32",
          "name": "previousAdminRole",
          "type": "bytes32"
        },
        {
          "indexed": true,
          "internalType": "bytes32",
          "name": "newAdminRole",
          "type": "bytes32"
        }
      ],
      "name": "RoleAdminChanged",
      "type": "event"
    },
    {
      "anonymous": false,
      "inputs": [
        {
          "indexed": true,
          "internalType": "bytes32",
          "name": "role",
          "type": "bytes32"
        },
        {
          "indexed": true,
          "internalType": "address",
          "name": "account",
          "type": "address"
        },
        {
          "indexed": true,
          "internalType": "address",
          "name": "sender",
          "type": "address"
        }
      ],
      "name": "RoleGranted",
      "type": "event"
    },
    {
      "anonymous": false,
      "inputs": [
        {
          "indexed": true,
          "internalType": "bytes32",
          "name": "role",
          "type": "bytes32"
        },
        {
          "indexed": true,
          "internalType": "address",
          "name": "account",
          "type": "address"
        },
        {
          "indexed": true,
          "internalType": "address",
          "name": "sender",
          "type": "address"
        }
      ],
      "name": "RoleRevoked",
      "type": "event"
    },
    {
      "anonymous": false,
      "inputs": [
        {
          "indexed": true,
          "internalType": "address",
          "name": "from",
          "type": "address"
        },
        {
          "indexed": true,
          "internalType": "address",
          "name": "to",
          "type": "address"
        },
        {
          "indexed": true,
          "internalType": "uint256",
          "name": "tokenId",
          "type": "uint256"
        }
      ],
      "name": "Transfer",
      "type": "event"
    },
    {
      "anonymous": false,
      "inputs": [
        {
          "indexed": false,
          "internalType": "address",
          "name": "account",
          "type": "address"
        }
      ],
      "name": "Unpaused",
      "type": "event"
    },
    {
      "inputs": [],
      "name": "DEFAULT_ADMIN_ROLE",
      "outputs": [
        {
          "internalType": "bytes32",
          "name": "",
          "type": "bytes32"
        }
      ],
      "stateMutability": "view",
      "type": "function",
      "constant": true
    },
    {
      "inputs": [],
      "name": "MINTER_ROLE",
      "outputs": [
        {
          "internalType": "bytes32",
          "name": "",
          "type": "bytes32"
        }
      ],
      "stateMutability": "view",
      "type": "function",
      "constant": true
    },
    {
      "inputs": [],
      "name": "PAUSER_ROLE",
      "outputs": [
        {
          "internalType": "bytes32",
          "name": "",
          "type": "bytes32"
        }
      ],
      "stateMutability": "view",
      "type": "function",
      "constant": true
    },
    {
      "inputs": [
        {
          "internalType": "address",
          "name": "to",
          "type": "address"
        },
        {
          "internalType": "uint256",
          "name": "tokenId",
          "type": "uint256"
        }
      ],
      "name": "approve",
      "outputs": [],
      "stateMutability": "nonpayable",
      "type": "function"
    },
    {
      "inputs": [
        {
          "internalType": "address",
          "name": "owner",
          "type": "address"
        }
      ],
      "name": "balanceOf",
      "outputs": [
        {
          "internalType": "uint256",
          "name": "",
          "type": "uint256"
        }
      ],
      "stateMutability": "view",
      "type": "function",
      "constant": true
    },
    {
      "inputs": [
        {
          "internalType": "uint256",
          "name": "tokenId",
          "type": "uint256"
        }
      ],
      "name": "burn",
      "outputs": [],
      "stateMutability": "nonpayable",
      "type": "function"
    },
    {
      "inputs": [
        {
          "internalType": "uint256",
          "name": "tokenId",
          "type": "uint256"
        }
      ],
      "name": "getApproved",
      "outputs": [
        {
          "internalType": "address",
          "name": "",
          "type": "address"
        }
      ],
      "stateMutability": "view",
      "type": "function",
      "constant": true
    },
    {
      "inputs": [
        {
          "internalType": "bytes32",
          "name": "role",
          "type": "bytes32"
        }
      ],
      "name": "getRoleAdmin",
      "outputs": [
        {
          "internalType": "bytes32",
          "name": "",
          "type": "bytes32"
        }
      ],
      "stateMutability": "view",
      "type": "function",
      "constant": true
    },
    {
      "inputs": [
        {
          "internalType": "bytes32",
          "name": "role",
          "type": "bytes32"
        },
        {
          "internalType": "uint256",
          "name": "index",
          "type": "uint256"
        }
      ],
      "name": "getRoleMember",
      "outputs": [
        {
          "internalType": "address",
          "name": "",
          "type": "address"
        }
      ],
      "stateMutability": "view",
      "type": "function",
      "constant": true
    },
    {
      "inputs": [
        {
          "internalType": "bytes32",
          "name": "role",
          "type": "bytes32"
        }
      ],
      "name": "getRoleMemberCount",
      "outputs": [
        {
          "internalType": "uint256",
          "name": "",
          "type": "uint256"
        }
      ],
      "stateMutability": "view",
      "type": "function",
      "constant": true
    },
    {
      "inputs": [
        {
          "internalType": "bytes32",
          "name": "role",
          "type": "bytes32"
        },
        {
          "internalType": "address",
          "name": "account",
          "type": "address"
        }
      ],
      "name": "grantRole",
      "outputs": [],
      "stateMutability": "nonpayable",
      "type": "function"
    },
    {
      "inputs": [
        {
          "internalType": "bytes32",
          "name": "role",
          "type": "bytes32"
        },
        {
          "internalType": "address",
          "name": "account",
          "type": "address"
        }
      ],
      "name": "hasRole",
      "outputs": [
        {
          "internalType": "bool",
          "name": "",
          "type": "bool"
        }
      ],
      "stateMutability": "view",
      "type": "function",
      "constant": true
    },
    {
      "inputs": [
        {
          "internalType": "address",
          "name": "owner",
          "type": "address"
        },
        {
          "internalType": "address",
          "name": "operator",
          "type": "address"
        }
      ],
      "name": "isApprovedForAll",
      "outputs": [
        {
          "internalType": "bool",
          "name": "",
          "type": "bool"
        }
      ],
      "stateMutability": "view",
      "type": "function",
      "constant": true
    },
    {
      "inputs": [],
      "name": "metaTransactionForwarder",
      "outputs": [
        {
          "internalType": "address",
          "name": "",
          "type": "address"
        }
      ],
      "stateMutability": "view",
      "type": "function",
      "constant": true
    },
    {
      "inputs": [],
      "name": "name",
      "outputs": [
        {
          "internalType": "string",
          "name": "",
          "type": "string"
        }
      ],
      "stateMutability": "view",
      "type": "function",
      "constant": true
    },
    {
      "inputs": [
        {
          "internalType": "uint256",
          "name": "tokenId",
          "type": "uint256"
        }
      ],
      "name": "ownerOf",
      "outputs": [
        {
          "internalType": "address",
          "name": "",
          "type": "address"
        }
      ],
      "stateMutability": "view",
      "type": "function",
      "constant": true
    },
    {
      "inputs": [],
      "name": "pause",
      "outputs": [],
      "stateMutability": "nonpayable",
      "type": "function"
    },
    {
      "inputs": [],
      "name": "paused",
      "outputs": [
        {
          "internalType": "bool",
          "name": "",
          "type": "bool"
        }
      ],
      "stateMutability": "view",
      "type": "function",
      "constant": true
    },
    {
      "inputs": [
        {
          "internalType": "bytes32",
          "name": "role",
          "type": "bytes32"
        },
        {
          "internalType": "address",
          "name": "account",
          "type": "address"
        }
      ],
      "name": "renounceRole",
      "outputs": [],
      "stateMutability": "nonpayable",
      "type": "function"
    },
    {
      "inputs": [
        {
          "internalType": "bytes32",
          "name": "role",
          "type": "bytes32"
        },
        {
          "internalType": "address",
          "name": "account",
          "type": "address"
        }
      ],
      "name": "revokeRole",
      "outputs": [],
      "stateMutability": "nonpayable",
      "type": "function"
    },
    {
      "inputs": [
        {
          "internalType": "address",
          "name": "from",
          "type": "address"
        },
        {
          "internalType": "address",
          "name": "to",
          "type": "address"
        },
        {
          "internalType": "uint256",
          "name": "tokenId",
          "type": "uint256"
        }
      ],
      "name": "safeTransferFrom",
      "outputs": [],
      "stateMutability": "nonpayable",
      "type": "function"
    },
    {
      "inputs": [
        {
          "internalType": "address",
          "name": "from",
          "type": "address"
        },
        {
          "internalType": "address",
          "name": "to",
          "type": "address"
        },
        {
          "internalType": "uint256",
          "name": "tokenId",
          "type": "uint256"
        },
        {
          "internalType": "bytes",
          "name": "_data",
          "type": "bytes"
        }
      ],
      "name": "safeTransferFrom",
      "outputs": [],
      "stateMutability": "nonpayable",
      "type": "function"
    },
    {
      "inputs": [
        {
          "internalType": "address",
          "name": "operator",
          "type": "address"
        },
        {
          "internalType": "bool",
          "name": "approved",
          "type": "bool"
        }
      ],
      "name": "setApprovalForAll",
      "outputs": [],
      "stateMutability": "nonpayable",
      "type": "function"
    },
    {
      "inputs": [
        {
          "internalType": "bytes4",
          "name": "interfaceId",
          "type": "bytes4"
        }
      ],
      "name": "supportsInterface",
      "outputs": [
        {
          "internalType": "bool",
          "name": "",
          "type": "bool"
        }
      ],
      "stateMutability": "view",
      "type": "function",
      "constant": true
    },
    {
      "inputs": [],
      "name": "symbol",
      "outputs": [
        {
          "internalType": "string",
          "name": "",
          "type": "string"
        }
      ],
      "stateMutability": "view",
      "type": "function",
      "constant": true
    },
    {
      "inputs": [
        {
          "internalType": "uint256",
          "name": "index",
          "type": "uint256"
        }
      ],
      "name": "tokenByIndex",
      "outputs": [
        {
          "internalType": "uint256",
          "name": "",
          "type": "uint256"
        }
      ],
      "stateMutability": "view",
      "type": "function",
      "constant": true
    },
    {
      "inputs": [
        {
          "internalType": "address",
          "name": "owner",
          "type": "address"
        },
        {
          "internalType": "uint256",
          "name": "index",
          "type": "uint256"
        }
      ],
      "name": "tokenOfOwnerByIndex",
      "outputs": [
        {
          "internalType": "uint256",
          "name": "",
          "type": "uint256"
        }
      ],
      "stateMutability": "view",
      "type": "function",
      "constant": true
    },
    {
      "inputs": [
        {
          "internalType": "uint256",
          "name": "tokenId",
          "type": "uint256"
        }
      ],
      "name": "tokenURI",
      "outputs": [
        {
          "internalType": "string",
          "name": "",
          "type": "string"
        }
      ],
      "stateMutability": "view",
      "type": "function",
      "constant": true
    },
    {
      "inputs": [],
      "name": "totalSupply",
      "outputs": [
        {
          "internalType": "uint256",
          "name": "",
          "type": "uint256"
        }
      ],
      "stateMutability": "view",
      "type": "function",
      "constant": true
    },
    {
      "inputs": [
        {
          "internalType": "address",
          "name": "from",
          "type": "address"
        },
        {
          "internalType": "address",
          "name": "to",
          "type": "address"
        },
        {
          "internalType": "uint256",
          "name": "tokenId",
          "type": "uint256"
        }
      ],
      "name": "transferFrom",
      "outputs": [],
      "stateMutability": "nonpayable",
      "type": "function"
    },
    {
      "inputs": [],
      "name": "unpause",
      "outputs": [],
      "stateMutability": "nonpayable",
      "type": "function"
    },
    {
      "inputs": [
        {
          "internalType": "address",
          "name": "",
          "type": "address"
        }
      ],
      "name": "mint",
      "outputs": [],
      "stateMutability": "pure",
      "type": "function",
      "constant": true
    },
    {
      "inputs": [
        {
          "internalType": "address",
          "name": "player",
          "type": "address"
        },
        {
          "internalType": "uint32",
          "name": "_tokenPartType",
          "type": "uint32"
        },
        {
          "internalType": "uint128",
          "name": "_tokenStats",
          "type": "uint128"
        }
      ],
      "name": "mintItem",
      "outputs": [
        {
          "internalType": "uint256",
          "name": "",
          "type": "uint256"
        }
      ],
      "stateMutability": "nonpayable",
      "type": "function"
    },
    {
      "inputs": [
        {
          "internalType": "uint256",
          "name": "tokenID",
          "type": "uint256"
        },
        {
          "internalType": "uint8",
          "name": "statNumber",
          "type": "uint8"
        }
      ],
      "name": "getRawTokenStat",
      "outputs": [
        {
          "internalType": "uint32",
          "name": "",
          "type": "uint32"
        }
      ],
      "stateMutability": "view",
      "type": "function",
      "constant": true
    },
    {
      "inputs": [
        {
          "internalType": "uint256",
          "name": "tokenID",
          "type": "uint256"
        }
      ],
      "name": "getBotPartType",
      "outputs": [
        {
          "internalType": "uint32",
          "name": "",
          "type": "uint32"
        }
      ],
      "stateMutability": "view",
      "type": "function",
      "constant": true
    },
    {
      "inputs": [
        {
          "internalType": "address",
          "name": "to",
          "type": "address"
        },
        {
          "internalType": "uint256",
          "name": "tokenId",
          "type": "uint256"
        },
        {
          "internalType": "address",
          "name": "from",
          "type": "address"
        }
      ],
      "name": "metaApprove",
      "outputs": [],
      "stateMutability": "nonpayable",
      "type": "function"
    },
    {
      "inputs": [
        {
          "internalType": "address",
          "name": "to",
          "type": "address"
        },
        {
          "internalType": "uint256",
          "name": "tokenId",
          "type": "uint256"
        },
        {
          "internalType": "bytes",
          "name": "_data",
          "type": "bytes"
        },
        {
          "internalType": "address",
          "name": "from",
          "type": "address"
        }
      ],
      "name": "metaSafeTransfer",
      "outputs": [],
      "stateMutability": "nonpayable",
      "type": "function"
    }
  ],
  "bytecode": "0x60806040523480156200001157600080fd5b50604051620033ea380380620033ea8339810160408190526200003491620003f4565b60405180604001604052806007815260200166109bdd14185c9d60ca1b81525060405180604001604052806002815260200161042560f41b815250604051806040016040528060078152602001667465737455524960c81b81525082828160029080519060200190620000a99291906200034e565b508051620000bf9060039060208401906200034e565b5050600c805460ff19169055508051620000e190600e9060208401906200034e565b50620000ef60003362000195565b6200010a600080516020620033ca8339815191523362000195565b62000125600080516020620033aa8339815191523362000195565b506200013791506000905080620001d8565b62000153600080516020620033ca8339815191526000620001d8565b6200016f600080516020620033aa8339815191526000620001d8565b601280546001600160a01b0319166001600160a01b039290921691909117905562000461565b620001ac82826200022c60201b620013021760201c565b6000828152600160209081526040909120620001d3918390620013106200023c821b17901c565b505050565b600082815260208190526040902060010154819060405184907fbd79b86ffe0ab8e8776151514217cd7cacd52c909f66475c3af44e129f0b00ff90600090a460009182526020829052604090912060010155565b6200023882826200025c565b5050565b600062000253836001600160a01b038416620002fc565b90505b92915050565b6000828152602081815260408083206001600160a01b038516845290915290205460ff1662000238576000828152602081815260408083206001600160a01b03851684529091529020805460ff19166001179055620002b83390565b6001600160a01b0316816001600160a01b0316837f2f8788117e7eff1d82e926ec794901d17c78024a50270940304540a733656f0d60405160405180910390a45050565b6000818152600183016020526040812054620003455750815460018181018455600084815260208082209093018490558454848252828601909352604090209190915562000256565b50600062000256565b8280546200035c9062000424565b90600052602060002090601f016020900481019282620003805760008555620003cb565b82601f106200039b57805160ff1916838001178555620003cb565b82800160010185558215620003cb579182015b82811115620003cb578251825591602001919060010190620003ae565b50620003d9929150620003dd565b5090565b5b80821115620003d95760008155600101620003de565b60006020828403121562000406578081fd5b81516001600160a01b03811681146200041d578182fd5b9392505050565b600181811c908216806200043957607f821691505b602082108114156200045b57634e487b7160e01b600052602260045260246000fd5b50919050565b612f3980620004716000396000f3fe608060405234801561001057600080fd5b50600436106102775760003560e01c80635c975abb11610160578063a217fddf116100d8578063d53913931161008c578063e63ab1e911610071578063e63ab1e914610572578063e985e9c514610599578063fd6c1861146105d557600080fd5b8063d539139314610538578063d547741f1461055f57600080fd5b8063b88d4fde116100bd578063b88d4fde146104ff578063c87b56dd14610512578063ca15c8731461052557600080fd5b8063a217fddf146104e4578063a22cb465146104ec57600080fd5b80637c2a0e2d1161012f5780639010d07c116101145780639010d07c1461049257806391d14854146104a557806395d89b41146104dc57600080fd5b80637c2a0e2d146104775780638456cb591461048a57600080fd5b80635c975abb146104335780636352211e1461043e5780636a6278421461045157806370a082311461046457600080fd5b8063248a9ca3116101f35780633f4ba83a116101c257806342966c68116101a757806342966c68146103fa5780634f6ccce71461040d5780635b6d95041461042057600080fd5b80633f4ba83a146103df57806342842e0e146103e757600080fd5b8063248a9ca3146103835780632f2ff15d146103a65780632f745c59146103b957806336568abe146103cc57600080fd5b80631775dd9a1161024a57806318f428d51161022f57806318f428d5146103225780631f534e081461033557806323b872dd1461037057600080fd5b80631775dd9a146102f957806318160ddd1461031a57600080fd5b806301ffc9a71461027c57806306fdde03146102a4578063081812fc146102b9578063095ea7b3146102e4575b600080fd5b61028f61028a366004612bb8565b6105e8565b60405190151581526020015b60405180910390f35b6102ac6105f9565b60405161029b9190612d31565b6102cc6102c7366004612b5d565b61068b565b6040516001600160a01b03909116815260200161029b565b6102f76102f2366004612a2f565b610736565b005b61030c610307366004612af9565b61084c565b60405190815260200161029b565b600a5461030c565b6012546102cc906001600160a01b031681565b61035b610343366004612b5d565b60009081526010602052604090205463ffffffff1690565b60405163ffffffff909116815260200161029b565b6102f761037e366004612954565b610910565b61030c610391366004612b5d565b60009081526020819052604090206001015490565b6102f76103b4366004612b75565b610998565b61030c6103c7366004612a2f565b6109ba565b6102f76103da366004612b75565b610a62565b6102f7610a84565b6102f76103f5366004612954565b610b2c565b6102f7610408366004612b5d565b610b47565b61030c61041b366004612b5d565b610bce565b6102f761042e366004612a93565b610c80565b600c5460ff1661028f565b6102cc61044c366004612b5d565b610cb2565b6102f761045f366004612908565b610d3d565b61030c610472366004612908565b610d85565b6102f7610485366004612a58565b610e1f565b6102f7610f7a565b6102cc6104a0366004612b97565b61101e565b61028f6104b3366004612b75565b6000918252602082815260408084206001600160a01b0393909316845291905290205460ff1690565b6102ac61103d565b61030c600081565b6102f76104fa3660046129f5565b61104c565b6102f761050d36600461298f565b611111565b6102ac610520366004612b5d565b611199565b61030c610533366004612b5d565b611281565b61030c7f9f2df0fed2c77648de5860a4cc508cd0818c85b8b8a1ab4ceeef8d981c8956a681565b6102f761056d366004612b75565b611298565b61030c7f65d7a28e3265b37a6474929f336521b332c1681b933f6cb9f3376673440d862a81565b61028f6105a7366004612922565b6001600160a01b03918216600090815260076020908152604080832093909416825291909152205460ff1690565b61035b6105e3366004612bf0565b6112a2565b60006105f382611325565b92915050565b60606002805461060890612e12565b80601f016020809104026020016040519081016040528092919081815260200182805461063490612e12565b80156106815780601f1061065657610100808354040283529160200191610681565b820191906000526020600020905b81548152906001019060200180831161066457829003601f168201915b5050505050905090565b6000818152600460205260408120546001600160a01b031661071a5760405162461bcd60e51b815260206004820152602c60248201527f4552433732313a20617070726f76656420717565727920666f72206e6f6e657860448201527f697374656e7420746f6b656e000000000000000000000000000000000000000060648201526084015b60405180910390fd5b506000908152600660205260409020546001600160a01b031690565b600061074182610cb2565b9050806001600160a01b0316836001600160a01b031614156107af5760405162461bcd60e51b815260206004820152602160248201527f4552433732313a20617070726f76616c20746f2063757272656e74206f776e656044820152603960f91b6064820152608401610711565b336001600160a01b03821614806107cb57506107cb81336105a7565b61083d5760405162461bcd60e51b815260206004820152603860248201527f4552433732313a20617070726f76652063616c6c6572206973206e6f74206f7760448201527f6e6572206e6f7220617070726f76656420666f7220616c6c00000000000000006064820152608401610711565b6108478383611363565b505050565b60007f9f2df0fed2c77648de5860a4cc508cd0818c85b8b8a1ab4ceeef8d981c8956a661087981336113de565b610887600f80546001019055565b6000610892600f5490565b905061089e868261145c565b6000818152601060205260409020805463ffffffff191663ffffffff8716179055600081815260116020526040902080547fffffffffffffffffffffffffffffffff00000000000000000000000000000000166fffffffffffffffffffffffffffffffff861617905595945050505050565b61091b335b826115b7565b61098d5760405162461bcd60e51b815260206004820152603160248201527f4552433732313a207472616e736665722063616c6c6572206973206e6f74206f60448201527f776e6572206e6f7220617070726f7665640000000000000000000000000000006064820152608401610711565b6108478383836116bf565b6109a282826118a4565b60008281526001602052604090206108479082611310565b60006109c583610d85565b8210610a395760405162461bcd60e51b815260206004820152602b60248201527f455243373231456e756d657261626c653a206f776e657220696e646578206f7560448201527f74206f6620626f756e64730000000000000000000000000000000000000000006064820152608401610711565b506001600160a01b03919091166000908152600860209081526040808320938352929052205490565b610a6c82826118ca565b60008281526001602052604090206108479082611952565b610aae7f65d7a28e3265b37a6474929f336521b332c1681b933f6cb9f3376673440d862a336104b3565b610b22576040805162461bcd60e51b81526020600482015260248101919091527f4552433732315072657365744d696e7465725061757365724175746f49643a2060448201527f6d75737420686176652070617573657220726f6c6520746f20756e70617573656064820152608401610711565b610b2a611967565b565b61084783838360405180602001604052806000815250611111565b610b5033610915565b610bc25760405162461bcd60e51b815260206004820152603060248201527f4552433732314275726e61626c653a2063616c6c6572206973206e6f74206f7760448201527f6e6572206e6f7220617070726f766564000000000000000000000000000000006064820152608401610711565b610bcb81611a03565b50565b6000610bd9600a5490565b8210610c4d5760405162461bcd60e51b815260206004820152602c60248201527f455243373231456e756d657261626c653a20676c6f62616c20696e646578206f60448201527f7574206f6620626f756e647300000000000000000000000000000000000000006064820152608401610711565b600a8281548110610c6e57634e487b7160e01b600052603260045260246000fd5b90600052602060002001549050919050565b6012546001600160a01b0316336001600160a01b031614610ca057600080fd5b610cac81858585611ab7565b50505050565b6000818152600460205260408120546001600160a01b0316806105f35760405162461bcd60e51b815260206004820152602960248201527f4552433732313a206f776e657220717565727920666f72206e6f6e657869737460448201527f656e7420746f6b656e00000000000000000000000000000000000000000000006064820152608401610711565b60405162461bcd60e51b815260206004820152601260248201527f46756e6374696f6e206e6f7420757365642100000000000000000000000000006044820152606401610711565b60006001600160a01b038216610e035760405162461bcd60e51b815260206004820152602a60248201527f4552433732313a2062616c616e636520717565727920666f7220746865207a6560448201527f726f2061646472657373000000000000000000000000000000000000000000006064820152608401610711565b506001600160a01b031660009081526005602052604090205490565b6000610e2a83610cb2565b9050806001600160a01b0316846001600160a01b03161415610e985760405162461bcd60e51b815260206004820152602160248201527f4552433732313a20617070726f76616c20746f2063757272656e74206f776e656044820152603960f91b6064820152608401610711565b6012546001600160a01b0316336001600160a01b031614610eb857600080fd5b806001600160a01b0316826001600160a01b0316141580610efe57506001600160a01b0380821660009081526007602090815260408083209386168352929052205460ff165b610f705760405162461bcd60e51b815260206004820152603860248201527f4552433732313a20617070726f76652063616c6c6572206973206e6f74206f7760448201527f6e6572206e6f7220617070726f76656420666f7220616c6c00000000000000006064820152608401610711565b610cac8484611363565b610fa47f65d7a28e3265b37a6474929f336521b332c1681b933f6cb9f3376673440d862a336104b3565b6110165760405162461bcd60e51b815260206004820152603e60248201527f4552433732315072657365744d696e7465725061757365724175746f49643a2060448201527f6d75737420686176652070617573657220726f6c6520746f20706175736500006064820152608401610711565b610b2a611b40565b60008281526001602052604081206110369083611bc8565b9392505050565b60606003805461060890612e12565b6001600160a01b0382163314156110a55760405162461bcd60e51b815260206004820152601960248201527f4552433732313a20617070726f766520746f2063616c6c6572000000000000006044820152606401610711565b3360008181526007602090815260408083206001600160a01b03871680855290835292819020805460ff191686151590811790915590519081529192917f17307eab39ab6107e8899845ad3d59bd9653f200f220920489ca2b5937696c31910160405180910390a35050565b61111b33836115b7565b61118d5760405162461bcd60e51b815260206004820152603160248201527f4552433732313a207472616e736665722063616c6c6572206973206e6f74206f60448201527f776e6572206e6f7220617070726f7665640000000000000000000000000000006064820152608401610711565b610cac84848484611ab7565b6000818152600460205260409020546060906001600160a01b03166112265760405162461bcd60e51b815260206004820152602f60248201527f4552433732314d657461646174613a2055524920717565727920666f72206e6f60448201527f6e6578697374656e7420746f6b656e00000000000000000000000000000000006064820152608401610711565b6000611230611bd4565b905060008151116112505760405180602001604052806000815250611036565b8061125a84611be3565b60405160200161126b929190612c45565b6040516020818303038152906040529392505050565b60008181526001602052604081206105f390611cfd565b610a6c8282611d07565b60006110366401000000006112b8846020612d8f565b6000868152601160205260409020546112eb92916fffffffffffffffffffffffffffffffff90911660ff9091161c612e68565b6fffffffffffffffffffffffffffffffff16611d2d565b61130c8282611dad565b5050565b6000611036836001600160a01b038416611e4b565b60006001600160e01b031982167f780e9d630000000000000000000000000000000000000000000000000000000014806105f357506105f382611e9a565b6000818152600660205260409020805473ffffffffffffffffffffffffffffffffffffffff19166001600160a01b03841690811790915581906113a582610cb2565b6001600160a01b03167f8c5be1e5ebec7d5bd14f71427d1e84f3dd0314c0f7b2291e5b200ac8c7c3b92560405160405180910390a45050565b6000828152602081815260408083206001600160a01b038516845290915290205460ff1661130c5761141a816001600160a01b03166014611f0c565b611425836020611f0c565b604051602001611436929190612c74565b60408051601f198184030181529082905262461bcd60e51b825261071191600401612d31565b6001600160a01b0382166114b25760405162461bcd60e51b815260206004820181905260248201527f4552433732313a206d696e7420746f20746865207a65726f20616464726573736044820152606401610711565b6000818152600460205260409020546001600160a01b0316156115175760405162461bcd60e51b815260206004820152601c60248201527f4552433732313a20746f6b656e20616c7265616479206d696e746564000000006044820152606401610711565b61152360008383612117565b6001600160a01b038216600090815260056020526040812080546001929061154c908490612d44565b9091555050600081815260046020526040808220805473ffffffffffffffffffffffffffffffffffffffff19166001600160a01b03861690811790915590518392907fddf252ad1be2c89b69c2b068fc378daa952ba7f163c4a11628f55a4df523b3ef908290a45050565b6000818152600460205260408120546001600160a01b03166116415760405162461bcd60e51b815260206004820152602c60248201527f4552433732313a206f70657261746f7220717565727920666f72206e6f6e657860448201527f697374656e7420746f6b656e00000000000000000000000000000000000000006064820152608401610711565b600061164c83610cb2565b9050806001600160a01b0316846001600160a01b031614806116875750836001600160a01b031661167c8461068b565b6001600160a01b0316145b806116b757506001600160a01b0380821660009081526007602090815260408083209388168352929052205460ff165b949350505050565b826001600160a01b03166116d282610cb2565b6001600160a01b03161461174e5760405162461bcd60e51b815260206004820152602960248201527f4552433732313a207472616e73666572206f6620746f6b656e2074686174206960448201527f73206e6f74206f776e00000000000000000000000000000000000000000000006064820152608401610711565b6001600160a01b0382166117c95760405162461bcd60e51b8152602060048201526024808201527f4552433732313a207472616e7366657220746f20746865207a65726f2061646460448201527f72657373000000000000000000000000000000000000000000000000000000006064820152608401610711565b6117d4838383612117565b6117df600082611363565b6001600160a01b0383166000908152600560205260408120805460019290611808908490612db8565b90915550506001600160a01b0382166000908152600560205260408120805460019290611836908490612d44565b9091555050600081815260046020526040808220805473ffffffffffffffffffffffffffffffffffffffff19166001600160a01b0386811691821790925591518493918716917fddf252ad1be2c89b69c2b068fc378daa952ba7f163c4a11628f55a4df523b3ef91a4505050565b6000828152602081905260409020600101546118c081336113de565b6108478383611dad565b6001600160a01b03811633146119485760405162461bcd60e51b815260206004820152602f60248201527f416363657373436f6e74726f6c3a2063616e206f6e6c792072656e6f756e636560448201527f20726f6c657320666f722073656c6600000000000000000000000000000000006064820152608401610711565b61130c8282612122565b6000611036836001600160a01b0384166121a1565b600c5460ff166119b95760405162461bcd60e51b815260206004820152601460248201527f5061757361626c653a206e6f74207061757365640000000000000000000000006044820152606401610711565b600c805460ff191690557f5db9ee0a495bf2e6ff9c91a7834c1ba4fdd244a5e8aa4e537bd38aeae4b073aa335b6040516001600160a01b03909116815260200160405180910390a1565b6000611a0e82610cb2565b9050611a1c81600084612117565b611a27600083611363565b6001600160a01b0381166000908152600560205260408120805460019290611a50908490612db8565b9091555050600082815260046020526040808220805473ffffffffffffffffffffffffffffffffffffffff19169055518391906001600160a01b038416907fddf252ad1be2c89b69c2b068fc378daa952ba7f163c4a11628f55a4df523b3ef908390a45050565b611ac28484846116bf565b611ace848484846122b8565b610cac5760405162461bcd60e51b815260206004820152603260248201527f4552433732313a207472616e7366657220746f206e6f6e20455243373231526560448201527f63656976657220696d706c656d656e74657200000000000000000000000000006064820152608401610711565b600c5460ff1615611b935760405162461bcd60e51b815260206004820152601060248201527f5061757361626c653a20706175736564000000000000000000000000000000006044820152606401610711565b600c805460ff191660011790557f62e78cea01bee320cd4e420270b5ea74000d11b0c9f74754ebdbfc544b05a2586119e63390565b6000611036838361241b565b6060600e805461060890612e12565b606081611c075750506040805180820190915260018152600360fc1b602082015290565b8160005b8115611c315780611c1b81612e4d565b9150611c2a9050600a83612d5c565b9150611c0b565b60008167ffffffffffffffff811115611c5a57634e487b7160e01b600052604160045260246000fd5b6040519080825280601f01601f191660200182016040528015611c84576020820181803683370190505b5090505b84156116b757611c99600183612db8565b9150611ca6600a86612e97565b611cb1906030612d44565b60f81b818381518110611cd457634e487b7160e01b600052603260045260246000fd5b60200101906001600160f81b031916908160001a905350611cf6600a86612d5c565b9450611c88565b60006105f3825490565b600082815260208190526040902060010154611d2381336113de565b6108478383612122565b60006401000000008210611da95760405162461bcd60e51b815260206004820152602660248201527f53616665436173743a2076616c756520646f65736e27742066697420696e203360448201527f32206269747300000000000000000000000000000000000000000000000000006064820152608401610711565b5090565b6000828152602081815260408083206001600160a01b038516845290915290205460ff1661130c576000828152602081815260408083206001600160a01b03851684529091529020805460ff19166001179055611e073390565b6001600160a01b0316816001600160a01b0316837f2f8788117e7eff1d82e926ec794901d17c78024a50270940304540a733656f0d60405160405180910390a45050565b6000818152600183016020526040812054611e92575081546001818101845560008481526020808220909301849055845484825282860190935260409020919091556105f3565b5060006105f3565b60006001600160e01b031982167f80ac58cd000000000000000000000000000000000000000000000000000000001480611efd57506001600160e01b031982167f5b5e139f00000000000000000000000000000000000000000000000000000000145b806105f357506105f3826124ca565b60606000611f1b836002612d70565b611f26906002612d44565b67ffffffffffffffff811115611f4c57634e487b7160e01b600052604160045260246000fd5b6040519080825280601f01601f191660200182016040528015611f76576020820181803683370190505b509050600360fc1b81600081518110611f9f57634e487b7160e01b600052603260045260246000fd5b60200101906001600160f81b031916908160001a9053507f780000000000000000000000000000000000000000000000000000000000000081600181518110611ff857634e487b7160e01b600052603260045260246000fd5b60200101906001600160f81b031916908160001a905350600061201c846002612d70565b612027906001612d44565b90505b60018111156120c8577f303132333435363738396162636465660000000000000000000000000000000085600f166010811061207657634e487b7160e01b600052603260045260246000fd5b1a60f81b82828151811061209a57634e487b7160e01b600052603260045260246000fd5b60200101906001600160f81b031916908160001a90535060049490941c936120c181612dfb565b905061202a565b5083156110365760405162461bcd60e51b815260206004820181905260248201527f537472696e67733a20686578206c656e67746820696e73756666696369656e746044820152606401610711565b610847838383612508565b6000828152602081815260408083206001600160a01b038516845290915290205460ff161561130c576000828152602081815260408083206001600160a01b0385168085529252808320805460ff1916905551339285917ff6391f5c32d9c69d2a47ea670b442974b53935d1edc7fd64eb21e047a839171b9190a45050565b600081815260018301602052604081205480156122ae5760006121c5600183612db8565b85549091506000906121d990600190612db8565b9050600086600001828154811061220057634e487b7160e01b600052603260045260246000fd5b906000526020600020015490508087600001848154811061223157634e487b7160e01b600052603260045260246000fd5b60009182526020808320909101929092558281526001890190915260409020849055865487908061227257634e487b7160e01b600052603160045260246000fd5b600190038181906000526020600020016000905590558660010160008781526020019081526020016000206000905560019450505050506105f3565b60009150506105f3565b60006001600160a01b0384163b1561241057604051630a85bd0160e11b81526001600160a01b0385169063150b7a02906122fc903390899088908890600401612cf5565b602060405180830381600087803b15801561231657600080fd5b505af1925050508015612346575060408051601f3d908101601f1916820190925261234391810190612bd4565b60015b6123f6573d808015612374576040519150601f19603f3d011682016040523d82523d6000602084013e612379565b606091505b5080516123ee5760405162461bcd60e51b815260206004820152603260248201527f4552433732313a207472616e7366657220746f206e6f6e20455243373231526560448201527f63656976657220696d706c656d656e74657200000000000000000000000000006064820152608401610711565b805181602001fd5b6001600160e01b031916630a85bd0160e11b1490506116b7565b506001949350505050565b815460009082106124945760405162461bcd60e51b815260206004820152602260248201527f456e756d657261626c655365743a20696e646578206f7574206f6620626f756e60448201527f64730000000000000000000000000000000000000000000000000000000000006064820152608401610711565b8260000182815481106124b757634e487b7160e01b600052603260045260246000fd5b9060005260206000200154905092915050565b60006001600160e01b031982167f5a05180f0000000000000000000000000000000000000000000000000000000014806105f357506105f38261258c565b6125138383836125f3565b600c5460ff16156108475760405162461bcd60e51b815260206004820152602b60248201527f4552433732315061757361626c653a20746f6b656e207472616e73666572207760448201527f68696c65207061757365640000000000000000000000000000000000000000006064820152608401610711565b60006001600160e01b031982167f7965db0b0000000000000000000000000000000000000000000000000000000014806105f357507f01ffc9a7000000000000000000000000000000000000000000000000000000006001600160e01b03198316146105f3565b6001600160a01b03831661264e5761264981600a80546000838152600b60205260408120829055600182018355919091527fc65a7bb8d6351c1cf70c95a316cc6a92839c986682d98bc35f958f4883f9d2a80155565b612671565b816001600160a01b0316836001600160a01b0316146126715761267183826126ab565b6001600160a01b0382166126885761084781612748565b826001600160a01b0316826001600160a01b031614610847576108478282612821565b600060016126b884610d85565b6126c29190612db8565b600083815260096020526040902054909150808214612715576001600160a01b03841660009081526008602090815260408083208584528252808320548484528184208190558352600990915290208190555b5060009182526009602090815260408084208490556001600160a01b039094168352600881528383209183525290812055565b600a5460009061275a90600190612db8565b6000838152600b6020526040812054600a805493945090928490811061279057634e487b7160e01b600052603260045260246000fd5b9060005260206000200154905080600a83815481106127bf57634e487b7160e01b600052603260045260246000fd5b6000918252602080832090910192909255828152600b9091526040808220849055858252812055600a80548061280557634e487b7160e01b600052603160045260246000fd5b6001900381819060005260206000200160009055905550505050565b600061282c83610d85565b6001600160a01b039093166000908152600860209081526040808320868452825280832085905593825260099052919091209190915550565b80356001600160a01b038116811461287c57600080fd5b919050565b600082601f830112612891578081fd5b813567ffffffffffffffff808211156128ac576128ac612ed7565b604051601f8301601f19908116603f011681019082821181831017156128d4576128d4612ed7565b816040528381528660208588010111156128ec578485fd5b8360208701602083013792830160200193909352509392505050565b600060208284031215612919578081fd5b61103682612865565b60008060408385031215612934578081fd5b61293d83612865565b915061294b60208401612865565b90509250929050565b600080600060608486031215612968578081fd5b61297184612865565b925061297f60208501612865565b9150604084013590509250925092565b600080600080608085870312156129a4578081fd5b6129ad85612865565b93506129bb60208601612865565b925060408501359150606085013567ffffffffffffffff8111156129dd578182fd5b6129e987828801612881565b91505092959194509250565b60008060408385031215612a07578182fd5b612a1083612865565b915060208301358015158114612a24578182fd5b809150509250929050565b60008060408385031215612a41578182fd5b612a4a83612865565b946020939093013593505050565b600080600060608486031215612a6c578283fd5b612a7584612865565b925060208401359150612a8a60408501612865565b90509250925092565b60008060008060808587031215612aa8578384fd5b612ab185612865565b935060208501359250604085013567ffffffffffffffff811115612ad3578283fd5b612adf87828801612881565b925050612aee60608601612865565b905092959194509250565b600080600060608486031215612b0d578283fd5b612b1684612865565b9250602084013563ffffffff81168114612b2e578283fd5b915060408401356fffffffffffffffffffffffffffffffff81168114612b52578182fd5b809150509250925092565b600060208284031215612b6e578081fd5b5035919050565b60008060408385031215612b87578182fd5b8235915061294b60208401612865565b60008060408385031215612ba9578182fd5b50508035926020909101359150565b600060208284031215612bc9578081fd5b813561103681612eed565b600060208284031215612be5578081fd5b815161103681612eed565b60008060408385031215612c02578182fd5b82359150602083013560ff81168114612a24578182fd5b60008151808452612c31816020860160208601612dcf565b601f01601f19169290920160200192915050565b60008351612c57818460208801612dcf565b835190830190612c6b818360208801612dcf565b01949350505050565b7f416363657373436f6e74726f6c3a206163636f756e7420000000000000000000815260008351612cac816017850160208801612dcf565b7f206973206d697373696e6720726f6c65200000000000000000000000000000006017918401918201528351612ce9816028840160208801612dcf565b01602801949350505050565b60006001600160a01b03808716835280861660208401525083604083015260806060830152612d276080830184612c19565b9695505050505050565b6020815260006110366020830184612c19565b60008219821115612d5757612d57612eab565b500190565b600082612d6b57612d6b612ec1565b500490565b6000816000190483118215151615612d8a57612d8a612eab565b500290565b600060ff821660ff84168160ff0481118215151615612db057612db0612eab565b029392505050565b600082821015612dca57612dca612eab565b500390565b60005b83811015612dea578181015183820152602001612dd2565b83811115610cac5750506000910152565b600081612e0a57612e0a612eab565b506000190190565b600181811c90821680612e2657607f821691505b60208210811415612e4757634e487b7160e01b600052602260045260246000fd5b50919050565b6000600019821415612e6157612e61612eab565b5060010190565b60006fffffffffffffffffffffffffffffffff80841680612e8b57612e8b612ec1565b92169190910692915050565b600082612ea657612ea6612ec1565b500690565b634e487b7160e01b600052601160045260246000fd5b634e487b7160e01b600052601260045260246000fd5b634e487b7160e01b600052604160045260246000fd5b6001600160e01b031981168114610bcb57600080fdfea26469706673582212202c886f51220b917b68a4bddce65c12a2431bf0f7fa30b503d7e6adb9872cde9b64736f6c6343000804003365d7a28e3265b37a6474929f336521b332c1681b933f6cb9f3376673440d862a9f2df0fed2c77648de5860a4cc508cd0818c85b8b8a1ab4ceeef8d981c8956a6",
  "immutableReferences": {},
  "source": "// SPDX-License-Identifier: MIT\npragma solidity ^0.8.0;\n\nimport \"@openzeppelin/contracts/access/AccessControl.sol\";\nimport \"@openzeppelin/contracts/token/ERC721/presets/ERC721PresetMinterPauserAutoId.sol\";\nimport \"@openzeppelin/contracts/utils/Counters.sol\";\nimport \"@openzeppelin/contracts/utils/math/SafeCast.sol\";\n\n\ncontract BotPart is ERC721PresetMinterPauserAutoId {\n  using Counters for Counters.Counter;\n\n  Counters.Counter private _tokenIds;\n\n  mapping(uint256 => uint32) private tokenPartType; // Lowest PartType starts at = 0x00000020 = 32\n  mapping(uint256 => uint128) private tokenStats;\n  \n  address public metaTransactionForwarder;\n\n  constructor(address _metaTransactionForwarder) ERC721PresetMinterPauserAutoId(\"BotPart\", \"BP\", \"testURI\") {\n    _setRoleAdmin(DEFAULT_ADMIN_ROLE, DEFAULT_ADMIN_ROLE);\n    _setRoleAdmin(MINTER_ROLE, DEFAULT_ADMIN_ROLE);\n    _setRoleAdmin(PAUSER_ROLE, DEFAULT_ADMIN_ROLE);\n\n    metaTransactionForwarder = _metaTransactionForwarder;\n  }\n\n  function mint(address) pure public override {\n    revert(\"Function not used!\");\n  }\n\n  function mintItem(address player, uint32 _tokenPartType, uint128 _tokenStats) public onlyRole(MINTER_ROLE) returns (uint256) {\n    _tokenIds.increment();\n\n    uint256 newItemId = _tokenIds.current();\n    _mint(player, newItemId);\n    _setTokenPartType(newItemId, _tokenPartType);\n    _setTokenStats(newItemId, _tokenStats);\n\n    return newItemId;\n  }\n\n  function _setTokenPartType(uint256 tokenID, uint32 partType) private {\n    tokenPartType[tokenID] = partType;\n  }\n\n  function _setTokenStats(uint256 tokenID, uint128 _tokenStats) private {\n    tokenStats[tokenID] = _tokenStats;\n  }\n\n  function getRawTokenStat(uint256 tokenID, uint8 statNumber) view public returns (uint32) {\n    return SafeCast.toUint32((tokenStats[tokenID] >> (statNumber*32)) % 2**32);\n  }\n\n  function getBotPartType(uint256 tokenID) view public returns (uint32){\n    return tokenPartType[tokenID];\n  }\n\n  function metaApprove(address to, uint256 tokenId, address from) public {\n        address owner = ERC721.ownerOf(tokenId);\n        require(to != owner, \"ERC721: approval to current owner\");\n\n        require(_msgSender() == metaTransactionForwarder);\n        require(from != owner || isApprovedForAll(owner, from),\n            \"ERC721: approve caller is not owner nor approved for all\"\n        );\n\n        _approve(to, tokenId);\n  }\n\n  function metaSafeTransfer(address to, uint256 tokenId, bytes memory _data, address from) public {\n        require(_msgSender() == metaTransactionForwarder);\n        _safeTransfer(from, to, tokenId, _data);\n  }\n\n}\n\n",
  "sourcePath": "/home/zorro/git/blockchain__general/prototype/contracts/polygon/BotPart.sol",
  "compiler": {
    "name": "solc",
    "version": "0.8.4+commit.c7e474f2.Emscripten.clang"
  },
  "schemaVersion": "3.2.0",
  "updatedAt": "2021-07-25T20:11:25.978Z",
  "networkType": "ethereum",
  "devdoc": {
    "kind": "dev",
    "methods": {
      "approve(address,uint256)": {
        "details": "See {IERC721-approve}."
      },
      "balanceOf(address)": {
        "details": "See {IERC721-balanceOf}."
      },
      "burn(uint256)": {
        "details": "Burns `tokenId`. See {ERC721-_burn}. Requirements: - The caller must own `tokenId` or be an approved operator."
      },
      "getApproved(uint256)": {
        "details": "See {IERC721-getApproved}."
      },
      "getRoleAdmin(bytes32)": {
        "details": "Returns the admin role that controls `role`. See {grantRole} and {revokeRole}. To change a role's admin, use {_setRoleAdmin}."
      },
      "getRoleMember(bytes32,uint256)": {
        "details": "Returns one of the accounts that have `role`. `index` must be a value between 0 and {getRoleMemberCount}, non-inclusive. Role bearers are not sorted in any particular way, and their ordering may change at any point. WARNING: When using {getRoleMember} and {getRoleMemberCount}, make sure you perform all queries on the same block. See the following https://forum.openzeppelin.com/t/iterating-over-elements-on-enumerableset-in-openzeppelin-contracts/2296[forum post] for more information."
      },
      "getRoleMemberCount(bytes32)": {
        "details": "Returns the number of accounts that have `role`. Can be used together with {getRoleMember} to enumerate all bearers of a role."
      },
      "grantRole(bytes32,address)": {
        "details": "Overload {grantRole} to track enumerable memberships"
      },
      "hasRole(bytes32,address)": {
        "details": "Returns `true` if `account` has been granted `role`."
      },
      "isApprovedForAll(address,address)": {
        "details": "See {IERC721-isApprovedForAll}."
      },
      "name()": {
        "details": "See {IERC721Metadata-name}."
      },
      "ownerOf(uint256)": {
        "details": "See {IERC721-ownerOf}."
      },
      "pause()": {
        "details": "Pauses all token transfers. See {ERC721Pausable} and {Pausable-_pause}. Requirements: - the caller must have the `PAUSER_ROLE`."
      },
      "paused()": {
        "details": "Returns true if the contract is paused, and false otherwise."
      },
      "renounceRole(bytes32,address)": {
        "details": "Overload {renounceRole} to track enumerable memberships"
      },
      "revokeRole(bytes32,address)": {
        "details": "Overload {revokeRole} to track enumerable memberships"
      },
      "safeTransferFrom(address,address,uint256)": {
        "details": "See {IERC721-safeTransferFrom}."
      },
      "safeTransferFrom(address,address,uint256,bytes)": {
        "details": "See {IERC721-safeTransferFrom}."
      },
      "setApprovalForAll(address,bool)": {
        "details": "See {IERC721-setApprovalForAll}."
      },
      "supportsInterface(bytes4)": {
        "details": "See {IERC165-supportsInterface}."
      },
      "symbol()": {
        "details": "See {IERC721Metadata-symbol}."
      },
      "tokenByIndex(uint256)": {
        "details": "See {IERC721Enumerable-tokenByIndex}."
      },
      "tokenOfOwnerByIndex(address,uint256)": {
        "details": "See {IERC721Enumerable-tokenOfOwnerByIndex}."
      },
      "tokenURI(uint256)": {
        "details": "See {IERC721Metadata-tokenURI}."
      },
      "totalSupply()": {
        "details": "See {IERC721Enumerable-totalSupply}."
      },
      "transferFrom(address,address,uint256)": {
        "details": "See {IERC721-transferFrom}."
      },
      "unpause()": {
        "details": "Unpauses all token transfers. See {ERC721Pausable} and {Pausable-_unpause}. Requirements: - the caller must have the `PAUSER_ROLE`."
      }
    },
    "version": 1
  },
  "userdoc": {
    "kind": "user",
    "methods": {},
    "version": 1
  }
}