{
  "contractName": "DevLaunchersToken",
  "abi": [
    {
      "inputs": [
        {
          "internalType": "address[]",
          "name": "_defaultOperators",
          "type": "address[]"
        },
        {
          "internalType": "address",
          "name": "_metaTransactionForwarder",
          "type": "address"
        }
      ],
      "stateMutability": "nonpayable",
      "type": "constructor"
    },
    {
      "anonymous": false,
      "inputs": [
        {
          "indexed": true,
          "internalType": "address",
          "name": "owner",
          "type": "address"
        },
        {
          "indexed": true,
          "internalType": "address",
          "name": "spender",
          "type": "address"
        },
        {
          "indexed": false,
          "internalType": "uint256",
          "name": "value",
          "type": "uint256"
        }
      ],
      "name": "Approval",
      "type": "event"
    },
    {
      "anonymous": false,
      "inputs": [
        {
          "indexed": true,
          "internalType": "address",
          "name": "operator",
          "type": "address"
        },
        {
          "indexed": true,
          "internalType": "address",
          "name": "tokenHolder",
          "type": "address"
        }
      ],
      "name": "AuthorizedOperator",
      "type": "event"
    },
    {
      "anonymous": false,
      "inputs": [
        {
          "indexed": true,
          "internalType": "address",
          "name": "operator",
          "type": "address"
        },
        {
          "indexed": true,
          "internalType": "address",
          "name": "from",
          "type": "address"
        },
        {
          "indexed": false,
          "internalType": "uint256",
          "name": "amount",
          "type": "uint256"
        },
        {
          "indexed": false,
          "internalType": "bytes",
          "name": "data",
          "type": "bytes"
        },
        {
          "indexed": false,
          "internalType": "bytes",
          "name": "operatorData",
          "type": "bytes"
        }
      ],
      "name": "Burned",
      "type": "event"
    },
    {
      "anonymous": false,
      "inputs": [
        {
          "indexed": true,
          "internalType": "address",
          "name": "operator",
          "type": "address"
        },
        {
          "indexed": true,
          "internalType": "address",
          "name": "to",
          "type": "address"
        },
        {
          "indexed": false,
          "internalType": "uint256",
          "name": "amount",
          "type": "uint256"
        },
        {
          "indexed": false,
          "internalType": "bytes",
          "name": "data",
          "type": "bytes"
        },
        {
          "indexed": false,
          "internalType": "bytes",
          "name": "operatorData",
          "type": "bytes"
        }
      ],
      "name": "Minted",
      "type": "event"
    },
    {
      "anonymous": false,
      "inputs": [
        {
          "indexed": true,
          "internalType": "address",
          "name": "operator",
          "type": "address"
        },
        {
          "indexed": true,
          "internalType": "address",
          "name": "tokenHolder",
          "type": "address"
        }
      ],
      "name": "RevokedOperator",
      "type": "event"
    },
    {
      "anonymous": false,
      "inputs": [
        {
          "indexed": true,
          "internalType": "bytes32",
          "name": "role",
          "type": "bytes32"
        },
        {
          "indexed": true,
          "internalType": "bytes32",
          "name": "previousAdminRole",
          "type": "bytes32"
        },
        {
          "indexed": true,
          "internalType": "bytes32",
          "name": "newAdminRole",
          "type": "bytes32"
        }
      ],
      "name": "RoleAdminChanged",
      "type": "event"
    },
    {
      "anonymous": false,
      "inputs": [
        {
          "indexed": true,
          "internalType": "bytes32",
          "name": "role",
          "type": "bytes32"
        },
        {
          "indexed": true,
          "internalType": "address",
          "name": "account",
          "type": "address"
        },
        {
          "indexed": true,
          "internalType": "address",
          "name": "sender",
          "type": "address"
        }
      ],
      "name": "RoleGranted",
      "type": "event"
    },
    {
      "anonymous": false,
      "inputs": [
        {
          "indexed": true,
          "internalType": "bytes32",
          "name": "role",
          "type": "bytes32"
        },
        {
          "indexed": true,
          "internalType": "address",
          "name": "account",
          "type": "address"
        },
        {
          "indexed": true,
          "internalType": "address",
          "name": "sender",
          "type": "address"
        }
      ],
      "name": "RoleRevoked",
      "type": "event"
    },
    {
      "anonymous": false,
      "inputs": [
        {
          "indexed": true,
          "internalType": "address",
          "name": "operator",
          "type": "address"
        },
        {
          "indexed": true,
          "internalType": "address",
          "name": "from",
          "type": "address"
        },
        {
          "indexed": true,
          "internalType": "address",
          "name": "to",
          "type": "address"
        },
        {
          "indexed": false,
          "internalType": "uint256",
          "name": "amount",
          "type": "uint256"
        },
        {
          "indexed": false,
          "internalType": "bytes",
          "name": "data",
          "type": "bytes"
        },
        {
          "indexed": false,
          "internalType": "bytes",
          "name": "operatorData",
          "type": "bytes"
        }
      ],
      "name": "Sent",
      "type": "event"
    },
    {
      "anonymous": false,
      "inputs": [
        {
          "indexed": true,
          "internalType": "address",
          "name": "from",
          "type": "address"
        },
        {
          "indexed": true,
          "internalType": "address",
          "name": "to",
          "type": "address"
        },
        {
          "indexed": false,
          "internalType": "uint256",
          "name": "value",
          "type": "uint256"
        }
      ],
      "name": "Transfer",
      "type": "event"
    },
    {
      "inputs": [],
      "name": "DEFAULT_ADMIN_ROLE",
      "outputs": [
        {
          "internalType": "bytes32",
          "name": "",
          "type": "bytes32"
        }
      ],
      "stateMutability": "view",
      "type": "function",
      "constant": true
    },
    {
      "inputs": [],
      "name": "MINTER_ROLE",
      "outputs": [
        {
          "internalType": "bytes32",
          "name": "",
          "type": "bytes32"
        }
      ],
      "stateMutability": "view",
      "type": "function",
      "constant": true
    },
    {
      "inputs": [
        {
          "internalType": "address",
          "name": "holder",
          "type": "address"
        },
        {
          "internalType": "address",
          "name": "spender",
          "type": "address"
        }
      ],
      "name": "allowance",
      "outputs": [
        {
          "internalType": "uint256",
          "name": "",
          "type": "uint256"
        }
      ],
      "stateMutability": "view",
      "type": "function",
      "constant": true
    },
    {
      "inputs": [
        {
          "internalType": "address",
          "name": "spender",
          "type": "address"
        },
        {
          "internalType": "uint256",
          "name": "value",
          "type": "uint256"
        }
      ],
      "name": "approve",
      "outputs": [
        {
          "internalType": "bool",
          "name": "",
          "type": "bool"
        }
      ],
      "stateMutability": "nonpayable",
      "type": "function"
    },
    {
      "inputs": [
        {
          "internalType": "address",
          "name": "operator",
          "type": "address"
        }
      ],
      "name": "authorizeOperator",
      "outputs": [],
      "stateMutability": "nonpayable",
      "type": "function"
    },
    {
      "inputs": [
        {
          "internalType": "address",
          "name": "tokenHolder",
          "type": "address"
        }
      ],
      "name": "balanceOf",
      "outputs": [
        {
          "internalType": "uint256",
          "name": "",
          "type": "uint256"
        }
      ],
      "stateMutability": "view",
      "type": "function",
      "constant": true
    },
    {
      "inputs": [
        {
          "internalType": "uint256",
          "name": "amount",
          "type": "uint256"
        },
        {
          "internalType": "bytes",
          "name": "data",
          "type": "bytes"
        }
      ],
      "name": "burn",
      "outputs": [],
      "stateMutability": "nonpayable",
      "type": "function"
    },
    {
      "inputs": [],
      "name": "decimals",
      "outputs": [
        {
          "internalType": "uint8",
          "name": "",
          "type": "uint8"
        }
      ],
      "stateMutability": "pure",
      "type": "function",
      "constant": true
    },
    {
      "inputs": [],
      "name": "defaultOperators",
      "outputs": [
        {
          "internalType": "address[]",
          "name": "",
          "type": "address[]"
        }
      ],
      "stateMutability": "view",
      "type": "function",
      "constant": true
    },
    {
      "inputs": [
        {
          "internalType": "bytes32",
          "name": "role",
          "type": "bytes32"
        }
      ],
      "name": "getRoleAdmin",
      "outputs": [
        {
          "internalType": "bytes32",
          "name": "",
          "type": "bytes32"
        }
      ],
      "stateMutability": "view",
      "type": "function",
      "constant": true
    },
    {
      "inputs": [
        {
          "internalType": "bytes32",
          "name": "role",
          "type": "bytes32"
        },
        {
          "internalType": "address",
          "name": "account",
          "type": "address"
        }
      ],
      "name": "grantRole",
      "outputs": [],
      "stateMutability": "nonpayable",
      "type": "function"
    },
    {
      "inputs": [],
      "name": "granularity",
      "outputs": [
        {
          "internalType": "uint256",
          "name": "",
          "type": "uint256"
        }
      ],
      "stateMutability": "view",
      "type": "function",
      "constant": true
    },
    {
      "inputs": [
        {
          "internalType": "bytes32",
          "name": "role",
          "type": "bytes32"
        },
        {
          "internalType": "address",
          "name": "account",
          "type": "address"
        }
      ],
      "name": "hasRole",
      "outputs": [
        {
          "internalType": "bool",
          "name": "",
          "type": "bool"
        }
      ],
      "stateMutability": "view",
      "type": "function",
      "constant": true
    },
    {
      "inputs": [
        {
          "internalType": "address",
          "name": "operator",
          "type": "address"
        },
        {
          "internalType": "address",
          "name": "tokenHolder",
          "type": "address"
        }
      ],
      "name": "isOperatorFor",
      "outputs": [
        {
          "internalType": "bool",
          "name": "",
          "type": "bool"
        }
      ],
      "stateMutability": "view",
      "type": "function",
      "constant": true
    },
    {
      "inputs": [],
      "name": "metaTransactionForwarder",
      "outputs": [
        {
          "internalType": "address",
          "name": "",
          "type": "address"
        }
      ],
      "stateMutability": "view",
      "type": "function",
      "constant": true
    },
    {
      "inputs": [],
      "name": "name",
      "outputs": [
        {
          "internalType": "string",
          "name": "",
          "type": "string"
        }
      ],
      "stateMutability": "view",
      "type": "function",
      "constant": true
    },
    {
      "inputs": [
        {
          "internalType": "address",
          "name": "account",
          "type": "address"
        },
        {
          "internalType": "uint256",
          "name": "amount",
          "type": "uint256"
        },
        {
          "internalType": "bytes",
          "name": "data",
          "type": "bytes"
        },
        {
          "internalType": "bytes",
          "name": "operatorData",
          "type": "bytes"
        }
      ],
      "name": "operatorBurn",
      "outputs": [],
      "stateMutability": "nonpayable",
      "type": "function"
    },
    {
      "inputs": [
        {
          "internalType": "address",
          "name": "sender",
          "type": "address"
        },
        {
          "internalType": "address",
          "name": "recipient",
          "type": "address"
        },
        {
          "internalType": "uint256",
          "name": "amount",
          "type": "uint256"
        },
        {
          "internalType": "bytes",
          "name": "data",
          "type": "bytes"
        },
        {
          "internalType": "bytes",
          "name": "operatorData",
          "type": "bytes"
        }
      ],
      "name": "operatorSend",
      "outputs": [],
      "stateMutability": "nonpayable",
      "type": "function"
    },
    {
      "inputs": [
        {
          "internalType": "bytes32",
          "name": "role",
          "type": "bytes32"
        },
        {
          "internalType": "address",
          "name": "account",
          "type": "address"
        }
      ],
      "name": "renounceRole",
      "outputs": [],
      "stateMutability": "nonpayable",
      "type": "function"
    },
    {
      "inputs": [
        {
          "internalType": "address",
          "name": "operator",
          "type": "address"
        }
      ],
      "name": "revokeOperator",
      "outputs": [],
      "stateMutability": "nonpayable",
      "type": "function"
    },
    {
      "inputs": [
        {
          "internalType": "bytes32",
          "name": "role",
          "type": "bytes32"
        },
        {
          "internalType": "address",
          "name": "account",
          "type": "address"
        }
      ],
      "name": "revokeRole",
      "outputs": [],
      "stateMutability": "nonpayable",
      "type": "function"
    },
    {
      "inputs": [
        {
          "internalType": "address",
          "name": "recipient",
          "type": "address"
        },
        {
          "internalType": "uint256",
          "name": "amount",
          "type": "uint256"
        },
        {
          "internalType": "bytes",
          "name": "data",
          "type": "bytes"
        }
      ],
      "name": "send",
      "outputs": [],
      "stateMutability": "nonpayable",
      "type": "function"
    },
    {
      "inputs": [
        {
          "internalType": "bytes4",
          "name": "interfaceId",
          "type": "bytes4"
        }
      ],
      "name": "supportsInterface",
      "outputs": [
        {
          "internalType": "bool",
          "name": "",
          "type": "bool"
        }
      ],
      "stateMutability": "view",
      "type": "function",
      "constant": true
    },
    {
      "inputs": [],
      "name": "symbol",
      "outputs": [
        {
          "internalType": "string",
          "name": "",
          "type": "string"
        }
      ],
      "stateMutability": "view",
      "type": "function",
      "constant": true
    },
    {
      "inputs": [],
      "name": "totalSupply",
      "outputs": [
        {
          "internalType": "uint256",
          "name": "",
          "type": "uint256"
        }
      ],
      "stateMutability": "view",
      "type": "function",
      "constant": true
    },
    {
      "inputs": [
        {
          "internalType": "address",
          "name": "recipient",
          "type": "address"
        },
        {
          "internalType": "uint256",
          "name": "amount",
          "type": "uint256"
        }
      ],
      "name": "transfer",
      "outputs": [
        {
          "internalType": "bool",
          "name": "",
          "type": "bool"
        }
      ],
      "stateMutability": "nonpayable",
      "type": "function"
    },
    {
      "inputs": [
        {
          "internalType": "address",
          "name": "holder",
          "type": "address"
        },
        {
          "internalType": "address",
          "name": "recipient",
          "type": "address"
        },
        {
          "internalType": "uint256",
          "name": "amount",
          "type": "uint256"
        }
      ],
      "name": "transferFrom",
      "outputs": [
        {
          "internalType": "bool",
          "name": "",
          "type": "bool"
        }
      ],
      "stateMutability": "nonpayable",
      "type": "function"
    },
    {
      "inputs": [
        {
          "internalType": "address",
          "name": "receiver",
          "type": "address"
        },
        {
          "internalType": "uint256",
          "name": "amount",
          "type": "uint256"
        },
        {
          "internalType": "bytes",
          "name": "userData",
          "type": "bytes"
        },
        {
          "internalType": "bytes",
          "name": "operatorData",
          "type": "bytes"
        }
      ],
      "name": "mint",
      "outputs": [],
      "stateMutability": "nonpayable",
      "type": "function"
    },
    {
      "inputs": [
        {
          "internalType": "address",
          "name": "recipient",
          "type": "address"
        },
        {
          "internalType": "uint256",
          "name": "amount",
          "type": "uint256"
        },
        {
          "internalType": "bytes",
          "name": "data",
          "type": "bytes"
        },
        {
          "internalType": "address",
          "name": "from",
          "type": "address"
        }
      ],
      "name": "metaSend",
      "outputs": [],
      "stateMutability": "nonpayable",
      "type": "function"
    }
  ],
  "bytecode": "0x60806040523480156200001157600080fd5b5060405162002bd438038062002bd48339810160408190526200003491620004d8565b6040805180820182526004808252634445565360e01b6020808401828152855180870190965292855284015281519192918591620000769160029190620003bd565b5081516200008c906003906020850190620003bd565b508051620000a29060049060208401906200044c565b5060005b81518110156200011e57600160056000848481518110620000d757634e487b7160e01b600052603260045260246000fd5b6020908102919091018101516001600160a01b03168252810191909152604001600020805460ff1916911515919091179055806200011581620005fd565b915050620000a6565b506040516329965a1d60e01b815230600482018190527fac7fbab5f54a3ca8194167523c6753bfeb96a445279294b6125b68cce217705460248301526044820152731820a4b7618bde71dce8cdc73aab6c95905fad24906329965a1d90606401600060405180830381600087803b1580156200019957600080fd5b505af1158015620001ae573d6000803e3d6000fd5b50506040516329965a1d60e01b815230600482018190527faea199e31a596269b42cdafd93407f14436db6e4cad65417994c2eb37381e05a60248301526044820152731820a4b7618bde71dce8cdc73aab6c95905fad2492506329965a1d9150606401600060405180830381600087803b1580156200022c57600080fd5b505af115801562000241573d6000803e3d6000fd5b505050505050506200027d7f9f2df0fed2c77648de5860a4cc508cd0818c85b8b8a1ab4ceeef8d981c8956a66000801b620002be60201b60201c565b6200028a600080620002be565b6200029760003362000309565b600a80546001600160a01b0319166001600160a01b0392909216919091179055506200063b565b600082815260096020526040808220600101805490849055905190918391839186917fbd79b86ffe0ab8e8776151514217cd7cacd52c909f66475c3af44e129f0b00ff9190a4505050565b62000315828262000319565b5050565b60008281526009602090815260408083206001600160a01b038516845290915290205460ff16620003155760008281526009602090815260408083206001600160a01b03851684529091529020805460ff19166001179055620003793390565b6001600160a01b0316816001600160a01b0316837f2f8788117e7eff1d82e926ec794901d17c78024a50270940304540a733656f0d60405160405180910390a45050565b828054620003cb90620005c0565b90600052602060002090601f016020900481019282620003ef57600085556200043a565b82601f106200040a57805160ff19168380011785556200043a565b828001600101855582156200043a579182015b828111156200043a5782518255916020019190600101906200041d565b5062000448929150620004a4565b5090565b8280548282559060005260206000209081019282156200043a579160200282015b828111156200043a57825182546001600160a01b0319166001600160a01b039091161782556020909201916001909101906200046d565b5b80821115620004485760008155600101620004a5565b80516001600160a01b0381168114620004d357600080fd5b919050565b60008060408385031215620004eb578182fd5b82516001600160401b038082111562000502578384fd5b818501915085601f83011262000516578384fd5b81516020828211156200052d576200052d62000625565b8160051b604051601f19603f8301168101818110868211171562000555576200055562000625565b604052838152828101945085830182870184018b101562000574578889fd5b8896505b84871015620005a1576200058c81620004bb565b86526001969096019594830194830162000578565b509650620005b39050878201620004bb565b9450505050509250929050565b600181811c90821680620005d557607f821691505b60208210811415620005f757634e487b7160e01b600052602260045260246000fd5b50919050565b60006000198214156200061e57634e487b7160e01b81526011600452602481fd5b5060010190565b634e487b7160e01b600052604160045260246000fd5b612589806200064b6000396000f3fe608060405234801561001057600080fd5b50600436106101cf5760003560e01c806391d1485411610104578063d547741f116100a2578063dd62ed3e11610071578063dd62ed3e1461041b578063fad8b32a14610454578063fc673c4f14610467578063fe9d93031461047a57600080fd5b8063d547741f146103cf578063d95b6371146103e2578063db072295146103f5578063dcdc7dd01461040857600080fd5b80639bd9bbc6116100de5780639bd9bbc61461037a578063a217fddf1461038d578063a9059cbb14610395578063d5391393146103a857600080fd5b806391d1485414610326578063959b8c3f1461035f57806395d89b411461037257600080fd5b8063248a9ca31161017157806336568abe1161014b57806336568abe146102d0578063556f0dc7146102e357806362ad1b83146102ea57806370a08231146102fd57600080fd5b8063248a9ca3146102895780632f2ff15d146102ac578063313ce567146102c157600080fd5b8063095ea7b3116101ad578063095ea7b31461022657806318160ddd1461023957806318f428d51461024b57806323b872dd1461027657600080fd5b806301ffc9a7146101d457806306e48538146101fc57806306fdde0314610211575b600080fd5b6101e76101e2366004612223565b61048d565b60405190151581526020015b60405180910390f35b610204610526565b6040516101f391906123ae565b610219610588565b6040516101f391906123fb565b6101e7610234366004611fed565b610611565b6001545b6040519081526020016101f3565b600a5461025e906001600160a01b031681565b6040516001600160a01b0390911681526020016101f3565b6101e7610284366004611f1d565b610629565b61023d6102973660046121e7565b60009081526009602052604090206001015490565b6102bf6102ba3660046121ff565b610855565b005b604051601281526020016101f3565b6102bf6102de3660046121ff565b610880565b600161023d565b6102bf6102f8366004611f5d565b61090c565b61023d61030b366004611ead565b6001600160a01b031660009081526020819052604090205490565b6101e76103343660046121ff565b60009182526009602090815260408084206001600160a01b0393909316845291905290205460ff1690565b6102bf61036d366004611ead565b61099e565b610219610ad5565b6102bf610388366004612113565b610ae4565b61023d600081565b6101e76103a3366004611fed565b610b02565b61023d7f9f2df0fed2c77648de5860a4cc508cd0818c85b8b8a1ab4ceeef8d981c8956a681565b6102bf6103dd3660046121ff565b610bf1565b6101e76103f0366004611ee5565b610c17565b6102bf610403366004612018565b610cb9565b6102bf61041636600461208a565b610d23565b61023d610429366004611ee5565b6001600160a01b03918216600090815260086020908152604080832093909416825291909152205490565b6102bf610462366004611ead565b610dcc565b6102bf61047536600461216a565b610f04565b6102bf610488366004612263565b610f92565b60007fffffffff0000000000000000000000000000000000000000000000000000000082167f7965db0b00000000000000000000000000000000000000000000000000000000148061052057507f01ffc9a7000000000000000000000000000000000000000000000000000000007fffffffff000000000000000000000000000000000000000000000000000000008316145b92915050565b6060600480548060200260200160405190810160405280929190818152602001828054801561057e57602002820191906000526020600020905b81546001600160a01b03168152600190910190602001808311610560575b5050505050905090565b606060028054610597906124d4565b80601f01602080910402602001604051908101604052809291908181526020018280546105c3906124d4565b801561057e5780601f106105e55761010080835404028352916020019161057e565b820191906000526020600020905b8154815290600101906020018083116105f357509395945050505050565b60003361061f818585610fad565b5060019392505050565b60006001600160a01b0383166106925760405162461bcd60e51b8152602060048201526024808201527f4552433737373a207472616e7366657220746f20746865207a65726f206164646044820152637265737360e01b60648201526084015b60405180910390fd5b6001600160a01b03841661070e5760405162461bcd60e51b815260206004820152602660248201527f4552433737373a207472616e736665722066726f6d20746865207a65726f206160448201527f64647265737300000000000000000000000000000000000000000000000000006064820152608401610689565b600033905061073f818686866040518060200160405280600081525060405180602001604052806000815250611106565b61076b818686866040518060200160405280600081525060405180602001604052806000815250611255565b6001600160a01b03808616600090815260086020908152604080832093851683529290522054838110156108075760405162461bcd60e51b815260206004820152602960248201527f4552433737373a207472616e7366657220616d6f756e7420657863656564732060448201527f616c6c6f77616e636500000000000000000000000000000000000000000000006064820152608401610689565b61081b8683610816878561247a565b610fad565b61084982878787604051806020016040528060008152506040518060200160405280600081525060006113d1565b50600195945050505050565b60008281526009602052604090206001015461087181336115ce565b61087b838361164e565b505050565b6001600160a01b03811633146108fe5760405162461bcd60e51b815260206004820152602f60248201527f416363657373436f6e74726f6c3a2063616e206f6e6c792072656e6f756e636560448201527f20726f6c657320666f722073656c6600000000000000000000000000000000006064820152608401610689565b61090882826116f0565b5050565b6109163386610c17565b6109885760405162461bcd60e51b815260206004820152602c60248201527f4552433737373a2063616c6c6572206973206e6f7420616e206f70657261746f60448201527f7220666f7220686f6c64657200000000000000000000000000000000000000006064820152608401610689565b61099785858585856001611773565b5050505050565b336001600160a01b0382161415610a1c5760405162461bcd60e51b8152602060048201526024808201527f4552433737373a20617574686f72697a696e672073656c66206173206f70657260448201527f61746f72000000000000000000000000000000000000000000000000000000006064820152608401610689565b6001600160a01b03811660009081526005602052604090205460ff1615610a6d573360009081526007602090815260408083206001600160a01b03851684529091529020805460ff19169055610a9c565b3360009081526006602090815260408083206001600160a01b03851684529091529020805460ff191660011790555b60405133906001600160a01b038316907ff4caeb2d6ca8932a215a353d0703c326ec2d81fc68170f320eb2ab49e9df61f990600090a350565b606060038054610597906124d4565b61087b33848484604051806020016040528060008152506001611773565b60006001600160a01b038316610b665760405162461bcd60e51b8152602060048201526024808201527f4552433737373a207472616e7366657220746f20746865207a65726f206164646044820152637265737360e01b6064820152608401610689565b6000339050610b97818286866040518060200160405280600081525060405180602001604052806000815250611106565b610bc3818286866040518060200160405280600081525060405180602001604052806000815250611255565b61061f81828686604051806020016040528060008152506040518060200160405280600081525060006113d1565b600082815260096020526040902060010154610c0d81336115ce565b61087b83836116f0565b6000816001600160a01b0316836001600160a01b03161480610c8257506001600160a01b03831660009081526005602052604090205460ff168015610c8257506001600160a01b0380831660009081526007602090815260408083209387168352929052205460ff16155b80610cb257506001600160a01b0380831660009081526006602090815260408083209387168352929052205460ff165b9392505050565b600a546001600160a01b03163314610cd057600080fd5b61099781868686868080601f016020809104026020016040519081016040528093929190818152602001838380828437600092018290525060408051602081019091529081529250600191506117739050565b7f9f2df0fed2c77648de5860a4cc508cd0818c85b8b8a1ab4ceeef8d981c8956a6610d4e81336115ce565b610dc3878787878080601f01602080910402602001604051908101604052809392919081815260200183838082843760009201919091525050604080516020601f8b01819004810282018101909252898152925089915088908190840183828082843760009201919091525061185692505050565b50505050505050565b6001600160a01b038116331415610e4b5760405162461bcd60e51b815260206004820152602160248201527f4552433737373a207265766f6b696e672073656c66206173206f70657261746f60448201527f72000000000000000000000000000000000000000000000000000000000000006064820152608401610689565b6001600160a01b03811660009081526005602052604090205460ff1615610e9f573360009081526007602090815260408083206001600160a01b03851684529091529020805460ff19166001179055610ecb565b3360009081526006602090815260408083206001600160a01b03851684529091529020805460ff191690555b60405133906001600160a01b038316907f50546e66e5f44d728365dc3908c63bc5cfeeab470722c1677e3073a6ac294aa190600090a350565b610f0e3385610c17565b610f805760405162461bcd60e51b815260206004820152602c60248201527f4552433737373a2063616c6c6572206973206e6f7420616e206f70657261746f60448201527f7220666f7220686f6c64657200000000000000000000000000000000000000006064820152608401610689565b610f8c84848484611864565b50505050565b61090833838360405180602001604052806000815250611864565b6001600160a01b0383166110295760405162461bcd60e51b815260206004820152602560248201527f4552433737373a20617070726f76652066726f6d20746865207a65726f20616460448201527f64726573730000000000000000000000000000000000000000000000000000006064820152608401610689565b6001600160a01b0382166110a55760405162461bcd60e51b815260206004820152602360248201527f4552433737373a20617070726f766520746f20746865207a65726f206164647260448201527f65737300000000000000000000000000000000000000000000000000000000006064820152608401610689565b6001600160a01b0383811660008181526008602090815260408083209487168084529482529182902085905590518481527f8c5be1e5ebec7d5bd14f71427d1e84f3dd0314c0f7b2291e5b200ac8c7c3b925910160405180910390a3505050565b60405163555ddc6560e11b81526001600160a01b03861660048201527f29ddb589b1fb5fc7cf394961c1adf5f8c6454761adf795e67fe149f658abe8956024820152600090731820a4b7618bde71dce8cdc73aab6c95905fad249063aabbb8ca9060440160206040518083038186803b15801561118257600080fd5b505afa158015611196573d6000803e3d6000fd5b505050506040513d601f19601f820116820180604052508101906111ba9190611ec9565b90506001600160a01b03811615610dc3576040517f75ab97820000000000000000000000000000000000000000000000000000000081526001600160a01b038216906375ab97829061121a908a908a908a908a908a908a90600401612355565b600060405180830381600087803b15801561123457600080fd5b505af1158015611248573d6000803e3d6000fd5b5050505050505050505050565b6001600160a01b038516600090815260208190526040902054838110156112e45760405162461bcd60e51b815260206004820152602760248201527f4552433737373a207472616e7366657220616d6f756e7420657863656564732060448201527f62616c616e6365000000000000000000000000000000000000000000000000006064820152608401610689565b6001600160a01b0380871660009081526020819052604080822087850390559187168152908120805486929061131b908490612443565b92505081905550846001600160a01b0316866001600160a01b0316886001600160a01b03167f06b541ddaa720db2b10a4d0cdac39b8d360425fc073085fac19bc826146779878787876040516113739392919061240e565b60405180910390a4846001600160a01b0316866001600160a01b03167fddf252ad1be2c89b69c2b068fc378daa952ba7f163c4a11628f55a4df523b3ef866040516113c091815260200190565b60405180910390a350505050505050565b60405163555ddc6560e11b81526001600160a01b03861660048201527fb281fc8c12954d22544db45de3159a39272895b169a852b314f9cc762e44c53b6024820152600090731820a4b7618bde71dce8cdc73aab6c95905fad249063aabbb8ca9060440160206040518083038186803b15801561144d57600080fd5b505afa158015611461573d6000803e3d6000fd5b505050506040513d601f19601f820116820180604052508101906114859190611ec9565b90506001600160a01b0381161561151a576040517e23de290000000000000000000000000000000000000000000000000000000081526001600160a01b038216906223de29906114e3908b908b908b908b908b908b90600401612355565b600060405180830381600087803b1580156114fd57600080fd5b505af1158015611511573d6000803e3d6000fd5b505050506115c4565b81156115c4576001600160a01b0386163b156115c45760405162461bcd60e51b815260206004820152604d60248201527f4552433737373a20746f6b656e20726563697069656e7420636f6e747261637460448201527f20686173206e6f20696d706c656d656e74657220666f7220455243373737546f60648201527f6b656e73526563697069656e7400000000000000000000000000000000000000608482015260a401610689565b5050505050505050565b60008281526009602090815260408083206001600160a01b038516845290915290205460ff166109085761160c816001600160a01b03166014611a33565b611617836020611a33565b6040516020016116289291906122d4565b60408051601f198184030181529082905262461bcd60e51b8252610689916004016123fb565b60008281526009602090815260408083206001600160a01b038516845290915290205460ff166109085760008281526009602090815260408083206001600160a01b03851684529091529020805460ff191660011790556116ac3390565b6001600160a01b0316816001600160a01b0316837f2f8788117e7eff1d82e926ec794901d17c78024a50270940304540a733656f0d60405160405180910390a45050565b60008281526009602090815260408083206001600160a01b038516845290915290205460ff16156109085760008281526009602090815260408083206001600160a01b0385168085529252808320805460ff1916905551339285917ff6391f5c32d9c69d2a47ea670b442974b53935d1edc7fd64eb21e047a839171b9190a45050565b6001600160a01b0386166117d45760405162461bcd60e51b815260206004820152602260248201527f4552433737373a2073656e642066726f6d20746865207a65726f206164647265604482015261737360f01b6064820152608401610689565b6001600160a01b03851661182a5760405162461bcd60e51b815260206004820181905260248201527f4552433737373a2073656e6420746f20746865207a65726f20616464726573736044820152606401610689565b33611839818888888888611106565b611847818888888888611255565b610dc3818888888888886113d1565b610f8c848484846001611ca2565b6001600160a01b0384166118c55760405162461bcd60e51b815260206004820152602260248201527f4552433737373a206275726e2066726f6d20746865207a65726f206164647265604482015261737360f01b6064820152608401610689565b336118d581866000878787611106565b6001600160a01b038516600090815260208190526040902054848110156119645760405162461bcd60e51b815260206004820152602360248201527f4552433737373a206275726e20616d6f756e7420657863656564732062616c6160448201527f6e636500000000000000000000000000000000000000000000000000000000006064820152608401610689565b6001600160a01b038616600090815260208190526040812086830390556001805487929061199390849061247a565b92505081905550856001600160a01b0316826001600160a01b03167fa78a9be3a7b862d26933ad85fb11d80ef66b8f972d7cbba06621d583943a40988787876040516119e19392919061240e565b60405180910390a36040518581526000906001600160a01b038816907fddf252ad1be2c89b69c2b068fc378daa952ba7f163c4a11628f55a4df523b3ef906020015b60405180910390a3505050505050565b60606000611a4283600261245b565b611a4d906002612443565b67ffffffffffffffff811115611a7357634e487b7160e01b600052604160045260246000fd5b6040519080825280601f01601f191660200182016040528015611a9d576020820181803683370190505b5090507f300000000000000000000000000000000000000000000000000000000000000081600081518110611ae257634e487b7160e01b600052603260045260246000fd5b60200101907effffffffffffffffffffffffffffffffffffffffffffffffffffffffffffff1916908160001a9053507f780000000000000000000000000000000000000000000000000000000000000081600181518110611b5357634e487b7160e01b600052603260045260246000fd5b60200101907effffffffffffffffffffffffffffffffffffffffffffffffffffffffffffff1916908160001a9053506000611b8f84600261245b565b611b9a906001612443565b90505b6001811115611c53577f303132333435363738396162636465660000000000000000000000000000000085600f1660108110611be957634e487b7160e01b600052603260045260246000fd5b1a60f81b828281518110611c0d57634e487b7160e01b600052603260045260246000fd5b60200101907effffffffffffffffffffffffffffffffffffffffffffffffffffffffffffff1916908160001a90535060049490941c93611c4c816124bd565b9050611b9d565b508315610cb25760405162461bcd60e51b815260206004820181905260248201527f537472696e67733a20686578206c656e67746820696e73756666696369656e746044820152606401610689565b6001600160a01b038516611cf85760405162461bcd60e51b815260206004820181905260248201527f4552433737373a206d696e7420746f20746865207a65726f20616464726573736044820152606401610689565b60003390508460016000828254611d0f9190612443565b90915550506001600160a01b03861660009081526020819052604081208054879290611d3c908490612443565b90915550611d52905081600088888888886113d1565b856001600160a01b0316816001600160a01b03167f2fe5be0146f74c5bce36c0b80911af6c7d86ff27e89d5cfa61fc681327954e5d878787604051611d999392919061240e565b60405180910390a36040518581526001600160a01b038716906000907fddf252ad1be2c89b69c2b068fc378daa952ba7f163c4a11628f55a4df523b3ef90602001611a23565b60008083601f840112611df0578182fd5b50813567ffffffffffffffff811115611e07578182fd5b602083019150836020828501011115611e1f57600080fd5b9250929050565b600082601f830112611e36578081fd5b813567ffffffffffffffff80821115611e5157611e51612525565b604051601f8301601f19908116603f01168101908282118183101715611e7957611e79612525565b81604052838152866020858801011115611e91578485fd5b8360208701602083013792830160200193909352509392505050565b600060208284031215611ebe578081fd5b8135610cb28161253b565b600060208284031215611eda578081fd5b8151610cb28161253b565b60008060408385031215611ef7578081fd5b8235611f028161253b565b91506020830135611f128161253b565b809150509250929050565b600080600060608486031215611f31578081fd5b8335611f3c8161253b565b92506020840135611f4c8161253b565b929592945050506040919091013590565b600080600080600060a08688031215611f74578081fd5b8535611f7f8161253b565b94506020860135611f8f8161253b565b935060408601359250606086013567ffffffffffffffff80821115611fb2578283fd5b611fbe89838a01611e26565b93506080880135915080821115611fd3578283fd5b50611fe088828901611e26565b9150509295509295909350565b60008060408385031215611fff578182fd5b823561200a8161253b565b946020939093013593505050565b60008060008060006080868803121561202f578081fd5b853561203a8161253b565b945060208601359350604086013567ffffffffffffffff81111561205c578182fd5b61206888828901611ddf565b909450925050606086013561207c8161253b565b809150509295509295909350565b600080600080600080608087890312156120a2578081fd5b86356120ad8161253b565b955060208701359450604087013567ffffffffffffffff808211156120d0578283fd5b6120dc8a838b01611ddf565b909650945060608901359150808211156120f4578283fd5b5061210189828a01611ddf565b979a9699509497509295939492505050565b600080600060608486031215612127578283fd5b83356121328161253b565b925060208401359150604084013567ffffffffffffffff811115612154578182fd5b61216086828701611e26565b9150509250925092565b6000806000806080858703121561217f578384fd5b843561218a8161253b565b935060208501359250604085013567ffffffffffffffff808211156121ad578384fd5b6121b988838901611e26565b935060608701359150808211156121ce578283fd5b506121db87828801611e26565b91505092959194509250565b6000602082840312156121f8578081fd5b5035919050565b60008060408385031215612211578182fd5b823591506020830135611f128161253b565b600060208284031215612234578081fd5b81357fffffffff0000000000000000000000000000000000000000000000000000000081168114610cb2578182fd5b60008060408385031215612275578182fd5b82359150602083013567ffffffffffffffff811115612292578182fd5b61229e85828601611e26565b9150509250929050565b600081518084526122c0816020860160208601612491565b601f01601f19169290920160200192915050565b7f416363657373436f6e74726f6c3a206163636f756e742000000000000000000081526000835161230c816017850160208801612491565b7f206973206d697373696e6720726f6c65200000000000000000000000000000006017918401918201528351612349816028840160208801612491565b01602801949350505050565b60006001600160a01b038089168352808816602084015280871660408401525084606083015260c0608083015261238f60c08301856122a8565b82810360a08401526123a181856122a8565b9998505050505050505050565b6020808252825182820181905260009190848201906040850190845b818110156123ef5783516001600160a01b0316835292840192918401916001016123ca565b50909695505050505050565b602081526000610cb260208301846122a8565b83815260606020820152600061242760608301856122a8565b828103604084015261243981856122a8565b9695505050505050565b600082198211156124565761245661250f565b500190565b60008160001904831182151516156124755761247561250f565b500290565b60008282101561248c5761248c61250f565b500390565b60005b838110156124ac578181015183820152602001612494565b83811115610f8c5750506000910152565b6000816124cc576124cc61250f565b506000190190565b600181811c908216806124e857607f821691505b6020821081141561250957634e487b7160e01b600052602260045260246000fd5b50919050565b634e487b7160e01b600052601160045260246000fd5b634e487b7160e01b600052604160045260246000fd5b6001600160a01b038116811461255057600080fd5b5056fea2646970667358221220e640bbd68dded774ead7855d609ebe4c9138ab6a25e975368aa4f08061202deb64736f6c63430008040033",
  "immutableReferences": {},
  "source": "// SPDX-License-Identifier: MIT\npragma solidity ^0.8.0;\n\nimport \"@openzeppelin/contracts/access/AccessControl.sol\";\nimport \"@openzeppelin/contracts/token/ERC777/ERC777.sol\";\nimport \"./EIP712Forwarder.sol\";\n\ncontract DevLaunchersToken is ERC777, AccessControl {\n\n  bytes32 public constant MINTER_ROLE = keccak256(\"MINTER_ROLE\");\n  address public metaTransactionForwarder;\n\n  constructor(address[] memory _defaultOperators, address _metaTransactionForwarder)\n    ERC777(\"DEVS\", \"DEVS\", _defaultOperators)\n    {\n      _setRoleAdmin(MINTER_ROLE, DEFAULT_ADMIN_ROLE);\n      _setRoleAdmin(DEFAULT_ADMIN_ROLE, DEFAULT_ADMIN_ROLE);\n      _setupRole(DEFAULT_ADMIN_ROLE, msg.sender);\n\n      metaTransactionForwarder = _metaTransactionForwarder;\n    }\n\n    function mint(address receiver, uint256 amount, bytes calldata userData, bytes calldata operatorData) public onlyRole(MINTER_ROLE) {\n      _mint(receiver, amount, userData, operatorData);\n    }\n\n    function metaSend(address recipient, uint256 amount, bytes calldata data, address from) public {\n      require(msg.sender == metaTransactionForwarder);\n      _send(from, recipient, amount, data, \"\", true);\n    }\n\n\n}\n\n",
  "sourcePath": "/home/zorro/git/blockchain__general/prototype/contracts/polygon/DevLaunchersToken.sol",
  "compiler": {
    "name": "solc",
    "version": "0.8.4+commit.c7e474f2.Emscripten.clang"
  },
  "schemaVersion": "3.4.3",
  "updatedAt": "2021-08-26T20:31:35.226Z",
  "networkType": "ethereum",
  "devdoc": {
    "kind": "dev",
    "methods": {
      "allowance(address,address)": {
        "details": "See {IERC20-allowance}. Note that operator and allowance concepts are orthogonal: operators may not have allowance, and accounts with allowance may not be operators themselves."
      },
      "approve(address,uint256)": {
        "details": "See {IERC20-approve}. Note that accounts cannot have allowance issued by their operators."
      },
      "authorizeOperator(address)": {
        "details": "See {IERC777-authorizeOperator}."
      },
      "balanceOf(address)": {
        "details": "Returns the amount of tokens owned by an account (`tokenHolder`)."
      },
      "burn(uint256,bytes)": {
        "details": "See {IERC777-burn}. Also emits a {IERC20-Transfer} event for ERC20 compatibility."
      },
      "decimals()": {
        "details": "See {ERC20-decimals}. Always returns 18, as per the [ERC777 EIP](https://eips.ethereum.org/EIPS/eip-777#backward-compatibility)."
      },
      "defaultOperators()": {
        "details": "See {IERC777-defaultOperators}."
      },
      "getRoleAdmin(bytes32)": {
        "details": "Returns the admin role that controls `role`. See {grantRole} and {revokeRole}. To change a role's admin, use {_setRoleAdmin}."
      },
      "grantRole(bytes32,address)": {
        "details": "Grants `role` to `account`. If `account` had not been already granted `role`, emits a {RoleGranted} event. Requirements: - the caller must have ``role``'s admin role."
      },
      "granularity()": {
        "details": "See {IERC777-granularity}. This implementation always returns `1`."
      },
      "hasRole(bytes32,address)": {
        "details": "Returns `true` if `account` has been granted `role`."
      },
      "isOperatorFor(address,address)": {
        "details": "See {IERC777-isOperatorFor}."
      },
      "name()": {
        "details": "See {IERC777-name}."
      },
      "operatorBurn(address,uint256,bytes,bytes)": {
        "details": "See {IERC777-operatorBurn}. Emits {Burned} and {IERC20-Transfer} events."
      },
      "operatorSend(address,address,uint256,bytes,bytes)": {
        "details": "See {IERC777-operatorSend}. Emits {Sent} and {IERC20-Transfer} events."
      },
      "renounceRole(bytes32,address)": {
        "details": "Revokes `role` from the calling account. Roles are often managed via {grantRole} and {revokeRole}: this function's purpose is to provide a mechanism for accounts to lose their privileges if they are compromised (such as when a trusted device is misplaced). If the calling account had been granted `role`, emits a {RoleRevoked} event. Requirements: - the caller must be `account`."
      },
      "revokeOperator(address)": {
        "details": "See {IERC777-revokeOperator}."
      },
      "revokeRole(bytes32,address)": {
        "details": "Revokes `role` from `account`. If `account` had been granted `role`, emits a {RoleRevoked} event. Requirements: - the caller must have ``role``'s admin role."
      },
      "send(address,uint256,bytes)": {
        "details": "See {IERC777-send}. Also emits a {IERC20-Transfer} event for ERC20 compatibility."
      },
      "supportsInterface(bytes4)": {
        "details": "See {IERC165-supportsInterface}."
      },
      "symbol()": {
        "details": "See {IERC777-symbol}."
      },
      "totalSupply()": {
        "details": "See {IERC777-totalSupply}."
      },
      "transfer(address,uint256)": {
        "details": "See {IERC20-transfer}. Unlike `send`, `recipient` is _not_ required to implement the {IERC777Recipient} interface if it is a contract. Also emits a {Sent} event."
      },
      "transferFrom(address,address,uint256)": {
        "details": "See {IERC20-transferFrom}. Note that operator and allowance concepts are orthogonal: operators cannot call `transferFrom` (unless they have allowance), and accounts with allowance cannot call `operatorSend` (unless they are operators). Emits {Sent}, {IERC20-Transfer} and {IERC20-Approval} events."
      }
    },
    "version": 1
  },
  "userdoc": {
    "kind": "user",
    "methods": {},
    "version": 1
  },
  "db": {
    "callBytecode": {
      "id": "0x9caceda02ed0b76e02a6dfefccec4faa86721580a0ce96c020ceaf642fc48dbc"
    },
    "createBytecode": {
      "id": "0x43abadde04120b480fb4ed0038c0d5df8588d946caae1a5a9be05a5afd3f64f1"
    },
    "contract": {
      "id": "0x7b89c0fa65ad5a42464465c148c576d01ee015047e5fa851637fd3d839cac71a"
    }
  }
}