{
  "contractName": "DevLaunchersToken",
  "abi": [
    {
      "inputs": [
        {
          "internalType": "address[]",
          "name": "_defaultOperators",
          "type": "address[]"
        },
        {
          "internalType": "address",
          "name": "_metaTransactionForwarder",
          "type": "address"
        }
      ],
      "stateMutability": "nonpayable",
      "type": "constructor"
    },
    {
      "anonymous": false,
      "inputs": [
        {
          "indexed": true,
          "internalType": "address",
          "name": "owner",
          "type": "address"
        },
        {
          "indexed": true,
          "internalType": "address",
          "name": "spender",
          "type": "address"
        },
        {
          "indexed": false,
          "internalType": "uint256",
          "name": "value",
          "type": "uint256"
        }
      ],
      "name": "Approval",
      "type": "event"
    },
    {
      "anonymous": false,
      "inputs": [
        {
          "indexed": true,
          "internalType": "address",
          "name": "operator",
          "type": "address"
        },
        {
          "indexed": true,
          "internalType": "address",
          "name": "tokenHolder",
          "type": "address"
        }
      ],
      "name": "AuthorizedOperator",
      "type": "event"
    },
    {
      "anonymous": false,
      "inputs": [
        {
          "indexed": true,
          "internalType": "address",
          "name": "operator",
          "type": "address"
        },
        {
          "indexed": true,
          "internalType": "address",
          "name": "from",
          "type": "address"
        },
        {
          "indexed": false,
          "internalType": "uint256",
          "name": "amount",
          "type": "uint256"
        },
        {
          "indexed": false,
          "internalType": "bytes",
          "name": "data",
          "type": "bytes"
        },
        {
          "indexed": false,
          "internalType": "bytes",
          "name": "operatorData",
          "type": "bytes"
        }
      ],
      "name": "Burned",
      "type": "event"
    },
    {
      "anonymous": false,
      "inputs": [
        {
          "indexed": true,
          "internalType": "address",
          "name": "operator",
          "type": "address"
        },
        {
          "indexed": true,
          "internalType": "address",
          "name": "to",
          "type": "address"
        },
        {
          "indexed": false,
          "internalType": "uint256",
          "name": "amount",
          "type": "uint256"
        },
        {
          "indexed": false,
          "internalType": "bytes",
          "name": "data",
          "type": "bytes"
        },
        {
          "indexed": false,
          "internalType": "bytes",
          "name": "operatorData",
          "type": "bytes"
        }
      ],
      "name": "Minted",
      "type": "event"
    },
    {
      "anonymous": false,
      "inputs": [
        {
          "indexed": true,
          "internalType": "address",
          "name": "operator",
          "type": "address"
        },
        {
          "indexed": true,
          "internalType": "address",
          "name": "tokenHolder",
          "type": "address"
        }
      ],
      "name": "RevokedOperator",
      "type": "event"
    },
    {
      "anonymous": false,
      "inputs": [
        {
          "indexed": true,
          "internalType": "bytes32",
          "name": "role",
          "type": "bytes32"
        },
        {
          "indexed": true,
          "internalType": "bytes32",
          "name": "previousAdminRole",
          "type": "bytes32"
        },
        {
          "indexed": true,
          "internalType": "bytes32",
          "name": "newAdminRole",
          "type": "bytes32"
        }
      ],
      "name": "RoleAdminChanged",
      "type": "event"
    },
    {
      "anonymous": false,
      "inputs": [
        {
          "indexed": true,
          "internalType": "bytes32",
          "name": "role",
          "type": "bytes32"
        },
        {
          "indexed": true,
          "internalType": "address",
          "name": "account",
          "type": "address"
        },
        {
          "indexed": true,
          "internalType": "address",
          "name": "sender",
          "type": "address"
        }
      ],
      "name": "RoleGranted",
      "type": "event"
    },
    {
      "anonymous": false,
      "inputs": [
        {
          "indexed": true,
          "internalType": "bytes32",
          "name": "role",
          "type": "bytes32"
        },
        {
          "indexed": true,
          "internalType": "address",
          "name": "account",
          "type": "address"
        },
        {
          "indexed": true,
          "internalType": "address",
          "name": "sender",
          "type": "address"
        }
      ],
      "name": "RoleRevoked",
      "type": "event"
    },
    {
      "anonymous": false,
      "inputs": [
        {
          "indexed": true,
          "internalType": "address",
          "name": "operator",
          "type": "address"
        },
        {
          "indexed": true,
          "internalType": "address",
          "name": "from",
          "type": "address"
        },
        {
          "indexed": true,
          "internalType": "address",
          "name": "to",
          "type": "address"
        },
        {
          "indexed": false,
          "internalType": "uint256",
          "name": "amount",
          "type": "uint256"
        },
        {
          "indexed": false,
          "internalType": "bytes",
          "name": "data",
          "type": "bytes"
        },
        {
          "indexed": false,
          "internalType": "bytes",
          "name": "operatorData",
          "type": "bytes"
        }
      ],
      "name": "Sent",
      "type": "event"
    },
    {
      "anonymous": false,
      "inputs": [
        {
          "indexed": true,
          "internalType": "address",
          "name": "from",
          "type": "address"
        },
        {
          "indexed": true,
          "internalType": "address",
          "name": "to",
          "type": "address"
        },
        {
          "indexed": false,
          "internalType": "uint256",
          "name": "value",
          "type": "uint256"
        }
      ],
      "name": "Transfer",
      "type": "event"
    },
    {
      "inputs": [],
      "name": "DEFAULT_ADMIN_ROLE",
      "outputs": [
        {
          "internalType": "bytes32",
          "name": "",
          "type": "bytes32"
        }
      ],
      "stateMutability": "view",
      "type": "function",
      "constant": true
    },
    {
      "inputs": [],
      "name": "MINTER_ROLE",
      "outputs": [
        {
          "internalType": "bytes32",
          "name": "",
          "type": "bytes32"
        }
      ],
      "stateMutability": "view",
      "type": "function",
      "constant": true
    },
    {
      "inputs": [
        {
          "internalType": "address",
          "name": "holder",
          "type": "address"
        },
        {
          "internalType": "address",
          "name": "spender",
          "type": "address"
        }
      ],
      "name": "allowance",
      "outputs": [
        {
          "internalType": "uint256",
          "name": "",
          "type": "uint256"
        }
      ],
      "stateMutability": "view",
      "type": "function",
      "constant": true
    },
    {
      "inputs": [
        {
          "internalType": "address",
          "name": "spender",
          "type": "address"
        },
        {
          "internalType": "uint256",
          "name": "value",
          "type": "uint256"
        }
      ],
      "name": "approve",
      "outputs": [
        {
          "internalType": "bool",
          "name": "",
          "type": "bool"
        }
      ],
      "stateMutability": "nonpayable",
      "type": "function"
    },
    {
      "inputs": [
        {
          "internalType": "address",
          "name": "operator",
          "type": "address"
        }
      ],
      "name": "authorizeOperator",
      "outputs": [],
      "stateMutability": "nonpayable",
      "type": "function"
    },
    {
      "inputs": [
        {
          "internalType": "address",
          "name": "tokenHolder",
          "type": "address"
        }
      ],
      "name": "balanceOf",
      "outputs": [
        {
          "internalType": "uint256",
          "name": "",
          "type": "uint256"
        }
      ],
      "stateMutability": "view",
      "type": "function",
      "constant": true
    },
    {
      "inputs": [
        {
          "internalType": "uint256",
          "name": "amount",
          "type": "uint256"
        },
        {
          "internalType": "bytes",
          "name": "data",
          "type": "bytes"
        }
      ],
      "name": "burn",
      "outputs": [],
      "stateMutability": "nonpayable",
      "type": "function"
    },
    {
      "inputs": [],
      "name": "decimals",
      "outputs": [
        {
          "internalType": "uint8",
          "name": "",
          "type": "uint8"
        }
      ],
      "stateMutability": "pure",
      "type": "function",
      "constant": true
    },
    {
      "inputs": [],
      "name": "defaultOperators",
      "outputs": [
        {
          "internalType": "address[]",
          "name": "",
          "type": "address[]"
        }
      ],
      "stateMutability": "view",
      "type": "function",
      "constant": true
    },
    {
      "inputs": [
        {
          "internalType": "bytes32",
          "name": "role",
          "type": "bytes32"
        }
      ],
      "name": "getRoleAdmin",
      "outputs": [
        {
          "internalType": "bytes32",
          "name": "",
          "type": "bytes32"
        }
      ],
      "stateMutability": "view",
      "type": "function",
      "constant": true
    },
    {
      "inputs": [
        {
          "internalType": "bytes32",
          "name": "role",
          "type": "bytes32"
        },
        {
          "internalType": "address",
          "name": "account",
          "type": "address"
        }
      ],
      "name": "grantRole",
      "outputs": [],
      "stateMutability": "nonpayable",
      "type": "function"
    },
    {
      "inputs": [],
      "name": "granularity",
      "outputs": [
        {
          "internalType": "uint256",
          "name": "",
          "type": "uint256"
        }
      ],
      "stateMutability": "view",
      "type": "function",
      "constant": true
    },
    {
      "inputs": [
        {
          "internalType": "bytes32",
          "name": "role",
          "type": "bytes32"
        },
        {
          "internalType": "address",
          "name": "account",
          "type": "address"
        }
      ],
      "name": "hasRole",
      "outputs": [
        {
          "internalType": "bool",
          "name": "",
          "type": "bool"
        }
      ],
      "stateMutability": "view",
      "type": "function",
      "constant": true
    },
    {
      "inputs": [
        {
          "internalType": "address",
          "name": "operator",
          "type": "address"
        },
        {
          "internalType": "address",
          "name": "tokenHolder",
          "type": "address"
        }
      ],
      "name": "isOperatorFor",
      "outputs": [
        {
          "internalType": "bool",
          "name": "",
          "type": "bool"
        }
      ],
      "stateMutability": "view",
      "type": "function",
      "constant": true
    },
    {
      "inputs": [],
      "name": "metaTransactionForwarder",
      "outputs": [
        {
          "internalType": "address",
          "name": "",
          "type": "address"
        }
      ],
      "stateMutability": "view",
      "type": "function",
      "constant": true
    },
    {
      "inputs": [],
      "name": "name",
      "outputs": [
        {
          "internalType": "string",
          "name": "",
          "type": "string"
        }
      ],
      "stateMutability": "view",
      "type": "function",
      "constant": true
    },
    {
      "inputs": [
        {
          "internalType": "address",
          "name": "account",
          "type": "address"
        },
        {
          "internalType": "uint256",
          "name": "amount",
          "type": "uint256"
        },
        {
          "internalType": "bytes",
          "name": "data",
          "type": "bytes"
        },
        {
          "internalType": "bytes",
          "name": "operatorData",
          "type": "bytes"
        }
      ],
      "name": "operatorBurn",
      "outputs": [],
      "stateMutability": "nonpayable",
      "type": "function"
    },
    {
      "inputs": [
        {
          "internalType": "address",
          "name": "sender",
          "type": "address"
        },
        {
          "internalType": "address",
          "name": "recipient",
          "type": "address"
        },
        {
          "internalType": "uint256",
          "name": "amount",
          "type": "uint256"
        },
        {
          "internalType": "bytes",
          "name": "data",
          "type": "bytes"
        },
        {
          "internalType": "bytes",
          "name": "operatorData",
          "type": "bytes"
        }
      ],
      "name": "operatorSend",
      "outputs": [],
      "stateMutability": "nonpayable",
      "type": "function"
    },
    {
      "inputs": [
        {
          "internalType": "bytes32",
          "name": "role",
          "type": "bytes32"
        },
        {
          "internalType": "address",
          "name": "account",
          "type": "address"
        }
      ],
      "name": "renounceRole",
      "outputs": [],
      "stateMutability": "nonpayable",
      "type": "function"
    },
    {
      "inputs": [
        {
          "internalType": "address",
          "name": "operator",
          "type": "address"
        }
      ],
      "name": "revokeOperator",
      "outputs": [],
      "stateMutability": "nonpayable",
      "type": "function"
    },
    {
      "inputs": [
        {
          "internalType": "bytes32",
          "name": "role",
          "type": "bytes32"
        },
        {
          "internalType": "address",
          "name": "account",
          "type": "address"
        }
      ],
      "name": "revokeRole",
      "outputs": [],
      "stateMutability": "nonpayable",
      "type": "function"
    },
    {
      "inputs": [
        {
          "internalType": "address",
          "name": "recipient",
          "type": "address"
        },
        {
          "internalType": "uint256",
          "name": "amount",
          "type": "uint256"
        },
        {
          "internalType": "bytes",
          "name": "data",
          "type": "bytes"
        }
      ],
      "name": "send",
      "outputs": [],
      "stateMutability": "nonpayable",
      "type": "function"
    },
    {
      "inputs": [
        {
          "internalType": "bytes4",
          "name": "interfaceId",
          "type": "bytes4"
        }
      ],
      "name": "supportsInterface",
      "outputs": [
        {
          "internalType": "bool",
          "name": "",
          "type": "bool"
        }
      ],
      "stateMutability": "view",
      "type": "function",
      "constant": true
    },
    {
      "inputs": [],
      "name": "symbol",
      "outputs": [
        {
          "internalType": "string",
          "name": "",
          "type": "string"
        }
      ],
      "stateMutability": "view",
      "type": "function",
      "constant": true
    },
    {
      "inputs": [],
      "name": "totalSupply",
      "outputs": [
        {
          "internalType": "uint256",
          "name": "",
          "type": "uint256"
        }
      ],
      "stateMutability": "view",
      "type": "function",
      "constant": true
    },
    {
      "inputs": [
        {
          "internalType": "address",
          "name": "recipient",
          "type": "address"
        },
        {
          "internalType": "uint256",
          "name": "amount",
          "type": "uint256"
        }
      ],
      "name": "transfer",
      "outputs": [
        {
          "internalType": "bool",
          "name": "",
          "type": "bool"
        }
      ],
      "stateMutability": "nonpayable",
      "type": "function"
    },
    {
      "inputs": [
        {
          "internalType": "address",
          "name": "holder",
          "type": "address"
        },
        {
          "internalType": "address",
          "name": "recipient",
          "type": "address"
        },
        {
          "internalType": "uint256",
          "name": "amount",
          "type": "uint256"
        }
      ],
      "name": "transferFrom",
      "outputs": [
        {
          "internalType": "bool",
          "name": "",
          "type": "bool"
        }
      ],
      "stateMutability": "nonpayable",
      "type": "function"
    },
    {
      "inputs": [
        {
          "internalType": "address",
          "name": "receiver",
          "type": "address"
        },
        {
          "internalType": "uint256",
          "name": "amount",
          "type": "uint256"
        },
        {
          "internalType": "bytes",
          "name": "userData",
          "type": "bytes"
        },
        {
          "internalType": "bytes",
          "name": "operatorData",
          "type": "bytes"
        }
      ],
      "name": "mint",
      "outputs": [],
      "stateMutability": "nonpayable",
      "type": "function"
    },
    {
      "inputs": [
        {
          "internalType": "address",
          "name": "recipient",
          "type": "address"
        },
        {
          "internalType": "uint256",
          "name": "amount",
          "type": "uint256"
        },
        {
          "internalType": "bytes",
          "name": "data",
          "type": "bytes"
        },
        {
          "internalType": "address",
          "name": "from",
          "type": "address"
        }
      ],
      "name": "metaSend",
      "outputs": [],
      "stateMutability": "nonpayable",
      "type": "function"
    }
  ],
  "bytecode": "0x60806040523480156200001157600080fd5b5060405162002bef38038062002bef8339810160408190526200003491620004e1565b6040805180820182526004808252634445565360e01b6020808401828152855180870190965292855284015281519192918591620000769160029190620003c6565b5081516200008c906003906020850190620003c6565b508051620000a290600490602084019062000455565b5060005b81518110156200011e57600160056000848481518110620000d757634e487b7160e01b600052603260045260246000fd5b6020908102919091018101516001600160a01b03168252810191909152604001600020805460ff191691151591909117905580620001158162000606565b915050620000a6565b506040516329965a1d60e01b815230600482018190527fac7fbab5f54a3ca8194167523c6753bfeb96a445279294b6125b68cce217705460248301526044820152731820a4b7618bde71dce8cdc73aab6c95905fad24906329965a1d90606401600060405180830381600087803b1580156200019957600080fd5b505af1158015620001ae573d6000803e3d6000fd5b50506040516329965a1d60e01b815230600482018190527faea199e31a596269b42cdafd93407f14436db6e4cad65417994c2eb37381e05a60248301526044820152731820a4b7618bde71dce8cdc73aab6c95905fad2492506329965a1d9150606401600060405180830381600087803b1580156200022c57600080fd5b505af115801562000241573d6000803e3d6000fd5b505050505050506200027d7f9f2df0fed2c77648de5860a4cc508cd0818c85b8b8a1ab4ceeef8d981c8956a66000801b620002be60201b60201c565b6200028a600080620002be565b6200029760003362000312565b600a80546001600160a01b0319166001600160a01b03929092169190911790555062000644565b600082815260096020526040902060010154819060405184907fbd79b86ffe0ab8e8776151514217cd7cacd52c909f66475c3af44e129f0b00ff90600090a460009182526009602052604090912060010155565b6200031e828262000322565b5050565b60008281526009602090815260408083206001600160a01b038516845290915290205460ff166200031e5760008281526009602090815260408083206001600160a01b03851684529091529020805460ff19166001179055620003823390565b6001600160a01b0316816001600160a01b0316837f2f8788117e7eff1d82e926ec794901d17c78024a50270940304540a733656f0d60405160405180910390a45050565b828054620003d490620005c9565b90600052602060002090601f016020900481019282620003f8576000855562000443565b82601f106200041357805160ff191683800117855562000443565b8280016001018555821562000443579182015b828111156200044357825182559160200191906001019062000426565b5062000451929150620004ad565b5090565b82805482825590600052602060002090810192821562000443579160200282015b828111156200044357825182546001600160a01b0319166001600160a01b0390911617825560209092019160019091019062000476565b5b80821115620004515760008155600101620004ae565b80516001600160a01b0381168114620004dc57600080fd5b919050565b60008060408385031215620004f4578182fd5b82516001600160401b03808211156200050b578384fd5b818501915085601f8301126200051f578384fd5b81516020828211156200053657620005366200062e565b8160051b604051601f19603f830116810181811086821117156200055e576200055e6200062e565b604052838152828101945085830182870184018b10156200057d578889fd5b8896505b84871015620005aa576200059581620004c4565b86526001969096019594830194830162000581565b509650620005bc9050878201620004c4565b9450505050509250929050565b600181811c90821680620005de57607f821691505b602082108114156200060057634e487b7160e01b600052602260045260246000fd5b50919050565b60006000198214156200062757634e487b7160e01b81526011600452602481fd5b5060010190565b634e487b7160e01b600052604160045260246000fd5b61259b80620006546000396000f3fe608060405234801561001057600080fd5b50600436106101cf5760003560e01c806391d1485411610104578063d547741f116100a2578063dd62ed3e11610071578063dd62ed3e1461041b578063fad8b32a14610454578063fc673c4f14610467578063fe9d93031461047a57600080fd5b8063d547741f146103cf578063d95b6371146103e2578063db072295146103f5578063dcdc7dd01461040857600080fd5b80639bd9bbc6116100de5780639bd9bbc61461037a578063a217fddf1461038d578063a9059cbb14610395578063d5391393146103a857600080fd5b806391d1485414610326578063959b8c3f1461035f57806395d89b411461037257600080fd5b8063248a9ca31161017157806336568abe1161014b57806336568abe146102d0578063556f0dc7146102e357806362ad1b83146102ea57806370a08231146102fd57600080fd5b8063248a9ca3146102895780632f2ff15d146102ac578063313ce567146102c157600080fd5b8063095ea7b3116101ad578063095ea7b31461022657806318160ddd1461023957806318f428d51461024b57806323b872dd1461027657600080fd5b806301ffc9a7146101d457806306e48538146101fc57806306fdde0314610211575b600080fd5b6101e76101e2366004612235565b61048d565b60405190151581526020015b60405180910390f35b610204610526565b6040516101f391906123c0565b610219610588565b6040516101f3919061240d565b6101e7610234366004611fff565b610611565b6001545b6040519081526020016101f3565b600a5461025e906001600160a01b031681565b6040516001600160a01b0390911681526020016101f3565b6101e7610284366004611f2f565b610629565b61023d6102973660046121f9565b60009081526009602052604090206001015490565b6102bf6102ba366004612211565b610855565b005b604051601281526020016101f3565b6102bf6102de366004612211565b610880565b600161023d565b6102bf6102f8366004611f6f565b61090c565b61023d61030b366004611ebf565b6001600160a01b031660009081526020819052604090205490565b6101e7610334366004612211565b60009182526009602090815260408084206001600160a01b0393909316845291905290205460ff1690565b6102bf61036d366004611ebf565b61099e565b610219610ad5565b6102bf610388366004612125565b610ae4565b61023d600081565b6101e76103a3366004611fff565b610b02565b61023d7f9f2df0fed2c77648de5860a4cc508cd0818c85b8b8a1ab4ceeef8d981c8956a681565b6102bf6103dd366004612211565b610bf1565b6101e76103f0366004611ef7565b610c17565b6102bf61040336600461202a565b610cb9565b6102bf61041636600461209c565b610d23565b61023d610429366004611ef7565b6001600160a01b03918216600090815260086020908152604080832093909416825291909152205490565b6102bf610462366004611ebf565b610dcc565b6102bf61047536600461217c565b610f04565b6102bf610488366004612275565b610f92565b60007fffffffff0000000000000000000000000000000000000000000000000000000082167f7965db0b00000000000000000000000000000000000000000000000000000000148061052057507f01ffc9a7000000000000000000000000000000000000000000000000000000007fffffffff000000000000000000000000000000000000000000000000000000008316145b92915050565b6060600480548060200260200160405190810160405280929190818152602001828054801561057e57602002820191906000526020600020905b81546001600160a01b03168152600190910190602001808311610560575b5050505050905090565b606060028054610597906124e6565b80601f01602080910402602001604051908101604052809291908181526020018280546105c3906124e6565b801561057e5780601f106105e55761010080835404028352916020019161057e565b820191906000526020600020905b8154815290600101906020018083116105f357509395945050505050565b60003361061f818585610fad565b5060019392505050565b60006001600160a01b0383166106925760405162461bcd60e51b8152602060048201526024808201527f4552433737373a207472616e7366657220746f20746865207a65726f206164646044820152637265737360e01b60648201526084015b60405180910390fd5b6001600160a01b03841661070e5760405162461bcd60e51b815260206004820152602660248201527f4552433737373a207472616e736665722066726f6d20746865207a65726f206160448201527f64647265737300000000000000000000000000000000000000000000000000006064820152608401610689565b600033905061073f818686866040518060200160405280600081525060405180602001604052806000815250611106565b61076b818686866040518060200160405280600081525060405180602001604052806000815250611255565b6001600160a01b03808616600090815260086020908152604080832093851683529290522054838110156108075760405162461bcd60e51b815260206004820152602960248201527f4552433737373a207472616e7366657220616d6f756e7420657863656564732060448201527f616c6c6f77616e636500000000000000000000000000000000000000000000006064820152608401610689565b61081b8683610816878561248c565b610fad565b61084982878787604051806020016040528060008152506040518060200160405280600081525060006113da565b50600195945050505050565b60008281526009602052604090206001015461087181336115d7565b61087b8383611657565b505050565b6001600160a01b03811633146108fe5760405162461bcd60e51b815260206004820152602f60248201527f416363657373436f6e74726f6c3a2063616e206f6e6c792072656e6f756e636560448201527f20726f6c657320666f722073656c6600000000000000000000000000000000006064820152608401610689565b61090882826116f9565b5050565b6109163386610c17565b6109885760405162461bcd60e51b815260206004820152602c60248201527f4552433737373a2063616c6c6572206973206e6f7420616e206f70657261746f60448201527f7220666f7220686f6c64657200000000000000000000000000000000000000006064820152608401610689565b6109978585858585600161177c565b5050505050565b336001600160a01b0382161415610a1c5760405162461bcd60e51b8152602060048201526024808201527f4552433737373a20617574686f72697a696e672073656c66206173206f70657260448201527f61746f72000000000000000000000000000000000000000000000000000000006064820152608401610689565b6001600160a01b03811660009081526005602052604090205460ff1615610a6d573360009081526007602090815260408083206001600160a01b03851684529091529020805460ff19169055610a9c565b3360009081526006602090815260408083206001600160a01b03851684529091529020805460ff191660011790555b60405133906001600160a01b038316907ff4caeb2d6ca8932a215a353d0703c326ec2d81fc68170f320eb2ab49e9df61f990600090a350565b606060038054610597906124e6565b61087b3384848460405180602001604052806000815250600161177c565b60006001600160a01b038316610b665760405162461bcd60e51b8152602060048201526024808201527f4552433737373a207472616e7366657220746f20746865207a65726f206164646044820152637265737360e01b6064820152608401610689565b6000339050610b97818286866040518060200160405280600081525060405180602001604052806000815250611106565b610bc3818286866040518060200160405280600081525060405180602001604052806000815250611255565b61061f81828686604051806020016040528060008152506040518060200160405280600081525060006113da565b600082815260096020526040902060010154610c0d81336115d7565b61087b83836116f9565b6000816001600160a01b0316836001600160a01b03161480610c8257506001600160a01b03831660009081526005602052604090205460ff168015610c8257506001600160a01b0380831660009081526007602090815260408083209387168352929052205460ff16155b80610cb257506001600160a01b0380831660009081526006602090815260408083209387168352929052205460ff165b9392505050565b600a546001600160a01b03163314610cd057600080fd5b61099781868686868080601f0160208091040260200160405190810160405280939291908181526020018383808284376000920182905250604080516020810190915290815292506001915061177c9050565b7f9f2df0fed2c77648de5860a4cc508cd0818c85b8b8a1ab4ceeef8d981c8956a6610d4e81336115d7565b610dc3878787878080601f01602080910402602001604051908101604052809392919081815260200183838082843760009201919091525050604080516020601f8b01819004810282018101909252898152925089915088908190840183828082843760009201919091525061185f92505050565b50505050505050565b6001600160a01b038116331415610e4b5760405162461bcd60e51b815260206004820152602160248201527f4552433737373a207265766f6b696e672073656c66206173206f70657261746f60448201527f72000000000000000000000000000000000000000000000000000000000000006064820152608401610689565b6001600160a01b03811660009081526005602052604090205460ff1615610e9f573360009081526007602090815260408083206001600160a01b03851684529091529020805460ff19166001179055610ecb565b3360009081526006602090815260408083206001600160a01b03851684529091529020805460ff191690555b60405133906001600160a01b038316907f50546e66e5f44d728365dc3908c63bc5cfeeab470722c1677e3073a6ac294aa190600090a350565b610f0e3385610c17565b610f805760405162461bcd60e51b815260206004820152602c60248201527f4552433737373a2063616c6c6572206973206e6f7420616e206f70657261746f60448201527f7220666f7220686f6c64657200000000000000000000000000000000000000006064820152608401610689565b610f8c8484848461186d565b50505050565b6109083383836040518060200160405280600081525061186d565b6001600160a01b0383166110295760405162461bcd60e51b815260206004820152602560248201527f4552433737373a20617070726f76652066726f6d20746865207a65726f20616460448201527f64726573730000000000000000000000000000000000000000000000000000006064820152608401610689565b6001600160a01b0382166110a55760405162461bcd60e51b815260206004820152602360248201527f4552433737373a20617070726f766520746f20746865207a65726f206164647260448201527f65737300000000000000000000000000000000000000000000000000000000006064820152608401610689565b6001600160a01b0383811660008181526008602090815260408083209487168084529482529182902085905590518481527f8c5be1e5ebec7d5bd14f71427d1e84f3dd0314c0f7b2291e5b200ac8c7c3b925910160405180910390a3505050565b60405163555ddc6560e11b81526001600160a01b03861660048201527f29ddb589b1fb5fc7cf394961c1adf5f8c6454761adf795e67fe149f658abe8956024820152600090731820a4b7618bde71dce8cdc73aab6c95905fad249063aabbb8ca9060440160206040518083038186803b15801561118257600080fd5b505afa158015611196573d6000803e3d6000fd5b505050506040513d601f19601f820116820180604052508101906111ba9190611edb565b90506001600160a01b03811615610dc3576040517f75ab97820000000000000000000000000000000000000000000000000000000081526001600160a01b038216906375ab97829061121a908a908a908a908a908a908a90600401612367565b600060405180830381600087803b15801561123457600080fd5b505af1158015611248573d6000803e3d6000fd5b5050505050505050505050565b6001600160a01b038516600090815260208190526040902054838110156112e45760405162461bcd60e51b815260206004820152602760248201527f4552433737373a207472616e7366657220616d6f756e7420657863656564732060448201527f62616c616e6365000000000000000000000000000000000000000000000000006064820152608401610689565b6112ee848261248c565b6001600160a01b038088166000908152602081905260408082209390935590871681529081208054869290611324908490612455565b92505081905550846001600160a01b0316866001600160a01b0316886001600160a01b03167f06b541ddaa720db2b10a4d0cdac39b8d360425fc073085fac19bc8261467798787878760405161137c93929190612420565b60405180910390a4846001600160a01b0316866001600160a01b03167fddf252ad1be2c89b69c2b068fc378daa952ba7f163c4a11628f55a4df523b3ef866040516113c991815260200190565b60405180910390a350505050505050565b60405163555ddc6560e11b81526001600160a01b03861660048201527fb281fc8c12954d22544db45de3159a39272895b169a852b314f9cc762e44c53b6024820152600090731820a4b7618bde71dce8cdc73aab6c95905fad249063aabbb8ca9060440160206040518083038186803b15801561145657600080fd5b505afa15801561146a573d6000803e3d6000fd5b505050506040513d601f19601f8201168201806040525081019061148e9190611edb565b90506001600160a01b03811615611523576040517e23de290000000000000000000000000000000000000000000000000000000081526001600160a01b038216906223de29906114ec908b908b908b908b908b908b90600401612367565b600060405180830381600087803b15801561150657600080fd5b505af115801561151a573d6000803e3d6000fd5b505050506115cd565b81156115cd576001600160a01b0386163b156115cd5760405162461bcd60e51b815260206004820152604d60248201527f4552433737373a20746f6b656e20726563697069656e7420636f6e747261637460448201527f20686173206e6f20696d706c656d656e74657220666f7220455243373737546f60648201527f6b656e73526563697069656e7400000000000000000000000000000000000000608482015260a401610689565b5050505050505050565b60008281526009602090815260408083206001600160a01b038516845290915290205460ff1661090857611615816001600160a01b03166014611a45565b611620836020611a45565b6040516020016116319291906122e6565b60408051601f198184030181529082905262461bcd60e51b82526106899160040161240d565b60008281526009602090815260408083206001600160a01b038516845290915290205460ff166109085760008281526009602090815260408083206001600160a01b03851684529091529020805460ff191660011790556116b53390565b6001600160a01b0316816001600160a01b0316837f2f8788117e7eff1d82e926ec794901d17c78024a50270940304540a733656f0d60405160405180910390a45050565b60008281526009602090815260408083206001600160a01b038516845290915290205460ff16156109085760008281526009602090815260408083206001600160a01b0385168085529252808320805460ff1916905551339285917ff6391f5c32d9c69d2a47ea670b442974b53935d1edc7fd64eb21e047a839171b9190a45050565b6001600160a01b0386166117dd5760405162461bcd60e51b815260206004820152602260248201527f4552433737373a2073656e642066726f6d20746865207a65726f206164647265604482015261737360f01b6064820152608401610689565b6001600160a01b0385166118335760405162461bcd60e51b815260206004820181905260248201527f4552433737373a2073656e6420746f20746865207a65726f20616464726573736044820152606401610689565b33611842818888888888611106565b611850818888888888611255565b610dc3818888888888886113da565b610f8c848484846001611cb4565b6001600160a01b0384166118ce5760405162461bcd60e51b815260206004820152602260248201527f4552433737373a206275726e2066726f6d20746865207a65726f206164647265604482015261737360f01b6064820152608401610689565b336118de81866000878787611106565b6001600160a01b0385166000908152602081905260409020548481101561196d5760405162461bcd60e51b815260206004820152602360248201527f4552433737373a206275726e20616d6f756e7420657863656564732062616c6160448201527f6e636500000000000000000000000000000000000000000000000000000000006064820152608401610689565b611977858261248c565b6001600160a01b038716600090815260208190526040812091909155600180548792906119a590849061248c565b92505081905550856001600160a01b0316826001600160a01b03167fa78a9be3a7b862d26933ad85fb11d80ef66b8f972d7cbba06621d583943a40988787876040516119f393929190612420565b60405180910390a36040518581526000906001600160a01b038816907fddf252ad1be2c89b69c2b068fc378daa952ba7f163c4a11628f55a4df523b3ef906020015b60405180910390a3505050505050565b60606000611a5483600261246d565b611a5f906002612455565b67ffffffffffffffff811115611a8557634e487b7160e01b600052604160045260246000fd5b6040519080825280601f01601f191660200182016040528015611aaf576020820181803683370190505b5090507f300000000000000000000000000000000000000000000000000000000000000081600081518110611af457634e487b7160e01b600052603260045260246000fd5b60200101907effffffffffffffffffffffffffffffffffffffffffffffffffffffffffffff1916908160001a9053507f780000000000000000000000000000000000000000000000000000000000000081600181518110611b6557634e487b7160e01b600052603260045260246000fd5b60200101907effffffffffffffffffffffffffffffffffffffffffffffffffffffffffffff1916908160001a9053506000611ba184600261246d565b611bac906001612455565b90505b6001811115611c65577f303132333435363738396162636465660000000000000000000000000000000085600f1660108110611bfb57634e487b7160e01b600052603260045260246000fd5b1a60f81b828281518110611c1f57634e487b7160e01b600052603260045260246000fd5b60200101907effffffffffffffffffffffffffffffffffffffffffffffffffffffffffffff1916908160001a90535060049490941c93611c5e816124cf565b9050611baf565b508315610cb25760405162461bcd60e51b815260206004820181905260248201527f537472696e67733a20686578206c656e67746820696e73756666696369656e746044820152606401610689565b6001600160a01b038516611d0a5760405162461bcd60e51b815260206004820181905260248201527f4552433737373a206d696e7420746f20746865207a65726f20616464726573736044820152606401610689565b60003390508460016000828254611d219190612455565b90915550506001600160a01b03861660009081526020819052604081208054879290611d4e908490612455565b90915550611d64905081600088888888886113da565b856001600160a01b0316816001600160a01b03167f2fe5be0146f74c5bce36c0b80911af6c7d86ff27e89d5cfa61fc681327954e5d878787604051611dab93929190612420565b60405180910390a36040518581526001600160a01b038716906000907fddf252ad1be2c89b69c2b068fc378daa952ba7f163c4a11628f55a4df523b3ef90602001611a35565b60008083601f840112611e02578182fd5b50813567ffffffffffffffff811115611e19578182fd5b602083019150836020828501011115611e3157600080fd5b9250929050565b600082601f830112611e48578081fd5b813567ffffffffffffffff80821115611e6357611e63612537565b604051601f8301601f19908116603f01168101908282118183101715611e8b57611e8b612537565b81604052838152866020858801011115611ea3578485fd5b8360208701602083013792830160200193909352509392505050565b600060208284031215611ed0578081fd5b8135610cb28161254d565b600060208284031215611eec578081fd5b8151610cb28161254d565b60008060408385031215611f09578081fd5b8235611f148161254d565b91506020830135611f248161254d565b809150509250929050565b600080600060608486031215611f43578081fd5b8335611f4e8161254d565b92506020840135611f5e8161254d565b929592945050506040919091013590565b600080600080600060a08688031215611f86578081fd5b8535611f918161254d565b94506020860135611fa18161254d565b935060408601359250606086013567ffffffffffffffff80821115611fc4578283fd5b611fd089838a01611e38565b93506080880135915080821115611fe5578283fd5b50611ff288828901611e38565b9150509295509295909350565b60008060408385031215612011578182fd5b823561201c8161254d565b946020939093013593505050565b600080600080600060808688031215612041578081fd5b853561204c8161254d565b945060208601359350604086013567ffffffffffffffff81111561206e578182fd5b61207a88828901611df1565b909450925050606086013561208e8161254d565b809150509295509295909350565b600080600080600080608087890312156120b4578081fd5b86356120bf8161254d565b955060208701359450604087013567ffffffffffffffff808211156120e2578283fd5b6120ee8a838b01611df1565b90965094506060890135915080821115612106578283fd5b5061211389828a01611df1565b979a9699509497509295939492505050565b600080600060608486031215612139578283fd5b83356121448161254d565b925060208401359150604084013567ffffffffffffffff811115612166578182fd5b61217286828701611e38565b9150509250925092565b60008060008060808587031215612191578384fd5b843561219c8161254d565b935060208501359250604085013567ffffffffffffffff808211156121bf578384fd5b6121cb88838901611e38565b935060608701359150808211156121e0578283fd5b506121ed87828801611e38565b91505092959194509250565b60006020828403121561220a578081fd5b5035919050565b60008060408385031215612223578182fd5b823591506020830135611f248161254d565b600060208284031215612246578081fd5b81357fffffffff0000000000000000000000000000000000000000000000000000000081168114610cb2578182fd5b60008060408385031215612287578182fd5b82359150602083013567ffffffffffffffff8111156122a4578182fd5b6122b085828601611e38565b9150509250929050565b600081518084526122d28160208601602086016124a3565b601f01601f19169290920160200192915050565b7f416363657373436f6e74726f6c3a206163636f756e742000000000000000000081526000835161231e8160178501602088016124a3565b7f206973206d697373696e6720726f6c6520000000000000000000000000000000601791840191820152835161235b8160288401602088016124a3565b01602801949350505050565b60006001600160a01b038089168352808816602084015280871660408401525084606083015260c060808301526123a160c08301856122ba565b82810360a08401526123b381856122ba565b9998505050505050505050565b6020808252825182820181905260009190848201906040850190845b818110156124015783516001600160a01b0316835292840192918401916001016123dc565b50909695505050505050565b602081526000610cb260208301846122ba565b83815260606020820152600061243960608301856122ba565b828103604084015261244b81856122ba565b9695505050505050565b6000821982111561246857612468612521565b500190565b600081600019048311821515161561248757612487612521565b500290565b60008282101561249e5761249e612521565b500390565b60005b838110156124be5781810151838201526020016124a6565b83811115610f8c5750506000910152565b6000816124de576124de612521565b506000190190565b600181811c908216806124fa57607f821691505b6020821081141561251b57634e487b7160e01b600052602260045260246000fd5b50919050565b634e487b7160e01b600052601160045260246000fd5b634e487b7160e01b600052604160045260246000fd5b6001600160a01b038116811461256257600080fd5b5056fea2646970667358221220d9a03f0c2d8b68c03516b3649d37fcaaed99a4ab1d156fbfddc836e851e9ce3764736f6c63430008040033",
  "immutableReferences": {},
  "source": "// SPDX-License-Identifier: MIT\npragma solidity ^0.8.0;\n\nimport \"@openzeppelin/contracts/access/AccessControl.sol\";\nimport \"@openzeppelin/contracts/token/ERC777/ERC777.sol\";\nimport \"./EIP712Forwarder.sol\";\n\ncontract DevLaunchersToken is ERC777, AccessControl {\n\n  bytes32 public constant MINTER_ROLE = keccak256(\"MINTER_ROLE\");\n  address public metaTransactionForwarder;\n\n  constructor(address[] memory _defaultOperators, address _metaTransactionForwarder)\n    ERC777(\"DEVS\", \"DEVS\", _defaultOperators)\n    {\n      _setRoleAdmin(MINTER_ROLE, DEFAULT_ADMIN_ROLE);\n      _setRoleAdmin(DEFAULT_ADMIN_ROLE, DEFAULT_ADMIN_ROLE);\n      _setupRole(DEFAULT_ADMIN_ROLE, msg.sender);\n\n      metaTransactionForwarder = _metaTransactionForwarder;\n    }\n\n    function mint(address receiver, uint256 amount, bytes calldata userData, bytes calldata operatorData) public onlyRole(MINTER_ROLE) {\n      _mint(receiver, amount, userData, operatorData);\n    }\n\n    function metaSend(address recipient, uint256 amount, bytes calldata data, address from) public {\n      require(msg.sender == metaTransactionForwarder);\n      _send(from, recipient, amount, data, \"\", true);\n    }\n\n\n}\n\n",
  "sourcePath": "/home/zorro/git/blockchain__general/prototype/contracts/polygon/DevLaunchersToken.sol",
  "compiler": {
    "name": "solc",
    "version": "0.8.4+commit.c7e474f2.Emscripten.clang"
  },
  "schemaVersion": "3.2.0",
  "updatedAt": "2021-07-25T20:11:25.985Z",
  "networkType": "ethereum",
  "devdoc": {
    "kind": "dev",
    "methods": {
      "allowance(address,address)": {
        "details": "See {IERC20-allowance}. Note that operator and allowance concepts are orthogonal: operators may not have allowance, and accounts with allowance may not be operators themselves."
      },
      "approve(address,uint256)": {
        "details": "See {IERC20-approve}. Note that accounts cannot have allowance issued by their operators."
      },
      "authorizeOperator(address)": {
        "details": "See {IERC777-authorizeOperator}."
      },
      "balanceOf(address)": {
        "details": "Returns the amount of tokens owned by an account (`tokenHolder`)."
      },
      "burn(uint256,bytes)": {
        "details": "See {IERC777-burn}. Also emits a {IERC20-Transfer} event for ERC20 compatibility."
      },
      "decimals()": {
        "details": "See {ERC20-decimals}. Always returns 18, as per the [ERC777 EIP](https://eips.ethereum.org/EIPS/eip-777#backward-compatibility)."
      },
      "defaultOperators()": {
        "details": "See {IERC777-defaultOperators}."
      },
      "getRoleAdmin(bytes32)": {
        "details": "Returns the admin role that controls `role`. See {grantRole} and {revokeRole}. To change a role's admin, use {_setRoleAdmin}."
      },
      "grantRole(bytes32,address)": {
        "details": "Grants `role` to `account`. If `account` had not been already granted `role`, emits a {RoleGranted} event. Requirements: - the caller must have ``role``'s admin role."
      },
      "granularity()": {
        "details": "See {IERC777-granularity}. This implementation always returns `1`."
      },
      "hasRole(bytes32,address)": {
        "details": "Returns `true` if `account` has been granted `role`."
      },
      "isOperatorFor(address,address)": {
        "details": "See {IERC777-isOperatorFor}."
      },
      "name()": {
        "details": "See {IERC777-name}."
      },
      "operatorBurn(address,uint256,bytes,bytes)": {
        "details": "See {IERC777-operatorBurn}. Emits {Burned} and {IERC20-Transfer} events."
      },
      "operatorSend(address,address,uint256,bytes,bytes)": {
        "details": "See {IERC777-operatorSend}. Emits {Sent} and {IERC20-Transfer} events."
      },
      "renounceRole(bytes32,address)": {
        "details": "Revokes `role` from the calling account. Roles are often managed via {grantRole} and {revokeRole}: this function's purpose is to provide a mechanism for accounts to lose their privileges if they are compromised (such as when a trusted device is misplaced). If the calling account had been granted `role`, emits a {RoleRevoked} event. Requirements: - the caller must be `account`."
      },
      "revokeOperator(address)": {
        "details": "See {IERC777-revokeOperator}."
      },
      "revokeRole(bytes32,address)": {
        "details": "Revokes `role` from `account`. If `account` had been granted `role`, emits a {RoleRevoked} event. Requirements: - the caller must have ``role``'s admin role."
      },
      "send(address,uint256,bytes)": {
        "details": "See {IERC777-send}. Also emits a {IERC20-Transfer} event for ERC20 compatibility."
      },
      "supportsInterface(bytes4)": {
        "details": "See {IERC165-supportsInterface}."
      },
      "symbol()": {
        "details": "See {IERC777-symbol}."
      },
      "totalSupply()": {
        "details": "See {IERC777-totalSupply}."
      },
      "transfer(address,uint256)": {
        "details": "See {IERC20-transfer}. Unlike `send`, `recipient` is _not_ required to implement the {IERC777Recipient} interface if it is a contract. Also emits a {Sent} event."
      },
      "transferFrom(address,address,uint256)": {
        "details": "See {IERC20-transferFrom}. Note that operator and allowance concepts are orthogonal: operators cannot call `transferFrom` (unless they have allowance), and accounts with allowance cannot call `operatorSend` (unless they are operators). Emits {Sent}, {IERC20-Transfer} and {IERC20-Approval} events."
      }
    },
    "version": 1
  },
  "userdoc": {
    "kind": "user",
    "methods": {},
    "version": 1
  }
}