{
  "contractName": "DevLaunchersToken",
  "abi": [
    {
      "inputs": [
        {
          "internalType": "address[]",
          "name": "_defaultOperators",
          "type": "address[]"
        }
      ],
      "stateMutability": "nonpayable",
      "type": "constructor"
    },
    {
      "anonymous": false,
      "inputs": [
        {
          "indexed": true,
          "internalType": "address",
          "name": "owner",
          "type": "address"
        },
        {
          "indexed": true,
          "internalType": "address",
          "name": "spender",
          "type": "address"
        },
        {
          "indexed": false,
          "internalType": "uint256",
          "name": "value",
          "type": "uint256"
        }
      ],
      "name": "Approval",
      "type": "event"
    },
    {
      "anonymous": false,
      "inputs": [
        {
          "indexed": true,
          "internalType": "address",
          "name": "operator",
          "type": "address"
        },
        {
          "indexed": true,
          "internalType": "address",
          "name": "tokenHolder",
          "type": "address"
        }
      ],
      "name": "AuthorizedOperator",
      "type": "event"
    },
    {
      "anonymous": false,
      "inputs": [
        {
          "indexed": true,
          "internalType": "address",
          "name": "operator",
          "type": "address"
        },
        {
          "indexed": true,
          "internalType": "address",
          "name": "from",
          "type": "address"
        },
        {
          "indexed": false,
          "internalType": "uint256",
          "name": "amount",
          "type": "uint256"
        },
        {
          "indexed": false,
          "internalType": "bytes",
          "name": "data",
          "type": "bytes"
        },
        {
          "indexed": false,
          "internalType": "bytes",
          "name": "operatorData",
          "type": "bytes"
        }
      ],
      "name": "Burned",
      "type": "event"
    },
    {
      "anonymous": false,
      "inputs": [
        {
          "indexed": true,
          "internalType": "address",
          "name": "operator",
          "type": "address"
        },
        {
          "indexed": true,
          "internalType": "address",
          "name": "to",
          "type": "address"
        },
        {
          "indexed": false,
          "internalType": "uint256",
          "name": "amount",
          "type": "uint256"
        },
        {
          "indexed": false,
          "internalType": "bytes",
          "name": "data",
          "type": "bytes"
        },
        {
          "indexed": false,
          "internalType": "bytes",
          "name": "operatorData",
          "type": "bytes"
        }
      ],
      "name": "Minted",
      "type": "event"
    },
    {
      "anonymous": false,
      "inputs": [
        {
          "indexed": true,
          "internalType": "address",
          "name": "operator",
          "type": "address"
        },
        {
          "indexed": true,
          "internalType": "address",
          "name": "tokenHolder",
          "type": "address"
        }
      ],
      "name": "RevokedOperator",
      "type": "event"
    },
    {
      "anonymous": false,
      "inputs": [
        {
          "indexed": true,
          "internalType": "bytes32",
          "name": "role",
          "type": "bytes32"
        },
        {
          "indexed": true,
          "internalType": "bytes32",
          "name": "previousAdminRole",
          "type": "bytes32"
        },
        {
          "indexed": true,
          "internalType": "bytes32",
          "name": "newAdminRole",
          "type": "bytes32"
        }
      ],
      "name": "RoleAdminChanged",
      "type": "event"
    },
    {
      "anonymous": false,
      "inputs": [
        {
          "indexed": true,
          "internalType": "bytes32",
          "name": "role",
          "type": "bytes32"
        },
        {
          "indexed": true,
          "internalType": "address",
          "name": "account",
          "type": "address"
        },
        {
          "indexed": true,
          "internalType": "address",
          "name": "sender",
          "type": "address"
        }
      ],
      "name": "RoleGranted",
      "type": "event"
    },
    {
      "anonymous": false,
      "inputs": [
        {
          "indexed": true,
          "internalType": "bytes32",
          "name": "role",
          "type": "bytes32"
        },
        {
          "indexed": true,
          "internalType": "address",
          "name": "account",
          "type": "address"
        },
        {
          "indexed": true,
          "internalType": "address",
          "name": "sender",
          "type": "address"
        }
      ],
      "name": "RoleRevoked",
      "type": "event"
    },
    {
      "anonymous": false,
      "inputs": [
        {
          "indexed": true,
          "internalType": "address",
          "name": "operator",
          "type": "address"
        },
        {
          "indexed": true,
          "internalType": "address",
          "name": "from",
          "type": "address"
        },
        {
          "indexed": true,
          "internalType": "address",
          "name": "to",
          "type": "address"
        },
        {
          "indexed": false,
          "internalType": "uint256",
          "name": "amount",
          "type": "uint256"
        },
        {
          "indexed": false,
          "internalType": "bytes",
          "name": "data",
          "type": "bytes"
        },
        {
          "indexed": false,
          "internalType": "bytes",
          "name": "operatorData",
          "type": "bytes"
        }
      ],
      "name": "Sent",
      "type": "event"
    },
    {
      "anonymous": false,
      "inputs": [
        {
          "indexed": true,
          "internalType": "address",
          "name": "from",
          "type": "address"
        },
        {
          "indexed": true,
          "internalType": "address",
          "name": "to",
          "type": "address"
        },
        {
          "indexed": false,
          "internalType": "uint256",
          "name": "value",
          "type": "uint256"
        }
      ],
      "name": "Transfer",
      "type": "event"
    },
    {
      "inputs": [],
      "name": "DEFAULT_ADMIN_ROLE",
      "outputs": [
        {
          "internalType": "bytes32",
          "name": "",
          "type": "bytes32"
        }
      ],
      "stateMutability": "view",
      "type": "function",
      "constant": true
    },
    {
      "inputs": [],
      "name": "MINTER_ROLE",
      "outputs": [
        {
          "internalType": "bytes32",
          "name": "",
          "type": "bytes32"
        }
      ],
      "stateMutability": "view",
      "type": "function",
      "constant": true
    },
    {
      "inputs": [
        {
          "internalType": "address",
          "name": "holder",
          "type": "address"
        },
        {
          "internalType": "address",
          "name": "spender",
          "type": "address"
        }
      ],
      "name": "allowance",
      "outputs": [
        {
          "internalType": "uint256",
          "name": "",
          "type": "uint256"
        }
      ],
      "stateMutability": "view",
      "type": "function",
      "constant": true
    },
    {
      "inputs": [
        {
          "internalType": "address",
          "name": "spender",
          "type": "address"
        },
        {
          "internalType": "uint256",
          "name": "value",
          "type": "uint256"
        }
      ],
      "name": "approve",
      "outputs": [
        {
          "internalType": "bool",
          "name": "",
          "type": "bool"
        }
      ],
      "stateMutability": "nonpayable",
      "type": "function"
    },
    {
      "inputs": [
        {
          "internalType": "address",
          "name": "operator",
          "type": "address"
        }
      ],
      "name": "authorizeOperator",
      "outputs": [],
      "stateMutability": "nonpayable",
      "type": "function"
    },
    {
      "inputs": [
        {
          "internalType": "address",
          "name": "tokenHolder",
          "type": "address"
        }
      ],
      "name": "balanceOf",
      "outputs": [
        {
          "internalType": "uint256",
          "name": "",
          "type": "uint256"
        }
      ],
      "stateMutability": "view",
      "type": "function",
      "constant": true
    },
    {
      "inputs": [
        {
          "internalType": "uint256",
          "name": "amount",
          "type": "uint256"
        },
        {
          "internalType": "bytes",
          "name": "data",
          "type": "bytes"
        }
      ],
      "name": "burn",
      "outputs": [],
      "stateMutability": "nonpayable",
      "type": "function"
    },
    {
      "inputs": [],
      "name": "decimals",
      "outputs": [
        {
          "internalType": "uint8",
          "name": "",
          "type": "uint8"
        }
      ],
      "stateMutability": "pure",
      "type": "function",
      "constant": true
    },
    {
      "inputs": [],
      "name": "defaultOperators",
      "outputs": [
        {
          "internalType": "address[]",
          "name": "",
          "type": "address[]"
        }
      ],
      "stateMutability": "view",
      "type": "function",
      "constant": true
    },
    {
      "inputs": [
        {
          "internalType": "bytes32",
          "name": "role",
          "type": "bytes32"
        }
      ],
      "name": "getRoleAdmin",
      "outputs": [
        {
          "internalType": "bytes32",
          "name": "",
          "type": "bytes32"
        }
      ],
      "stateMutability": "view",
      "type": "function",
      "constant": true
    },
    {
      "inputs": [
        {
          "internalType": "bytes32",
          "name": "role",
          "type": "bytes32"
        },
        {
          "internalType": "address",
          "name": "account",
          "type": "address"
        }
      ],
      "name": "grantRole",
      "outputs": [],
      "stateMutability": "nonpayable",
      "type": "function"
    },
    {
      "inputs": [],
      "name": "granularity",
      "outputs": [
        {
          "internalType": "uint256",
          "name": "",
          "type": "uint256"
        }
      ],
      "stateMutability": "view",
      "type": "function",
      "constant": true
    },
    {
      "inputs": [
        {
          "internalType": "bytes32",
          "name": "role",
          "type": "bytes32"
        },
        {
          "internalType": "address",
          "name": "account",
          "type": "address"
        }
      ],
      "name": "hasRole",
      "outputs": [
        {
          "internalType": "bool",
          "name": "",
          "type": "bool"
        }
      ],
      "stateMutability": "view",
      "type": "function",
      "constant": true
    },
    {
      "inputs": [
        {
          "internalType": "address",
          "name": "operator",
          "type": "address"
        },
        {
          "internalType": "address",
          "name": "tokenHolder",
          "type": "address"
        }
      ],
      "name": "isOperatorFor",
      "outputs": [
        {
          "internalType": "bool",
          "name": "",
          "type": "bool"
        }
      ],
      "stateMutability": "view",
      "type": "function",
      "constant": true
    },
    {
      "inputs": [],
      "name": "name",
      "outputs": [
        {
          "internalType": "string",
          "name": "",
          "type": "string"
        }
      ],
      "stateMutability": "view",
      "type": "function",
      "constant": true
    },
    {
      "inputs": [
        {
          "internalType": "address",
          "name": "account",
          "type": "address"
        },
        {
          "internalType": "uint256",
          "name": "amount",
          "type": "uint256"
        },
        {
          "internalType": "bytes",
          "name": "data",
          "type": "bytes"
        },
        {
          "internalType": "bytes",
          "name": "operatorData",
          "type": "bytes"
        }
      ],
      "name": "operatorBurn",
      "outputs": [],
      "stateMutability": "nonpayable",
      "type": "function"
    },
    {
      "inputs": [
        {
          "internalType": "address",
          "name": "sender",
          "type": "address"
        },
        {
          "internalType": "address",
          "name": "recipient",
          "type": "address"
        },
        {
          "internalType": "uint256",
          "name": "amount",
          "type": "uint256"
        },
        {
          "internalType": "bytes",
          "name": "data",
          "type": "bytes"
        },
        {
          "internalType": "bytes",
          "name": "operatorData",
          "type": "bytes"
        }
      ],
      "name": "operatorSend",
      "outputs": [],
      "stateMutability": "nonpayable",
      "type": "function"
    },
    {
      "inputs": [
        {
          "internalType": "bytes32",
          "name": "role",
          "type": "bytes32"
        },
        {
          "internalType": "address",
          "name": "account",
          "type": "address"
        }
      ],
      "name": "renounceRole",
      "outputs": [],
      "stateMutability": "nonpayable",
      "type": "function"
    },
    {
      "inputs": [
        {
          "internalType": "address",
          "name": "operator",
          "type": "address"
        }
      ],
      "name": "revokeOperator",
      "outputs": [],
      "stateMutability": "nonpayable",
      "type": "function"
    },
    {
      "inputs": [
        {
          "internalType": "bytes32",
          "name": "role",
          "type": "bytes32"
        },
        {
          "internalType": "address",
          "name": "account",
          "type": "address"
        }
      ],
      "name": "revokeRole",
      "outputs": [],
      "stateMutability": "nonpayable",
      "type": "function"
    },
    {
      "inputs": [
        {
          "internalType": "address",
          "name": "recipient",
          "type": "address"
        },
        {
          "internalType": "uint256",
          "name": "amount",
          "type": "uint256"
        },
        {
          "internalType": "bytes",
          "name": "data",
          "type": "bytes"
        }
      ],
      "name": "send",
      "outputs": [],
      "stateMutability": "nonpayable",
      "type": "function"
    },
    {
      "inputs": [
        {
          "internalType": "bytes4",
          "name": "interfaceId",
          "type": "bytes4"
        }
      ],
      "name": "supportsInterface",
      "outputs": [
        {
          "internalType": "bool",
          "name": "",
          "type": "bool"
        }
      ],
      "stateMutability": "view",
      "type": "function",
      "constant": true
    },
    {
      "inputs": [],
      "name": "symbol",
      "outputs": [
        {
          "internalType": "string",
          "name": "",
          "type": "string"
        }
      ],
      "stateMutability": "view",
      "type": "function",
      "constant": true
    },
    {
      "inputs": [],
      "name": "totalSupply",
      "outputs": [
        {
          "internalType": "uint256",
          "name": "",
          "type": "uint256"
        }
      ],
      "stateMutability": "view",
      "type": "function",
      "constant": true
    },
    {
      "inputs": [
        {
          "internalType": "address",
          "name": "recipient",
          "type": "address"
        },
        {
          "internalType": "uint256",
          "name": "amount",
          "type": "uint256"
        }
      ],
      "name": "transfer",
      "outputs": [
        {
          "internalType": "bool",
          "name": "",
          "type": "bool"
        }
      ],
      "stateMutability": "nonpayable",
      "type": "function"
    },
    {
      "inputs": [
        {
          "internalType": "address",
          "name": "holder",
          "type": "address"
        },
        {
          "internalType": "address",
          "name": "recipient",
          "type": "address"
        },
        {
          "internalType": "uint256",
          "name": "amount",
          "type": "uint256"
        }
      ],
      "name": "transferFrom",
      "outputs": [
        {
          "internalType": "bool",
          "name": "",
          "type": "bool"
        }
      ],
      "stateMutability": "nonpayable",
      "type": "function"
    },
    {
      "inputs": [
        {
          "internalType": "address",
          "name": "receiver",
          "type": "address"
        },
        {
          "internalType": "uint256",
          "name": "amount",
          "type": "uint256"
        },
        {
          "internalType": "bytes",
          "name": "userData",
          "type": "bytes"
        },
        {
          "internalType": "bytes",
          "name": "operatorData",
          "type": "bytes"
        }
      ],
      "name": "mint",
      "outputs": [],
      "stateMutability": "nonpayable",
      "type": "function"
    }
  ],
  "bytecode": "0x60806040523480156200001157600080fd5b5060405162002a8b38038062002a8b8339810160408190526200003491620004c1565b6040805180820182526004808252634445565360e01b6020808401828152855180870190965292855284015281519192918491620000769160029190620003a6565b5081516200008c906003906020850190620003a6565b508051620000a290600490602084019062000435565b5060005b81518110156200011e57600160056000848481518110620000d757634e487b7160e01b600052603260045260246000fd5b6020908102919091018101516001600160a01b03168252810191909152604001600020805460ff1916911515919091179055806200011581620005d2565b915050620000a6565b506040516329965a1d60e01b815230600482018190527fac7fbab5f54a3ca8194167523c6753bfeb96a445279294b6125b68cce217705460248301526044820152731820a4b7618bde71dce8cdc73aab6c95905fad24906329965a1d90606401600060405180830381600087803b1580156200019957600080fd5b505af1158015620001ae573d6000803e3d6000fd5b50506040516329965a1d60e01b815230600482018190527faea199e31a596269b42cdafd93407f14436db6e4cad65417994c2eb37381e05a60248301526044820152731820a4b7618bde71dce8cdc73aab6c95905fad2492506329965a1d9150606401600060405180830381600087803b1580156200022c57600080fd5b505af115801562000241573d6000803e3d6000fd5b505050505050506200027d7f9f2df0fed2c77648de5860a4cc508cd0818c85b8b8a1ab4ceeef8d981c8956a66000801b6200029e60201b60201c565b6200028a6000806200029e565b62000297600033620002f2565b5062000610565b600082815260096020526040902060010154819060405184907fbd79b86ffe0ab8e8776151514217cd7cacd52c909f66475c3af44e129f0b00ff90600090a460009182526009602052604090912060010155565b620002fe828262000302565b5050565b60008281526009602090815260408083206001600160a01b038516845290915290205460ff16620002fe5760008281526009602090815260408083206001600160a01b03851684529091529020805460ff19166001179055620003623390565b6001600160a01b0316816001600160a01b0316837f2f8788117e7eff1d82e926ec794901d17c78024a50270940304540a733656f0d60405160405180910390a45050565b828054620003b49062000595565b90600052602060002090601f016020900481019282620003d8576000855562000423565b82601f10620003f357805160ff191683800117855562000423565b8280016001018555821562000423579182015b828111156200042357825182559160200191906001019062000406565b50620004319291506200048d565b5090565b82805482825590600052602060002090810192821562000423579160200282015b828111156200042357825182546001600160a01b0319166001600160a01b0390911617825560209092019160019091019062000456565b5b808211156200043157600081556001016200048e565b80516001600160a01b0381168114620004bc57600080fd5b919050565b60006020808385031215620004d4578182fd5b82516001600160401b0380821115620004eb578384fd5b818501915085601f830112620004ff578384fd5b815181811115620005145762000514620005fa565b8060051b604051601f19603f830116810181811085821117156200053c576200053c620005fa565b604052828152858101935084860182860187018a10156200055b578788fd5b8795505b8386101562000588576200057381620004a4565b8552600195909501949386019386016200055f565b5098975050505050505050565b600181811c90821680620005aa57607f821691505b60208210811415620005cc57634e487b7160e01b600052602260045260246000fd5b50919050565b6000600019821415620005f357634e487b7160e01b81526011600452602481fd5b5060010190565b634e487b7160e01b600052604160045260246000fd5b61246b80620006206000396000f3fe608060405234801561001057600080fd5b50600436106101b95760003560e01c806391d14854116100f9578063d547741f11610097578063dd62ed3e11610071578063dd62ed3e146103c7578063fad8b32a14610400578063fc673c4f14610413578063fe9d93031461042657600080fd5b8063d547741f1461038e578063d95b6371146103a1578063dcdc7dd0146103b457600080fd5b80639bd9bbc6116100d35780639bd9bbc614610339578063a217fddf1461034c578063a9059cbb14610354578063d53913931461036757600080fd5b806391d14854146102e5578063959b8c3f1461031e57806395d89b411461033157600080fd5b8063248a9ca31161016657806336568abe1161014057806336568abe1461028f578063556f0dc7146102a257806362ad1b83146102a957806370a08231146102bc57600080fd5b8063248a9ca3146102485780632f2ff15d1461026b578063313ce5671461028057600080fd5b8063095ea7b311610197578063095ea7b31461021057806318160ddd1461022357806323b872dd1461023557600080fd5b806301ffc9a7146101be57806306e48538146101e657806306fdde03146101fb575b600080fd5b6101d16101cc366004612105565b610439565b60405190151581526020015b60405180910390f35b6101ee6104d2565b6040516101dd9190612290565b610203610534565b6040516101dd91906122dd565b6101d161021e366004611f41565b6105bd565b6001545b6040519081526020016101dd565b6101d1610243366004611e71565b6105d5565b6102276102563660046120c9565b60009081526009602052604090206001015490565b61027e6102793660046120e1565b610801565b005b604051601281526020016101dd565b61027e61029d3660046120e1565b61082c565b6001610227565b61027e6102b7366004611eb1565b6108b8565b6102276102ca366004611e01565b6001600160a01b031660009081526020819052604090205490565b6101d16102f33660046120e1565b60009182526009602090815260408084206001600160a01b0393909316845291905290205460ff1690565b61027e61032c366004611e01565b61094a565b610203610a81565b61027e610347366004611ff5565b610a90565b610227600081565b6101d1610362366004611f41565b610aae565b6102277f9f2df0fed2c77648de5860a4cc508cd0818c85b8b8a1ab4ceeef8d981c8956a681565b61027e61039c3660046120e1565b610b9d565b6101d16103af366004611e39565b610bc3565b61027e6103c2366004611f6c565b610c65565b6102276103d5366004611e39565b6001600160a01b03918216600090815260086020908152604080832093909416825291909152205490565b61027e61040e366004611e01565b610d0e565b61027e61042136600461204c565b610e46565b61027e610434366004612145565b610ed4565b60007fffffffff0000000000000000000000000000000000000000000000000000000082167f7965db0b0000000000000000000000000000000000000000000000000000000014806104cc57507f01ffc9a7000000000000000000000000000000000000000000000000000000007fffffffff000000000000000000000000000000000000000000000000000000008316145b92915050565b6060600480548060200260200160405190810160405280929190818152602001828054801561052a57602002820191906000526020600020905b81546001600160a01b0316815260019091019060200180831161050c575b5050505050905090565b606060028054610543906123b6565b80601f016020809104026020016040519081016040528092919081815260200182805461056f906123b6565b801561052a5780601f106105915761010080835404028352916020019161052a565b820191906000526020600020905b81548152906001019060200180831161059f57509395945050505050565b6000336105cb818585610eef565b5060019392505050565b60006001600160a01b03831661063e5760405162461bcd60e51b8152602060048201526024808201527f4552433737373a207472616e7366657220746f20746865207a65726f206164646044820152637265737360e01b60648201526084015b60405180910390fd5b6001600160a01b0384166106ba5760405162461bcd60e51b815260206004820152602660248201527f4552433737373a207472616e736665722066726f6d20746865207a65726f206160448201527f64647265737300000000000000000000000000000000000000000000000000006064820152608401610635565b60003390506106eb818686866040518060200160405280600081525060405180602001604052806000815250611048565b610717818686866040518060200160405280600081525060405180602001604052806000815250611197565b6001600160a01b03808616600090815260086020908152604080832093851683529290522054838110156107b35760405162461bcd60e51b815260206004820152602960248201527f4552433737373a207472616e7366657220616d6f756e7420657863656564732060448201527f616c6c6f77616e636500000000000000000000000000000000000000000000006064820152608401610635565b6107c786836107c2878561235c565b610eef565b6107f5828787876040518060200160405280600081525060405180602001604052806000815250600061131c565b50600195945050505050565b60008281526009602052604090206001015461081d8133611519565b6108278383611599565b505050565b6001600160a01b03811633146108aa5760405162461bcd60e51b815260206004820152602f60248201527f416363657373436f6e74726f6c3a2063616e206f6e6c792072656e6f756e636560448201527f20726f6c657320666f722073656c6600000000000000000000000000000000006064820152608401610635565b6108b4828261163b565b5050565b6108c23386610bc3565b6109345760405162461bcd60e51b815260206004820152602c60248201527f4552433737373a2063616c6c6572206973206e6f7420616e206f70657261746f60448201527f7220666f7220686f6c64657200000000000000000000000000000000000000006064820152608401610635565b610943858585858560016116be565b5050505050565b336001600160a01b03821614156109c85760405162461bcd60e51b8152602060048201526024808201527f4552433737373a20617574686f72697a696e672073656c66206173206f70657260448201527f61746f72000000000000000000000000000000000000000000000000000000006064820152608401610635565b6001600160a01b03811660009081526005602052604090205460ff1615610a19573360009081526007602090815260408083206001600160a01b03851684529091529020805460ff19169055610a48565b3360009081526006602090815260408083206001600160a01b03851684529091529020805460ff191660011790555b60405133906001600160a01b038316907ff4caeb2d6ca8932a215a353d0703c326ec2d81fc68170f320eb2ab49e9df61f990600090a350565b606060038054610543906123b6565b610827338484846040518060200160405280600081525060016116be565b60006001600160a01b038316610b125760405162461bcd60e51b8152602060048201526024808201527f4552433737373a207472616e7366657220746f20746865207a65726f206164646044820152637265737360e01b6064820152608401610635565b6000339050610b43818286866040518060200160405280600081525060405180602001604052806000815250611048565b610b6f818286866040518060200160405280600081525060405180602001604052806000815250611197565b6105cb818286866040518060200160405280600081525060405180602001604052806000815250600061131c565b600082815260096020526040902060010154610bb98133611519565b610827838361163b565b6000816001600160a01b0316836001600160a01b03161480610c2e57506001600160a01b03831660009081526005602052604090205460ff168015610c2e57506001600160a01b0380831660009081526007602090815260408083209387168352929052205460ff16155b80610c5e57506001600160a01b0380831660009081526006602090815260408083209387168352929052205460ff165b9392505050565b7f9f2df0fed2c77648de5860a4cc508cd0818c85b8b8a1ab4ceeef8d981c8956a6610c908133611519565b610d05878787878080601f01602080910402602001604051908101604052809392919081815260200183838082843760009201919091525050604080516020601f8b0181900481028201810190925289815292508991508890819084018382808284376000920191909152506117a192505050565b50505050505050565b6001600160a01b038116331415610d8d5760405162461bcd60e51b815260206004820152602160248201527f4552433737373a207265766f6b696e672073656c66206173206f70657261746f60448201527f72000000000000000000000000000000000000000000000000000000000000006064820152608401610635565b6001600160a01b03811660009081526005602052604090205460ff1615610de1573360009081526007602090815260408083206001600160a01b03851684529091529020805460ff19166001179055610e0d565b3360009081526006602090815260408083206001600160a01b03851684529091529020805460ff191690555b60405133906001600160a01b038316907f50546e66e5f44d728365dc3908c63bc5cfeeab470722c1677e3073a6ac294aa190600090a350565b610e503385610bc3565b610ec25760405162461bcd60e51b815260206004820152602c60248201527f4552433737373a2063616c6c6572206973206e6f7420616e206f70657261746f60448201527f7220666f7220686f6c64657200000000000000000000000000000000000000006064820152608401610635565b610ece848484846117af565b50505050565b6108b4338383604051806020016040528060008152506117af565b6001600160a01b038316610f6b5760405162461bcd60e51b815260206004820152602560248201527f4552433737373a20617070726f76652066726f6d20746865207a65726f20616460448201527f64726573730000000000000000000000000000000000000000000000000000006064820152608401610635565b6001600160a01b038216610fe75760405162461bcd60e51b815260206004820152602360248201527f4552433737373a20617070726f766520746f20746865207a65726f206164647260448201527f65737300000000000000000000000000000000000000000000000000000000006064820152608401610635565b6001600160a01b0383811660008181526008602090815260408083209487168084529482529182902085905590518481527f8c5be1e5ebec7d5bd14f71427d1e84f3dd0314c0f7b2291e5b200ac8c7c3b925910160405180910390a3505050565b60405163555ddc6560e11b81526001600160a01b03861660048201527f29ddb589b1fb5fc7cf394961c1adf5f8c6454761adf795e67fe149f658abe8956024820152600090731820a4b7618bde71dce8cdc73aab6c95905fad249063aabbb8ca9060440160206040518083038186803b1580156110c457600080fd5b505afa1580156110d8573d6000803e3d6000fd5b505050506040513d601f19601f820116820180604052508101906110fc9190611e1d565b90506001600160a01b03811615610d05576040517f75ab97820000000000000000000000000000000000000000000000000000000081526001600160a01b038216906375ab97829061115c908a908a908a908a908a908a90600401612237565b600060405180830381600087803b15801561117657600080fd5b505af115801561118a573d6000803e3d6000fd5b5050505050505050505050565b6001600160a01b038516600090815260208190526040902054838110156112265760405162461bcd60e51b815260206004820152602760248201527f4552433737373a207472616e7366657220616d6f756e7420657863656564732060448201527f62616c616e6365000000000000000000000000000000000000000000000000006064820152608401610635565b611230848261235c565b6001600160a01b038088166000908152602081905260408082209390935590871681529081208054869290611266908490612325565b92505081905550846001600160a01b0316866001600160a01b0316886001600160a01b03167f06b541ddaa720db2b10a4d0cdac39b8d360425fc073085fac19bc826146779878787876040516112be939291906122f0565b60405180910390a4846001600160a01b0316866001600160a01b03167fddf252ad1be2c89b69c2b068fc378daa952ba7f163c4a11628f55a4df523b3ef8660405161130b91815260200190565b60405180910390a350505050505050565b60405163555ddc6560e11b81526001600160a01b03861660048201527fb281fc8c12954d22544db45de3159a39272895b169a852b314f9cc762e44c53b6024820152600090731820a4b7618bde71dce8cdc73aab6c95905fad249063aabbb8ca9060440160206040518083038186803b15801561139857600080fd5b505afa1580156113ac573d6000803e3d6000fd5b505050506040513d601f19601f820116820180604052508101906113d09190611e1d565b90506001600160a01b03811615611465576040517e23de290000000000000000000000000000000000000000000000000000000081526001600160a01b038216906223de299061142e908b908b908b908b908b908b90600401612237565b600060405180830381600087803b15801561144857600080fd5b505af115801561145c573d6000803e3d6000fd5b5050505061150f565b811561150f576001600160a01b0386163b1561150f5760405162461bcd60e51b815260206004820152604d60248201527f4552433737373a20746f6b656e20726563697069656e7420636f6e747261637460448201527f20686173206e6f20696d706c656d656e74657220666f7220455243373737546f60648201527f6b656e73526563697069656e7400000000000000000000000000000000000000608482015260a401610635565b5050505050505050565b60008281526009602090815260408083206001600160a01b038516845290915290205460ff166108b457611557816001600160a01b03166014611987565b611562836020611987565b6040516020016115739291906121b6565b60408051601f198184030181529082905262461bcd60e51b8252610635916004016122dd565b60008281526009602090815260408083206001600160a01b038516845290915290205460ff166108b45760008281526009602090815260408083206001600160a01b03851684529091529020805460ff191660011790556115f73390565b6001600160a01b0316816001600160a01b0316837f2f8788117e7eff1d82e926ec794901d17c78024a50270940304540a733656f0d60405160405180910390a45050565b60008281526009602090815260408083206001600160a01b038516845290915290205460ff16156108b45760008281526009602090815260408083206001600160a01b0385168085529252808320805460ff1916905551339285917ff6391f5c32d9c69d2a47ea670b442974b53935d1edc7fd64eb21e047a839171b9190a45050565b6001600160a01b03861661171f5760405162461bcd60e51b815260206004820152602260248201527f4552433737373a2073656e642066726f6d20746865207a65726f206164647265604482015261737360f01b6064820152608401610635565b6001600160a01b0385166117755760405162461bcd60e51b815260206004820181905260248201527f4552433737373a2073656e6420746f20746865207a65726f20616464726573736044820152606401610635565b33611784818888888888611048565b611792818888888888611197565b610d058188888888888861131c565b610ece848484846001611bf6565b6001600160a01b0384166118105760405162461bcd60e51b815260206004820152602260248201527f4552433737373a206275726e2066726f6d20746865207a65726f206164647265604482015261737360f01b6064820152608401610635565b3361182081866000878787611048565b6001600160a01b038516600090815260208190526040902054848110156118af5760405162461bcd60e51b815260206004820152602360248201527f4552433737373a206275726e20616d6f756e7420657863656564732062616c6160448201527f6e636500000000000000000000000000000000000000000000000000000000006064820152608401610635565b6118b9858261235c565b6001600160a01b038716600090815260208190526040812091909155600180548792906118e790849061235c565b92505081905550856001600160a01b0316826001600160a01b03167fa78a9be3a7b862d26933ad85fb11d80ef66b8f972d7cbba06621d583943a4098878787604051611935939291906122f0565b60405180910390a36040518581526000906001600160a01b038816907fddf252ad1be2c89b69c2b068fc378daa952ba7f163c4a11628f55a4df523b3ef906020015b60405180910390a3505050505050565b6060600061199683600261233d565b6119a1906002612325565b67ffffffffffffffff8111156119c757634e487b7160e01b600052604160045260246000fd5b6040519080825280601f01601f1916602001820160405280156119f1576020820181803683370190505b5090507f300000000000000000000000000000000000000000000000000000000000000081600081518110611a3657634e487b7160e01b600052603260045260246000fd5b60200101907effffffffffffffffffffffffffffffffffffffffffffffffffffffffffffff1916908160001a9053507f780000000000000000000000000000000000000000000000000000000000000081600181518110611aa757634e487b7160e01b600052603260045260246000fd5b60200101907effffffffffffffffffffffffffffffffffffffffffffffffffffffffffffff1916908160001a9053506000611ae384600261233d565b611aee906001612325565b90505b6001811115611ba7577f303132333435363738396162636465660000000000000000000000000000000085600f1660108110611b3d57634e487b7160e01b600052603260045260246000fd5b1a60f81b828281518110611b6157634e487b7160e01b600052603260045260246000fd5b60200101907effffffffffffffffffffffffffffffffffffffffffffffffffffffffffffff1916908160001a90535060049490941c93611ba08161239f565b9050611af1565b508315610c5e5760405162461bcd60e51b815260206004820181905260248201527f537472696e67733a20686578206c656e67746820696e73756666696369656e746044820152606401610635565b6001600160a01b038516611c4c5760405162461bcd60e51b815260206004820181905260248201527f4552433737373a206d696e7420746f20746865207a65726f20616464726573736044820152606401610635565b60003390508460016000828254611c639190612325565b90915550506001600160a01b03861660009081526020819052604081208054879290611c90908490612325565b90915550611ca69050816000888888888861131c565b856001600160a01b0316816001600160a01b03167f2fe5be0146f74c5bce36c0b80911af6c7d86ff27e89d5cfa61fc681327954e5d878787604051611ced939291906122f0565b60405180910390a36040518581526001600160a01b038716906000907fddf252ad1be2c89b69c2b068fc378daa952ba7f163c4a11628f55a4df523b3ef90602001611977565b60008083601f840112611d44578182fd5b50813567ffffffffffffffff811115611d5b578182fd5b602083019150836020828501011115611d7357600080fd5b9250929050565b600082601f830112611d8a578081fd5b813567ffffffffffffffff80821115611da557611da5612407565b604051601f8301601f19908116603f01168101908282118183101715611dcd57611dcd612407565b81604052838152866020858801011115611de5578485fd5b8360208701602083013792830160200193909352509392505050565b600060208284031215611e12578081fd5b8135610c5e8161241d565b600060208284031215611e2e578081fd5b8151610c5e8161241d565b60008060408385031215611e4b578081fd5b8235611e568161241d565b91506020830135611e668161241d565b809150509250929050565b600080600060608486031215611e85578081fd5b8335611e908161241d565b92506020840135611ea08161241d565b929592945050506040919091013590565b600080600080600060a08688031215611ec8578081fd5b8535611ed38161241d565b94506020860135611ee38161241d565b935060408601359250606086013567ffffffffffffffff80821115611f06578283fd5b611f1289838a01611d7a565b93506080880135915080821115611f27578283fd5b50611f3488828901611d7a565b9150509295509295909350565b60008060408385031215611f53578182fd5b8235611f5e8161241d565b946020939093013593505050565b60008060008060008060808789031215611f84578081fd5b8635611f8f8161241d565b955060208701359450604087013567ffffffffffffffff80821115611fb2578283fd5b611fbe8a838b01611d33565b90965094506060890135915080821115611fd6578283fd5b50611fe389828a01611d33565b979a9699509497509295939492505050565b600080600060608486031215612009578283fd5b83356120148161241d565b925060208401359150604084013567ffffffffffffffff811115612036578182fd5b61204286828701611d7a565b9150509250925092565b60008060008060808587031215612061578384fd5b843561206c8161241d565b935060208501359250604085013567ffffffffffffffff8082111561208f578384fd5b61209b88838901611d7a565b935060608701359150808211156120b0578283fd5b506120bd87828801611d7a565b91505092959194509250565b6000602082840312156120da578081fd5b5035919050565b600080604083850312156120f3578182fd5b823591506020830135611e668161241d565b600060208284031215612116578081fd5b81357fffffffff0000000000000000000000000000000000000000000000000000000081168114610c5e578182fd5b60008060408385031215612157578081fd5b82359150602083013567ffffffffffffffff811115612174578182fd5b61218085828601611d7a565b9150509250929050565b600081518084526121a2816020860160208601612373565b601f01601f19169290920160200192915050565b7f416363657373436f6e74726f6c3a206163636f756e74200000000000000000008152600083516121ee816017850160208801612373565b7f206973206d697373696e6720726f6c6520000000000000000000000000000000601791840191820152835161222b816028840160208801612373565b01602801949350505050565b60006001600160a01b038089168352808816602084015280871660408401525084606083015260c0608083015261227160c083018561218a565b82810360a0840152612283818561218a565b9998505050505050505050565b6020808252825182820181905260009190848201906040850190845b818110156122d15783516001600160a01b0316835292840192918401916001016122ac565b50909695505050505050565b602081526000610c5e602083018461218a565b838152606060208201526000612309606083018561218a565b828103604084015261231b818561218a565b9695505050505050565b60008219821115612338576123386123f1565b500190565b6000816000190483118215151615612357576123576123f1565b500290565b60008282101561236e5761236e6123f1565b500390565b60005b8381101561238e578181015183820152602001612376565b83811115610ece5750506000910152565b6000816123ae576123ae6123f1565b506000190190565b600181811c908216806123ca57607f821691505b602082108114156123eb57634e487b7160e01b600052602260045260246000fd5b50919050565b634e487b7160e01b600052601160045260246000fd5b634e487b7160e01b600052604160045260246000fd5b6001600160a01b038116811461243257600080fd5b5056fea2646970667358221220c31f6c768f06adbe512a820f23c3d1920af2dcbcb170854957902c1dc8355a6564736f6c63430008040033",
  "immutableReferences": {},
  "source": "// SPDX-License-Identifier: MIT\npragma solidity ^0.8.0;\n\nimport \"@openzeppelin/contracts/access/AccessControl.sol\";\nimport \"@openzeppelin/contracts/token/ERC777/ERC777.sol\";\n\ncontract DevLaunchersToken is ERC777, AccessControl {\n\n  bytes32 public constant MINTER_ROLE = keccak256(\"MINTER_ROLE\");\n\n  constructor(address[] memory _defaultOperators)\n    ERC777(\"DEVS\", \"DEVS\", _defaultOperators)\n    {\n      _setRoleAdmin(MINTER_ROLE, DEFAULT_ADMIN_ROLE);\n      _setRoleAdmin(DEFAULT_ADMIN_ROLE, DEFAULT_ADMIN_ROLE);\n      _setupRole(DEFAULT_ADMIN_ROLE, msg.sender);\n    }\n\n    function mint(address receiver, uint256 amount, bytes calldata userData, bytes calldata operatorData) public onlyRole(MINTER_ROLE) {\n      _mint(receiver, amount, userData, operatorData);\n    }\n\n}\n",
  "sourcePath": "/home/zorro/git/blockchain__general/prototype/contracts/polygon/DevLaunchersToken.sol",
  "compiler": {
    "name": "solc",
    "version": "0.8.4+commit.c7e474f2.Emscripten.clang"
  },
  "schemaVersion": "3.2.0",
  "updatedAt": "2021-06-25T10:01:04.818Z",
  "networkType": "ethereum",
  "devdoc": {
    "kind": "dev",
    "methods": {
      "allowance(address,address)": {
        "details": "See {IERC20-allowance}. Note that operator and allowance concepts are orthogonal: operators may not have allowance, and accounts with allowance may not be operators themselves."
      },
      "approve(address,uint256)": {
        "details": "See {IERC20-approve}. Note that accounts cannot have allowance issued by their operators."
      },
      "authorizeOperator(address)": {
        "details": "See {IERC777-authorizeOperator}."
      },
      "balanceOf(address)": {
        "details": "Returns the amount of tokens owned by an account (`tokenHolder`)."
      },
      "burn(uint256,bytes)": {
        "details": "See {IERC777-burn}. Also emits a {IERC20-Transfer} event for ERC20 compatibility."
      },
      "decimals()": {
        "details": "See {ERC20-decimals}. Always returns 18, as per the [ERC777 EIP](https://eips.ethereum.org/EIPS/eip-777#backward-compatibility)."
      },
      "defaultOperators()": {
        "details": "See {IERC777-defaultOperators}."
      },
      "getRoleAdmin(bytes32)": {
        "details": "Returns the admin role that controls `role`. See {grantRole} and {revokeRole}. To change a role's admin, use {_setRoleAdmin}."
      },
      "grantRole(bytes32,address)": {
        "details": "Grants `role` to `account`. If `account` had not been already granted `role`, emits a {RoleGranted} event. Requirements: - the caller must have ``role``'s admin role."
      },
      "granularity()": {
        "details": "See {IERC777-granularity}. This implementation always returns `1`."
      },
      "hasRole(bytes32,address)": {
        "details": "Returns `true` if `account` has been granted `role`."
      },
      "isOperatorFor(address,address)": {
        "details": "See {IERC777-isOperatorFor}."
      },
      "name()": {
        "details": "See {IERC777-name}."
      },
      "operatorBurn(address,uint256,bytes,bytes)": {
        "details": "See {IERC777-operatorBurn}. Emits {Burned} and {IERC20-Transfer} events."
      },
      "operatorSend(address,address,uint256,bytes,bytes)": {
        "details": "See {IERC777-operatorSend}. Emits {Sent} and {IERC20-Transfer} events."
      },
      "renounceRole(bytes32,address)": {
        "details": "Revokes `role` from the calling account. Roles are often managed via {grantRole} and {revokeRole}: this function's purpose is to provide a mechanism for accounts to lose their privileges if they are compromised (such as when a trusted device is misplaced). If the calling account had been granted `role`, emits a {RoleRevoked} event. Requirements: - the caller must be `account`."
      },
      "revokeOperator(address)": {
        "details": "See {IERC777-revokeOperator}."
      },
      "revokeRole(bytes32,address)": {
        "details": "Revokes `role` from `account`. If `account` had been granted `role`, emits a {RoleRevoked} event. Requirements: - the caller must have ``role``'s admin role."
      },
      "send(address,uint256,bytes)": {
        "details": "See {IERC777-send}. Also emits a {IERC20-Transfer} event for ERC20 compatibility."
      },
      "supportsInterface(bytes4)": {
        "details": "See {IERC165-supportsInterface}."
      },
      "symbol()": {
        "details": "See {IERC777-symbol}."
      },
      "totalSupply()": {
        "details": "See {IERC777-totalSupply}."
      },
      "transfer(address,uint256)": {
        "details": "See {IERC20-transfer}. Unlike `send`, `recipient` is _not_ required to implement the {IERC777Recipient} interface if it is a contract. Also emits a {Sent} event."
      },
      "transferFrom(address,address,uint256)": {
        "details": "See {IERC20-transferFrom}. Note that operator and allowance concepts are orthogonal: operators cannot call `transferFrom` (unless they have allowance), and accounts with allowance cannot call `operatorSend` (unless they are operators). Emits {Sent}, {IERC20-Transfer} and {IERC20-Approval} events."
      }
    },
    "version": 1
  },
  "userdoc": {
    "kind": "user",
    "methods": {},
    "version": 1
  }
}