{
  "contractName": "EIP712Forwarder",
  "abi": [
    {
      "inputs": [
        {
          "components": [
            {
              "internalType": "address",
              "name": "from",
              "type": "address"
            },
            {
              "internalType": "address",
              "name": "to",
              "type": "address"
            },
            {
              "internalType": "uint256",
              "name": "chainId",
              "type": "uint256"
            },
            {
              "internalType": "address",
              "name": "replayProtection",
              "type": "address"
            },
            {
              "internalType": "bytes",
              "name": "nonce",
              "type": "bytes"
            },
            {
              "internalType": "bytes",
              "name": "data",
              "type": "bytes"
            },
            {
              "internalType": "bytes32",
              "name": "innerMessageHash",
              "type": "bytes32"
            }
          ],
          "internalType": "struct Forwarder.Message",
          "name": "message",
          "type": "tuple"
        },
        {
          "internalType": "enum Forwarder.SignatureType",
          "name": "signatureType",
          "type": "uint8"
        },
        {
          "internalType": "bytes",
          "name": "signature",
          "type": "bytes"
        }
      ],
      "name": "forward",
      "outputs": [],
      "stateMutability": "payable",
      "type": "function",
      "payable": true
    },
    {
      "inputs": [
        {
          "components": [
            {
              "internalType": "address",
              "name": "to",
              "type": "address"
            },
            {
              "internalType": "bytes",
              "name": "data",
              "type": "bytes"
            },
            {
              "internalType": "uint256",
              "name": "value",
              "type": "uint256"
            }
          ],
          "internalType": "struct EIP712Forwarder.Call[]",
          "name": "calls",
          "type": "tuple[]"
        }
      ],
      "name": "batch",
      "outputs": [],
      "stateMutability": "payable",
      "type": "function",
      "payable": true
    },
    {
      "inputs": [
        {
          "internalType": "address",
          "name": "signer",
          "type": "address"
        },
        {
          "internalType": "bytes",
          "name": "nonce",
          "type": "bytes"
        }
      ],
      "name": "checkAndUpdateNonce",
      "outputs": [
        {
          "internalType": "bool",
          "name": "",
          "type": "bool"
        }
      ],
      "stateMutability": "nonpayable",
      "type": "function"
    },
    {
      "inputs": [
        {
          "internalType": "address",
          "name": "signer",
          "type": "address"
        },
        {
          "internalType": "uint128",
          "name": "batchId",
          "type": "uint128"
        }
      ],
      "name": "getNonce",
      "outputs": [
        {
          "internalType": "uint128",
          "name": "",
          "type": "uint128"
        }
      ],
      "stateMutability": "view",
      "type": "function",
      "constant": true
    }
  ],
  "bytecode": "0x608060405234801561001057600080fd5b506112d1806100206000396000f3fe60806040526004361061003f5760003560e01c806364f5244914610044578063b35b046f14610059578063b44581d91461008e578063fc54a5b814610105575b600080fd5b610057610052366004610f11565b610118565b005b34801561006557600080fd5b50610079610074366004610d52565b610317565b60405190151581526020015b60405180910390f35b34801561009a57600080fd5b506100e46100a9366004610d9e565b6001600160a01b03919091166000908152602081815260408083206fffffffffffffffffffffffffffffffff94851684529091529020541690565b6040516fffffffffffffffffffffffffffffffff9091168152602001610085565b610057610113366004610de8565b610438565b604083015146146101705760405162461bcd60e51b815260206004820152601060248201527f494e56414c49445f434841494e5f49440000000000000000000000000000000060448201526064015b60405180910390fd5b61017b838383610584565b5060608301516001600160a01b031615806101a2575060608301516001600160a01b031630145b1561020a576101b983600001518460800151610317565b6102055760405162461bcd60e51b815260206004820152600d60248201527f4e4f4e43455f494e56414c4944000000000000000000000000000000000000006044820152606401610167565b6102fa565b6060830151835160808501516040517fb35b046f0000000000000000000000000000000000000000000000000000000081526001600160a01b039093169263b35b046f9261025c9290916004016110c2565b602060405180830381600087803b15801561027657600080fd5b505af115801561028a573d6000803e3d6000fd5b505050506040513d601f19601f820116820180604052508101906102ae9190610eaa565b6102fa5760405162461bcd60e51b815260206004820152600d60248201527f4e4f4e43455f494e56414c4944000000000000000000000000000000000000006044820152606401610167565b61031283600001518460200151348660a00151610a11565b505050565b6000808280602001905181019061032e9190611018565b9050600061034d700100000000000000000000000000000000836111e6565b9050600061036c70010000000000000000000000000000000084611245565b6001600160a01b0387166000908152602081815260408083206fffffffffffffffffffffffffffffffff8088168552925290912054919250908116908216811415610429576103bc81600161118d565b6001600160a01b0388166000908152602081815260408083206fffffffffffffffffffffffffffffffff9788168452909152902080547fffffffffffffffffffffffffffffffff000000000000000000000000000000001691909416179092555060019250610432915050565b60009450505050505b92915050565b3330146104875760405162461bcd60e51b815260206004820152600e60248201527f464f525741524445525f4f4e4c590000000000000000000000000000000000006044820152606401610167565b6000806000368080601f016020809104026020016040519081016040528093929190818152602001838380828437600092018290525036808601516001600160a01b03169750949550925050505b845181101561057d5761056b8486838151811061050257634e487b7160e01b600052603260045260246000fd5b60200260200101516000015187848151811061052e57634e487b7160e01b600052603260045260246000fd5b60200260200101516040015188858151811061055a57634e487b7160e01b600052603260045260246000fd5b602002602001015160200151610a11565b806105758161122a565b9150506104d5565b5050505050565b604080517fb03948446334eb9b2196d5eb166f69b9d49403eb4a12f36de8d3f9f3cb8e15c36020808301919091527f120599714c0efa8b82451455fbd88d8790bed40fbd0f47a2ae400fac3d912425828401527fc89efdaa54c0f20c7adf612882df0950f5a951637e0307cdcb4c672f298b8bc6606080840191909152835180840382018152608080850186528151918401919091208851848a0151878b0151948b0151938b015180519087012060a0808d015180519089012060c0808f01517f9fecc83e430d2067fcd82c70b88e61530e628707a3face3cf0642523b28f7228938c01939093526001600160a01b03958616908b015292841660e08a0152346101008a0152610120890196909652919093166101408701526101608601526101808501919091526101a080850192909252845180850390920182526101c084018552815191909201207f19010000000000000000000000000000000000000000000000000000000000006101e08401526101e28301919091526102028083019190915282518083039091018152610222909101909152600090600284600281111561074057634e487b7160e01b600052602160045260246000fd5b14156108545784516040517f20c13b0b00000000000000000000000000000000000000000000000000000000808252916001600160a01b0316906320c13b0b906107909085908890600401611105565b60206040518083038186803b1580156107a857600080fd5b505afa1580156107bc573d6000803e3d6000fd5b505050506040513d601f19601f820116820180604052508101906107e09190610ed1565b7fffffffff00000000000000000000000000000000000000000000000000000000161461084f5760405162461bcd60e51b815260206004820152601660248201527f5349474e41545552455f313237315f494e56414c4944000000000000000000006044820152606401610167565b610a07565b600184600281111561087657634e487b7160e01b600052602160045260246000fd5b141561098b578451815160208301206040517f1626ba7e00000000000000000000000000000000000000000000000000000000808252926001600160a01b031691631626ba7e916108cc919088906004016110ec565b60206040518083038186803b1580156108e457600080fd5b505afa1580156108f8573d6000803e3d6000fd5b505050506040513d601f19601f8201168201806040525081019061091c9190610ed1565b7fffffffff00000000000000000000000000000000000000000000000000000000161461084f5760405162461bcd60e51b815260206004820152601660248201527f5349474e41545552455f313635345f494e56414c4944000000000000000000006044820152606401610167565b600061099e828051906020012085610aa1565b905085600001516001600160a01b0316816001600160a01b031614610a055760405162461bcd60e51b815260206004820152601660248201527f5349474e41545552455f57524f4e475f5349474e4552000000000000000000006044820152606401610167565b505b5050915192915050565b6000836001600160a01b0316838387604051602001610a31929190611078565b60408051601f1981840301815290829052610a4b9161105c565b60006040518083038185875af1925050503d8060008114610a88576040519150601f19603f3d011682016040523d82523d6000602084013e610a8d565b606091505b505090508061057d573d806000803e806000fd5b60008151604114610af45760405162461bcd60e51b815260206004820152601860248201527f5349474e41545552455f494e56414c49445f4c454e47544800000000000000006044820152606401610167565b60208201516040830151606084015160001a601b811015610b1d57610b1a601b826111c1565b90505b8060ff16601b1480610b3257508060ff16601c145b610b7e5760405162461bcd60e51b815260206004820152601360248201527f5349474e41545552455f494e56414c49445f56000000000000000000000000006044820152606401610167565b60408051600081526020810180835288905260ff831691810191909152606081018490526080810183905260019060a0016020604051602081039080840390855afa158015610bd1573d6000803e3d6000fd5b5050604051601f1901519450506001600160a01b038416610c345760405162461bcd60e51b815260206004820152601660248201527f5349474e41545552455f5a45524f5f41444452455353000000000000000000006044820152606401610167565b50505092915050565b80356001600160a01b0381168114610c5457600080fd5b919050565b600082601f830112610c69578081fd5b813567ffffffffffffffff811115610c8357610c83611285565b610c96601f8201601f191660200161115c565b818152846020838601011115610caa578283fd5b816020850160208301379081016020019190915292915050565b803560038110610c5457600080fd5b600060608284031215610ce4578081fd5b6040516060810167ffffffffffffffff8282108183111715610d0857610d08611285565b81604052829350610d1885610c3d565b83526020850135915080821115610d2e57600080fd5b50610d3b85828601610c59565b602083015250604083013560408201525092915050565b60008060408385031215610d64578182fd5b610d6d83610c3d565b9150602083013567ffffffffffffffff811115610d88578182fd5b610d9485828601610c59565b9150509250929050565b60008060408385031215610db0578182fd5b610db983610c3d565b915060208301356fffffffffffffffffffffffffffffffff81168114610ddd578182fd5b809150509250929050565b60006020808385031215610dfa578182fd5b823567ffffffffffffffff80821115610e11578384fd5b818501915085601f830112610e24578384fd5b813581811115610e3657610e36611285565b8060051b610e4585820161115c565b8281528581019085870183870188018b1015610e5f578889fd5b8893505b84841015610e9c57803586811115610e7957898afd5b610e878c8a838b0101610cd3565b84525060019390930192918701918701610e63565b509998505050505050505050565b600060208284031215610ebb578081fd5b81518015158114610eca578182fd5b9392505050565b600060208284031215610ee2578081fd5b81517fffffffff0000000000000000000000000000000000000000000000000000000081168114610eca578182fd5b600080600060608486031215610f25578081fd5b833567ffffffffffffffff80821115610f3c578283fd5b9085019060e08288031215610f4f578283fd5b610f57611133565b610f6083610c3d565b8152610f6e60208401610c3d565b602082015260408301356040820152610f8960608401610c3d565b6060820152608083013582811115610f9f578485fd5b610fab89828601610c59565b60808301525060a083013582811115610fc2578485fd5b610fce89828601610c59565b60a08301525060c083810135908201529450610fec60208701610cc4565b93506040860135915080821115611001578283fd5b5061100e86828701610c59565b9150509250925092565b600060208284031215611029578081fd5b5051919050565b600081518084526110488160208601602086016111fa565b601f01601f19169290920160200192915050565b6000825161106e8184602087016111fa565b9190910192915050565b6000835161108a8184602088016111fa565b60609390931b7fffffffffffffffffffffffffffffffffffffffff000000000000000000000000169190920190815260140192915050565b6001600160a01b03831681526040602082015260006110e46040830184611030565b949350505050565b8281526040602082015260006110e46040830184611030565b6040815260006111186040830185611030565b828103602084015261112a8185611030565b95945050505050565b60405160e0810167ffffffffffffffff8111828210171561115657611156611285565b60405290565b604051601f8201601f1916810167ffffffffffffffff8111828210171561118557611185611285565b604052919050565b60006fffffffffffffffffffffffffffffffff8083168185168083038211156111b8576111b8611259565b01949350505050565b600060ff821660ff84168060ff038211156111de576111de611259565b019392505050565b6000826111f5576111f561126f565b500490565b60005b838110156112155781810151838201526020016111fd565b83811115611224576000848401525b50505050565b600060001982141561123e5761123e611259565b5060010190565b6000826112545761125461126f565b500690565b634e487b7160e01b600052601160045260246000fd5b634e487b7160e01b600052601260045260246000fd5b634e487b7160e01b600052604160045260246000fdfea2646970667358221220cd4664ef061b3974555836ee5d9d169e5e5db0fe71417e94315c380f6517f24764736f6c63430008040033",
  "immutableReferences": {},
  "source": "/* EIP-2585 Minimal Native Meta Transaction Forwarder\n * This standard defines a universal native meta transaction smart contract\n * that accept specially crafted Externally Owned Accounts (EOA) signed message\n * to forward to receiver contract via third parties.\n *\n * Written in 2020 by Ronan Sandford\n *\n * To the extent possible under law, the author(s) have dedicated all copyright\n * and related and neighboring rights to this software to the public domain\n * worldwide. This software is distributed without any warranty.\n *\n * You should have received a copy of the CC0 Public Domain Dedication along\n * with this software. If not, see\n * <https://creativecommons.org/publicdomain/zero/1.0/>.\n *    \n *       .-''-.  .-./`) .-------.               .`````-.  ,--------.     .-''''-.  ,--------.   \n *     .'_ _   \\ \\ .-.')\\  _(`)_ \\             /   ,-.  \\ |   _____|    /  _--.  \\ |   _____|   \n *    / ( ` )   '/ `-' \\| (_ o._)|            (___/  |   ||  )          |_( )_ ' | |  )         \n *   . (_ o _)  | `-'`\"`|  (_,_) /_ _    _ _        .'  / |  '----.     (_ o _). / |  '----.    \n *   |  (_,_)___| .---. |   '-.-'( ' )--( ' )   _.-'_.-'  |_.._ _  '.  .'(_,_).  `.|_.._ _  '.  \n *   '  \\   .---. |   | |   |   (_{;}_)(_{;}_)_/_  .'        ( ' )   \\|_( )_    \\  |  ( ' )   \\ \n *    \\  `-'    / |   | |   |    (_,_)--(_,_)( ' )(__..--. _(_{;}_)  |(_ o _)   /  |_(_{;}_)  | \n *     \\       /  |   | /   )               (_{;}_)      ||  (_,_)  /  (_,_)..-' .'|  (_,_)  /  \n *      `'-..-'   '---' `---'                (_,_)-------' `...__..'     `-....-'   `...__..'   \n *                                                                                           \n *  \n *\n */\npragma solidity ^0.8;\npragma experimental ABIEncoderV2;\n\ninterface ERC1271 {\n    function isValidSignature(bytes calldata data, bytes calldata signature) external view returns (bytes4 magicValue);\n}\n\ninterface ERC1654 {\n   function isValidSignature(bytes32 hash, bytes calldata signature) external view returns (bytes4 magicValue);\n}\n\ninterface ReplayProtection {\n    function checkAndUpdateNonce(address signer, bytes calldata nonce) external returns (bool);\n}\n\ninterface Forwarder {\n\n    enum SignatureType { DIRECT, EIP1654, EIP1271 }\n\n    struct Message {\n        address from;\n        address to;\n        uint256 chainId;\n        address replayProtection;\n        bytes nonce;\n        bytes data;\n        bytes32 innerMessageHash;\n\t}\n\n    function forward(\n        Message calldata message,\n        SignatureType signatureType,\n        bytes calldata signature\n    ) external payable;\n}\n\nlibrary SigUtil {\n    function recover(bytes32 hash, bytes memory sig) internal pure returns (address recovered) {\n        require(sig.length == 65, \"SIGNATURE_INVALID_LENGTH\");\n\n        bytes32 r;\n        bytes32 s;\n        uint8 v;\n        assembly {\n            r := mload(add(sig, 32))\n            s := mload(add(sig, 64))\n            v := byte(0, mload(add(sig, 96)))\n        }\n\n        // Version of signature should be 27 or 28, but 0 and 1 are also possible versions\n        if (v < 27) {\n            v += 27;\n        }\n        require(v == 27 || v == 28, \"SIGNATURE_INVALID_V\");\n\n        recovered = ecrecover(hash, v, r, s);\n        require(recovered != address(0), \"SIGNATURE_ZERO_ADDRESS\");\n    }\n\n    function eth_sign_prefix(bytes32 hash) internal pure returns (bytes memory) {\n        return abi.encodePacked(\"\\x19Ethereum Signed Message:\\n32\", hash);\n    }\n}\n\n/// @notice Forwarder for Meta Transactions Using EIP712 Signing Standard, also implement default Replay Protection using 2 dimensional nonces\ncontract EIP712Forwarder is Forwarder, ReplayProtection {\n\n    // ///////////////////////////// FORWARDING EOA META TRANSACTION ///////////////////////////////////\n\n    bytes4 internal constant ERC1271_MAGICVALUE = 0x20c13b0b;\n    bytes4 internal constant ERC1654_MAGICVALUE = 0x1626ba7e;\n\n    /// @notice forward call from EOA signed message\n    /// @param message.from address from which the message come from (For EOA this is the same as signer)\n    /// @param message.to target of the call\n    /// @param message.replayProtection contract address that check and update nonce\n    /// @param message.nonce nonce value\n    /// @param message.data call data\n    /// @param message.innerMessageHash extra data hashed that can be used as embedded message for implementing more complex scenario, with one sig\n    /// @param signatureType signatureType either EOA, EIP1271 or EIP1654\n    /// @param signature signature\n    function forward(\n        Message memory message,\n        SignatureType signatureType,\n        bytes memory signature\n    ) public override payable { // external with ABIEncoderV2 Struct is not supported in solidity < 0.6.4\n        require(_isValidChainId(message.chainId), \"INVALID_CHAIN_ID\");\n        _checkSigner(message, signatureType, signature);\n        // optimization to avoid call if using default nonce strategy\n        // this contract implements a default nonce strategy and can be called directly\n        if (message.replayProtection == address(0) || message.replayProtection == address(this)) {\n            require(checkAndUpdateNonce(message.from, message.nonce), \"NONCE_INVALID\");\n        } else {\n            require(ReplayProtection(message.replayProtection).checkAndUpdateNonce(message.from, message.nonce), \"NONCE_INVALID\");\n        }\n\n        _call(message.from, message.to, msg.value, message.data);\n    }\n\n\n    // /////////////////////////////////// BATCH CALL /////////////////////////////////////\n\n    struct Call {\n        address to;\n        bytes data;\n        uint256 value;\n    }\n\n    /// @notice batcher function that can be called as part of a meta transaction (allowing to batch call atomically)\n    /// @param calls list of call data and destination\n    function batch(Call[] memory calls) public payable { // external with ABIEncoderV2 Struct is not supported in solidity < 0.6.4\n        require(msg.sender == address(this), \"FORWARDER_ONLY\");\n        address signer;\n        bytes memory data = msg.data;\n        uint256 length = msg.data.length;\n        assembly { signer := and(mload(sub(add(data, length), 0x00)), 0xffffffffffffffffffffffffffffffffffffffff) }\n        for(uint256 i = 0; i < calls.length; i++) {\n            _call(signer, calls[i].to, calls[i].value, calls[i].data);\n        }\n    }\n\n    // /////////////////////////////////// REPLAY PROTECTION /////////////////////////////////////\n\n    mapping(address => mapping(uint128 => uint128)) _batches;\n\n    /// @notice implement a default nonce stategy\n    /// @param signer address to check and update nonce for\n    /// @param nonce value of nonce sent as part of the forward call\n    function checkAndUpdateNonce(address signer, bytes memory nonce) public override returns (bool) {\n        // TODO? default nonce strategy could be different (maybe the most versatile : batchId + Nonce)\n        uint256 value = abi.decode(nonce, (uint256));\n        uint128 batchId = uint128(value / 2**128);\n        uint128 batchNonce = uint128(value % 2**128);\n\n        uint128 currentNonce = _batches[signer][batchId];\n        if (batchNonce == currentNonce) {\n            _batches[signer][batchId] = currentNonce + 1;\n            return true;\n        }\n        return false;\n    }\n\n    function getNonce(address signer, uint128 batchId) external view returns (uint128) {\n        return _batches[signer][batchId];\n    }\n\n\n    // ///////////////////////////////// INTERNAL ////////////////////////////////////////////\n\n    function _call(\n        address from,\n        address to,\n        uint256 value,\n        bytes memory data\n    ) internal {\n        (bool success,) = to.call{value: value}(abi.encodePacked(data, from));\n        if (!success) {\n            assembly {\n                let returnDataSize := returndatasize()\n                returndatacopy(0, 0, returnDataSize)\n                revert(0, returnDataSize)\n            }\n        }\n    }\n\n    function _checkSigner(\n        Message memory message,\n        SignatureType signatureType,\n        bytes memory signature\n    ) internal view returns (address) {\n        bytes memory dataToHash = _encodeMessage(message);\n        if (signatureType == SignatureType.EIP1271) {\n            require(ERC1271(message.from).isValidSignature(dataToHash, signature) == ERC1271_MAGICVALUE, \"SIGNATURE_1271_INVALID\");\n        } else if(signatureType == SignatureType.EIP1654){\n            require(ERC1654(message.from).isValidSignature(keccak256(dataToHash), signature) == ERC1654_MAGICVALUE, \"SIGNATURE_1654_INVALID\");\n        } else {\n            address signer = SigUtil.recover(keccak256(dataToHash), signature);\n            require(signer == message.from, \"SIGNATURE_WRONG_SIGNER\");\n        }\n        return message.from;\n    }\n\n    function _isValidChainId(uint256 chainId) internal view returns (bool) {\n        uint256 _chainId;\n        assembly {_chainId := chainid() }\n        return chainId == _chainId;\n    }\n\n    bytes32 constant EIP712DOMAIN_TYPEHASH = keccak256(\n        \"EIP712Domain(string name,string version)\"\n    );\n    bytes32 constant DOMAIN_SEPARATOR = keccak256(\n        abi.encode(\n            EIP712DOMAIN_TYPEHASH,\n            keccak256(\"Forwarder\"),\n            keccak256(\"1\")\n        )\n    );\n\n    bytes32 constant METATRANSACTION_TYPEHASH = keccak256(\n        \"MetaTransaction(address from,address to,uint256 value,uint256 chainId,address replayProtection,bytes nonce,bytes data,bytes32 innerMessageHash)\"\n    );\n\n    function _encodeMessage(Message memory message) internal view returns (bytes memory) {\n        return abi.encodePacked(\n            \"\\x19\\x01\",\n            DOMAIN_SEPARATOR,\n            keccak256(abi.encode(\n                METATRANSACTION_TYPEHASH,\n                message.from,\n                message.to,\n                msg.value,\n                message.chainId,\n                message.replayProtection,\n                keccak256(message.nonce),\n                keccak256(message.data),\n                message.innerMessageHash\n            ))\n        );\n    }\n}",
  "sourcePath": "/home/zorro/git/blockchain__general/prototype/contracts/polygon/EIP712Forwarder.sol",
  "compiler": {
    "name": "solc",
    "version": "0.8.4+commit.c7e474f2.Emscripten.clang"
  },
  "schemaVersion": "3.2.0",
  "updatedAt": "2021-07-22T23:34:50.021Z",
  "networkType": "ethereum",
  "devdoc": {
    "kind": "dev",
    "methods": {
      "batch((address,bytes,uint256)[])": {
        "params": {
          "calls": "list of call data and destination"
        }
      },
      "checkAndUpdateNonce(address,bytes)": {
        "params": {
          "nonce": "value of nonce sent as part of the forward call",
          "signer": "address to check and update nonce for"
        }
      },
      "forward((address,address,uint256,address,bytes,bytes,bytes32),uint8,bytes)": {
        "params": {
          "message": ".innerMessageHash extra data hashed that can be used as embedded message for implementing more complex scenario, with one sig",
          "signature": "signature",
          "signatureType": "signatureType either EOA, EIP1271 or EIP1654"
        }
      }
    },
    "version": 1
  },
  "userdoc": {
    "kind": "user",
    "methods": {
      "batch((address,bytes,uint256)[])": {
        "notice": "batcher function that can be called as part of a meta transaction (allowing to batch call atomically)"
      },
      "checkAndUpdateNonce(address,bytes)": {
        "notice": "implement a default nonce stategy"
      },
      "forward((address,address,uint256,address,bytes,bytes,bytes32),uint8,bytes)": {
        "notice": "forward call from EOA signed message"
      }
    },
    "notice": "Forwarder for Meta Transactions Using EIP712 Signing Standard, also implement default Replay Protection using 2 dimensional nonces",
    "version": 1
  }
}