{
  "contractName": "EIP712Forwarder",
  "abi": [
    {
      "inputs": [
        {
          "components": [
            {
              "internalType": "address",
              "name": "from",
              "type": "address"
            },
            {
              "internalType": "address",
              "name": "to",
              "type": "address"
            },
            {
              "internalType": "uint256",
              "name": "chainId",
              "type": "uint256"
            },
            {
              "internalType": "address",
              "name": "replayProtection",
              "type": "address"
            },
            {
              "internalType": "bytes",
              "name": "nonce",
              "type": "bytes"
            },
            {
              "internalType": "bytes",
              "name": "data",
              "type": "bytes"
            },
            {
              "internalType": "bytes32",
              "name": "innerMessageHash",
              "type": "bytes32"
            }
          ],
          "internalType": "struct Forwarder.Message",
          "name": "message",
          "type": "tuple"
        },
        {
          "internalType": "enum Forwarder.SignatureType",
          "name": "signatureType",
          "type": "uint8"
        },
        {
          "internalType": "bytes",
          "name": "signature",
          "type": "bytes"
        }
      ],
      "name": "forward",
      "outputs": [],
      "stateMutability": "payable",
      "type": "function",
      "payable": true
    },
    {
      "inputs": [
        {
          "components": [
            {
              "internalType": "address",
              "name": "to",
              "type": "address"
            },
            {
              "internalType": "bytes",
              "name": "data",
              "type": "bytes"
            },
            {
              "internalType": "uint256",
              "name": "value",
              "type": "uint256"
            }
          ],
          "internalType": "struct EIP712Forwarder.Call[]",
          "name": "calls",
          "type": "tuple[]"
        }
      ],
      "name": "batch",
      "outputs": [],
      "stateMutability": "payable",
      "type": "function",
      "payable": true
    },
    {
      "inputs": [
        {
          "internalType": "address",
          "name": "signer",
          "type": "address"
        },
        {
          "internalType": "bytes",
          "name": "nonce",
          "type": "bytes"
        }
      ],
      "name": "checkAndUpdateNonce",
      "outputs": [
        {
          "internalType": "bool",
          "name": "",
          "type": "bool"
        }
      ],
      "stateMutability": "nonpayable",
      "type": "function"
    },
    {
      "inputs": [
        {
          "internalType": "address",
          "name": "signer",
          "type": "address"
        },
        {
          "internalType": "uint128",
          "name": "batchId",
          "type": "uint128"
        }
      ],
      "name": "getNonce",
      "outputs": [
        {
          "internalType": "uint128",
          "name": "",
          "type": "uint128"
        }
      ],
      "stateMutability": "view",
      "type": "function",
      "constant": true
    }
  ],
  "bytecode": "0x608060405234801561001057600080fd5b506114dd806100206000396000f3fe60806040526004361061003f5760003560e01c806364f5244914610044578063b35b046f14610059578063b44581d91461008e578063fc54a5b814610105575b600080fd5b610057610052366004611142565b610118565b005b34801561006557600080fd5b50610079610074366004610f83565b610317565b60405190151581526020015b60405180910390f35b34801561009a57600080fd5b506100e46100a9366004610fcf565b6001600160a01b03919091166000908152602081815260408083206fffffffffffffffffffffffffffffffff94851684529091529020541690565b6040516fffffffffffffffffffffffffffffffff9091168152602001610085565b610057610113366004611019565b610438565b604083015146146101705760405162461bcd60e51b815260206004820152601060248201527f494e56414c49445f434841494e5f49440000000000000000000000000000000060448201526064015b60405180910390fd5b61017b838383610584565b5060608301516001600160a01b031615806101a2575060608301516001600160a01b031630145b1561020a576101b983600001518460800151610317565b6102055760405162461bcd60e51b815260206004820152600d60248201527f4e4f4e43455f494e56414c4944000000000000000000000000000000000000006044820152606401610167565b6102fa565b6060830151835160808501516040517fb35b046f0000000000000000000000000000000000000000000000000000000081526001600160a01b039093169263b35b046f9261025c9290916004016112f3565b602060405180830381600087803b15801561027657600080fd5b505af115801561028a573d6000803e3d6000fd5b505050506040513d601f19601f820116820180604052508101906102ae91906110db565b6102fa5760405162461bcd60e51b815260206004820152600d60248201527f4e4f4e43455f494e56414c4944000000000000000000000000000000000000006044820152606401610167565b61031283600001518460200151348660a00151610a11565b505050565b6000808280602001905181019061032e9190611249565b9050600061034d700100000000000000000000000000000000836113f2565b9050600061036c70010000000000000000000000000000000084611451565b6001600160a01b0387166000908152602081815260408083206fffffffffffffffffffffffffffffffff8088168552925290912054919250908116908216811415610429576103bc8160016113be565b6001600160a01b0388166000908152602081815260408083206fffffffffffffffffffffffffffffffff9788168452909152902080547fffffffffffffffffffffffffffffffff000000000000000000000000000000001691909416179092555060019250610432915050565b60009450505050505b92915050565b3330146104875760405162461bcd60e51b815260206004820152600e60248201527f464f525741524445525f4f4e4c590000000000000000000000000000000000006044820152606401610167565b6000806000368080601f016020809104026020016040519081016040528093929190818152602001838380828437600092018290525036808601516001600160a01b03169750949550925050505b845181101561057d5761056b8486838151811061050257634e487b7160e01b600052603260045260246000fd5b60200260200101516000015187848151811061052e57634e487b7160e01b600052603260045260246000fd5b60200260200101516040015188858151811061055a57634e487b7160e01b600052603260045260246000fd5b602002602001015160200151610a11565b8061057581611436565b9150506104d5565b5050505050565b604080517fb03948446334eb9b2196d5eb166f69b9d49403eb4a12f36de8d3f9f3cb8e15c36020808301919091527f120599714c0efa8b82451455fbd88d8790bed40fbd0f47a2ae400fac3d912425828401527fc89efdaa54c0f20c7adf612882df0950f5a951637e0307cdcb4c672f298b8bc6606080840191909152835180840382018152608080850186528151918401919091208851848a0151878b0151948b0151938b015180519087012060a0808d015180519089012060c0808f01517f9fecc83e430d2067fcd82c70b88e61530e628707a3face3cf0642523b28f7228938c01939093526001600160a01b03958616908b015292841660e08a0152346101008a0152610120890196909652919093166101408701526101608601526101808501919091526101a080850192909252845180850390920182526101c084018552815191909201207f19010000000000000000000000000000000000000000000000000000000000006101e08401526101e28301919091526102028083019190915282518083039091018152610222909101909152600090600284600281111561074057634e487b7160e01b600052602160045260246000fd5b14156108545784516040517f20c13b0b00000000000000000000000000000000000000000000000000000000808252916001600160a01b0316906320c13b0b906107909085908890600401611336565b60206040518083038186803b1580156107a857600080fd5b505afa1580156107bc573d6000803e3d6000fd5b505050506040513d601f19601f820116820180604052508101906107e09190611102565b7fffffffff00000000000000000000000000000000000000000000000000000000161461084f5760405162461bcd60e51b815260206004820152601660248201527f5349474e41545552455f313237315f494e56414c4944000000000000000000006044820152606401610167565b610a07565b600184600281111561087657634e487b7160e01b600052602160045260246000fd5b141561098b578451815160208301206040517f1626ba7e00000000000000000000000000000000000000000000000000000000808252926001600160a01b031691631626ba7e916108cc9190889060040161131d565b60206040518083038186803b1580156108e457600080fd5b505afa1580156108f8573d6000803e3d6000fd5b505050506040513d601f19601f8201168201806040525081019061091c9190611102565b7fffffffff00000000000000000000000000000000000000000000000000000000161461084f5760405162461bcd60e51b815260206004820152601660248201527f5349474e41545552455f313635345f494e56414c4944000000000000000000006044820152606401610167565b600061099e828051906020012085610aa1565b905085600001516001600160a01b0316816001600160a01b031614610a055760405162461bcd60e51b815260206004820152601660248201527f5349474e41545552455f57524f4e475f5349474e4552000000000000000000006044820152606401610167565b505b5050915192915050565b6000836001600160a01b0316838387604051602001610a319291906112a9565b60408051601f1981840301815290829052610a4b9161128d565b60006040518083038185875af1925050503d8060008114610a88576040519150601f19603f3d011682016040523d82523d6000602084013e610a8d565b606091505b505090508061057d573d806000803e806000fd5b6000806000610ab08585610ac5565b91509150610abd81610b35565b509392505050565b600080825160411415610afc5760208301516040840151606085015160001a610af087828585610d39565b94509450505050610b2e565b825160401415610b265760208301516040840151610b1b868383610e26565b935093505050610b2e565b506000905060025b9250929050565b6000816004811115610b5757634e487b7160e01b600052602160045260246000fd5b1415610b605750565b6001816004811115610b8257634e487b7160e01b600052602160045260246000fd5b1415610bd05760405162461bcd60e51b815260206004820152601860248201527f45434453413a20696e76616c6964207369676e617475726500000000000000006044820152606401610167565b6002816004811115610bf257634e487b7160e01b600052602160045260246000fd5b1415610c405760405162461bcd60e51b815260206004820152601f60248201527f45434453413a20696e76616c6964207369676e6174757265206c656e677468006044820152606401610167565b6003816004811115610c6257634e487b7160e01b600052602160045260246000fd5b1415610cbb5760405162461bcd60e51b815260206004820152602260248201527f45434453413a20696e76616c6964207369676e6174757265202773272076616c604482015261756560f01b6064820152608401610167565b6004816004811115610cdd57634e487b7160e01b600052602160045260246000fd5b1415610d365760405162461bcd60e51b815260206004820152602260248201527f45434453413a20696e76616c6964207369676e6174757265202776272076616c604482015261756560f01b6064820152608401610167565b50565b6000807f7fffffffffffffffffffffffffffffff5d576e7357a4501ddfe92f46681b20a0831115610d705750600090506003610e1d565b8460ff16601b14158015610d8857508460ff16601c14155b15610d995750600090506004610e1d565b6040805160008082526020820180845289905260ff881692820192909252606081018690526080810185905260019060a0016020604051602081039080840390855afa158015610ded573d6000803e3d6000fd5b5050604051601f1901519150506001600160a01b038116610e1657600060019250925050610e1d565b9150600090505b94509492505050565b6000807f7fffffffffffffffffffffffffffffffffffffffffffffffffffffffffffffff831660ff84901c601b01610e6087828885610d39565b935093505050935093915050565b80356001600160a01b0381168114610e8557600080fd5b919050565b600082601f830112610e9a578081fd5b813567ffffffffffffffff811115610eb457610eb4611491565b610ec7601f8201601f191660200161138d565b818152846020838601011115610edb578283fd5b816020850160208301379081016020019190915292915050565b803560038110610e8557600080fd5b600060608284031215610f15578081fd5b6040516060810167ffffffffffffffff8282108183111715610f3957610f39611491565b81604052829350610f4985610e6e565b83526020850135915080821115610f5f57600080fd5b50610f6c85828601610e8a565b602083015250604083013560408201525092915050565b60008060408385031215610f95578182fd5b610f9e83610e6e565b9150602083013567ffffffffffffffff811115610fb9578182fd5b610fc585828601610e8a565b9150509250929050565b60008060408385031215610fe1578182fd5b610fea83610e6e565b915060208301356fffffffffffffffffffffffffffffffff8116811461100e578182fd5b809150509250929050565b6000602080838503121561102b578182fd5b823567ffffffffffffffff80821115611042578384fd5b818501915085601f830112611055578384fd5b81358181111561106757611067611491565b8060051b61107685820161138d565b8281528581019085870183870188018b1015611090578889fd5b8893505b848410156110cd578035868111156110aa57898afd5b6110b88c8a838b0101610f04565b84525060019390930192918701918701611094565b509998505050505050505050565b6000602082840312156110ec578081fd5b815180151581146110fb578182fd5b9392505050565b600060208284031215611113578081fd5b81517fffffffff00000000000000000000000000000000000000000000000000000000811681146110fb578182fd5b600080600060608486031215611156578081fd5b833567ffffffffffffffff8082111561116d578283fd5b9085019060e08288031215611180578283fd5b611188611364565b61119183610e6e565b815261119f60208401610e6e565b6020820152604083013560408201526111ba60608401610e6e565b60608201526080830135828111156111d0578485fd5b6111dc89828601610e8a565b60808301525060a0830135828111156111f3578485fd5b6111ff89828601610e8a565b60a08301525060c08381013590820152945061121d60208701610ef5565b93506040860135915080821115611232578283fd5b5061123f86828701610e8a565b9150509250925092565b60006020828403121561125a578081fd5b5051919050565b60008151808452611279816020860160208601611406565b601f01601f19169290920160200192915050565b6000825161129f818460208701611406565b9190910192915050565b600083516112bb818460208801611406565b60609390931b7fffffffffffffffffffffffffffffffffffffffff000000000000000000000000169190920190815260140192915050565b6001600160a01b03831681526040602082015260006113156040830184611261565b949350505050565b8281526040602082015260006113156040830184611261565b6040815260006113496040830185611261565b828103602084015261135b8185611261565b95945050505050565b60405160e0810167ffffffffffffffff8111828210171561138757611387611491565b60405290565b604051601f8201601f1916810167ffffffffffffffff811182821017156113b6576113b6611491565b604052919050565b60006fffffffffffffffffffffffffffffffff8083168185168083038211156113e9576113e9611465565b01949350505050565b6000826114015761140161147b565b500490565b60005b83811015611421578181015183820152602001611409565b83811115611430576000848401525b50505050565b600060001982141561144a5761144a611465565b5060010190565b6000826114605761146061147b565b500690565b634e487b7160e01b600052601160045260246000fd5b634e487b7160e01b600052601260045260246000fd5b634e487b7160e01b600052604160045260246000fdfea2646970667358221220af0fc8b3350c18bad45b3470f65986f40679eb677dca22b97751cca11a0111e964736f6c63430008040033",
  "immutableReferences": {},
  "source": "/* EIP-2585 Minimal Native Meta Transaction Forwarder\n * This standard defines a universal native meta transaction smart contract\n * that accept specially crafted Externally Owned Accounts (EOA) signed message\n * to forward to receiver contract via third parties.\n *\n * Written in 2020 by Ronan Sandford\n *\n * To the extent possible under law, the author(s) have dedicated all copyright\n * and related and neighboring rights to this software to the public domain\n * worldwide. This software is distributed without any warranty.\n *\n * You should have received a copy of the CC0 Public Domain Dedication along\n * with this software. If not, see\n * <https://creativecommons.org/publicdomain/zero/1.0/>.\n *    \n *       .-''-.  .-./`) .-------.               .`````-.  ,--------.     .-''''-.  ,--------.   \n *     .'_ _   \\ \\ .-.')\\  _(`)_ \\             /   ,-.  \\ |   _____|    /  _--.  \\ |   _____|   \n *    / ( ` )   '/ `-' \\| (_ o._)|            (___/  |   ||  )          |_( )_ ' | |  )         \n *   . (_ o _)  | `-'`\"`|  (_,_) /_ _    _ _        .'  / |  '----.     (_ o _). / |  '----.    \n *   |  (_,_)___| .---. |   '-.-'( ' )--( ' )   _.-'_.-'  |_.._ _  '.  .'(_,_).  `.|_.._ _  '.  \n *   '  \\   .---. |   | |   |   (_{;}_)(_{;}_)_/_  .'        ( ' )   \\|_( )_    \\  |  ( ' )   \\ \n *    \\  `-'    / |   | |   |    (_,_)--(_,_)( ' )(__..--. _(_{;}_)  |(_ o _)   /  |_(_{;}_)  | \n *     \\       /  |   | /   )               (_{;}_)      ||  (_,_)  /  (_,_)..-' .'|  (_,_)  /  \n *      `'-..-'   '---' `---'                (_,_)-------' `...__..'     `-....-'   `...__..'   \n *                                                                                           \n *  \n *\n */\npragma solidity ^0.8;\npragma experimental ABIEncoderV2;\n\nimport \"@openzeppelin/contracts/utils/cryptography/ECDSA.sol\";\n\ninterface ERC1271 {\n    function isValidSignature(bytes calldata data, bytes calldata signature) external view returns (bytes4 magicValue);\n}\n\ninterface ERC1654 {\n   function isValidSignature(bytes32 hash, bytes calldata signature) external view returns (bytes4 magicValue);\n}\n\ninterface ReplayProtection {\n    function checkAndUpdateNonce(address signer, bytes calldata nonce) external returns (bool);\n}\n\ninterface Forwarder {\n\n    enum SignatureType { DIRECT, EIP1654, EIP1271 }\n\n    struct Message {\n        address from;\n        address to;\n        uint256 chainId;\n        address replayProtection;\n        bytes nonce;\n        bytes data;\n        bytes32 innerMessageHash;\n\t}\n\n    function forward(\n        Message calldata message,\n        SignatureType signatureType,\n        bytes calldata signature\n    ) external payable;\n}\n\n/// @notice Forwarder for Meta Transactions Using EIP712 Signing Standard, also implement default Replay Protection using 2 dimensional nonces\ncontract EIP712Forwarder is Forwarder, ReplayProtection {\n\n    // ///////////////////////////// FORWARDING EOA META TRANSACTION ///////////////////////////////////\n\n    bytes4 internal constant ERC1271_MAGICVALUE = 0x20c13b0b;\n    bytes4 internal constant ERC1654_MAGICVALUE = 0x1626ba7e;\n\n    /// @notice forward call from EOA signed message\n    /// @param message.from address from which the message come from (For EOA this is the same as signer)\n    /// @param message.to target of the call\n    /// @param message.replayProtection contract address that check and update nonce\n    /// @param message.nonce nonce value\n    /// @param message.data call data\n    /// @param message.innerMessageHash extra data hashed that can be used as embedded message for implementing more complex scenario, with one sig\n    /// @param signatureType signatureType either EOA, EIP1271 or EIP1654\n    /// @param signature signature\n    function forward(\n        Message memory message,\n        SignatureType signatureType,\n        bytes memory signature\n    ) public override payable { // external with ABIEncoderV2 Struct is not supported in solidity < 0.6.4\n        require(_isValidChainId(message.chainId), \"INVALID_CHAIN_ID\");\n        _checkSigner(message, signatureType, signature);\n        // optimization to avoid call if using default nonce strategy\n        // this contract implements a default nonce strategy and can be called directly\n        if (message.replayProtection == address(0) || message.replayProtection == address(this)) {\n            require(checkAndUpdateNonce(message.from, message.nonce), \"NONCE_INVALID\");\n        } else {\n            require(ReplayProtection(message.replayProtection).checkAndUpdateNonce(message.from, message.nonce), \"NONCE_INVALID\");\n        }\n\n        _call(message.from, message.to, msg.value, message.data);\n    }\n\n\n    // /////////////////////////////////// BATCH CALL /////////////////////////////////////\n\n    struct Call {\n        address to;\n        bytes data;\n        uint256 value;\n    }\n\n    /// @notice batcher function that can be called as part of a meta transaction (allowing to batch call atomically)\n    /// @param calls list of call data and destination\n    function batch(Call[] memory calls) public payable { // external with ABIEncoderV2 Struct is not supported in solidity < 0.6.4\n        require(msg.sender == address(this), \"FORWARDER_ONLY\");\n        address signer;\n        bytes memory data = msg.data;\n        uint256 length = msg.data.length;\n        assembly { signer := and(mload(sub(add(data, length), 0x00)), 0xffffffffffffffffffffffffffffffffffffffff) }\n        for(uint256 i = 0; i < calls.length; i++) {\n            _call(signer, calls[i].to, calls[i].value, calls[i].data);\n        }\n    }\n\n    // /////////////////////////////////// REPLAY PROTECTION /////////////////////////////////////\n\n    mapping(address => mapping(uint128 => uint128)) _batches;\n\n    /// @notice implement a default nonce stategy\n    /// @param signer address to check and update nonce for\n    /// @param nonce value of nonce sent as part of the forward call\n    function checkAndUpdateNonce(address signer, bytes memory nonce) public override returns (bool) {\n        // TODO? default nonce strategy could be different (maybe the most versatile : batchId + Nonce)\n        uint256 value = abi.decode(nonce, (uint256));\n        uint128 batchId = uint128(value / 2**128);\n        uint128 batchNonce = uint128(value % 2**128);\n\n        uint128 currentNonce = _batches[signer][batchId];\n        if (batchNonce == currentNonce) {\n            _batches[signer][batchId] = currentNonce + 1;\n            return true;\n        }\n        return false;\n    }\n\n    function getNonce(address signer, uint128 batchId) external view returns (uint128) {\n        return _batches[signer][batchId];\n    }\n\n\n    // ///////////////////////////////// INTERNAL ////////////////////////////////////////////\n\n    function _call(\n        address from,\n        address to,\n        uint256 value,\n        bytes memory data\n    ) internal {\n        (bool success,) = to.call{value: value}(abi.encodePacked(data, from));\n        if (!success) {\n            assembly {\n                let returnDataSize := returndatasize()\n                returndatacopy(0, 0, returnDataSize)\n                revert(0, returnDataSize)\n            }\n        }\n    }\n\n    function _checkSigner(\n        Message memory message,\n        SignatureType signatureType,\n        bytes memory signature\n    ) internal view returns (address) {\n        bytes memory dataToHash = _encodeMessage(message);\n        if (signatureType == SignatureType.EIP1271) {\n            require(ERC1271(message.from).isValidSignature(dataToHash, signature) == ERC1271_MAGICVALUE, \"SIGNATURE_1271_INVALID\");\n        } else if(signatureType == SignatureType.EIP1654){\n            require(ERC1654(message.from).isValidSignature(keccak256(dataToHash), signature) == ERC1654_MAGICVALUE, \"SIGNATURE_1654_INVALID\");\n        } else {\n            address signer = ECDSA.recover(keccak256(dataToHash), signature);\n            require(signer == message.from, \"SIGNATURE_WRONG_SIGNER\");\n        }\n        return message.from;\n    }\n\n    function _isValidChainId(uint256 chainId) internal view returns (bool) {\n        uint256 _chainId;\n        assembly {_chainId := chainid() }\n        return chainId == _chainId;\n    }\n\n    bytes32 constant EIP712DOMAIN_TYPEHASH = keccak256(\n        \"EIP712Domain(string name,string version)\"\n    );\n    bytes32 constant DOMAIN_SEPARATOR = keccak256(\n        abi.encode(\n            EIP712DOMAIN_TYPEHASH,\n            keccak256(\"Forwarder\"),\n            keccak256(\"1\")\n        )\n    );\n\n    bytes32 constant METATRANSACTION_TYPEHASH = keccak256(\n        \"MetaTransaction(address from,address to,uint256 value,uint256 chainId,address replayProtection,bytes nonce,bytes data,bytes32 innerMessageHash)\"\n    );\n\n    function _encodeMessage(Message memory message) internal view returns (bytes memory) {\n        return abi.encodePacked(\n            \"\\x19\\x01\",\n            DOMAIN_SEPARATOR,\n            keccak256(abi.encode(\n                METATRANSACTION_TYPEHASH,\n                message.from,\n                message.to,\n                msg.value,\n                message.chainId,\n                message.replayProtection,\n                keccak256(message.nonce),\n                keccak256(message.data),\n                message.innerMessageHash\n            ))\n        );\n    }\n}",
  "sourcePath": "/home/zorro/git/blockchain__general/prototype/contracts/polygon/EIP712Forwarder.sol",
  "compiler": {
    "name": "solc",
    "version": "0.8.4+commit.c7e474f2.Emscripten.clang"
  },
  "schemaVersion": "3.4.3",
  "updatedAt": "2021-08-26T20:29:23.515Z",
  "networkType": "ethereum",
  "devdoc": {
    "kind": "dev",
    "methods": {
      "batch((address,bytes,uint256)[])": {
        "params": {
          "calls": "list of call data and destination"
        }
      },
      "checkAndUpdateNonce(address,bytes)": {
        "params": {
          "nonce": "value of nonce sent as part of the forward call",
          "signer": "address to check and update nonce for"
        }
      },
      "forward((address,address,uint256,address,bytes,bytes,bytes32),uint8,bytes)": {
        "params": {
          "message": ".innerMessageHash extra data hashed that can be used as embedded message for implementing more complex scenario, with one sig",
          "signature": "signature",
          "signatureType": "signatureType either EOA, EIP1271 or EIP1654"
        }
      }
    },
    "version": 1
  },
  "userdoc": {
    "kind": "user",
    "methods": {
      "batch((address,bytes,uint256)[])": {
        "notice": "batcher function that can be called as part of a meta transaction (allowing to batch call atomically)"
      },
      "checkAndUpdateNonce(address,bytes)": {
        "notice": "implement a default nonce stategy"
      },
      "forward((address,address,uint256,address,bytes,bytes,bytes32),uint8,bytes)": {
        "notice": "forward call from EOA signed message"
      }
    },
    "notice": "Forwarder for Meta Transactions Using EIP712 Signing Standard, also implement default Replay Protection using 2 dimensional nonces",
    "version": 1
  },
  "db": {
    "callBytecode": {
      "id": "0x72c23deda71348b593efd5dedfd0e3892d1808365c694426f70ba6d657c60cc9"
    },
    "createBytecode": {
      "id": "0x0a8bb41fe6fec76bcd086ec8100dc1a0ba57f96ef9da2052191e48252f8fb767"
    },
    "contract": {
      "id": "0x87d7f97841752a56ceeef8bc525fb046a17476ea94a456e62cb0a1701d8a788b"
    }
  }
}