{
  "contractName": "GameDatabase",
  "abi": [
    {
      "inputs": [],
      "stateMutability": "nonpayable",
      "type": "constructor"
    },
    {
      "anonymous": false,
      "inputs": [
        {
          "indexed": true,
          "internalType": "bytes32",
          "name": "role",
          "type": "bytes32"
        },
        {
          "indexed": true,
          "internalType": "bytes32",
          "name": "previousAdminRole",
          "type": "bytes32"
        },
        {
          "indexed": true,
          "internalType": "bytes32",
          "name": "newAdminRole",
          "type": "bytes32"
        }
      ],
      "name": "RoleAdminChanged",
      "type": "event"
    },
    {
      "anonymous": false,
      "inputs": [
        {
          "indexed": true,
          "internalType": "bytes32",
          "name": "role",
          "type": "bytes32"
        },
        {
          "indexed": true,
          "internalType": "address",
          "name": "account",
          "type": "address"
        },
        {
          "indexed": true,
          "internalType": "address",
          "name": "sender",
          "type": "address"
        }
      ],
      "name": "RoleGranted",
      "type": "event"
    },
    {
      "anonymous": false,
      "inputs": [
        {
          "indexed": true,
          "internalType": "bytes32",
          "name": "role",
          "type": "bytes32"
        },
        {
          "indexed": true,
          "internalType": "address",
          "name": "account",
          "type": "address"
        },
        {
          "indexed": true,
          "internalType": "address",
          "name": "sender",
          "type": "address"
        }
      ],
      "name": "RoleRevoked",
      "type": "event"
    },
    {
      "inputs": [],
      "name": "DEFAULT_ADMIN_ROLE",
      "outputs": [
        {
          "internalType": "bytes32",
          "name": "",
          "type": "bytes32"
        }
      ],
      "stateMutability": "view",
      "type": "function",
      "constant": true
    },
    {
      "inputs": [],
      "name": "REGISTRY_ROLE",
      "outputs": [
        {
          "internalType": "bytes32",
          "name": "",
          "type": "bytes32"
        }
      ],
      "stateMutability": "view",
      "type": "function",
      "constant": true
    },
    {
      "inputs": [
        {
          "internalType": "bytes32",
          "name": "role",
          "type": "bytes32"
        }
      ],
      "name": "getRoleAdmin",
      "outputs": [
        {
          "internalType": "bytes32",
          "name": "",
          "type": "bytes32"
        }
      ],
      "stateMutability": "view",
      "type": "function",
      "constant": true
    },
    {
      "inputs": [
        {
          "internalType": "bytes32",
          "name": "role",
          "type": "bytes32"
        },
        {
          "internalType": "address",
          "name": "account",
          "type": "address"
        }
      ],
      "name": "grantRole",
      "outputs": [],
      "stateMutability": "nonpayable",
      "type": "function"
    },
    {
      "inputs": [
        {
          "internalType": "bytes32",
          "name": "role",
          "type": "bytes32"
        },
        {
          "internalType": "address",
          "name": "account",
          "type": "address"
        }
      ],
      "name": "hasRole",
      "outputs": [
        {
          "internalType": "bool",
          "name": "",
          "type": "bool"
        }
      ],
      "stateMutability": "view",
      "type": "function",
      "constant": true
    },
    {
      "inputs": [
        {
          "internalType": "bytes32",
          "name": "role",
          "type": "bytes32"
        },
        {
          "internalType": "address",
          "name": "account",
          "type": "address"
        }
      ],
      "name": "renounceRole",
      "outputs": [],
      "stateMutability": "nonpayable",
      "type": "function"
    },
    {
      "inputs": [
        {
          "internalType": "bytes32",
          "name": "role",
          "type": "bytes32"
        },
        {
          "internalType": "address",
          "name": "account",
          "type": "address"
        }
      ],
      "name": "revokeRole",
      "outputs": [],
      "stateMutability": "nonpayable",
      "type": "function"
    },
    {
      "inputs": [
        {
          "internalType": "bytes4",
          "name": "interfaceId",
          "type": "bytes4"
        }
      ],
      "name": "supportsInterface",
      "outputs": [
        {
          "internalType": "bool",
          "name": "",
          "type": "bool"
        }
      ],
      "stateMutability": "view",
      "type": "function",
      "constant": true
    },
    {
      "inputs": [
        {
          "internalType": "address",
          "name": "_botPartContract",
          "type": "address"
        }
      ],
      "name": "setBotPartContractAddress",
      "outputs": [],
      "stateMutability": "nonpayable",
      "type": "function"
    },
    {
      "inputs": [
        {
          "internalType": "address",
          "name": "_lootBoxContract",
          "type": "address"
        }
      ],
      "name": "setLootBoxContractAddress",
      "outputs": [],
      "stateMutability": "nonpayable",
      "type": "function"
    },
    {
      "inputs": [
        {
          "internalType": "uint32",
          "name": "botPartType",
          "type": "uint32"
        },
        {
          "internalType": "uint8",
          "name": "statID",
          "type": "uint8"
        },
        {
          "components": [
            {
              "internalType": "uint16",
              "name": "min",
              "type": "uint16"
            },
            {
              "internalType": "uint32",
              "name": "lowerRangeProbability",
              "type": "uint32"
            },
            {
              "internalType": "uint16",
              "name": "middle",
              "type": "uint16"
            },
            {
              "internalType": "uint16",
              "name": "max",
              "type": "uint16"
            }
          ],
          "internalType": "struct GameDatabase.StatDistribution",
          "name": "distribution",
          "type": "tuple"
        }
      ],
      "name": "registerStatDistribution",
      "outputs": [],
      "stateMutability": "nonpayable",
      "type": "function"
    },
    {
      "inputs": [
        {
          "internalType": "uint256",
          "name": "botPartID",
          "type": "uint256"
        },
        {
          "internalType": "uint8",
          "name": "statID",
          "type": "uint8"
        }
      ],
      "name": "getBotPartStat",
      "outputs": [
        {
          "internalType": "uint16",
          "name": "",
          "type": "uint16"
        }
      ],
      "stateMutability": "view",
      "type": "function",
      "constant": true
    }
  ],
  "bytecode": "0x60806040527fc2979137d1774e40fe2638d355bf7a7b092be4c67f242aad1655e1e27f9df9cc6001553480156200003557600080fd5b506200004360008062000066565b6001546200005390600062000066565b62000060600033620000ba565b6200016a565b600082815260208190526040902060010154819060405184907fbd79b86ffe0ab8e8776151514217cd7cacd52c909f66475c3af44e129f0b00ff90600090a460009182526020829052604090912060010155565b620000c68282620000ca565b5050565b6000828152602081815260408083206001600160a01b038516845290915290205460ff16620000c6576000828152602081815260408083206001600160a01b03851684529091529020805460ff19166001179055620001263390565b6001600160a01b0316816001600160a01b0316837f2f8788117e7eff1d82e926ec794901d17c78024a50270940304540a733656f0d60405160405180910390a45050565b61179b806200017a6000396000f3fe608060405234801561001057600080fd5b50600436106100d45760003560e01c80635989670311610081578063a217fddf1161005b578063a217fddf146101e6578063cd60e421146101ee578063d547741f1461020157600080fd5b8063598967031461018957806391d148541461019c578063988d90de146101d357600080fd5b80632f2ff15d116100b25780632f2ff15d1461015857806336568abe1461016d57806342f1e8791461018057600080fd5b806301ffc9a7146100d957806307caaeb714610101578063248a9ca314610127575b600080fd5b6100ec6100e736600461133f565b610214565b60405190151581526020015b60405180910390f35b61011461010f36600461137f565b6102ad565b60405161ffff90911681526020016100f8565b61014a6101353660046112f8565b60009081526020819052604090206001015490565b6040519081526020016100f8565b61016b610166366004611310565b61069b565b005b61016b61017b366004611310565b6106c6565b61014a60015481565b61016b6101973660046113c6565b610757565b6100ec6101aa366004611310565b6000918252602082815260408084206001600160a01b0393909316845291905290205460ff1690565b61016b6101e13660046112c0565b6107af565b61014a600081565b61016b6101fc3660046112c0565b6107f6565b61016b61020f366004611310565b61083d565b60007fffffffff0000000000000000000000000000000000000000000000000000000082167f7965db0b0000000000000000000000000000000000000000000000000000000014806102a757507f01ffc9a7000000000000000000000000000000000000000000000000000000007fffffffff000000000000000000000000000000000000000000000000000000008316145b92915050565b600060048260ff16106102bf57600080fd5b600480546040517f6352211e0000000000000000000000000000000000000000000000000000000081529182018590526001600160a01b0316906000908290636352211e9060240160206040518083038186803b15801561031f57600080fd5b505afa158015610333573d6000803e3d6000fd5b505050506040513d601f19601f8201168201806040525081019061035791906112dc565b6001600160a01b0316141561036b57600080fd5b6040517f1f534e08000000000000000000000000000000000000000000000000000000008152600481018590526000906001600160a01b03831690631f534e089060240160206040518083038186803b1580156103c757600080fd5b505afa1580156103db573d6000803e3d6000fd5b505050506040513d601f19601f820116820180604052508101906103ff91906113aa565b6040517ffd6c18610000000000000000000000000000000000000000000000000000000081526004810187905260ff861660248201529091506000906001600160a01b0384169063fd6c18619060440160206040518083038186803b15801561046757600080fd5b505afa15801561047b573d6000803e3d6000fd5b505050506040513d601f19601f8201168201806040525081019061049f91906113aa565b63ffffffff831660009081526003602052604081209192509060ff8716600481106104da57634e487b7160e01b600052603260045260246000fd5b01805490915060009063ffffffff620100009091048116908416116105d95750805461ffff8082169160009161051d9184916601000000000000909104166115c9565b83549091506000906105589061054090879062010000900463ffffffff166115ec565b855463ffffffff918216916201000090910416610863565b9050600061057961056a8360026108b3565b6105746002610b61565b610b7f565b610584906002611507565b905060006105b86105a96105a48461059f8861ffff16610b61565b610bf8565b610c40565b67ffffffffffffffff16610c5c565b90506105c481856115c9565b6105ce90866114c9565b945050505050610690565b50805461ffff6601000000000000820481169160009161060891849168010000000000000000909104166115c9565b83549091506000906106459061062a9062010000900463ffffffff16876115ec565b855463ffffffff918216916201000090910481161916610863565b9050600061065761056a8360026108b3565b610662906002611507565b9050600061067d6105a96105a48461059f8861ffff16610b61565b905061068981866114c9565b9450505050505b979650505050505050565b6000828152602081905260409020600101546106b78133610cda565b6106c18383610d58565b505050565b6001600160a01b03811633146107495760405162461bcd60e51b815260206004820152602f60248201527f416363657373436f6e74726f6c3a2063616e206f6e6c792072656e6f756e636560448201527f20726f6c657320666f722073656c66000000000000000000000000000000000060648201526084015b60405180910390fd5b6107538282610df6565b5050565b60006107638133610cda565b63ffffffff84166000908152600360205260409020829060ff85166004811061079c57634e487b7160e01b600052603260045260246000fd5b016107a78282611679565b505050505050565b60006107bb8133610cda565b50600580547fffffffffffffffffffffffff0000000000000000000000000000000000000000166001600160a01b0392909216919091179055565b60006108028133610cda565b50600480547fffffffffffffffffffffffff0000000000000000000000000000000000000000166001600160a01b0392909216919091179055565b6000828152602081905260409020600101546108598133610cda565b6106c18383610df6565b60008161086f57600080fd5b600061087b8484610e75565b90506f7fffffffffffffffffffffffffffffff6fffffffffffffffffffffffffffffffff821611156108ac57600080fd5b9392505050565b600080600084600f0b1280156108cc5750826001166001145b905060008085600f0b126108e057846108e5565b846000035b6fffffffffffffffffffffffffffffffff16905070010000000000000000000000000000000068010000000000000000821161099557603f82901b91505b841561098d576001851615610938578102607f1c5b908002607f1c90600285161561094e578102607f1c5b908002607f1c906004851615610964578102607f1c5b908002607f1c90600885161561097a578102607f1c5b60049490941c93908002607f1c90610923565b60401c610b09565b603f6c010000000000000000000000008310156109b85760209290921b91601f19015b6e0100000000000000000000000000008310156109db5760109290921b91600f19015b6f010000000000000000000000000000008310156109ff5760089290921b91600719015b6f10000000000000000000000000000000831015610a235760049290921b91600319015b6f40000000000000000000000000000000831015610a475760029290921b91600119015b6f80000000000000000000000000000000831015610a6b5760019290921b91600019015b60005b8615610af25760408210610a8157600080fd5b6001871615610ab457918302607f1c918101700100000000000000000000000000000000831115610ab457600192831c92015b928002607f1c9260019190911b907001000000000000000000000000000000008410610ae657600193841c9391909101905b600187901c9650610a6e565b60408110610aff57600080fd5b6040039190911c90505b600083610b165781610b1b565b816000035b90506f7fffffffffffffffffffffffffffffff198112801590610b4e57506f7fffffffffffffffffffffffffffffff8113155b610b5757600080fd5b9695505050505050565b6000677fffffffffffffff821115610b7857600080fd5b5060401b90565b600081600f0b60001415610b9257600080fd5b600082600f0b604085600f0b901b81610bbb57634e487b7160e01b600052601260045260246000fd5b0590506f7fffffffffffffffffffffffffffffff198112801590610bef57506f7fffffffffffffffffffffffffffffff8113155b6108ac57600080fd5b6000600f83810b9083900b0260401d6f7fffffffffffffffffffffffffffffff198112801590610bef57506f7fffffffffffffffffffffffffffffff8113156108ac57600080fd5b60008082600f0b1215610c5257600080fd5b50600f0b60401d90565b6000620100008210610cd65760405162461bcd60e51b815260206004820152602660248201527f53616665436173743a2076616c756520646f65736e27742066697420696e203160448201527f36206269747300000000000000000000000000000000000000000000000000006064820152608401610740565b5090565b6000828152602081815260408083206001600160a01b038516845290915290205460ff1661075357610d16816001600160a01b0316601461103b565b610d2183602061103b565b604051602001610d32929190611415565b60408051601f198184030181529082905262461bcd60e51b825261074091600401611496565b6000828152602081815260408083206001600160a01b038516845290915290205460ff16610753576000828152602081815260408083206001600160a01b03851684529091529020805460ff19166001179055610db23390565b6001600160a01b0316816001600160a01b0316837f2f8788117e7eff1d82e926ec794901d17c78024a50270940304540a733656f0d60405160405180910390a45050565b6000828152602081815260408083206001600160a01b038516845290915290205460ff1615610753576000828152602081815260408083206001600160a01b0385168085529252808320805460ff1916905551339285917ff6391f5c32d9c69d2a47ea670b442974b53935d1edc7fd64eb21e047a839171b9190a45050565b600081610e8157600080fd5b600077ffffffffffffffffffffffffffffffffffffffffffffffff8411610ecb5782604085901b81610ec357634e487b7160e01b600052601260045260246000fd5b04905061101e565b60c084811c6401000000008110610ee4576020918201911c5b620100008110610ef6576010918201911c5b6101008110610f07576008918201911c5b60108110610f17576004918201911c5b60048110610f27576002918201911c5b60028110610f36576001820191505b60bf820360018603901c6001018260ff0387901b81610f6557634e487b7160e01b600052601260045260246000fd5b0492506fffffffffffffffffffffffffffffffff831115610f8557600080fd5b608085901c83026fffffffffffffffffffffffffffffffff8616840260c088901c604089901b82811015610fba576001820391505b608084901b92900382811015610fd1576001820391505b829003608084901c8214610ff557634e487b7160e01b600052600160045260246000fd5b88818161101257634e487b7160e01b600052601260045260246000fd5b04870196505050505050505b6fffffffffffffffffffffffffffffffff8111156108ac57600080fd5b6060600061104a8360026115aa565b6110559060026114ef565b67ffffffffffffffff81111561107b57634e487b7160e01b600052604160045260246000fd5b6040519080825280601f01601f1916602001820160405280156110a5576020820181803683370190505b5090507f3000000000000000000000000000000000000000000000000000000000000000816000815181106110ea57634e487b7160e01b600052603260045260246000fd5b60200101907effffffffffffffffffffffffffffffffffffffffffffffffffffffffffffff1916908160001a9053507f78000000000000000000000000000000000000000000000000000000000000008160018151811061115b57634e487b7160e01b600052603260045260246000fd5b60200101907effffffffffffffffffffffffffffffffffffffffffffffffffffffffffffff1916908160001a90535060006111978460026115aa565b6111a29060016114ef565b90505b600181111561125b577f303132333435363738396162636465660000000000000000000000000000000085600f16601081106111f157634e487b7160e01b600052603260045260246000fd5b1a60f81b82828151811061121557634e487b7160e01b600052603260045260246000fd5b60200101907effffffffffffffffffffffffffffffffffffffffffffffffffffffffffffff1916908160001a90535060049490941c9361125481611639565b90506111a5565b5083156108ac5760405162461bcd60e51b815260206004820181905260248201527f537472696e67733a20686578206c656e67746820696e73756666696369656e746044820152606401610740565b803560ff811681146112bb57600080fd5b919050565b6000602082840312156112d1578081fd5b81356108ac8161173b565b6000602082840312156112ed578081fd5b81516108ac8161173b565b600060208284031215611309578081fd5b5035919050565b60008060408385031215611322578081fd5b8235915060208301356113348161173b565b809150509250929050565b600060208284031215611350578081fd5b81357fffffffff00000000000000000000000000000000000000000000000000000000811681146108ac578182fd5b60008060408385031215611391578182fd5b823591506113a1602084016112aa565b90509250929050565b6000602082840312156113bb578081fd5b81516108ac81611753565b600080600083850360c08112156113db578182fd5b84356113e681611753565b93506113f4602086016112aa565b92506080603f1982011215611407578182fd5b506040840190509250925092565b7f416363657373436f6e74726f6c3a206163636f756e742000000000000000000081526000835161144d816017850160208801611609565b7f206973206d697373696e6720726f6c6520000000000000000000000000000000601791840191820152835161148a816028840160208801611609565b01602801949350505050565b60208152600082518060208401526114b5816040850160208701611609565b601f01601f19169190910160400192915050565b600061ffff8083168185168083038211156114e6576114e6611650565b01949350505050565b6000821982111561150257611502611650565b500190565b600081600f0b83600f0b6f7fffffffffffffffffffffffffffffff8382138484138383048511828216161561153e5761153e611650565b6f7fffffffffffffffffffffffffffffff198685128682058612818416161561156957611569611650565b87871292508582058712848416161561158457611584611650565b8585058712818416161561159a5761159a611650565b5050509290910295945050505050565b60008160001904831182151516156115c4576115c4611650565b500290565b600061ffff838116908316818110156115e4576115e4611650565b039392505050565b600063ffffffff838116908316818110156115e4576115e4611650565b60005b8381101561162457818101518382015260200161160c565b83811115611633576000848401525b50505050565b60008161164857611648611650565b506000190190565b634e487b7160e01b600052601160045260246000fd5b6000813561ffff811681146102a7578182fd5b61ffff61168583611666565b1681548161ffff19821617835560208401356116a081611753565b65ffffffff00008160101b169050808365ffffffffffff1984161717845567ffff0000000000006116d360408701611666565b60301b168367ffffffffffffffff1984161793508084831717855569ffff000000000000000061170560608801611666565b60401b167fffffffffffffffffffffffffffffffffffffffffffff0000ffffffffffffffff851683178217178555505050505050565b6001600160a01b038116811461175057600080fd5b50565b63ffffffff8116811461175057600080fdfea26469706673582212203f0936403a1d3222a6266e674b5a29ae1078c28108426c07ab9984aa75290e5a64736f6c63430008040033",
  "immutableReferences": {},
  "source": "// SPDX-License-Identifier: MIT\npragma solidity ^0.8.0;\n\nimport \"@openzeppelin/contracts/access/AccessControl.sol\";\nimport \"@openzeppelin/contracts/utils/math/SafeCast.sol\";\nimport \"abdk-libraries-solidity/ABDKMath64x64.sol\";\nimport \"./BotPart.sol\";\n\ncontract GameDatabase is AccessControl {\n\n    bytes32 public REGISTRY_ROLE = keccak256(\"REGISTRY_ROLE\");\n\n    struct StatDistribution {\n        uint16 min;\n        uint32 lowerRangeProbability;\n        uint16 middle;\n        uint16 max; \n    }\n\n\n    // BotPart Index => Hash of Stats etc.\n    mapping(uint256 => bytes32) private botPartSummaryHashes;\n\n    // BotPart Type => Normal Distribution of Stats\n    mapping(uint32 => StatDistribution[4]) private statDistributions;\n\n    address private botPartContract;\n    address private lootBoxContract;\n\n    constructor() {\n        _setRoleAdmin(DEFAULT_ADMIN_ROLE, DEFAULT_ADMIN_ROLE);\n        _setRoleAdmin(REGISTRY_ROLE, DEFAULT_ADMIN_ROLE);\n        _setupRole(DEFAULT_ADMIN_ROLE, msg.sender);\n    }\n\n    function setBotPartContractAddress(address _botPartContract) public onlyRole(DEFAULT_ADMIN_ROLE) {\n        botPartContract = _botPartContract;\n    }\n\n    function setLootBoxContractAddress(address _lootBoxContract) public onlyRole(DEFAULT_ADMIN_ROLE) {\n        lootBoxContract = _lootBoxContract;\n    }\n\n    function registerStatDistribution(uint32 botPartType, uint8 statID, StatDistribution calldata distribution) public onlyRole(DEFAULT_ADMIN_ROLE) {\n        statDistributions[botPartType][statID] = distribution;\n    }\n\n    function getBotPartStat(uint256 botPartID, uint8 statID) view public returns (uint16) {\n        require(statID < 4);\n\n        BotPart bp = BotPart(botPartContract);\n        require(bp.ownerOf(botPartID) != address(0x0));\n        uint32 partType = bp.getBotPartType(botPartID);\n        uint32 stat = bp.getRawTokenStat(botPartID, statID);\n        StatDistribution storage distribution = statDistributions[partType][statID];\n\n        uint16 result;\n        if(stat <= distribution.lowerRangeProbability){\n            result = distribution.min;\n            uint16 range = (distribution.middle-distribution.min);\n            int128 x = ABDKMath64x64.divu(distribution.lowerRangeProbability-stat, distribution.lowerRangeProbability);\n            int128 y = ABDKMath64x64.div(ABDKMath64x64.pow(x, 2), ABDKMath64x64.fromUInt(2))*2;\n            uint16 inverseRange = SafeCast.toUint16(ABDKMath64x64.toUInt(ABDKMath64x64.mul(y, ABDKMath64x64.fromUInt(range))));\n            result+= (range - inverseRange);\n        }else{\n            result = distribution.middle;\n            uint16 range = (distribution.max-distribution.middle);\n            int128 x = ABDKMath64x64.divu(stat-distribution.lowerRangeProbability, ~distribution.lowerRangeProbability);\n            int128 y = ABDKMath64x64.div(ABDKMath64x64.pow(x, 2), ABDKMath64x64.fromUInt(2))*2;\n            uint16 calculatedRange = SafeCast.toUint16(ABDKMath64x64.toUInt(ABDKMath64x64.mul(y, ABDKMath64x64.fromUInt(range))));\n            result+= calculatedRange;\n        }\n        return result;\n    }\n\n}",
  "sourcePath": "/home/zorro/git/blockchain__general/prototype/contracts/polygon/GameDatabase.sol",
  "compiler": {
    "name": "solc",
    "version": "0.8.4+commit.c7e474f2.Emscripten.clang"
  },
  "schemaVersion": "3.2.0",
  "updatedAt": "2021-07-25T20:11:23.420Z",
  "networkType": "ethereum",
  "devdoc": {
    "kind": "dev",
    "methods": {
      "getRoleAdmin(bytes32)": {
        "details": "Returns the admin role that controls `role`. See {grantRole} and {revokeRole}. To change a role's admin, use {_setRoleAdmin}."
      },
      "grantRole(bytes32,address)": {
        "details": "Grants `role` to `account`. If `account` had not been already granted `role`, emits a {RoleGranted} event. Requirements: - the caller must have ``role``'s admin role."
      },
      "hasRole(bytes32,address)": {
        "details": "Returns `true` if `account` has been granted `role`."
      },
      "renounceRole(bytes32,address)": {
        "details": "Revokes `role` from the calling account. Roles are often managed via {grantRole} and {revokeRole}: this function's purpose is to provide a mechanism for accounts to lose their privileges if they are compromised (such as when a trusted device is misplaced). If the calling account had been granted `role`, emits a {RoleRevoked} event. Requirements: - the caller must be `account`."
      },
      "revokeRole(bytes32,address)": {
        "details": "Revokes `role` from `account`. If `account` had been granted `role`, emits a {RoleRevoked} event. Requirements: - the caller must have ``role``'s admin role."
      },
      "supportsInterface(bytes4)": {
        "details": "See {IERC165-supportsInterface}."
      }
    },
    "version": 1
  },
  "userdoc": {
    "kind": "user",
    "methods": {},
    "version": 1
  }
}