{
  "contractName": "GameDatabase",
  "abi": [
    {
      "inputs": [],
      "stateMutability": "nonpayable",
      "type": "constructor"
    },
    {
      "anonymous": false,
      "inputs": [
        {
          "indexed": true,
          "internalType": "bytes32",
          "name": "role",
          "type": "bytes32"
        },
        {
          "indexed": true,
          "internalType": "bytes32",
          "name": "previousAdminRole",
          "type": "bytes32"
        },
        {
          "indexed": true,
          "internalType": "bytes32",
          "name": "newAdminRole",
          "type": "bytes32"
        }
      ],
      "name": "RoleAdminChanged",
      "type": "event"
    },
    {
      "anonymous": false,
      "inputs": [
        {
          "indexed": true,
          "internalType": "bytes32",
          "name": "role",
          "type": "bytes32"
        },
        {
          "indexed": true,
          "internalType": "address",
          "name": "account",
          "type": "address"
        },
        {
          "indexed": true,
          "internalType": "address",
          "name": "sender",
          "type": "address"
        }
      ],
      "name": "RoleGranted",
      "type": "event"
    },
    {
      "anonymous": false,
      "inputs": [
        {
          "indexed": true,
          "internalType": "bytes32",
          "name": "role",
          "type": "bytes32"
        },
        {
          "indexed": true,
          "internalType": "address",
          "name": "account",
          "type": "address"
        },
        {
          "indexed": true,
          "internalType": "address",
          "name": "sender",
          "type": "address"
        }
      ],
      "name": "RoleRevoked",
      "type": "event"
    },
    {
      "inputs": [],
      "name": "DEFAULT_ADMIN_ROLE",
      "outputs": [
        {
          "internalType": "bytes32",
          "name": "",
          "type": "bytes32"
        }
      ],
      "stateMutability": "view",
      "type": "function",
      "constant": true
    },
    {
      "inputs": [],
      "name": "REGISTRY_ROLE",
      "outputs": [
        {
          "internalType": "bytes32",
          "name": "",
          "type": "bytes32"
        }
      ],
      "stateMutability": "view",
      "type": "function",
      "constant": true
    },
    {
      "inputs": [
        {
          "internalType": "bytes32",
          "name": "role",
          "type": "bytes32"
        }
      ],
      "name": "getRoleAdmin",
      "outputs": [
        {
          "internalType": "bytes32",
          "name": "",
          "type": "bytes32"
        }
      ],
      "stateMutability": "view",
      "type": "function",
      "constant": true
    },
    {
      "inputs": [
        {
          "internalType": "bytes32",
          "name": "role",
          "type": "bytes32"
        },
        {
          "internalType": "address",
          "name": "account",
          "type": "address"
        }
      ],
      "name": "grantRole",
      "outputs": [],
      "stateMutability": "nonpayable",
      "type": "function"
    },
    {
      "inputs": [
        {
          "internalType": "bytes32",
          "name": "role",
          "type": "bytes32"
        },
        {
          "internalType": "address",
          "name": "account",
          "type": "address"
        }
      ],
      "name": "hasRole",
      "outputs": [
        {
          "internalType": "bool",
          "name": "",
          "type": "bool"
        }
      ],
      "stateMutability": "view",
      "type": "function",
      "constant": true
    },
    {
      "inputs": [
        {
          "internalType": "bytes32",
          "name": "role",
          "type": "bytes32"
        },
        {
          "internalType": "address",
          "name": "account",
          "type": "address"
        }
      ],
      "name": "renounceRole",
      "outputs": [],
      "stateMutability": "nonpayable",
      "type": "function"
    },
    {
      "inputs": [
        {
          "internalType": "bytes32",
          "name": "role",
          "type": "bytes32"
        },
        {
          "internalType": "address",
          "name": "account",
          "type": "address"
        }
      ],
      "name": "revokeRole",
      "outputs": [],
      "stateMutability": "nonpayable",
      "type": "function"
    },
    {
      "inputs": [
        {
          "internalType": "bytes4",
          "name": "interfaceId",
          "type": "bytes4"
        }
      ],
      "name": "supportsInterface",
      "outputs": [
        {
          "internalType": "bool",
          "name": "",
          "type": "bool"
        }
      ],
      "stateMutability": "view",
      "type": "function",
      "constant": true
    },
    {
      "inputs": [
        {
          "internalType": "address",
          "name": "_botPartContract",
          "type": "address"
        }
      ],
      "name": "setBotPartContractAddress",
      "outputs": [],
      "stateMutability": "nonpayable",
      "type": "function"
    },
    {
      "inputs": [
        {
          "internalType": "address",
          "name": "_lootBoxContract",
          "type": "address"
        }
      ],
      "name": "setLootBoxContractAddress",
      "outputs": [],
      "stateMutability": "nonpayable",
      "type": "function"
    },
    {
      "inputs": [
        {
          "internalType": "address",
          "name": "_botHullContract",
          "type": "address"
        }
      ],
      "name": "setBotHullContractAddress",
      "outputs": [],
      "stateMutability": "nonpayable",
      "type": "function"
    },
    {
      "inputs": [
        {
          "internalType": "uint32",
          "name": "botPartType",
          "type": "uint32"
        },
        {
          "internalType": "uint8",
          "name": "statID",
          "type": "uint8"
        },
        {
          "components": [
            {
              "internalType": "uint16",
              "name": "min",
              "type": "uint16"
            },
            {
              "internalType": "uint32",
              "name": "lowerRangeProbability",
              "type": "uint32"
            },
            {
              "internalType": "uint16",
              "name": "middle",
              "type": "uint16"
            },
            {
              "internalType": "uint16",
              "name": "max",
              "type": "uint16"
            }
          ],
          "internalType": "struct GameDatabase.StatDistribution",
          "name": "distribution",
          "type": "tuple"
        }
      ],
      "name": "registerStatDistribution",
      "outputs": [],
      "stateMutability": "nonpayable",
      "type": "function"
    },
    {
      "inputs": [
        {
          "internalType": "uint256",
          "name": "botHullID",
          "type": "uint256"
        },
        {
          "internalType": "bool[5]",
          "name": "forceUpdates",
          "type": "bool[5]"
        }
      ],
      "name": "getBotHullSummaryHash",
      "outputs": [
        {
          "internalType": "bytes32",
          "name": "",
          "type": "bytes32"
        }
      ],
      "stateMutability": "nonpayable",
      "type": "function"
    },
    {
      "inputs": [
        {
          "internalType": "uint256",
          "name": "botPartID",
          "type": "uint256"
        },
        {
          "internalType": "bool",
          "name": "forceUpdate",
          "type": "bool"
        }
      ],
      "name": "getBotPartSummaryHash",
      "outputs": [
        {
          "internalType": "bytes32",
          "name": "",
          "type": "bytes32"
        }
      ],
      "stateMutability": "nonpayable",
      "type": "function"
    },
    {
      "inputs": [
        {
          "internalType": "uint256",
          "name": "botPartID",
          "type": "uint256"
        }
      ],
      "name": "resetBotPartSummaryHash",
      "outputs": [
        {
          "internalType": "bool",
          "name": "",
          "type": "bool"
        }
      ],
      "stateMutability": "nonpayable",
      "type": "function"
    },
    {
      "inputs": [
        {
          "internalType": "uint256",
          "name": "botPartID",
          "type": "uint256"
        },
        {
          "internalType": "uint8",
          "name": "statID",
          "type": "uint8"
        }
      ],
      "name": "getBotPartStat",
      "outputs": [
        {
          "internalType": "uint16",
          "name": "",
          "type": "uint16"
        }
      ],
      "stateMutability": "view",
      "type": "function",
      "constant": true
    }
  ],
  "bytecode": "0x60806040527fc2979137d1774e40fe2638d355bf7a7b092be4c67f242aad1655e1e27f9df9cc6001553480156200003557600080fd5b506200004360008062000066565b6001546200005390600062000066565b62000060600033620000b1565b62000161565b600082815260208190526040808220600101805490849055905190918391839186917fbd79b86ffe0ab8e8776151514217cd7cacd52c909f66475c3af44e129f0b00ff9190a4505050565b620000bd8282620000c1565b5050565b6000828152602081815260408083206001600160a01b038516845290915290205460ff16620000bd576000828152602081815260408083206001600160a01b03851684529091529020805460ff191660011790556200011d3390565b6001600160a01b0316816001600160a01b0316837f2f8788117e7eff1d82e926ec794901d17c78024a50270940304540a733656f0d60405160405180910390a45050565b611e1180620001716000396000f3fe608060405234801561001057600080fd5b50600436106101005760003560e01c806356fd95d511610097578063a217fddf11610066578063a217fddf1461024b578063cc817ce514610253578063cd60e42114610266578063d547741f1461027957600080fd5b806356fd95d5146101db57806359896703146101ee57806391d1485414610201578063988d90de1461023857600080fd5b80632f2ff15d116100d35780632f2ff15d1461019757806336568abe146101ac57806342f1e879146101bf578063528d60fb146101c857600080fd5b806301ffc9a71461010557806307caaeb71461012d578063248a9ca3146101535780632bd0bfe514610184575b600080fd5b61011861011336600461195f565b61028c565b60405190151581526020015b60405180910390f35b61014061013b3660046119f4565b610325565b60405161ffff9091168152602001610124565b610176610161366004611918565b60009081526020819052604090206001015490565b604051908152602001610124565b61017661019236600461199f565b6106c2565b6101aa6101a5366004611930565b610931565b005b6101aa6101ba366004611930565b61095c565b61017660015481565b6101186101d6366004611918565b6109ed565b6101aa6101e9366004611826565b610ab9565b6101aa6101fc366004611a3b565b610af5565b61011861020f366004611930565b6000918252602082815260408084206001600160a01b0393909316845291905290205460ff1690565b6101aa610246366004611826565b610b4f565b610176600081565b6101766102613660046119d0565b610b8b565b6101aa610274366004611826565b610dc1565b6101aa610287366004611930565b610dfd565b60007fffffffff0000000000000000000000000000000000000000000000000000000082167f7965db0b00000000000000000000000000000000000000000000000000000000148061031f57507f01ffc9a7000000000000000000000000000000000000000000000000000000007fffffffff000000000000000000000000000000000000000000000000000000008316145b92915050565b600060048260ff161061033757600080fd5b6005546040516331a9108f60e11b8152600481018590526001600160a01b03909116906000908290636352211e9060240160206040518083038186803b15801561038057600080fd5b505afa158015610394573d6000803e3d6000fd5b505050506040513d601f19601f820116820180604052508101906103b89190611842565b6001600160a01b031614156103cc57600080fd5b6040516303ea69c160e31b8152600481018590526000906001600160a01b03831690631f534e089060240160206040518083038186803b15801561040f57600080fd5b505afa158015610423573d6000803e3d6000fd5b505050506040513d601f19601f820116820180604052508101906104479190611a1f565b6040517ffd6c18610000000000000000000000000000000000000000000000000000000081526004810187905260ff861660248201529091506000906001600160a01b0384169063fd6c18619060440160206040518083038186803b1580156104af57600080fd5b505afa1580156104c3573d6000803e3d6000fd5b505050506040513d601f19601f820116820180604052508101906104e79190611a1f565b90506000600460008463ffffffff1663ffffffff1681526020019081526020016000208660ff166004811061052c57634e487b7160e01b600052603260045260246000fd5b01805490915060009063ffffffff6201000090910481169084161161060e5750805461ffff8082169160009161056f918491660100000000000090910416611bfb565b83549091506000906105aa9061059290879062010000900463ffffffff16611c1e565b855463ffffffff918216916201000090910416610e23565b905060006105b9826002610e73565b905060006105ed6105de6105d9846105d48861ffff16611121565b61113f565b611188565b67ffffffffffffffff166111a4565b90506105f98185611bfb565b6106039086611b79565b9450505050506106b7565b50805461ffff6601000000000000820481169160009161063d9184916801000000000000000090910416611bfb565b835490915060009061067a9061065f9062010000900463ffffffff1687611c1e565b855463ffffffff918216916201000090910481161916610e23565b90506000610689826002610e73565b905060006106a46105de6105d9846105d48861ffff16611121565b90506106b08186611b79565b9450505050505b979650505050505050565b6007546040516331a9108f60e11b8152600481018490526000916001600160a01b03169082908290636352211e9060240160206040518083038186803b15801561070b57600080fd5b505afa15801561071f573d6000803e3d6000fd5b505050506040513d601f19601f820116820180604052508101906107439190611842565b6001600160a01b0316141561075757600080fd5b6000848152600260205260409020541580159061077e575061077c60208401846118e0565b155b1561079957505060008281526002602052604090205461031f565b6040517fb6f7e4a8000000000000000000000000000000000000000000000000000000008152600481018590526000906001600160a01b0383169063b6f7e4a89060240160806040518083038186803b1580156107f557600080fd5b505afa158015610809573d6000803e3d6000fd5b505050506040513d601f19601f8201168201806040525081019061082d919061185e565b90506108376117f2565b60005b60048160ff1610156108eb576108b1838260ff166004811061086c57634e487b7160e01b600052603260045260246000fd5b60200201518761087d846001611bb7565b60ff166005811061089e57634e487b7160e01b600052603260045260246000fd5b60200201602081019061026191906118e0565b828260ff16600481106108d457634e487b7160e01b600052603260045260246000fd5b6020020152806108e381611c82565b91505061083a565b5085816040516020016108ff929190611b0b565b60408051601f198184030181529181528151602092830120600089815260029093529120819055935050505092915050565b60008281526020819052604090206001015461094d8133611222565b61095783836112a0565b505050565b6001600160a01b03811633146109df5760405162461bcd60e51b815260206004820152602f60248201527f416363657373436f6e74726f6c3a2063616e206f6e6c792072656e6f756e636560448201527f20726f6c657320666f722073656c66000000000000000000000000000000000060648201526084015b60405180910390fd5b6109e9828261133e565b5050565b600081815260036020526040812054610a0557600080fd5b6005546040517f4f558e79000000000000000000000000000000000000000000000000000000008152600481018490526001600160a01b0390911690634f558e799060240160206040518083038186803b158015610a6257600080fd5b505afa158015610a76573d6000803e3d6000fd5b505050506040513d601f19601f82011682018060405250810190610a9a91906118fc565b15610aa457600080fd5b60009182526003602052604082209190915590565b6000610ac58133611222565b506007805473ffffffffffffffffffffffffffffffffffffffff19166001600160a01b0392909216919091179055565b6000610b018133611222565b63ffffffff84166000908152600460208190526040909120839160ff8616908110610b3c57634e487b7160e01b600052603260045260246000fd5b01610b478282611ce1565b505050505050565b6000610b5b8133611222565b506006805473ffffffffffffffffffffffffffffffffffffffff19166001600160a01b0392909216919091179055565b6005546040516331a9108f60e11b8152600481018490526000916001600160a01b03169082908290636352211e9060240160206040518083038186803b158015610bd457600080fd5b505afa158015610be8573d6000803e3d6000fd5b505050506040513d601f19601f82011682018060405250810190610c0c9190611842565b6001600160a01b03161415610c2057600080fd5b60008481526003602052604090205415801590610c3b575082155b15610c5657505060008281526003602052604090205461031f565b6040516303ea69c160e31b8152600481018590526000906001600160a01b03831690631f534e089060240160206040518083038186803b158015610c9957600080fd5b505afa158015610cad573d6000803e3d6000fd5b505050506040513d601f19601f82011682018060405250810190610cd19190611a1f565b90506000610ce0866000610325565b90506000610cef876001610325565b90506000610cfe886002610325565b90506000610d0d896003610325565b6040805160208082018d905260e09890981b7fffffffff00000000000000000000000000000000000000000000000000000000168183015260f096871b7fffff000000000000000000000000000000000000000000000000000000000000908116604483015295871b8616604682015293861b85166048850152941b909216604a8201528251602c818303018152604c90910183528051908401206000978852600390935250909420849055509192915050565b6000610dcd8133611222565b506005805473ffffffffffffffffffffffffffffffffffffffff19166001600160a01b0392909216919091179055565b600082815260208190526040902060010154610e198133611222565b610957838361133e565b600081610e2f57600080fd5b6000610e3b84846113bd565b90506f7fffffffffffffffffffffffffffffff6fffffffffffffffffffffffffffffffff82161115610e6c57600080fd5b9392505050565b600080600084600f0b128015610e8c5750826001166001145b905060008085600f0b12610ea05784610ea5565b846000035b6fffffffffffffffffffffffffffffffff169050700100000000000000000000000000000000680100000000000000008211610f5557603f82901b91505b8415610f4d576001851615610ef8578102607f1c5b908002607f1c906002851615610f0e578102607f1c5b908002607f1c906004851615610f24578102607f1c5b908002607f1c906008851615610f3a578102607f1c5b60049490941c93908002607f1c90610ee3565b60401c6110c9565b603f6c01000000000000000000000000831015610f785760209290921b91601f19015b6e010000000000000000000000000000831015610f9b5760109290921b91600f19015b6f01000000000000000000000000000000831015610fbf5760089290921b91600719015b6f10000000000000000000000000000000831015610fe35760049290921b91600319015b6f400000000000000000000000000000008310156110075760029290921b91600119015b6f8000000000000000000000000000000083101561102b5760019290921b91600019015b60005b86156110b2576040821061104157600080fd5b600187161561107457918302607f1c91810170010000000000000000000000000000000083111561107457600192831c92015b928002607f1c9260019190911b9070010000000000000000000000000000000084106110a657600193841c9391909101905b600187901c965061102e565b604081106110bf57600080fd5b6040039190911c90505b6000836110d657816110db565b816000035b90506f7fffffffffffffffffffffffffffffff19811280159061110e57506f7fffffffffffffffffffffffffffffff8113155b61111757600080fd5b9695505050505050565b6000677fffffffffffffff82111561113857600080fd5b5060401b90565b6000600f83810b9083900b0260401d6f7fffffffffffffffffffffffffffffff19811280159061117f57506f7fffffffffffffffffffffffffffffff8113155b610e6c57600080fd5b60008082600f0b121561119a57600080fd5b50600f0b60401d90565b600061ffff82111561121e5760405162461bcd60e51b815260206004820152602660248201527f53616665436173743a2076616c756520646f65736e27742066697420696e203160448201527f362062697473000000000000000000000000000000000000000000000000000060648201526084016109d6565b5090565b6000828152602081815260408083206001600160a01b038516845290915290205460ff166109e95761125e816001600160a01b03166014611583565b611269836020611583565b60405160200161127a929190611a8a565b60408051601f198184030181529082905262461bcd60e51b82526109d691600401611b46565b6000828152602081815260408083206001600160a01b038516845290915290205460ff166109e9576000828152602081815260408083206001600160a01b03851684529091529020805460ff191660011790556112fa3390565b6001600160a01b0316816001600160a01b0316837f2f8788117e7eff1d82e926ec794901d17c78024a50270940304540a733656f0d60405160405180910390a45050565b6000828152602081815260408083206001600160a01b038516845290915290205460ff16156109e9576000828152602081815260408083206001600160a01b0385168085529252808320805460ff1916905551339285917ff6391f5c32d9c69d2a47ea670b442974b53935d1edc7fd64eb21e047a839171b9190a45050565b6000816113c957600080fd5b600077ffffffffffffffffffffffffffffffffffffffffffffffff84116114135782604085901b8161140b57634e487b7160e01b600052601260045260246000fd5b049050611566565b60c084811c640100000000811061142c576020918201911c5b62010000811061143e576010918201911c5b610100811061144f576008918201911c5b6010811061145f576004918201911c5b6004811061146f576002918201911c5b6002811061147e576001820191505b60bf820360018603901c6001018260ff0387901b816114ad57634e487b7160e01b600052601260045260246000fd5b0492506fffffffffffffffffffffffffffffffff8311156114cd57600080fd5b608085901c83026fffffffffffffffffffffffffffffffff8616840260c088901c604089901b82811015611502576001820391505b608084901b92900382811015611519576001820391505b829003608084901c821461153d57634e487b7160e01b600052600160045260246000fd5b88818161155a57634e487b7160e01b600052601260045260246000fd5b04870196505050505050505b6fffffffffffffffffffffffffffffffff811115610e6c57600080fd5b60606000611592836002611bdc565b61159d906002611b9f565b67ffffffffffffffff8111156115c357634e487b7160e01b600052604160045260246000fd5b6040519080825280601f01601f1916602001820160405280156115ed576020820181803683370190505b5090507f30000000000000000000000000000000000000000000000000000000000000008160008151811061163257634e487b7160e01b600052603260045260246000fd5b60200101907effffffffffffffffffffffffffffffffffffffffffffffffffffffffffffff1916908160001a9053507f7800000000000000000000000000000000000000000000000000000000000000816001815181106116a357634e487b7160e01b600052603260045260246000fd5b60200101907effffffffffffffffffffffffffffffffffffffffffffffffffffffffffffff1916908160001a90535060006116df846002611bdc565b6116ea906001611b9f565b90505b60018111156117a3577f303132333435363738396162636465660000000000000000000000000000000085600f166010811061173957634e487b7160e01b600052603260045260246000fd5b1a60f81b82828151811061175d57634e487b7160e01b600052603260045260246000fd5b60200101907effffffffffffffffffffffffffffffffffffffffffffffffffffffffffffff1916908160001a90535060049490941c9361179c81611c6b565b90506116ed565b508315610e6c5760405162461bcd60e51b815260206004820181905260248201527f537472696e67733a20686578206c656e67746820696e73756666696369656e7460448201526064016109d6565b60405180608001604052806004906020820280368337509192915050565b803560ff8116811461182157600080fd5b919050565b600060208284031215611837578081fd5b8135610e6c81611da3565b600060208284031215611853578081fd5b8151610e6c81611da3565b60006080828403121561186f578081fd5b82601f83011261187d578081fd5b6040516080810181811067ffffffffffffffff821117156118a0576118a0611cb8565b6040528083608081018610156118b4578384fd5b835b60048110156118d55781518352602092830192909101906001016118b6565b509195945050505050565b6000602082840312156118f1578081fd5b8135610e6c81611dbb565b60006020828403121561190d578081fd5b8151610e6c81611dbb565b600060208284031215611929578081fd5b5035919050565b60008060408385031215611942578081fd5b82359150602083013561195481611da3565b809150509250929050565b600060208284031215611970578081fd5b81357fffffffff0000000000000000000000000000000000000000000000000000000081168114610e6c578182fd5b60008060c083850312156119b1578182fd5b823591508360c0840111156119c4578081fd5b50926020919091019150565b600080604083850312156119e2578182fd5b82359150602083013561195481611dbb565b60008060408385031215611a06578182fd5b82359150611a1660208401611810565b90509250929050565b600060208284031215611a30578081fd5b8151610e6c81611dc9565b600080600083850360c0811215611a50578182fd5b8435611a5b81611dc9565b9350611a6960208601611810565b92506080603f1982011215611a7c578182fd5b506040840190509250925092565b7f416363657373436f6e74726f6c3a206163636f756e7420000000000000000000815260008351611ac2816017850160208801611c3b565b7f206973206d697373696e6720726f6c65200000000000000000000000000000006017918401918201528351611aff816028840160208801611c3b565b01602801949350505050565b8281526000602080830184835b6004811015611b3557815183529183019190830190600101611b18565b5050505060a0820190509392505050565b6020815260008251806020840152611b65816040850160208701611c3b565b601f01601f19169190910160400192915050565b600061ffff808316818516808303821115611b9657611b96611ca2565b01949350505050565b60008219821115611bb257611bb2611ca2565b500190565b600060ff821660ff84168060ff03821115611bd457611bd4611ca2565b019392505050565b6000816000190483118215151615611bf657611bf6611ca2565b500290565b600061ffff83811690831681811015611c1657611c16611ca2565b039392505050565b600063ffffffff83811690831681811015611c1657611c16611ca2565b60005b83811015611c56578181015183820152602001611c3e565b83811115611c65576000848401525b50505050565b600081611c7a57611c7a611ca2565b506000190190565b600060ff821660ff811415611c9957611c99611ca2565b60010192915050565b634e487b7160e01b600052601160045260246000fd5b634e487b7160e01b600052604160045260246000fd5b6000813561ffff8116811461031f578182fd5b61ffff611ced83611cce565b1681548161ffff1982161783556020840135611d0881611dc9565b65ffffffff00008160101b169050808365ffffffffffff1984161717845567ffff000000000000611d3b60408701611cce565b60301b168367ffffffffffffffff1984161793508084831717855569ffff0000000000000000611d6d60608801611cce565b60401b167fffffffffffffffffffffffffffffffffffffffffffff0000ffffffffffffffff851683178217178555505050505050565b6001600160a01b0381168114611db857600080fd5b50565b8015158114611db857600080fd5b63ffffffff81168114611db857600080fdfea26469706673582212201ab58e607a9f90279b6417c590f8c33ee57b9485678b2129c6762098b4acefd664736f6c63430008040033",
  "immutableReferences": {},
  "source": "// SPDX-License-Identifier: MIT\npragma solidity ^0.8.0;\n\nimport \"@openzeppelin/contracts/access/AccessControl.sol\";\nimport \"@openzeppelin/contracts/utils/math/SafeCast.sol\";\nimport \"abdk-libraries-solidity/ABDKMath64x64.sol\";\nimport \"./BotPart.sol\";\nimport \"./BotHull.sol\";\n\ncontract GameDatabase is AccessControl {\n\n    bytes32 public REGISTRY_ROLE = keccak256(\"REGISTRY_ROLE\");\n\n    struct StatDistribution {\n        uint16 min;\n        uint32 lowerRangeProbability;\n        uint16 middle;\n        uint16 max; \n    }\n\n    // BotHoll Index => Hash of all Parts etc.\n    mapping(uint256 => bytes32) private botHullSummaryHashes;\n\n    // BotPart Index => Hash of Stats etc.\n    mapping(uint256 => bytes32) private botPartSummaryHashes;\n\n    // BotPart Type => Normal Distribution of Stats\n    mapping(uint32 => StatDistribution[4]) private statDistributions;\n\n    address private botPartContract;\n    address private lootBoxContract;\n    address private botHullContract;\n\n    constructor() {\n        _setRoleAdmin(DEFAULT_ADMIN_ROLE, DEFAULT_ADMIN_ROLE);\n        _setRoleAdmin(REGISTRY_ROLE, DEFAULT_ADMIN_ROLE);\n        _setupRole(DEFAULT_ADMIN_ROLE, msg.sender);\n    }\n\n    function setBotPartContractAddress(address _botPartContract) public onlyRole(DEFAULT_ADMIN_ROLE) {\n        botPartContract = _botPartContract;\n    }\n\n    function setLootBoxContractAddress(address _lootBoxContract) public onlyRole(DEFAULT_ADMIN_ROLE) {\n        lootBoxContract = _lootBoxContract;\n    }\n\n    function setBotHullContractAddress(address _botHullContract) public onlyRole(DEFAULT_ADMIN_ROLE) {\n        botHullContract = _botHullContract;\n    }\n\n    function registerStatDistribution(uint32 botPartType, uint8 statID, StatDistribution calldata distribution) public onlyRole(DEFAULT_ADMIN_ROLE) {\n        statDistributions[botPartType][statID] = distribution;\n    }\n\n    function getBotHullSummaryHash(uint256 botHullID, bool[5] calldata forceUpdates) public returns (bytes32){\n        BotHull bh = BotHull(botHullContract);\n        require(bh.ownerOf(botHullID) != address(0x0));\n\n        if(botHullSummaryHashes[botHullID] != 0x0 && !forceUpdates[0]){\n            return botHullSummaryHashes[botHullID];\n        }\n\n        uint256[4] memory botParts = bh.getPartSlots(botHullID);\n        bytes32[4] memory hashes;\n        for(uint8 i = 0; i < botParts.length; i++){\n            hashes[i] = getBotPartSummaryHash(botParts[i], forceUpdates[i+1]);\n        }\n        botHullSummaryHashes[botHullID] = keccak256(abi.encodePacked(botHullID, hashes));\n        return botHullSummaryHashes[botHullID];\n    }\n\n    function getBotPartSummaryHash(uint256 botPartID, bool forceUpdate) public returns (bytes32){\n        BotPart bp = BotPart(botPartContract);\n        require(bp.ownerOf(botPartID) != address(0x0));\n\n        if(botPartSummaryHashes[botPartID] != 0x0 && !forceUpdate){\n            return botPartSummaryHashes[botPartID];\n        }\n\n        uint32 partType = bp.getBotPartType(botPartID);\n        uint16 statOne = getBotPartStat(botPartID, 0);\n        uint16 statTwo = getBotPartStat(botPartID, 1);\n        uint16 statThree = getBotPartStat(botPartID, 2);\n        uint16 statFour = getBotPartStat(botPartID, 3);\n\n        botPartSummaryHashes[botPartID] = keccak256(abi.encodePacked(botPartID, partType, statOne, statTwo, statThree, statFour));\n        return botPartSummaryHashes[botPartID];\n    }\n\n    function resetBotPartSummaryHash(uint256 botPartID) public returns (bool) {\n        require(botPartSummaryHashes[botPartID] != 0x0);\n        require(!BotPart(botPartContract).exists(botPartID));\n        botPartSummaryHashes[botPartID] = 0;\n    }\n\n    function getBotPartStat(uint256 botPartID, uint8 statID) view public returns (uint16) {\n        require(statID < 4);\n\n        BotPart bp = BotPart(botPartContract);\n        require(bp.ownerOf(botPartID) != address(0x0));\n        uint32 partType = bp.getBotPartType(botPartID);\n        uint32 stat = bp.getRawTokenStat(botPartID, statID);\n        StatDistribution storage distribution = statDistributions[partType][statID];\n\n        uint16 result;\n        if(stat <= distribution.lowerRangeProbability){\n            result = distribution.min;\n            uint16 range = (distribution.middle-distribution.min);\n            int128 x = ABDKMath64x64.divu(distribution.lowerRangeProbability-stat, distribution.lowerRangeProbability);\n            int128 y = ABDKMath64x64.pow(x, 2);\n            uint16 inverseRange = SafeCast.toUint16(ABDKMath64x64.toUInt(ABDKMath64x64.mul(y, ABDKMath64x64.fromUInt(range))));\n            result+= (range - inverseRange);\n        }else{\n            result = distribution.middle;\n            uint16 range = (distribution.max-distribution.middle);\n            int128 x = ABDKMath64x64.divu(stat-distribution.lowerRangeProbability, ~distribution.lowerRangeProbability);\n            int128 y = ABDKMath64x64.pow(x, 2);\n            uint16 calculatedRange = SafeCast.toUint16(ABDKMath64x64.toUInt(ABDKMath64x64.mul(y, ABDKMath64x64.fromUInt(range))));\n            result+= calculatedRange;\n        }\n        return result;\n    }\n\n}",
  "sourcePath": "/home/zorro/git/blockchain__general/prototype/contracts/polygon/GameDatabase.sol",
  "compiler": {
    "name": "solc",
    "version": "0.8.4+commit.c7e474f2.Emscripten.clang"
  },
  "schemaVersion": "3.4.3",
  "updatedAt": "2021-08-26T20:32:04.715Z",
  "networkType": "ethereum",
  "devdoc": {
    "kind": "dev",
    "methods": {
      "getRoleAdmin(bytes32)": {
        "details": "Returns the admin role that controls `role`. See {grantRole} and {revokeRole}. To change a role's admin, use {_setRoleAdmin}."
      },
      "grantRole(bytes32,address)": {
        "details": "Grants `role` to `account`. If `account` had not been already granted `role`, emits a {RoleGranted} event. Requirements: - the caller must have ``role``'s admin role."
      },
      "hasRole(bytes32,address)": {
        "details": "Returns `true` if `account` has been granted `role`."
      },
      "renounceRole(bytes32,address)": {
        "details": "Revokes `role` from the calling account. Roles are often managed via {grantRole} and {revokeRole}: this function's purpose is to provide a mechanism for accounts to lose their privileges if they are compromised (such as when a trusted device is misplaced). If the calling account had been granted `role`, emits a {RoleRevoked} event. Requirements: - the caller must be `account`."
      },
      "revokeRole(bytes32,address)": {
        "details": "Revokes `role` from `account`. If `account` had been granted `role`, emits a {RoleRevoked} event. Requirements: - the caller must have ``role``'s admin role."
      },
      "supportsInterface(bytes4)": {
        "details": "See {IERC165-supportsInterface}."
      }
    },
    "version": 1
  },
  "userdoc": {
    "kind": "user",
    "methods": {},
    "version": 1
  },
  "db": {
    "callBytecode": {
      "id": "0xb10b49fd9d84d1fea563395694f83e65545789f55a9f7a4148d6cea99b57d937"
    },
    "createBytecode": {
      "id": "0x83794dc7da0b65dfb7bb96b3aaac42eb8b0ad36312b9455e7328ccf8ad7c6117"
    },
    "contract": {
      "id": "0xa1a70accc6dd5a6f90e24f1c4edae1d15fd81ec91b0067bf19b0b91e17dcc19d"
    }
  }
}