{
  "contractName": "LootBox",
  "abi": [
    {
      "inputs": [
        {
          "internalType": "address",
          "name": "_devsTokenContract",
          "type": "address"
        },
        {
          "internalType": "address",
          "name": "_botHullContract",
          "type": "address"
        },
        {
          "internalType": "address",
          "name": "_botPartContract",
          "type": "address"
        },
        {
          "internalType": "address",
          "name": "_metaTransactionForwarder",
          "type": "address"
        }
      ],
      "stateMutability": "nonpayable",
      "type": "constructor"
    },
    {
      "anonymous": false,
      "inputs": [
        {
          "indexed": true,
          "internalType": "bytes32",
          "name": "role",
          "type": "bytes32"
        },
        {
          "indexed": true,
          "internalType": "bytes32",
          "name": "previousAdminRole",
          "type": "bytes32"
        },
        {
          "indexed": true,
          "internalType": "bytes32",
          "name": "newAdminRole",
          "type": "bytes32"
        }
      ],
      "name": "RoleAdminChanged",
      "type": "event"
    },
    {
      "anonymous": false,
      "inputs": [
        {
          "indexed": true,
          "internalType": "bytes32",
          "name": "role",
          "type": "bytes32"
        },
        {
          "indexed": true,
          "internalType": "address",
          "name": "account",
          "type": "address"
        },
        {
          "indexed": true,
          "internalType": "address",
          "name": "sender",
          "type": "address"
        }
      ],
      "name": "RoleGranted",
      "type": "event"
    },
    {
      "anonymous": false,
      "inputs": [
        {
          "indexed": true,
          "internalType": "bytes32",
          "name": "role",
          "type": "bytes32"
        },
        {
          "indexed": true,
          "internalType": "address",
          "name": "account",
          "type": "address"
        },
        {
          "indexed": true,
          "internalType": "address",
          "name": "sender",
          "type": "address"
        }
      ],
      "name": "RoleRevoked",
      "type": "event"
    },
    {
      "inputs": [],
      "name": "DEFAULT_ADMIN_ROLE",
      "outputs": [
        {
          "internalType": "bytes32",
          "name": "",
          "type": "bytes32"
        }
      ],
      "stateMutability": "view",
      "type": "function",
      "constant": true
    },
    {
      "inputs": [],
      "name": "ERC721_INTERFACE",
      "outputs": [
        {
          "internalType": "bytes32",
          "name": "",
          "type": "bytes32"
        }
      ],
      "stateMutability": "view",
      "type": "function",
      "constant": true
    },
    {
      "inputs": [],
      "name": "ERC777_INTERFACE",
      "outputs": [
        {
          "internalType": "bytes32",
          "name": "",
          "type": "bytes32"
        }
      ],
      "stateMutability": "view",
      "type": "function",
      "constant": true
    },
    {
      "inputs": [
        {
          "internalType": "uint8",
          "name": "",
          "type": "uint8"
        }
      ],
      "name": "amountItemsPerBox",
      "outputs": [
        {
          "internalType": "uint8",
          "name": "",
          "type": "uint8"
        }
      ],
      "stateMutability": "view",
      "type": "function",
      "constant": true
    },
    {
      "inputs": [],
      "name": "botHullContract",
      "outputs": [
        {
          "internalType": "address",
          "name": "",
          "type": "address"
        }
      ],
      "stateMutability": "view",
      "type": "function",
      "constant": true
    },
    {
      "inputs": [],
      "name": "botPartContract",
      "outputs": [
        {
          "internalType": "address",
          "name": "",
          "type": "address"
        }
      ],
      "stateMutability": "view",
      "type": "function",
      "constant": true
    },
    {
      "inputs": [],
      "name": "devsTokenContract",
      "outputs": [
        {
          "internalType": "address",
          "name": "",
          "type": "address"
        }
      ],
      "stateMutability": "view",
      "type": "function",
      "constant": true
    },
    {
      "inputs": [
        {
          "internalType": "bytes32",
          "name": "role",
          "type": "bytes32"
        }
      ],
      "name": "getRoleAdmin",
      "outputs": [
        {
          "internalType": "bytes32",
          "name": "",
          "type": "bytes32"
        }
      ],
      "stateMutability": "view",
      "type": "function",
      "constant": true
    },
    {
      "inputs": [
        {
          "internalType": "bytes32",
          "name": "role",
          "type": "bytes32"
        },
        {
          "internalType": "address",
          "name": "account",
          "type": "address"
        }
      ],
      "name": "grantRole",
      "outputs": [],
      "stateMutability": "nonpayable",
      "type": "function"
    },
    {
      "inputs": [
        {
          "internalType": "bytes32",
          "name": "role",
          "type": "bytes32"
        },
        {
          "internalType": "address",
          "name": "account",
          "type": "address"
        }
      ],
      "name": "hasRole",
      "outputs": [
        {
          "internalType": "bool",
          "name": "",
          "type": "bool"
        }
      ],
      "stateMutability": "view",
      "type": "function",
      "constant": true
    },
    {
      "inputs": [
        {
          "internalType": "uint8",
          "name": "",
          "type": "uint8"
        }
      ],
      "name": "lootBoxPrices",
      "outputs": [
        {
          "internalType": "uint256",
          "name": "",
          "type": "uint256"
        }
      ],
      "stateMutability": "view",
      "type": "function",
      "constant": true
    },
    {
      "inputs": [],
      "name": "metaTransactionForwarder",
      "outputs": [
        {
          "internalType": "address",
          "name": "",
          "type": "address"
        }
      ],
      "stateMutability": "view",
      "type": "function",
      "constant": true
    },
    {
      "inputs": [
        {
          "internalType": "uint8",
          "name": "",
          "type": "uint8"
        },
        {
          "internalType": "uint256",
          "name": "",
          "type": "uint256"
        }
      ],
      "name": "probabilityDistribution",
      "outputs": [
        {
          "internalType": "uint16",
          "name": "",
          "type": "uint16"
        }
      ],
      "stateMutability": "view",
      "type": "function",
      "constant": true
    },
    {
      "inputs": [
        {
          "internalType": "bytes32",
          "name": "role",
          "type": "bytes32"
        },
        {
          "internalType": "address",
          "name": "account",
          "type": "address"
        }
      ],
      "name": "renounceRole",
      "outputs": [],
      "stateMutability": "nonpayable",
      "type": "function"
    },
    {
      "inputs": [
        {
          "internalType": "bytes32",
          "name": "role",
          "type": "bytes32"
        },
        {
          "internalType": "address",
          "name": "account",
          "type": "address"
        }
      ],
      "name": "revokeRole",
      "outputs": [],
      "stateMutability": "nonpayable",
      "type": "function"
    },
    {
      "inputs": [
        {
          "internalType": "bytes4",
          "name": "interfaceId",
          "type": "bytes4"
        }
      ],
      "name": "supportsInterface",
      "outputs": [
        {
          "internalType": "bool",
          "name": "",
          "type": "bool"
        }
      ],
      "stateMutability": "view",
      "type": "function",
      "constant": true
    },
    {
      "inputs": [
        {
          "internalType": "address",
          "name": "_devsTokenContract",
          "type": "address"
        }
      ],
      "name": "setDevsTokenContract",
      "outputs": [],
      "stateMutability": "nonpayable",
      "type": "function"
    },
    {
      "inputs": [
        {
          "internalType": "address",
          "name": "_botHullContract",
          "type": "address"
        }
      ],
      "name": "setBotHullContract",
      "outputs": [],
      "stateMutability": "nonpayable",
      "type": "function"
    },
    {
      "inputs": [
        {
          "internalType": "address",
          "name": "_botPartContract",
          "type": "address"
        }
      ],
      "name": "setBotPartContract",
      "outputs": [],
      "stateMutability": "nonpayable",
      "type": "function"
    },
    {
      "inputs": [
        {
          "internalType": "uint8",
          "name": "boxID",
          "type": "uint8"
        },
        {
          "internalType": "uint256",
          "name": "price",
          "type": "uint256"
        },
        {
          "internalType": "uint8",
          "name": "itemAmount",
          "type": "uint8"
        },
        {
          "internalType": "uint16[]",
          "name": "itemProbabilities",
          "type": "uint16[]"
        }
      ],
      "name": "createLootBox",
      "outputs": [],
      "stateMutability": "nonpayable",
      "type": "function"
    },
    {
      "inputs": [
        {
          "internalType": "uint8",
          "name": "boxID",
          "type": "uint8"
        },
        {
          "internalType": "uint16",
          "name": "seed",
          "type": "uint16"
        },
        {
          "internalType": "address",
          "name": "from",
          "type": "address"
        }
      ],
      "name": "openLootBox",
      "outputs": [
        {
          "internalType": "uint256[]",
          "name": "",
          "type": "uint256[]"
        }
      ],
      "stateMutability": "nonpayable",
      "type": "function"
    },
    {
      "inputs": [
        {
          "internalType": "address",
          "name": "operator",
          "type": "address"
        },
        {
          "internalType": "address",
          "name": "from",
          "type": "address"
        },
        {
          "internalType": "address",
          "name": "",
          "type": "address"
        },
        {
          "internalType": "uint256",
          "name": "amount",
          "type": "uint256"
        },
        {
          "internalType": "bytes",
          "name": "userData",
          "type": "bytes"
        },
        {
          "internalType": "bytes",
          "name": "",
          "type": "bytes"
        }
      ],
      "name": "tokensReceived",
      "outputs": [],
      "stateMutability": "nonpayable",
      "type": "function"
    }
  ],
  "bytecode": "0x60806040523480156200001157600080fd5b5060405162001f4a38038062001f4a83398101604081905262000034916200024e565b6040516329965a1d60e01b815230600482018190527fac7fbab5f54a3ca8194167523c6753bfeb96a445279294b6125b68cce217705460248301526044820152731820a4b7618bde71dce8cdc73aab6c95905fad24906329965a1d90606401600060405180830381600087803b158015620000ae57600080fd5b505af1158015620000c3573d6000803e3d6000fd5b5050600180546001600160a01b038089166001600160a01b03199283161790925560028054888416908316179055600380548784169083161790556004805492861692909116919091179055506200011f905060008062000136565b6200012c60003362000181565b50505050620002aa565b600082815260208190526040808220600101805490849055905190918391839186917fbd79b86ffe0ab8e8776151514217cd7cacd52c909f66475c3af44e129f0b00ff9190a4505050565b6200018d828262000191565b5050565b6000828152602081815260408083206001600160a01b038516845290915290205460ff166200018d576000828152602081815260408083206001600160a01b03851684529091529020805460ff19166001179055620001ed3390565b6001600160a01b0316816001600160a01b0316837f2f8788117e7eff1d82e926ec794901d17c78024a50270940304540a733656f0d60405160405180910390a45050565b80516001600160a01b03811681146200024957600080fd5b919050565b6000806000806080858703121562000264578384fd5b6200026f8562000231565b93506200027f6020860162000231565b92506200028f6040860162000231565b91506200029f6060860162000231565b905092959194509250565b611c9080620002ba6000396000f3fe608060405234801561001057600080fd5b50600436106101815760003560e01c806341ccc2bc116100d8578063a217fddf1161008c578063d547741f11610066578063d547741f146103cc578063ec95d2da146103df578063ff755e3f146103f257600080fd5b8063a217fddf1461038b578063b912619e14610393578063c1efa022146103b957600080fd5b80637ad4e58e116100bd5780637ad4e58e1461030d57806391d148541461033457806395331ea41461036b57600080fd5b806341ccc2bc146102c55780636f1e07fd146102d857600080fd5b8063248a9ca31161013a5780633266b5d4116101145780633266b5d41461027857806336568abe1461028b5780633a2041ec1461029e57600080fd5b8063248a9ca31461022f57806324b5aa64146102525780632f2ff15d1461026557600080fd5b806304d15b871161016b57806304d15b87146101c35780630570d37c146101f157806318f428d51461020457600080fd5b806223de291461018657806301ffc9a71461019b575b600080fd5b610199610194366004611775565b610405565b005b6101ae6101a936600461186a565b610579565b60405190151581526020015b60405180910390f35b6101e36101d13660046118dc565b60056020526000908152604090205481565b6040519081526020016101ba565b6101996101ff366004611965565b610612565b600454610217906001600160a01b031681565b6040516001600160a01b0390911681526020016101ba565b6101e361023d366004611823565b60009081526020819052604090206001015490565b600254610217906001600160a01b031681565b61019961027336600461183b565b610768565b61019961028636600461173d565b610793565b61019961029936600461183b565b610899565b6101e37fac7fbab5f54a3ca8194167523c6753bfeb96a445279294b6125b68cce217705481565b6101996102d336600461173d565b61092a565b6102fb6102e63660046118dc565b60066020526000908152604090205460ff1681565b60405160ff90911681526020016101ba565b6101e37f2c817c6313458c967fa5089301c436cc3b6a4c156f9ef2a88b21aef0280ef04481565b6101ae61034236600461183b565b6000918252602082815260408084206001600160a01b0393909316845291905290205460ff1690565b61037e6103793660046118f6565b610a30565b6040516101ba9190611a7f565b6101e3600081565b6103a66103a136600461193c565b610c11565b60405161ffff90911681526020016101ba565b6101996103c736600461173d565b610c58565b6101996103da36600461183b565b610d5e565b600354610217906001600160a01b031681565b600154610217906001600160a01b031681565b6001546001600160a01b0316331461041c57600080fd5b6001600160a01b03881615806104325750600183145b61043b57600080fd5b600061047c85858080601f01602080910402602001604051908101604052809392919081815260200183838082843760009201829052509250610d84915050565b60ff811660009081526005602052604090205490915061049b57600080fd5b60ff811660009081526005602052604090205486146104b957600080fd5b60ff808216600090815260066020526040902054166104d757600080fd5b600154604080517ffe9d9303000000000000000000000000000000000000000000000000000000008152600481018990526024810191909152600060448201526001600160a01b039091169063fe9d930390606401600060405180830381600087803b15801561054657600080fd5b505af115801561055a573d6000803e3d6000fd5b5050505061056d8882632050d43b610dea565b50505050505050505050565b60007fffffffff0000000000000000000000000000000000000000000000000000000082167f7965db0b00000000000000000000000000000000000000000000000000000000148061060c57507f01ffc9a7000000000000000000000000000000000000000000000000000000007fffffffff000000000000000000000000000000000000000000000000000000008316145b92915050565b600061061e8133610fb4565b60ff86166000908152600560205260409020541561063b57600080fd5b60ff808716600090815260066020526040902054161561065a57600080fd5b6000805b8381101561070b578161ffff1685858381811061068b57634e487b7160e01b600052603260045260246000fd5b90506020020160208101906106a091906118aa565b61ffff1610156106af57600080fd5b8484828181106106cf57634e487b7160e01b600052603260045260246000fd5b90506020020160208101906106e491906118aa565b915061ffff8261ffff1611156106f957600080fd5b8061070381611bd1565b91505061065e565b508061ffff1661ffff1461071e57600080fd5b60ff87811660009081526005602090815260408083208a905560068252808320805460ff1916948a1694909417909355600790522061075e908585611615565b5050505050505050565b6000828152602081905260409020600101546107848133610fb4565b61078e8383611032565b505050565b600061079f8133610fb4565b60405163555ddc6560e11b81526001600160a01b03831660048201527fac7fbab5f54a3ca8194167523c6753bfeb96a445279294b6125b68cce21770546024820152600090731820a4b7618bde71dce8cdc73aab6c95905fad249063aabbb8ca9060440160206040518083038186803b15801561081b57600080fd5b505afa15801561082f573d6000803e3d6000fd5b505050506040513d601f19601f820116820180604052508101906108539190611759565b90506001600160a01b03811661086857600080fd5b50506001805473ffffffffffffffffffffffffffffffffffffffff19166001600160a01b0392909216919091179055565b6001600160a01b038116331461091c5760405162461bcd60e51b815260206004820152602f60248201527f416363657373436f6e74726f6c3a2063616e206f6e6c792072656e6f756e636560448201527f20726f6c657320666f722073656c66000000000000000000000000000000000060648201526084015b60405180910390fd5b61092682826110d0565b5050565b60006109368133610fb4565b60405163555ddc6560e11b81526001600160a01b03831660048201527f2c817c6313458c967fa5089301c436cc3b6a4c156f9ef2a88b21aef0280ef0446024820152600090731820a4b7618bde71dce8cdc73aab6c95905fad249063aabbb8ca9060440160206040518083038186803b1580156109b257600080fd5b505afa1580156109c6573d6000803e3d6000fd5b505050506040513d601f19601f820116820180604052508101906109ea9190611759565b90506001600160a01b0381166109ff57600080fd5b50506003805473ffffffffffffffffffffffffffffffffffffffff19166001600160a01b0392909216919091179055565b6060336001600160a01b0383161480610a5357506004546001600160a01b031633145b610a5c57600080fd5b60ff8416600090815260056020526040902054610a7857600080fd5b60ff80851660009081526006602052604090205416610a9657600080fd5b60015460ff8516600090815260056020526040908190205490517f70a082310000000000000000000000000000000000000000000000000000000081526001600160a01b0385811660048301529092169182906370a082319060240160206040518083038186803b158015610b0a57600080fd5b505afa158015610b1e573d6000803e3d6000fd5b505050506040513d601f19601f82011682018060405250810190610b4291906118c4565b1015610b4d57600080fd5b60ff85166000908152600560205260408082205490517ffc673c4f0000000000000000000000000000000000000000000000000000000081526001600160a01b0386811660048301526024820192909252608060448201526084810183905260a0606482015260a481019290925282169063fc673c4f9060c401600060405180830381600087803b158015610be157600080fd5b505af1158015610bf5573d6000803e3d6000fd5b50505050610c0883868661ffff16610dea565b95945050505050565b60076020528160005260406000208181548110610c2d57600080fd5b9060005260206000209060109182820401919006600202915091509054906101000a900461ffff1681565b6000610c648133610fb4565b60405163555ddc6560e11b81526001600160a01b03831660048201527fac7fbab5f54a3ca8194167523c6753bfeb96a445279294b6125b68cce21770546024820152600090731820a4b7618bde71dce8cdc73aab6c95905fad249063aabbb8ca9060440160206040518083038186803b158015610ce057600080fd5b505afa158015610cf4573d6000803e3d6000fd5b505050506040513d601f19601f82011682018060405250810190610d189190611759565b90506001600160a01b038116610d2d57600080fd5b50506002805473ffffffffffffffffffffffffffffffffffffffff19166001600160a01b0392909216919091179055565b600082815260208190526040902060010154610d7a8133610fb4565b61078e83836110d0565b6000610d91826001611b2a565b83511015610de15760405162461bcd60e51b815260206004820152601360248201527f746f55696e74385f6f75744f66426f756e6473000000000000000000000000006044820152606401610913565b50016001015190565b604080516000808252602082019092526060915b60ff80861660009081526006602052604090205416811015610fab57610e2584601561114f565b935060005b60ff86166000908152600760205260409020805461ffff8716919083908110610e6357634e487b7160e01b600052603260045260246000fd5b60009182526020909120601082040154600f9091166002026101000a900461ffff161015610e9d5780610e9581611bd1565b915050610e2a565b6003546001600160a01b0316631775dd9a88610ec6610ec164010000000086611c0c565b6111b1565b610ee0610edb8a610ed689611231565b61114f565b6112ab565b6040517fffffffff0000000000000000000000000000000000000000000000000000000060e086901b1681526001600160a01b03909316600484015263ffffffff9190911660248301526fffffffffffffffffffffffffffffffff166044820152606401602060405180830381600087803b158015610f5e57600080fd5b505af1158015610f72573d6000803e3d6000fd5b505050506040513d601f19601f82011682018060405250810190610f9691906118c4565b50508080610fa390611bd1565b915050610dfe565b50949350505050565b6000828152602081815260408083206001600160a01b038516845290915290205460ff1661092657610ff0816001600160a01b03166014611317565b610ffb836020611317565b60405160200161100c9291906119fe565b60408051601f198184030181529082905262461bcd60e51b825261091391600401611ac3565b6000828152602081815260408083206001600160a01b038516845290915290205460ff16610926576000828152602081815260408083206001600160a01b03851684529091529020805460ff1916600117905561108c3390565b6001600160a01b0316816001600160a01b0316837f2f8788117e7eff1d82e926ec794901d17c78024a50270940304540a733656f0d60405160405180910390a45050565b6000828152602081815260408083206001600160a01b038516845290915290205460ff1615610926576000828152602081815260408083206001600160a01b0385168085529252808320805460ff1916905551339285917ff6391f5c32d9c69d2a47ea670b442974b53935d1edc7fd64eb21e047a839171b9190a45050565b6000828260405160200161119292919091825260f01b7fffff00000000000000000000000000000000000000000000000000000000000016602082015260220190565b60408051601f1981840301815291905280516020909101209392505050565b600063ffffffff82111561122d5760405162461bcd60e51b815260206004820152602660248201527f53616665436173743a2076616c756520646f65736e27742066697420696e203360448201527f32206269747300000000000000000000000000000000000000000000000000006064820152608401610913565b5090565b600061ffff82111561122d5760405162461bcd60e51b815260206004820152602660248201527f53616665436173743a2076616c756520646f65736e27742066697420696e203160448201527f36206269747300000000000000000000000000000000000000000000000000006064820152608401610913565b600080805b60048160ff161015611310576112c9848260ff1661114f565b93506112f26112d9826020611b61565b60ff166112eb64010000000087611c0c565b901b61158d565b6112fc9083611af6565b91508061130881611bec565b9150506112b0565b5092915050565b60606000611326836002611b42565b611331906002611b2a565b67ffffffffffffffff81111561135757634e487b7160e01b600052604160045260246000fd5b6040519080825280601f01601f191660200182016040528015611381576020820181803683370190505b5090507f3000000000000000000000000000000000000000000000000000000000000000816000815181106113c657634e487b7160e01b600052603260045260246000fd5b60200101907effffffffffffffffffffffffffffffffffffffffffffffffffffffffffffff1916908160001a9053507f78000000000000000000000000000000000000000000000000000000000000008160018151811061143757634e487b7160e01b600052603260045260246000fd5b60200101907effffffffffffffffffffffffffffffffffffffffffffffffffffffffffffff1916908160001a9053506000611473846002611b42565b61147e906001611b2a565b90505b6001811115611537577f303132333435363738396162636465660000000000000000000000000000000085600f16601081106114cd57634e487b7160e01b600052603260045260246000fd5b1a60f81b8282815181106114f157634e487b7160e01b600052603260045260246000fd5b60200101907effffffffffffffffffffffffffffffffffffffffffffffffffffffffffffff1916908160001a90535060049490941c9361153081611bba565b9050611481565b5083156115865760405162461bcd60e51b815260206004820181905260248201527f537472696e67733a20686578206c656e67746820696e73756666696369656e746044820152606401610913565b9392505050565b60006fffffffffffffffffffffffffffffffff82111561122d5760405162461bcd60e51b815260206004820152602760248201527f53616665436173743a2076616c756520646f65736e27742066697420696e203160448201527f32382062697473000000000000000000000000000000000000000000000000006064820152608401610913565b82805482825590600052602060002090600f016010900481019282156116b25791602002820160005b8382111561168257833561ffff1683826101000a81548161ffff021916908361ffff160217905550926020019260020160208160010104928301926001030261163e565b80156116b05782816101000a81549061ffff0219169055600201602081600101049283019260010302611682565b505b5061122d9291505b8082111561122d57600081556001016116ba565b60008083601f8401126116df578182fd5b50813567ffffffffffffffff8111156116f6578182fd5b60208301915083602082850101111561170e57600080fd5b9250929050565b803561ffff8116811461172757600080fd5b919050565b803560ff8116811461172757600080fd5b60006020828403121561174e578081fd5b813561158681611c42565b60006020828403121561176a578081fd5b815161158681611c42565b60008060008060008060008060c0898b031215611790578384fd5b883561179b81611c42565b975060208901356117ab81611c42565b965060408901356117bb81611c42565b955060608901359450608089013567ffffffffffffffff808211156117de578586fd5b6117ea8c838d016116ce565b909650945060a08b0135915080821115611802578384fd5b5061180f8b828c016116ce565b999c989b5096995094979396929594505050565b600060208284031215611834578081fd5b5035919050565b6000806040838503121561184d578182fd5b82359150602083013561185f81611c42565b809150509250929050565b60006020828403121561187b578081fd5b81357fffffffff0000000000000000000000000000000000000000000000000000000081168114611586578182fd5b6000602082840312156118bb578081fd5b61158682611715565b6000602082840312156118d5578081fd5b5051919050565b6000602082840312156118ed578081fd5b6115868261172c565b60008060006060848603121561190a578283fd5b6119138461172c565b925061192160208501611715565b9150604084013561193181611c42565b809150509250925092565b6000806040838503121561194e578182fd5b6119578361172c565b946020939093013593505050565b60008060008060006080868803121561197c578081fd5b6119858661172c565b94506020860135935061199a6040870161172c565b9250606086013567ffffffffffffffff808211156119b6578283fd5b818801915088601f8301126119c9578283fd5b8135818111156119d7578384fd5b8960208260051b85010111156119eb578384fd5b9699959850939650602001949392505050565b7f416363657373436f6e74726f6c3a206163636f756e7420000000000000000000815260008351611a36816017850160208801611b8a565b7f206973206d697373696e6720726f6c65200000000000000000000000000000006017918401918201528351611a73816028840160208801611b8a565b01602801949350505050565b6020808252825182820181905260009190848201906040850190845b81811015611ab757835183529284019291840191600101611a9b565b50909695505050505050565b6020815260008251806020840152611ae2816040850160208701611b8a565b601f01601f19169190910160400192915050565b60006fffffffffffffffffffffffffffffffff808316818516808303821115611b2157611b21611c2c565b01949350505050565b60008219821115611b3d57611b3d611c2c565b500190565b6000816000190483118215151615611b5c57611b5c611c2c565b500290565b600060ff821660ff84168160ff0481118215151615611b8257611b82611c2c565b029392505050565b60005b83811015611ba5578181015183820152602001611b8d565b83811115611bb4576000848401525b50505050565b600081611bc957611bc9611c2c565b506000190190565b6000600019821415611be557611be5611c2c565b5060010190565b600060ff821660ff811415611c0357611c03611c2c565b60010192915050565b600082611c2757634e487b7160e01b81526012600452602481fd5b500690565b634e487b7160e01b600052601160045260246000fd5b6001600160a01b0381168114611c5757600080fd5b5056fea2646970667358221220446bef4c51295150ac668058248525c9c9c314c5ad69d2c7715584c51d7104bb64736f6c63430008040033",
  "immutableReferences": {},
  "source": "// SPDX-License-Identifier: MIT\npragma solidity ^0.8.0;\n\nimport \"@openzeppelin/contracts/access/AccessControl.sol\";\nimport \"@openzeppelin/contracts/token/ERC721/IERC721.sol\";\nimport \"@openzeppelin/contracts/token/ERC777/ERC777.sol\";\nimport \"@openzeppelin/contracts/token/ERC777/IERC777Recipient.sol\";\nimport \"@openzeppelin/contracts/utils/introspection/IERC1820Registry.sol\";\nimport \"@openzeppelin/contracts/utils/introspection/ERC165Checker.sol\";\nimport \"solidity-bytes-utils/contracts/BytesLib.sol\";\nimport \"./DevLaunchersToken.sol\";\nimport \"./BotHull.sol\";\nimport \"./BotPart.sol\";\nimport \"@openzeppelin/contracts/utils/math/SafeCast.sol\";\nimport \"./EIP712Forwarder.sol\";\n\ncontract LootBox is AccessControl, IERC777Recipient {\n\n  IERC1820Registry private constant _ERC1820_REGISTRY = IERC1820Registry(0x1820a4B7618BdE71Dce8cdc73aAB6C95905faD24);\n\n  bytes32 public constant ERC777_INTERFACE = keccak256(\"ERC777Token\");\n  bytes32 public constant ERC721_INTERFACE = keccak256(\"ERC721Token\");\n\n  address public devsTokenContract;\n  address public botHullContract;\n  address public botPartContract;\n  address public metaTransactionForwarder;\n\n  mapping(uint8 => uint256) public lootBoxPrices;\n  mapping(uint8 => uint8) public amountItemsPerBox;\n  mapping(uint8 => uint16[]) public probabilityDistribution; //boxID => Array(Index=partTypeID,val=sum(previous+current probability))\n\n  constructor(address _devsTokenContract, address _botHullContract, address _botPartContract, address _metaTransactionForwarder)\n    {\n      _ERC1820_REGISTRY.setInterfaceImplementer(address(this), 0xac7fbab5f54a3ca8194167523c6753bfeb96a445279294b6125b68cce2177054, address(this));\n\n      devsTokenContract = _devsTokenContract;\n      botHullContract = _botHullContract;\n      botPartContract = _botPartContract;\n      metaTransactionForwarder = _metaTransactionForwarder;\n\n      _setRoleAdmin(DEFAULT_ADMIN_ROLE, DEFAULT_ADMIN_ROLE);\n      _setupRole(DEFAULT_ADMIN_ROLE, msg.sender);\n    }\n\n    function setDevsTokenContract(address _devsTokenContract) public onlyRole(DEFAULT_ADMIN_ROLE) {\n      address implementer = _ERC1820_REGISTRY.getInterfaceImplementer(_devsTokenContract, ERC777_INTERFACE);\n      require(implementer != address(0));\n      devsTokenContract = _devsTokenContract;\n    }\n\n    function setBotHullContract(address _botHullContract) public onlyRole(DEFAULT_ADMIN_ROLE) {\n      address implementer = _ERC1820_REGISTRY.getInterfaceImplementer(_botHullContract, ERC777_INTERFACE);\n      require(implementer != address(0));\n      botHullContract = _botHullContract;\n    }\n\n    function setBotPartContract(address _botPartContract) public onlyRole(DEFAULT_ADMIN_ROLE) {\n      address implementer = _ERC1820_REGISTRY.getInterfaceImplementer(_botPartContract, ERC721_INTERFACE);\n      require(implementer != address(0));\n      botPartContract = _botPartContract;\n    }\n\n    function createLootBox(uint8 boxID, uint256 price, uint8 itemAmount, uint16[] calldata itemProbabilities) public onlyRole(DEFAULT_ADMIN_ROLE) {\n      require(lootBoxPrices[boxID] == 0);\n      require(amountItemsPerBox[boxID] == 0);\n      uint16 prob = 0;\n      for(uint i = 0; i < itemProbabilities.length;i++){\n        require(itemProbabilities[i] >= prob);\n        prob = itemProbabilities[i];\n        require(prob <= 0xFFFF);\n      }\n      require(prob == 0xFFFF);\n\n      lootBoxPrices[boxID] = price;\n      amountItemsPerBox[boxID] = itemAmount;\n      probabilityDistribution[boxID] = itemProbabilities;\n    }\n\n    // Seed is used here as INSECURE randomized number, needs to be replaced either by operator provided random or Chainlink Random\n    function openLootBox(uint8 boxID, uint16 seed, address from) public returns (uint256[] memory) {\n      require(msg.sender == from || msg.sender == metaTransactionForwarder);\n      require(lootBoxPrices[boxID] != 0);\n      require(amountItemsPerBox[boxID] != 0);\n\n      DevLaunchersToken devsToken = DevLaunchersToken(devsTokenContract);\n      require(devsToken.balanceOf(from) >= lootBoxPrices[boxID]);\n\n      devsToken.operatorBurn(from, lootBoxPrices[boxID], \"\", \"\");\n\n      return _openLootBox(from, boxID, seed);\n    }\n\n    function _openLootBox(address receiver, uint8 boxID, uint256 seed) private returns (uint256[] memory) {\n      uint256[] memory items = new uint256[](0);\n      for(uint item = 0; item < amountItemsPerBox[boxID]; item++){\n        seed = _pseudoRand(seed, 21);\n        uint i = 0;\n        while(probabilityDistribution[boxID][i] < (seed & 0xFFFF)){\n          i++;\n        }\n\n        BotPart(botPartContract).mintItem(receiver, SafeCast.toUint32(i % 2**32), _generateStats(_pseudoRand(seed, SafeCast.toUint16(item))));\n      }\n      return items;\n    }\n\n    function _generateStats(uint256 seed) private pure returns (uint128) {\n      uint128 stats = 0;\n      for(uint8 i = 0; i < 4; i++){\n        seed = _pseudoRand(seed, i);\n        stats += SafeCast.toUint128((seed % 2**32) << (i*32));\n      }\n      return stats;\n    }\n\n    function _pseudoRand(uint256 seed, uint16 id) private pure returns (uint256){\n      return uint256(keccak256(abi.encodePacked(seed, id)));\n    }\n\n    function tokensReceived(\n        address operator,\n        address from,\n        address,\n        uint256 amount,\n        bytes calldata userData,\n        bytes calldata\n    ) external override {\n      require(msg.sender == devsTokenContract);\n      require(operator == address(0) || userData.length == 1);\n      uint8 boxID = BytesLib.toUint8(userData, 0);\n\n      require(lootBoxPrices[boxID] != 0);\n      require(lootBoxPrices[boxID] == amount);\n      require(amountItemsPerBox[boxID] != 0);\n\n      DevLaunchersToken(devsTokenContract).burn(amount, \"\");\n\n      // SEED Mechanism needs to be changed ASAP\n      _openLootBox(from, boxID, 542168123);\n    }\n\n}\n\n",
  "sourcePath": "/home/zorro/git/blockchain__general/prototype/contracts/polygon/LootBox.sol",
  "compiler": {
    "name": "solc",
    "version": "0.8.4+commit.c7e474f2.Emscripten.clang"
  },
  "schemaVersion": "3.4.3",
  "updatedAt": "2021-08-26T20:31:35.254Z",
  "networkType": "ethereum",
  "devdoc": {
    "kind": "dev",
    "methods": {
      "getRoleAdmin(bytes32)": {
        "details": "Returns the admin role that controls `role`. See {grantRole} and {revokeRole}. To change a role's admin, use {_setRoleAdmin}."
      },
      "grantRole(bytes32,address)": {
        "details": "Grants `role` to `account`. If `account` had not been already granted `role`, emits a {RoleGranted} event. Requirements: - the caller must have ``role``'s admin role."
      },
      "hasRole(bytes32,address)": {
        "details": "Returns `true` if `account` has been granted `role`."
      },
      "renounceRole(bytes32,address)": {
        "details": "Revokes `role` from the calling account. Roles are often managed via {grantRole} and {revokeRole}: this function's purpose is to provide a mechanism for accounts to lose their privileges if they are compromised (such as when a trusted device is misplaced). If the calling account had been granted `role`, emits a {RoleRevoked} event. Requirements: - the caller must be `account`."
      },
      "revokeRole(bytes32,address)": {
        "details": "Revokes `role` from `account`. If `account` had been granted `role`, emits a {RoleRevoked} event. Requirements: - the caller must have ``role``'s admin role."
      },
      "supportsInterface(bytes4)": {
        "details": "See {IERC165-supportsInterface}."
      }
    },
    "version": 1
  },
  "userdoc": {
    "kind": "user",
    "methods": {},
    "version": 1
  },
  "db": {
    "callBytecode": {
      "id": "0x498593b99dd6bb2b78310392c561185c464bc55c4f5ec9b1f8d1410ca17acde4"
    },
    "createBytecode": {
      "id": "0x8e46eec97f060476ee4b2a898ffd9e01f633683b44c9eca3dad3d94184232782"
    },
    "contract": {
      "id": "0x7ec82a9eed64c6c96da1614b283b3f2f90ad8d34f2dcd87bdbde8fb818eedd0e"
    }
  }
}