{
  "contractName": "LootBox",
  "abi": [
    {
      "inputs": [
        {
          "internalType": "address",
          "name": "_devsTokenContract",
          "type": "address"
        },
        {
          "internalType": "address",
          "name": "_botHullContract",
          "type": "address"
        },
        {
          "internalType": "address",
          "name": "_botPartContract",
          "type": "address"
        }
      ],
      "stateMutability": "nonpayable",
      "type": "constructor"
    },
    {
      "anonymous": false,
      "inputs": [
        {
          "indexed": true,
          "internalType": "bytes32",
          "name": "role",
          "type": "bytes32"
        },
        {
          "indexed": true,
          "internalType": "bytes32",
          "name": "previousAdminRole",
          "type": "bytes32"
        },
        {
          "indexed": true,
          "internalType": "bytes32",
          "name": "newAdminRole",
          "type": "bytes32"
        }
      ],
      "name": "RoleAdminChanged",
      "type": "event"
    },
    {
      "anonymous": false,
      "inputs": [
        {
          "indexed": true,
          "internalType": "bytes32",
          "name": "role",
          "type": "bytes32"
        },
        {
          "indexed": true,
          "internalType": "address",
          "name": "account",
          "type": "address"
        },
        {
          "indexed": true,
          "internalType": "address",
          "name": "sender",
          "type": "address"
        }
      ],
      "name": "RoleGranted",
      "type": "event"
    },
    {
      "anonymous": false,
      "inputs": [
        {
          "indexed": true,
          "internalType": "bytes32",
          "name": "role",
          "type": "bytes32"
        },
        {
          "indexed": true,
          "internalType": "address",
          "name": "account",
          "type": "address"
        },
        {
          "indexed": true,
          "internalType": "address",
          "name": "sender",
          "type": "address"
        }
      ],
      "name": "RoleRevoked",
      "type": "event"
    },
    {
      "inputs": [],
      "name": "DEFAULT_ADMIN_ROLE",
      "outputs": [
        {
          "internalType": "bytes32",
          "name": "",
          "type": "bytes32"
        }
      ],
      "stateMutability": "view",
      "type": "function",
      "constant": true
    },
    {
      "inputs": [],
      "name": "ERC721_INTERFACE",
      "outputs": [
        {
          "internalType": "bytes32",
          "name": "",
          "type": "bytes32"
        }
      ],
      "stateMutability": "view",
      "type": "function",
      "constant": true
    },
    {
      "inputs": [],
      "name": "ERC777_INTERFACE",
      "outputs": [
        {
          "internalType": "bytes32",
          "name": "",
          "type": "bytes32"
        }
      ],
      "stateMutability": "view",
      "type": "function",
      "constant": true
    },
    {
      "inputs": [
        {
          "internalType": "uint8",
          "name": "",
          "type": "uint8"
        }
      ],
      "name": "amountItemsPerBox",
      "outputs": [
        {
          "internalType": "uint8",
          "name": "",
          "type": "uint8"
        }
      ],
      "stateMutability": "view",
      "type": "function",
      "constant": true
    },
    {
      "inputs": [],
      "name": "botHullContract",
      "outputs": [
        {
          "internalType": "address",
          "name": "",
          "type": "address"
        }
      ],
      "stateMutability": "view",
      "type": "function",
      "constant": true
    },
    {
      "inputs": [],
      "name": "botPartContract",
      "outputs": [
        {
          "internalType": "address",
          "name": "",
          "type": "address"
        }
      ],
      "stateMutability": "view",
      "type": "function",
      "constant": true
    },
    {
      "inputs": [],
      "name": "devsTokenContract",
      "outputs": [
        {
          "internalType": "address",
          "name": "",
          "type": "address"
        }
      ],
      "stateMutability": "view",
      "type": "function",
      "constant": true
    },
    {
      "inputs": [
        {
          "internalType": "bytes32",
          "name": "role",
          "type": "bytes32"
        }
      ],
      "name": "getRoleAdmin",
      "outputs": [
        {
          "internalType": "bytes32",
          "name": "",
          "type": "bytes32"
        }
      ],
      "stateMutability": "view",
      "type": "function",
      "constant": true
    },
    {
      "inputs": [
        {
          "internalType": "bytes32",
          "name": "role",
          "type": "bytes32"
        },
        {
          "internalType": "address",
          "name": "account",
          "type": "address"
        }
      ],
      "name": "grantRole",
      "outputs": [],
      "stateMutability": "nonpayable",
      "type": "function"
    },
    {
      "inputs": [
        {
          "internalType": "bytes32",
          "name": "role",
          "type": "bytes32"
        },
        {
          "internalType": "address",
          "name": "account",
          "type": "address"
        }
      ],
      "name": "hasRole",
      "outputs": [
        {
          "internalType": "bool",
          "name": "",
          "type": "bool"
        }
      ],
      "stateMutability": "view",
      "type": "function",
      "constant": true
    },
    {
      "inputs": [
        {
          "internalType": "uint8",
          "name": "",
          "type": "uint8"
        }
      ],
      "name": "lootBoxPrices",
      "outputs": [
        {
          "internalType": "uint256",
          "name": "",
          "type": "uint256"
        }
      ],
      "stateMutability": "view",
      "type": "function",
      "constant": true
    },
    {
      "inputs": [
        {
          "internalType": "uint8",
          "name": "",
          "type": "uint8"
        },
        {
          "internalType": "uint256",
          "name": "",
          "type": "uint256"
        }
      ],
      "name": "probabilityDistribution",
      "outputs": [
        {
          "internalType": "uint16",
          "name": "",
          "type": "uint16"
        }
      ],
      "stateMutability": "view",
      "type": "function",
      "constant": true
    },
    {
      "inputs": [
        {
          "internalType": "bytes32",
          "name": "role",
          "type": "bytes32"
        },
        {
          "internalType": "address",
          "name": "account",
          "type": "address"
        }
      ],
      "name": "renounceRole",
      "outputs": [],
      "stateMutability": "nonpayable",
      "type": "function"
    },
    {
      "inputs": [
        {
          "internalType": "bytes32",
          "name": "role",
          "type": "bytes32"
        },
        {
          "internalType": "address",
          "name": "account",
          "type": "address"
        }
      ],
      "name": "revokeRole",
      "outputs": [],
      "stateMutability": "nonpayable",
      "type": "function"
    },
    {
      "inputs": [
        {
          "internalType": "bytes4",
          "name": "interfaceId",
          "type": "bytes4"
        }
      ],
      "name": "supportsInterface",
      "outputs": [
        {
          "internalType": "bool",
          "name": "",
          "type": "bool"
        }
      ],
      "stateMutability": "view",
      "type": "function",
      "constant": true
    },
    {
      "inputs": [
        {
          "internalType": "address",
          "name": "_devsTokenContract",
          "type": "address"
        }
      ],
      "name": "setDevsTokenContract",
      "outputs": [],
      "stateMutability": "nonpayable",
      "type": "function"
    },
    {
      "inputs": [
        {
          "internalType": "address",
          "name": "_botHullContract",
          "type": "address"
        }
      ],
      "name": "setBotHullContract",
      "outputs": [],
      "stateMutability": "nonpayable",
      "type": "function"
    },
    {
      "inputs": [
        {
          "internalType": "address",
          "name": "_botPartContract",
          "type": "address"
        }
      ],
      "name": "setBotPartContract",
      "outputs": [],
      "stateMutability": "nonpayable",
      "type": "function"
    },
    {
      "inputs": [
        {
          "internalType": "uint8",
          "name": "boxID",
          "type": "uint8"
        },
        {
          "internalType": "uint256",
          "name": "price",
          "type": "uint256"
        },
        {
          "internalType": "uint8",
          "name": "itemAmount",
          "type": "uint8"
        },
        {
          "internalType": "uint16[]",
          "name": "itemProbabilities",
          "type": "uint16[]"
        }
      ],
      "name": "createLootBox",
      "outputs": [],
      "stateMutability": "nonpayable",
      "type": "function"
    },
    {
      "inputs": [
        {
          "internalType": "uint8",
          "name": "boxID",
          "type": "uint8"
        },
        {
          "internalType": "uint16",
          "name": "seed",
          "type": "uint16"
        }
      ],
      "name": "openLootBox",
      "outputs": [
        {
          "internalType": "uint256[]",
          "name": "",
          "type": "uint256[]"
        }
      ],
      "stateMutability": "nonpayable",
      "type": "function"
    },
    {
      "inputs": [
        {
          "internalType": "address",
          "name": "operator",
          "type": "address"
        },
        {
          "internalType": "address",
          "name": "from",
          "type": "address"
        },
        {
          "internalType": "address",
          "name": "",
          "type": "address"
        },
        {
          "internalType": "uint256",
          "name": "amount",
          "type": "uint256"
        },
        {
          "internalType": "bytes",
          "name": "userData",
          "type": "bytes"
        },
        {
          "internalType": "bytes",
          "name": "",
          "type": "bytes"
        }
      ],
      "name": "tokensReceived",
      "outputs": [],
      "stateMutability": "nonpayable",
      "type": "function"
    }
  ],
  "bytecode": "0x60806040523480156200001157600080fd5b5060405162001ff538038062001ff5833981016040819052620000349162000249565b6040516329965a1d60e01b815230600482018190527fac7fbab5f54a3ca8194167523c6753bfeb96a445279294b6125b68cce217705460248301526044820152731820a4b7618bde71dce8cdc73aab6c95905fad24906329965a1d90606401600060405180830381600087803b158015620000ae57600080fd5b505af1158015620000c3573d6000803e3d6000fd5b5050600180546001600160a01b038088166001600160a01b0319928316179092556002805487841690831617905560038054928616929091169190911790555062000112905060008062000128565b6200011f6000336200017c565b50505062000292565b600082815260208190526040902060010154819060405184907fbd79b86ffe0ab8e8776151514217cd7cacd52c909f66475c3af44e129f0b00ff90600090a460009182526020829052604090912060010155565b6200018882826200018c565b5050565b6000828152602081815260408083206001600160a01b038516845290915290205460ff1662000188576000828152602081815260408083206001600160a01b03851684529091529020805460ff19166001179055620001e83390565b6001600160a01b0316816001600160a01b0316837f2f8788117e7eff1d82e926ec794901d17c78024a50270940304540a733656f0d60405160405180910390a45050565b80516001600160a01b03811681146200024457600080fd5b919050565b6000806000606084860312156200025e578283fd5b62000269846200022c565b925062000279602085016200022c565b915062000289604085016200022c565b90509250925092565b611d5380620002a26000396000f3fe608060405234801561001057600080fd5b50600436106101765760003560e01c80634148f3b0116100d8578063a217fddf1161008c578063d547741f11610066578063d547741f146103ae578063ec95d2da146103c1578063ff755e3f146103d457600080fd5b8063a217fddf1461036d578063b912619e14610375578063c1efa0221461039b57600080fd5b80636f1e07fd116100bd5780636f1e07fd146102da5780637ad4e58e1461030f57806391d148541461033657600080fd5b80634148f3b0146102a757806341ccc2bc146102c757600080fd5b806324b5aa641161012f5780633266b5d4116101145780633266b5d41461025a57806336568abe1461026d5780633a2041ec1461028057600080fd5b806324b5aa641461021c5780632f2ff15d1461024757600080fd5b806304d15b871161016057806304d15b87146101b85780630570d37c146101e6578063248a9ca3146101f957600080fd5b806223de291461017b57806301ffc9a714610190575b600080fd5b61018e610189366004611869565b6103e7565b005b6101a361019e36600461195e565b61055b565b60405190151581526020015b60405180910390f35b6101d86101c63660046119d0565b60046020526000908152604090205481565b6040519081526020016101af565b61018e6101f4366004611a45565b6105f4565b6101d8610207366004611917565b60009081526020819052604090206001015490565b60025461022f906001600160a01b031681565b6040516001600160a01b0390911681526020016101af565b61018e61025536600461192f565b61074a565b61018e610268366004611831565b610775565b61018e61027b36600461192f565b61087b565b6101d87fac7fbab5f54a3ca8194167523c6753bfeb96a445279294b6125b68cce217705481565b6102ba6102b53660046119ea565b61090c565b6040516101af9190611bd0565b61018e6102d5366004611831565b610ac4565b6102fd6102e83660046119d0565b60056020526000908152604090205460ff1681565b60405160ff90911681526020016101af565b6101d87f2c817c6313458c967fa5089301c436cc3b6a4c156f9ef2a88b21aef0280ef04481565b6101a361034436600461192f565b6000918252602082815260408084206001600160a01b0393909316845291905290205460ff1690565b6101d8600081565b610388610383366004611a1c565b610bca565b60405161ffff90911681526020016101af565b61018e6103a9366004611831565b610c11565b61018e6103bc36600461192f565b610d17565b60035461022f906001600160a01b031681565b60015461022f906001600160a01b031681565b6001546001600160a01b031633146103fe57600080fd5b6001600160a01b03881615806104145750600183145b61041d57600080fd5b600061045e85858080601f01602080910402602001604051908101604052809392919081815260200183838082843760009201829052509250610d3d915050565b60ff811660009081526004602052604090205490915061047d57600080fd5b60ff8116600090815260046020526040902054861461049b57600080fd5b60ff808216600090815260056020526040902054166104b957600080fd5b600154604080517ffe9d9303000000000000000000000000000000000000000000000000000000008152600481018990526024810191909152600060448201526001600160a01b039091169063fe9d930390606401600060405180830381600087803b15801561052857600080fd5b505af115801561053c573d6000803e3d6000fd5b5050505061054f8882632050d43b610da3565b50505050505050505050565b60007fffffffff0000000000000000000000000000000000000000000000000000000082167f7965db0b0000000000000000000000000000000000000000000000000000000014806105ee57507f01ffc9a7000000000000000000000000000000000000000000000000000000007fffffffff000000000000000000000000000000000000000000000000000000008316145b92915050565b6000610600813361109a565b60ff86166000908152600460205260409020541561061d57600080fd5b60ff808716600090815260056020526040902054161561063c57600080fd5b6000805b838110156106ed578161ffff1685858381811061066d57634e487b7160e01b600052603260045260246000fd5b9050602002016020810190610682919061199e565b61ffff16101561069157600080fd5b8484828181106106b157634e487b7160e01b600052603260045260246000fd5b90506020020160208101906106c6919061199e565b915061ffff8261ffff1611156106db57600080fd5b806106e581611c94565b915050610640565b508061ffff1661ffff1461070057600080fd5b60ff87811660009081526004602090815260408083208a905560058252808320805460ff1916948a16949094179093556006905220610740908585611709565b5050505050505050565b600082815260208190526040902060010154610766813361109a565b6107708383611118565b505050565b6000610781813361109a565b60405163555ddc6560e11b81526001600160a01b03831660048201527fac7fbab5f54a3ca8194167523c6753bfeb96a445279294b6125b68cce21770546024820152600090731820a4b7618bde71dce8cdc73aab6c95905fad249063aabbb8ca9060440160206040518083038186803b1580156107fd57600080fd5b505afa158015610811573d6000803e3d6000fd5b505050506040513d601f19601f82011682018060405250810190610835919061184d565b90506001600160a01b03811661084a57600080fd5b50506001805473ffffffffffffffffffffffffffffffffffffffff19166001600160a01b0392909216919091179055565b6001600160a01b03811633146108fe5760405162461bcd60e51b815260206004820152602f60248201527f416363657373436f6e74726f6c3a2063616e206f6e6c792072656e6f756e636560448201527f20726f6c657320666f722073656c66000000000000000000000000000000000060648201526084015b60405180910390fd5b61090882826111b6565b5050565b60ff821660009081526004602052604090205460609061092b57600080fd5b60ff8084166000908152600560205260409020541661094957600080fd5b60015460ff84166000908152600460208190526040918290205491517f70a0823100000000000000000000000000000000000000000000000000000000815233918101919091526001600160a01b039092169182906370a082319060240160206040518083038186803b1580156109bf57600080fd5b505afa1580156109d3573d6000803e3d6000fd5b505050506040513d601f19601f820116820180604052508101906109f791906119b8565b1015610a0257600080fd5b60ff841660009081526004602081905260408083205490517ffc673c4f00000000000000000000000000000000000000000000000000000000815233928101929092526024820152608060448201526084810182905260a0606482015260a48101919091526001600160a01b0382169063fc673c4f9060c401600060405180830381600087803b158015610a9557600080fd5b505af1158015610aa9573d6000803e3d6000fd5b50505050610abc33858561ffff16610da3565b949350505050565b6000610ad0813361109a565b60405163555ddc6560e11b81526001600160a01b03831660048201527f2c817c6313458c967fa5089301c436cc3b6a4c156f9ef2a88b21aef0280ef0446024820152600090731820a4b7618bde71dce8cdc73aab6c95905fad249063aabbb8ca9060440160206040518083038186803b158015610b4c57600080fd5b505afa158015610b60573d6000803e3d6000fd5b505050506040513d601f19601f82011682018060405250810190610b84919061184d565b90506001600160a01b038116610b9957600080fd5b50506003805473ffffffffffffffffffffffffffffffffffffffff19166001600160a01b0392909216919091179055565b60066020528160005260406000208181548110610be657600080fd5b9060005260206000209060109182820401919006600202915091509054906101000a900461ffff1681565b6000610c1d813361109a565b60405163555ddc6560e11b81526001600160a01b03831660048201527fac7fbab5f54a3ca8194167523c6753bfeb96a445279294b6125b68cce21770546024820152600090731820a4b7618bde71dce8cdc73aab6c95905fad249063aabbb8ca9060440160206040518083038186803b158015610c9957600080fd5b505afa158015610cad573d6000803e3d6000fd5b505050506040513d601f19601f82011682018060405250810190610cd1919061184d565b90506001600160a01b038116610ce657600080fd5b50506002805473ffffffffffffffffffffffffffffffffffffffff19166001600160a01b0392909216919091179055565b600082815260208190526040902060010154610d33813361109a565b61077083836111b6565b6000610d4a826001611c16565b83511015610d9a5760405162461bcd60e51b815260206004820152601360248201527f746f55696e74385f6f75744f66426f756e64730000000000000000000000000060448201526064016108f5565b50016001015190565b604080516000808252602082019092526060915b60ff8086166000908152600560205260409020541681101561109157610dde846015611235565b935060005b60ff86166000908152600660205260409020805461ffff8716919083908110610e1c57634e487b7160e01b600052603260045260246000fd5b60009182526020909120601082040154600f9091166002026101000a900461ffff161015610e565780610e4e81611c94565b915050610de3565b6020811015610fc9576002546000906001600160a01b031663b05a141e610e87610e8261010086611ccf565b611297565b6040517fffffffff0000000000000000000000000000000000000000000000000000000060e084901b16815260ff909116600482015260240160206040518083038186803b158015610ed857600080fd5b505afa158015610eec573d6000803e3d6000fd5b505050506040513d601f19601f82011682018060405250810190610f10919061184d565b90506001600160a01b038116610f2557600080fd5b6040517fdcdc7dd00000000000000000000000000000000000000000000000000000000081526001600160a01b038981166004830152670de0b6b3a764000060248301526080604483015260006084830181905260a0606484015260a483015282169063dcdc7dd09060c401600060405180830381600087803b158015610fab57600080fd5b505af1158015610fbf573d6000803e3d6000fd5b505050505061107e565b6003546001600160a01b0316630b56761c88610ff2610fed64010000000086611ccf565b611314565b61100c6110078a61100289611390565b611235565b61140a565b6040518463ffffffff1660e01b815260040161102a93929190611b99565b602060405180830381600087803b15801561104457600080fd5b505af1158015611058573d6000803e3d6000fd5b505050506040513d601f19601f8201168201806040525081019061107c91906119b8565b505b508061108981611c94565b915050610db7565b50949350505050565b6000828152602081815260408083206001600160a01b038516845290915290205460ff16610908576110d6816001600160a01b03166014611493565b6110e1836020611493565b6040516020016110f2929190611b18565b60408051601f198184030181529082905262461bcd60e51b82526108f591600401611be3565b6000828152602081815260408083206001600160a01b038516845290915290205460ff16610908576000828152602081815260408083206001600160a01b03851684529091529020805460ff191660011790556111723390565b6001600160a01b0316816001600160a01b0316837f2f8788117e7eff1d82e926ec794901d17c78024a50270940304540a733656f0d60405160405180910390a45050565b6000828152602081815260408083206001600160a01b038516845290915290205460ff1615610908576000828152602081815260408083206001600160a01b0385168085529252808320805460ff1916905551339285917ff6391f5c32d9c69d2a47ea670b442974b53935d1edc7fd64eb21e047a839171b9190a45050565b6000828260405160200161127892919091825260f01b7fffff00000000000000000000000000000000000000000000000000000000000016602082015260220190565b60408051601f1981840301815291905280516020909101209392505050565b600061010082106113105760405162461bcd60e51b815260206004820152602560248201527f53616665436173743a2076616c756520646f65736e27742066697420696e203860448201527f206269747300000000000000000000000000000000000000000000000000000060648201526084016108f5565b5090565b600064010000000082106113105760405162461bcd60e51b815260206004820152602660248201527f53616665436173743a2076616c756520646f65736e27742066697420696e203360448201527f322062697473000000000000000000000000000000000000000000000000000060648201526084016108f5565b60006201000082106113105760405162461bcd60e51b815260206004820152602660248201527f53616665436173743a2076616c756520646f65736e27742066697420696e203160448201527f362062697473000000000000000000000000000000000000000000000000000060648201526084016108f5565b604080516003808252608082019092526060916000919060208201848036833701905050905060005b60038160ff16101561148c5761144c848260ff16611235565b828260ff168151811061146f57634e487b7160e01b600052603260045260246000fd5b60209081029190910101528061148481611caf565b915050611433565b5092915050565b606060006114a2836002611c2e565b6114ad906002611c16565b67ffffffffffffffff8111156114d357634e487b7160e01b600052604160045260246000fd5b6040519080825280601f01601f1916602001820160405280156114fd576020820181803683370190505b5090507f30000000000000000000000000000000000000000000000000000000000000008160008151811061154257634e487b7160e01b600052603260045260246000fd5b60200101907effffffffffffffffffffffffffffffffffffffffffffffffffffffffffffff1916908160001a9053507f7800000000000000000000000000000000000000000000000000000000000000816001815181106115b357634e487b7160e01b600052603260045260246000fd5b60200101907effffffffffffffffffffffffffffffffffffffffffffffffffffffffffffff1916908160001a90535060006115ef846002611c2e565b6115fa906001611c16565b90505b60018111156116b3577f303132333435363738396162636465660000000000000000000000000000000085600f166010811061164957634e487b7160e01b600052603260045260246000fd5b1a60f81b82828151811061166d57634e487b7160e01b600052603260045260246000fd5b60200101907effffffffffffffffffffffffffffffffffffffffffffffffffffffffffffff1916908160001a90535060049490941c936116ac81611c7d565b90506115fd565b5083156117025760405162461bcd60e51b815260206004820181905260248201527f537472696e67733a20686578206c656e67746820696e73756666696369656e7460448201526064016108f5565b9392505050565b82805482825590600052602060002090600f016010900481019282156117a65791602002820160005b8382111561177657833561ffff1683826101000a81548161ffff021916908361ffff1602179055509260200192600201602081600101049283019260010302611732565b80156117a45782816101000a81549061ffff0219169055600201602081600101049283019260010302611776565b505b506113109291505b8082111561131057600081556001016117ae565b60008083601f8401126117d3578182fd5b50813567ffffffffffffffff8111156117ea578182fd5b60208301915083602082850101111561180257600080fd5b9250929050565b803561ffff8116811461181b57600080fd5b919050565b803560ff8116811461181b57600080fd5b600060208284031215611842578081fd5b813561170281611d05565b60006020828403121561185e578081fd5b815161170281611d05565b60008060008060008060008060c0898b031215611884578384fd5b883561188f81611d05565b9750602089013561189f81611d05565b965060408901356118af81611d05565b955060608901359450608089013567ffffffffffffffff808211156118d2578586fd5b6118de8c838d016117c2565b909650945060a08b01359150808211156118f6578384fd5b506119038b828c016117c2565b999c989b5096995094979396929594505050565b600060208284031215611928578081fd5b5035919050565b60008060408385031215611941578182fd5b82359150602083013561195381611d05565b809150509250929050565b60006020828403121561196f578081fd5b81357fffffffff0000000000000000000000000000000000000000000000000000000081168114611702578182fd5b6000602082840312156119af578081fd5b61170282611809565b6000602082840312156119c9578081fd5b5051919050565b6000602082840312156119e1578081fd5b61170282611820565b600080604083850312156119fc578182fd5b611a0583611820565b9150611a1360208401611809565b90509250929050565b60008060408385031215611a2e578182fd5b611a3783611820565b946020939093013593505050565b600080600080600060808688031215611a5c578081fd5b611a6586611820565b945060208601359350611a7a60408701611820565b9250606086013567ffffffffffffffff80821115611a96578283fd5b818801915088601f830112611aa9578283fd5b813581811115611ab7578384fd5b8960208260051b8501011115611acb578384fd5b9699959850939650602001949392505050565b6000815180845260208085019450808401835b83811015611b0d57815187529582019590820190600101611af1565b509495945050505050565b7f416363657373436f6e74726f6c3a206163636f756e7420000000000000000000815260008351611b50816017850160208801611c4d565b7f206973206d697373696e6720726f6c65200000000000000000000000000000006017918401918201528351611b8d816028840160208801611c4d565b01602801949350505050565b6001600160a01b038416815263ffffffff83166020820152606060408201526000611bc76060830184611ade565b95945050505050565b6020815260006117026020830184611ade565b6020815260008251806020840152611c02816040850160208701611c4d565b601f01601f19169190910160400192915050565b60008219821115611c2957611c29611cef565b500190565b6000816000190483118215151615611c4857611c48611cef565b500290565b60005b83811015611c68578181015183820152602001611c50565b83811115611c77576000848401525b50505050565b600081611c8c57611c8c611cef565b506000190190565b6000600019821415611ca857611ca8611cef565b5060010190565b600060ff821660ff811415611cc657611cc6611cef565b60010192915050565b600082611cea57634e487b7160e01b81526012600452602481fd5b500690565b634e487b7160e01b600052601160045260246000fd5b6001600160a01b0381168114611d1a57600080fd5b5056fea26469706673582212206c85c593091423b9a566e724c41a7acd84f11fd9bfe5030d5bf050bdedcc529d64736f6c63430008040033",
  "immutableReferences": {},
  "source": "// SPDX-License-Identifier: MIT\npragma solidity ^0.8.0;\n\nimport \"@openzeppelin/contracts/access/AccessControl.sol\";\nimport \"@openzeppelin/contracts/token/ERC721/IERC721.sol\";\nimport \"@openzeppelin/contracts/token/ERC777/ERC777.sol\";\nimport \"@openzeppelin/contracts/token/ERC777/IERC777Recipient.sol\";\nimport \"@openzeppelin/contracts/utils/introspection/IERC1820Registry.sol\";\nimport \"@openzeppelin/contracts/utils/introspection/ERC165Checker.sol\";\nimport \"solidity-bytes-utils/contracts/BytesLib.sol\";\nimport \"./DevLaunchersToken.sol\";\nimport \"./BotHull.sol\";\nimport \"./BotPart.sol\";\nimport \"./BotInstructionToken.sol\";\nimport \"@openzeppelin/contracts/utils/math/SafeCast.sol\";\n\ncontract LootBox is AccessControl, IERC777Recipient {\n\n  IERC1820Registry private constant _ERC1820_REGISTRY = IERC1820Registry(0x1820a4B7618BdE71Dce8cdc73aAB6C95905faD24);\n\n  bytes32 public constant ERC777_INTERFACE = keccak256(\"ERC777Token\");\n  bytes32 public constant ERC721_INTERFACE = keccak256(\"ERC721Token\");\n\n  address public devsTokenContract;\n  address public botHullContract;\n  address public botPartContract;\n\n  mapping(uint8 => uint256) public lootBoxPrices;\n  mapping(uint8 => uint8) public amountItemsPerBox;\n  mapping(uint8 => uint16[]) public probabilityDistribution; //boxID => Array(Index=partTypeID,val=sum(previous+current probability))\n\n  constructor(address _devsTokenContract, address _botHullContract, address _botPartContract)\n    {\n      _ERC1820_REGISTRY.setInterfaceImplementer(address(this), 0xac7fbab5f54a3ca8194167523c6753bfeb96a445279294b6125b68cce2177054, address(this));\n\n      devsTokenContract = _devsTokenContract;\n      botHullContract = _botHullContract;\n      botPartContract = _botPartContract;\n\n      _setRoleAdmin(DEFAULT_ADMIN_ROLE, DEFAULT_ADMIN_ROLE);\n      _setupRole(DEFAULT_ADMIN_ROLE, msg.sender);\n    }\n\n    function setDevsTokenContract(address _devsTokenContract) public onlyRole(DEFAULT_ADMIN_ROLE) {\n      address implementer = _ERC1820_REGISTRY.getInterfaceImplementer(_devsTokenContract, ERC777_INTERFACE);\n      require(implementer != address(0));\n      devsTokenContract = _devsTokenContract;\n    }\n\n    function setBotHullContract(address _botHullContract) public onlyRole(DEFAULT_ADMIN_ROLE) {\n      address implementer = _ERC1820_REGISTRY.getInterfaceImplementer(_botHullContract, ERC777_INTERFACE);\n      require(implementer != address(0));\n      botHullContract = _botHullContract;\n    }\n\n    function setBotPartContract(address _botPartContract) public onlyRole(DEFAULT_ADMIN_ROLE) {\n      address implementer = _ERC1820_REGISTRY.getInterfaceImplementer(_botPartContract, ERC721_INTERFACE);\n      require(implementer != address(0));\n      botPartContract = _botPartContract;\n    }\n\n    function createLootBox(uint8 boxID, uint256 price, uint8 itemAmount, uint16[] calldata itemProbabilities) public onlyRole(DEFAULT_ADMIN_ROLE) {\n      require(lootBoxPrices[boxID] == 0);\n      require(amountItemsPerBox[boxID] == 0);\n      uint16 prob = 0;\n      for(uint i = 0; i < itemProbabilities.length;i++){\n        require(itemProbabilities[i] >= prob);\n        prob = itemProbabilities[i];\n        require(prob <= 0xFFFF);\n      }\n      require(prob == 0xFFFF);\n\n      lootBoxPrices[boxID] = price;\n      amountItemsPerBox[boxID] = itemAmount;\n      probabilityDistribution[boxID] = itemProbabilities;\n    }\n\n    // Seed is used here as INSECURE randomized number, needs to be replaced either by operator provided random or Chainlink Random\n    function openLootBox(uint8 boxID, uint16 seed) public returns (uint256[] memory) {\n      require(lootBoxPrices[boxID] != 0);\n      require(amountItemsPerBox[boxID] != 0);\n\n      DevLaunchersToken devsToken = DevLaunchersToken(devsTokenContract);\n      require(devsToken.balanceOf(msg.sender) >= lootBoxPrices[boxID]);\n\n      devsToken.operatorBurn(msg.sender, lootBoxPrices[boxID], \"\", \"\");\n\n      return _openLootBox(msg.sender, boxID, seed);\n    }\n\n    function _openLootBox(address receiver, uint8 boxID, uint256 seed) private returns (uint256[] memory) {\n      uint256[] memory items = new uint256[](0);\n      for(uint item = 0; item < amountItemsPerBox[boxID]; item++){\n        seed = _pseudoRand(seed, 21);\n        uint i = 0;\n        while(probabilityDistribution[boxID][i] < (seed & 0xFFFF)){\n          i++;\n        }\n\n        if(i<32){\n          //Mint Instruction Token\n          address instructionTokenContract = BotHull(botHullContract).getInstructionContract(SafeCast.toUint8(i % 2**8));\n          require(instructionTokenContract != address(0));\n          BotInstructionToken(instructionTokenContract).mint(receiver, 1 * 10**18, \"\", \"\");\n        }else{\n          BotPart(botPartContract).mintItem(receiver, SafeCast.toUint32(i % 2**32), _generateStats(_pseudoRand(seed, SafeCast.toUint16(item))));\n        }\n      }\n      return items;\n    }\n\n    function _generateStats(uint256 seed) private pure returns (uint256[] memory) {\n      uint256[] memory stats = new uint256[](3);\n      for(uint8 i = 0; i < 3; i++){\n        stats[i] = _pseudoRand(seed, i);\n      }\n      return stats;\n    }\n\n    function _pseudoRand(uint256 seed, uint16 id) private pure returns (uint256){\n      return uint256(keccak256(abi.encodePacked(seed, id)));\n    }\n\n    function tokensReceived(\n        address operator,\n        address from,\n        address,\n        uint256 amount,\n        bytes calldata userData,\n        bytes calldata\n    ) external override {\n      require(msg.sender == devsTokenContract);\n      require(operator == address(0) || userData.length == 1);\n      uint8 boxID = BytesLib.toUint8(userData, 0);\n\n      require(lootBoxPrices[boxID] != 0);\n      require(lootBoxPrices[boxID] == amount);\n      require(amountItemsPerBox[boxID] != 0);\n\n      DevLaunchersToken(devsTokenContract).burn(amount, \"\");\n\n      // SEED Mechanism needs to be changed ASAP\n      _openLootBox(from, boxID, 542168123);\n    }\n\n}\n",
  "sourcePath": "/home/zorro/git/blockchain__general/prototype/contracts/polygon/LootBox.sol",
  "compiler": {
    "name": "solc",
    "version": "0.8.4+commit.c7e474f2.Emscripten.clang"
  },
  "schemaVersion": "3.2.0",
  "updatedAt": "2021-06-25T10:01:04.836Z",
  "networkType": "ethereum",
  "devdoc": {
    "kind": "dev",
    "methods": {
      "getRoleAdmin(bytes32)": {
        "details": "Returns the admin role that controls `role`. See {grantRole} and {revokeRole}. To change a role's admin, use {_setRoleAdmin}."
      },
      "grantRole(bytes32,address)": {
        "details": "Grants `role` to `account`. If `account` had not been already granted `role`, emits a {RoleGranted} event. Requirements: - the caller must have ``role``'s admin role."
      },
      "hasRole(bytes32,address)": {
        "details": "Returns `true` if `account` has been granted `role`."
      },
      "renounceRole(bytes32,address)": {
        "details": "Revokes `role` from the calling account. Roles are often managed via {grantRole} and {revokeRole}: this function's purpose is to provide a mechanism for accounts to lose their privileges if they are compromised (such as when a trusted device is misplaced). If the calling account had been granted `role`, emits a {RoleRevoked} event. Requirements: - the caller must be `account`."
      },
      "revokeRole(bytes32,address)": {
        "details": "Revokes `role` from `account`. If `account` had been granted `role`, emits a {RoleRevoked} event. Requirements: - the caller must have ``role``'s admin role."
      },
      "supportsInterface(bytes4)": {
        "details": "See {IERC165-supportsInterface}."
      }
    },
    "version": 1
  },
  "userdoc": {
    "kind": "user",
    "methods": {},
    "version": 1
  }
}