{
  "contractName": "MatchPayout",
  "abi": [
    {
      "inputs": [],
      "stateMutability": "nonpayable",
      "type": "constructor"
    },
    {
      "anonymous": true,
      "inputs": [
        {
          "indexed": true,
          "internalType": "uint256",
          "name": "attackerBotID",
          "type": "uint256"
        },
        {
          "indexed": true,
          "internalType": "uint256",
          "name": "defenderBotID",
          "type": "uint256"
        },
        {
          "indexed": false,
          "internalType": "uint256",
          "name": "attackerBotHash",
          "type": "uint256"
        },
        {
          "indexed": false,
          "internalType": "uint256",
          "name": "defenderBotHash",
          "type": "uint256"
        },
        {
          "indexed": false,
          "internalType": "uint160",
          "name": "attackerAddress",
          "type": "uint160"
        },
        {
          "indexed": false,
          "internalType": "uint32",
          "name": "attackerHealth",
          "type": "uint32"
        },
        {
          "indexed": false,
          "internalType": "uint64",
          "name": "executedBlockNumber",
          "type": "uint64"
        },
        {
          "indexed": false,
          "internalType": "uint160",
          "name": "defenderAddress",
          "type": "uint160"
        },
        {
          "indexed": false,
          "internalType": "uint32",
          "name": "defenderHealth",
          "type": "uint32"
        }
      ],
      "name": "Match",
      "type": "event"
    },
    {
      "anonymous": false,
      "inputs": [
        {
          "indexed": false,
          "internalType": "address",
          "name": "account",
          "type": "address"
        }
      ],
      "name": "Paused",
      "type": "event"
    },
    {
      "anonymous": false,
      "inputs": [
        {
          "indexed": true,
          "internalType": "bytes32",
          "name": "role",
          "type": "bytes32"
        },
        {
          "indexed": true,
          "internalType": "bytes32",
          "name": "previousAdminRole",
          "type": "bytes32"
        },
        {
          "indexed": true,
          "internalType": "bytes32",
          "name": "newAdminRole",
          "type": "bytes32"
        }
      ],
      "name": "RoleAdminChanged",
      "type": "event"
    },
    {
      "anonymous": false,
      "inputs": [
        {
          "indexed": true,
          "internalType": "bytes32",
          "name": "role",
          "type": "bytes32"
        },
        {
          "indexed": true,
          "internalType": "address",
          "name": "account",
          "type": "address"
        },
        {
          "indexed": true,
          "internalType": "address",
          "name": "sender",
          "type": "address"
        }
      ],
      "name": "RoleGranted",
      "type": "event"
    },
    {
      "anonymous": false,
      "inputs": [
        {
          "indexed": true,
          "internalType": "bytes32",
          "name": "role",
          "type": "bytes32"
        },
        {
          "indexed": true,
          "internalType": "address",
          "name": "account",
          "type": "address"
        },
        {
          "indexed": true,
          "internalType": "address",
          "name": "sender",
          "type": "address"
        }
      ],
      "name": "RoleRevoked",
      "type": "event"
    },
    {
      "anonymous": false,
      "inputs": [
        {
          "indexed": false,
          "internalType": "address",
          "name": "account",
          "type": "address"
        }
      ],
      "name": "Unpaused",
      "type": "event"
    },
    {
      "inputs": [],
      "name": "DEFAULT_ADMIN_ROLE",
      "outputs": [
        {
          "internalType": "bytes32",
          "name": "",
          "type": "bytes32"
        }
      ],
      "stateMutability": "view",
      "type": "function"
    },
    {
      "inputs": [],
      "name": "botHullContract",
      "outputs": [
        {
          "internalType": "address",
          "name": "",
          "type": "address"
        }
      ],
      "stateMutability": "view",
      "type": "function"
    },
    {
      "inputs": [],
      "name": "devLaunchersToken",
      "outputs": [
        {
          "internalType": "address",
          "name": "",
          "type": "address"
        }
      ],
      "stateMutability": "view",
      "type": "function"
    },
    {
      "inputs": [],
      "name": "gameDatabase",
      "outputs": [
        {
          "internalType": "address",
          "name": "",
          "type": "address"
        }
      ],
      "stateMutability": "view",
      "type": "function"
    },
    {
      "inputs": [],
      "name": "gameEnergyCost",
      "outputs": [
        {
          "internalType": "uint256",
          "name": "",
          "type": "uint256"
        }
      ],
      "stateMutability": "view",
      "type": "function"
    },
    {
      "inputs": [
        {
          "internalType": "bytes32",
          "name": "role",
          "type": "bytes32"
        }
      ],
      "name": "getRoleAdmin",
      "outputs": [
        {
          "internalType": "bytes32",
          "name": "",
          "type": "bytes32"
        }
      ],
      "stateMutability": "view",
      "type": "function"
    },
    {
      "inputs": [
        {
          "internalType": "bytes32",
          "name": "role",
          "type": "bytes32"
        },
        {
          "internalType": "address",
          "name": "account",
          "type": "address"
        }
      ],
      "name": "grantRole",
      "outputs": [],
      "stateMutability": "nonpayable",
      "type": "function"
    },
    {
      "inputs": [
        {
          "internalType": "bytes32",
          "name": "role",
          "type": "bytes32"
        },
        {
          "internalType": "address",
          "name": "account",
          "type": "address"
        }
      ],
      "name": "hasRole",
      "outputs": [
        {
          "internalType": "bool",
          "name": "",
          "type": "bool"
        }
      ],
      "stateMutability": "view",
      "type": "function"
    },
    {
      "inputs": [],
      "name": "matchSigner",
      "outputs": [
        {
          "internalType": "address",
          "name": "",
          "type": "address"
        }
      ],
      "stateMutability": "view",
      "type": "function"
    },
    {
      "inputs": [],
      "name": "maxEnergy",
      "outputs": [
        {
          "internalType": "uint256",
          "name": "",
          "type": "uint256"
        }
      ],
      "stateMutability": "view",
      "type": "function"
    },
    {
      "inputs": [],
      "name": "paused",
      "outputs": [
        {
          "internalType": "bool",
          "name": "",
          "type": "bool"
        }
      ],
      "stateMutability": "view",
      "type": "function"
    },
    {
      "inputs": [
        {
          "internalType": "bytes32",
          "name": "role",
          "type": "bytes32"
        },
        {
          "internalType": "address",
          "name": "account",
          "type": "address"
        }
      ],
      "name": "renounceRole",
      "outputs": [],
      "stateMutability": "nonpayable",
      "type": "function"
    },
    {
      "inputs": [
        {
          "internalType": "bytes32",
          "name": "role",
          "type": "bytes32"
        },
        {
          "internalType": "address",
          "name": "account",
          "type": "address"
        }
      ],
      "name": "revokeRole",
      "outputs": [],
      "stateMutability": "nonpayable",
      "type": "function"
    },
    {
      "inputs": [
        {
          "internalType": "uint256",
          "name": "",
          "type": "uint256"
        }
      ],
      "name": "scores",
      "outputs": [
        {
          "internalType": "uint256",
          "name": "",
          "type": "uint256"
        }
      ],
      "stateMutability": "view",
      "type": "function"
    },
    {
      "inputs": [
        {
          "internalType": "bytes4",
          "name": "interfaceId",
          "type": "bytes4"
        }
      ],
      "name": "supportsInterface",
      "outputs": [
        {
          "internalType": "bool",
          "name": "",
          "type": "bool"
        }
      ],
      "stateMutability": "view",
      "type": "function"
    },
    {
      "inputs": [
        {
          "internalType": "address",
          "name": "newGameDatabaseContract",
          "type": "address"
        }
      ],
      "name": "setGameDatabaseContract",
      "outputs": [],
      "stateMutability": "nonpayable",
      "type": "function"
    },
    {
      "inputs": [
        {
          "internalType": "address",
          "name": "devLaunchersTokenContract",
          "type": "address"
        }
      ],
      "name": "setDevLaunchersTokenContract",
      "outputs": [],
      "stateMutability": "nonpayable",
      "type": "function"
    },
    {
      "inputs": [
        {
          "internalType": "address",
          "name": "botHullContractAddress",
          "type": "address"
        }
      ],
      "name": "setBotHullContract",
      "outputs": [],
      "stateMutability": "nonpayable",
      "type": "function"
    },
    {
      "inputs": [
        {
          "internalType": "address",
          "name": "_matchSigner",
          "type": "address"
        }
      ],
      "name": "setMatchSignerAddress",
      "outputs": [],
      "stateMutability": "nonpayable",
      "type": "function"
    },
    {
      "inputs": [
        {
          "components": [
            {
              "internalType": "uint256",
              "name": "attackerBotID",
              "type": "uint256"
            },
            {
              "internalType": "bytes32",
              "name": "attackerBotHash",
              "type": "bytes32"
            },
            {
              "internalType": "uint256",
              "name": "defenderBotID",
              "type": "uint256"
            },
            {
              "internalType": "bytes32",
              "name": "defenderBotHash",
              "type": "bytes32"
            },
            {
              "internalType": "uint160",
              "name": "attackerAddress",
              "type": "uint160"
            },
            {
              "internalType": "uint32",
              "name": "attackerHealth",
              "type": "uint32"
            },
            {
              "internalType": "uint64",
              "name": "blockNumber",
              "type": "uint64"
            },
            {
              "internalType": "uint160",
              "name": "defenderAddress",
              "type": "uint160"
            },
            {
              "internalType": "uint32",
              "name": "defenderHealth",
              "type": "uint32"
            }
          ],
          "internalType": "struct MatchPayout.MatchResult",
          "name": "result",
          "type": "tuple"
        },
        {
          "internalType": "bytes",
          "name": "signature",
          "type": "bytes"
        }
      ],
      "name": "payout",
      "outputs": [],
      "stateMutability": "nonpayable",
      "type": "function"
    }
  ],
  "bytecode": "0x6101206040527f4991a5467c05c1f2dbd5a1ed62a8dc15c36df6ba5537e3555dd50f1fe9b019a26007553480156200003657600080fd5b50604080518082018252601281527111195d909bdd1cd3585d18da14185e5bdd5d60721b6020808301918252835180850185526003815262302e3160e81b908201529151902060c08181527f8cd160c72d102a6747abd189ac21d4a1f802e3fcc1bb8fc78cc4d558df0c7c2160e08190524660a081815286517f8b73c3c69bb8fe3d512ecc4cf759cc79239f7b179b0ffacaa9a75d522b39400f81880181905281890196909652606081019390935260808084019290925230838201528651808403909101815291909201909452835193909201929092209052610100526001805460ff191690556200012b6000806200013e565b6200013860003362000189565b62000239565b600082815260208190526040808220600101805490849055905190918391839186917fbd79b86ffe0ab8e8776151514217cd7cacd52c909f66475c3af44e129f0b00ff9190a4505050565b62000195828262000199565b5050565b6000828152602081815260408083206001600160a01b038516845290915290205460ff1662000195576000828152602081815260408083206001600160a01b03851684529091529020805460ff19166001179055620001f53390565b6001600160a01b0316816001600160a01b0316837f2f8788117e7eff1d82e926ec794901d17c78024a50270940304540a733656f0d60405160405180910390a45050565b60805160a05160c05160e0516101005161227b6200027e6000396000611797015260006117e6015260006117c1015260006117450152600061176e015261227b6000f3fe608060405234801561001057600080fd5b506004361061016c5760003560e01c806366bb4ad2116100cd578063a217fddf11610081578063d547741f11610066578063d547741f1461030a578063d80cff281461031d578063d81705821461033557600080fd5b8063a217fddf146102ef578063c1efa022146102f757600080fd5b80637fb245cb116100b25780637fb245cb1461029257806391d14854146102a55780639b54faaa146102dc57600080fd5b806366bb4ad21461027757806377eba9681461027f57600080fd5b80632ee691a31161012457806336568abe1161010957806336568abe146102465780635285f874146102595780635c975abb1461026c57600080fd5b80632ee691a3146102115780632f2ff15d1461023157600080fd5b806324b5aa641161015557806324b5aa64146101ca57806328c56951146101f55780632cde84a91461020857600080fd5b806301ffc9a714610171578063248a9ca314610199575b600080fd5b61018461017f366004611f27565b610348565b60405190151581526020015b60405180910390f35b6101bc6101a7366004611ec8565b60009081526020819052604090206001015490565b604051908152602001610190565b6003546101dd906001600160a01b031681565b6040516001600160a01b039091168152602001610190565b6002546101dd906001600160a01b031681565b6101bc6105dc81565b6101bc61021f366004611ec8565b60086020526000908152604090205481565b61024461023f366004611ef8565b6103b1565b005b610244610254366004611ef8565b6103dc565b610244610267366004611e70565b61046d565b60015460ff16610184565b6101bc609681565b61024461028d366004611e70565b6104fb565b6102446102a0366004611e70565b610599565b6101846102b3366004611ef8565b6000918252602082815260408084206001600160a01b0393909316845291905290205460ff1690565b6004546101dd906001600160a01b031681565b6101bc600081565b610244610305366004611e70565b610627565b610244610318366004611ef8565b6106b5565b6001546101dd9061010090046001600160a01b031681565b610244610343366004611f4f565b6106db565b60006001600160e01b031982167f7965db0b0000000000000000000000000000000000000000000000000000000014806103ab57507f01ffc9a7000000000000000000000000000000000000000000000000000000006001600160e01b03198316145b92915050565b6000828152602081905260409020600101546103cd8133611043565b6103d783836110c1565b505050565b6001600160a01b038116331461045f5760405162461bcd60e51b815260206004820152602f60248201527f416363657373436f6e74726f6c3a2063616e206f6e6c792072656e6f756e636560448201527f20726f6c657320666f722073656c66000000000000000000000000000000000060648201526084015b60405180910390fd5b610469828261115f565b5050565b60015460ff166104bf5760405162461bcd60e51b815260206004820152601460248201527f5061757361626c653a206e6f74207061757365640000000000000000000000006044820152606401610456565b60006104cb8133611043565b506002805473ffffffffffffffffffffffffffffffffffffffff19166001600160a01b0392909216919091179055565b60015460ff1661054d5760405162461bcd60e51b815260206004820152601460248201527f5061757361626c653a206e6f74207061757365640000000000000000000000006044820152606401610456565b60006105598133611043565b50600180546001600160a01b03909216610100027fffffffffffffffffffffff0000000000000000000000000000000000000000ff909216919091179055565b60015460ff166105eb5760405162461bcd60e51b815260206004820152601460248201527f5061757361626c653a206e6f74207061757365640000000000000000000000006044820152606401610456565b60006105f78133611043565b506004805473ffffffffffffffffffffffffffffffffffffffff19166001600160a01b0392909216919091179055565b60015460ff166106795760405162461bcd60e51b815260206004820152601460248201527f5061757361626c653a206e6f74207061757365640000000000000000000000006044820152606401610456565b60006106858133611043565b506003805473ffffffffffffffffffffffffffffffffffffffff19166001600160a01b0392909216919091179055565b6000828152602081905260409020600101546106d18133611043565b6103d7838361115f565b60015460ff161561072e5760405162461bcd60e51b815260206004820152601060248201527f5061757361626c653a20706175736564000000000000000000000000000000006044820152606401610456565b61073a6103e8436121a6565b61074a60e0840160c08501612039565b67ffffffffffffffff16101561075f57600080fd5b813560009081526005602052604090205461078060e0840160c08501612039565b67ffffffffffffffff161161079457600080fd5b6107a460e0830160c08401612039565b8235600081815260056020526040812067ffffffffffffffff939093169092556107e7906107d860e0860160c08701612039565b67ffffffffffffffff166111de565b905060968110156107f757600080fd5b6108026096826121a6565b8335600081815260066020908152604080832094909455600154845160a0810186528381528083018490528086018490526060810184905260808101939093529351632bd0bfe560e01b81526101009094046001600160a01b03169390870135928492632bd0bfe592610879929190600401612115565b602060405180830381600087803b15801561089357600080fd5b505af11580156108a7573d6000803e3d6000fd5b505050506040513d601f19601f820116820180604052508101906108cb9190611ee0565b146108d557600080fd5b6040805160a081018252600080825260208201819052818301819052606082810182905260808301919091528251632bd0bfe560e01b815290870135926001600160a01b03851692632bd0bfe592610934928a01359190600401612115565b602060405180830381600087803b15801561094e57600080fd5b505af1158015610962573d6000803e3d6000fd5b505050506040513d601f19601f820116820180604052508101906109869190611ee0565b1461099057600080fd5b6003546001600160a01b03166109ac60a0860160808701611e70565b6040516331a9108f60e11b8152863560048201526001600160a01b0391821691831690636352211e9060240160206040518083038186803b1580156109f057600080fd5b505afa158015610a04573d6000803e3d6000fd5b505050506040513d601f19601f82011682018060405250810190610a289190611e8c565b6001600160a01b031614610a3b57600080fd5b610a4c610100860160e08701611e70565b604080516331a9108f60e11b81529087013560048201526001600160a01b0391821691831690636352211e9060240160206040518083038186803b158015610a9357600080fd5b505afa158015610aa7573d6000803e3d6000fd5b505050506040513d601f19601f82011682018060405250810190610acb9190611e8c565b6001600160a01b031614610ade57600080fd5b600754600090610bda908735602089013560408a013560608b0135610b0960a08d0160808e01611e70565b610b1960c08e0160a08f01612015565b8d60c0016020810190610b2c9190612039565b8e60e0016020810190610b3f9190611e70565b8f610100016020810190610b539190612015565b60408051602081019b909b528a01989098526060890196909652608088019490945260a08701929092526001600160a01b0390811660c087015263ffffffff91821660e087015267ffffffffffffffff909216610100860152911661012084015216610140820152610160016040516020818303038152906040528051906020012061124a565b6004549091506001600160a01b0316610bf257600080fd5b6004546001600160a01b0316610c0882876112b3565b6001600160a01b031614610c1b57600080fd5b6002546001600160a01b0316600080610c3c6101208a016101008b01612015565b63ffffffff16610c8557883560009081526008602052604080822054818c01358352912054610c7b9190610c7660c08d0160a08e01612015565b6112d7565b9092509050610cbe565b6040808a013560009081526008602052818120548b35825291902054610cb89190610c766101208d016101008e01612015565b90925090505b610cc8818361214f565b6040517f70a082310000000000000000000000000000000000000000000000000000000081523060048201526001600160a01b038516906370a082319060240160206040518083038186803b158015610d2057600080fd5b505afa158015610d34573d6000803e3d6000fd5b505050506040513d601f19601f82011682018060405250810190610d589190611ee0565b1015610d6357600080fd5b610d94893560408b0135610d7d60c08d0160a08e01612015565b610d8f6101208e016101008f01612015565b611362565b610da66101208a016101008b01612015565b63ffffffff16610ef6576001600160a01b03831663a9059cbb610dcf60a08c0160808d01611e70565b6040516001600160e01b031960e084901b1681526001600160a01b03909116600482015260248101859052604401602060405180830381600087803b158015610e1757600080fd5b505af1158015610e2b573d6000803e3d6000fd5b505050506040513d601f19601f82011682018060405250810190610e4f9190611ea8565b506001600160a01b03831663a9059cbb610e706101008c0160e08d01611e70565b6040516001600160e01b031960e084901b1681526001600160a01b03909116600482015260248101849052604401602060405180830381600087803b158015610eb857600080fd5b505af1158015610ecc573d6000803e3d6000fd5b505050506040513d601f19601f82011682018060405250810190610ef09190611ea8565b50611038565b6001600160a01b03831663a9059cbb610f166101008c0160e08d01611e70565b6040516001600160e01b031960e084901b1681526001600160a01b03909116600482015260248101859052604401602060405180830381600087803b158015610f5e57600080fd5b505af1158015610f72573d6000803e3d6000fd5b505050506040513d601f19601f82011682018060405250810190610f969190611ea8565b506001600160a01b03831663a9059cbb610fb660a08c0160808d01611e70565b6040516001600160e01b031960e084901b1681526001600160a01b03909116600482015260248101849052604401602060405180830381600087803b158015610ffe57600080fd5b505af1158015611012573d6000803e3d6000fd5b505050506040513d601f19601f820116820180604052508101906110369190611ea8565b505b505050505050505050565b6000828152602081815260408083206001600160a01b038516845290915290205460ff166104695761107f816001600160a01b031660146114cb565b61108a8360206114cb565b60405160200161109b929190612061565b60408051601f198184030181529082905262461bcd60e51b8252610456916004016120e2565b6000828152602081815260408083206001600160a01b038516845290915290205460ff16610469576000828152602081815260408083206001600160a01b03851684529091529020805460ff1916600117905561111b3390565b6001600160a01b0316816001600160a01b0316837f2f8788117e7eff1d82e926ec794901d17c78024a50270940304540a733656f0d60405160405180910390a45050565b6000828152602081815260408083206001600160a01b038516845290915290205460ff1615610469576000828152602081815260408083206001600160a01b0385168085529252808320805460ff1916905551339285917ff6391f5c32d9c69d2a47ea670b442974b53935d1edc7fd64eb21e047a839171b9190a45050565b6000828152600660205260408120546111fa57506105dc6103ab565b60008381526005602052604081205461121390846121a6565b60008581526006602052604090205461122c919061214f565b90506105dc811115611243576105dc9150506103ab565b90506103ab565b60006103ab611257611741565b836040517f19010000000000000000000000000000000000000000000000000000000000006020820152602281018390526042810182905260009060620160405160208183030381529060405280519060200120905092915050565b60008060006112c28585611834565b915091506112cf816118a4565b509392505050565b60008060006112f76112e887611aa8565b6112f28789611ac6565b611b0f565b9050600066038d7ea4c6800061130c83611b67565b67ffffffffffffffff166113209190612187565b905067016345785d8a00008110156113475767016345785d8a00008093509350505061135a565b80611353600a82612167565b9350935050505b935093915050565b600084815260086020526040808220548583529082205463ffffffff85161561142657808210156113a657600a61139983836121a6565b6113a39190612167565b92505b600a8310156113d95760008781526008602052604081208054600a92906113ce90849061214f565b909155506114c29050565b600087815260086020526040812080548592906113f790849061214f565b909155506114089050600484612167565b600087815260086020526040812080549091906113ce9084906121a6565b8181101561144757600a61143a82846121a6565b6114449190612167565b92505b600a83101561146f5760008781526008602052604081208054600a92906113ce9084906121a6565b6000878152600860205260408120805485929061148d9084906121a6565b9091555061149e9050600484612167565b600087815260086020526040812080549091906114bc90849061214f565b90915550505b50505050505050565b606060006114da836002612187565b6114e590600261214f565b67ffffffffffffffff81111561150b57634e487b7160e01b600052604160045260246000fd5b6040519080825280601f01601f191660200182016040528015611535576020820181803683370190505b5090507f30000000000000000000000000000000000000000000000000000000000000008160008151811061157a57634e487b7160e01b600052603260045260246000fd5b60200101907effffffffffffffffffffffffffffffffffffffffffffffffffffffffffffff1916908160001a9053507f7800000000000000000000000000000000000000000000000000000000000000816001815181106115eb57634e487b7160e01b600052603260045260246000fd5b60200101907effffffffffffffffffffffffffffffffffffffffffffffffffffffffffffff1916908160001a9053506000611627846002612187565b61163290600161214f565b90505b60018111156116eb577f303132333435363738396162636465660000000000000000000000000000000085600f166010811061168157634e487b7160e01b600052603260045260246000fd5b1a60f81b8282815181106116a557634e487b7160e01b600052603260045260246000fd5b60200101907effffffffffffffffffffffffffffffffffffffffffffffffffffffffffffff1916908160001a90535060049490941c936116e4816121ed565b9050611635565b50831561173a5760405162461bcd60e51b815260206004820181905260248201527f537472696e67733a20686578206c656e67746820696e73756666696369656e746044820152606401610456565b9392505050565b60007f000000000000000000000000000000000000000000000000000000000000000046141561179057507f000000000000000000000000000000000000000000000000000000000000000090565b50604080517f00000000000000000000000000000000000000000000000000000000000000006020808301919091527f0000000000000000000000000000000000000000000000000000000000000000828401527f000000000000000000000000000000000000000000000000000000000000000060608301524660808301523060a0808401919091528351808403909101815260c0909201909252805191012090565b60008082516041141561186b5760208301516040840151606085015160001a61185f87828585611b83565b9450945050505061189d565b825160401415611895576020830151604084015161188a868383611c70565b93509350505061189d565b506000905060025b9250929050565b60008160048111156118c657634e487b7160e01b600052602160045260246000fd5b14156118cf5750565b60018160048111156118f157634e487b7160e01b600052602160045260246000fd5b141561193f5760405162461bcd60e51b815260206004820152601860248201527f45434453413a20696e76616c6964207369676e617475726500000000000000006044820152606401610456565b600281600481111561196157634e487b7160e01b600052602160045260246000fd5b14156119af5760405162461bcd60e51b815260206004820152601f60248201527f45434453413a20696e76616c6964207369676e6174757265206c656e677468006044820152606401610456565b60038160048111156119d157634e487b7160e01b600052602160045260246000fd5b1415611a2a5760405162461bcd60e51b815260206004820152602260248201527f45434453413a20696e76616c6964207369676e6174757265202773272076616c604482015261756560f01b6064820152608401610456565b6004816004811115611a4c57634e487b7160e01b600052602160045260246000fd5b1415611aa55760405162461bcd60e51b815260206004820152602260248201527f45434453413a20696e76616c6964207369676e6174757265202776272076616c604482015261756560f01b6064820152608401610456565b50565b6000677fffffffffffffff821115611abf57600080fd5b5060401b90565b600081611ad257600080fd5b6000611ade8484611caa565b90506f7fffffffffffffffffffffffffffffff6fffffffffffffffffffffffffffffffff8216111561173a57600080fd5b6000600f83810b9083900b0260401d7fffffffffffffffffffffffffffffffff800000000000000000000000000000008112801590611b5e57506f7fffffffffffffffffffffffffffffff8113155b61173a57600080fd5b60008082600f0b1215611b7957600080fd5b50600f0b60401d90565b6000807f7fffffffffffffffffffffffffffffff5d576e7357a4501ddfe92f46681b20a0831115611bba5750600090506003611c67565b8460ff16601b14158015611bd257508460ff16601c14155b15611be35750600090506004611c67565b6040805160008082526020820180845289905260ff881692820192909252606081018690526080810185905260019060a0016020604051602081039080840390855afa158015611c37573d6000803e3d6000fd5b5050604051601f1901519150506001600160a01b038116611c6057600060019250925050611c67565b9150600090505b94509492505050565b6000807f7fffffffffffffffffffffffffffffffffffffffffffffffffffffffffffffff831660ff84901c601b0161135387828885611b83565b600081611cb657600080fd5b600077ffffffffffffffffffffffffffffffffffffffffffffffff8411611d005782604085901b81611cf857634e487b7160e01b600052601260045260246000fd5b049050611e53565b60c084811c6401000000008110611d19576020918201911c5b620100008110611d2b576010918201911c5b6101008110611d3c576008918201911c5b60108110611d4c576004918201911c5b60048110611d5c576002918201911c5b60028110611d6b576001820191505b60bf820360018603901c6001018260ff0387901b81611d9a57634e487b7160e01b600052601260045260246000fd5b0492506fffffffffffffffffffffffffffffffff831115611dba57600080fd5b608085901c83026fffffffffffffffffffffffffffffffff8616840260c088901c604089901b82811015611def576001820391505b608084901b92900382811015611e06576001820391505b829003608084901c8214611e2a57634e487b7160e01b600052600160045260246000fd5b888181611e4757634e487b7160e01b600052601260045260246000fd5b04870196505050505050505b6fffffffffffffffffffffffffffffffff81111561173a57600080fd5b600060208284031215611e81578081fd5b813561173a81612230565b600060208284031215611e9d578081fd5b815161173a81612230565b600060208284031215611eb9578081fd5b8151801515811461173a578182fd5b600060208284031215611ed9578081fd5b5035919050565b600060208284031215611ef1578081fd5b5051919050565b60008060408385031215611f0a578081fd5b823591506020830135611f1c81612230565b809150509250929050565b600060208284031215611f38578081fd5b81356001600160e01b03198116811461173a578182fd5b600080828403610140811215611f63578283fd5b61012080821215611f72578384fd5b849350830135905067ffffffffffffffff80821115611f8f578283fd5b818501915085601f830112611fa2578283fd5b813581811115611fb457611fb461221a565b604051601f8201601f19908116603f01168101908382118183101715611fdc57611fdc61221a565b81604052828152886020848701011115611ff4578586fd5b82602086016020830137856020848301015280955050505050509250929050565b600060208284031215612026578081fd5b813563ffffffff8116811461173a578182fd5b60006020828403121561204a578081fd5b813567ffffffffffffffff8116811461173a578182fd5b7f416363657373436f6e74726f6c3a206163636f756e74200000000000000000008152600083516120998160178501602088016121bd565b7f206973206d697373696e6720726f6c652000000000000000000000000000000060179184019182015283516120d68160288401602088016121bd565b01602801949350505050565b60208152600082518060208401526121018160408501602087016121bd565b601f01601f19169190910160400192915050565b82815260c0810160208083018460005b6005811015612144578151151583529183019190830190600101612125565b505050509392505050565b6000821982111561216257612162612204565b500190565b60008261218257634e487b7160e01b81526012600452602481fd5b500490565b60008160001904831182151516156121a1576121a1612204565b500290565b6000828210156121b8576121b8612204565b500390565b60005b838110156121d85781810151838201526020016121c0565b838111156121e7576000848401525b50505050565b6000816121fc576121fc612204565b506000190190565b634e487b7160e01b600052601160045260246000fd5b634e487b7160e01b600052604160045260246000fd5b6001600160a01b0381168114611aa557600080fdfea2646970667358221220d7d51a4d757c3542014d4f619ee76a19a13d016f46a4735fd621e7c0a3a9dd3e64736f6c63430008040033",
  "immutableReferences": {
    "4699": [
      {
        "length": 32,
        "start": 5998
      }
    ],
    "4701": [
      {
        "length": 32,
        "start": 5957
      }
    ],
    "4703": [
      {
        "length": 32,
        "start": 6081
      }
    ],
    "4705": [
      {
        "length": 32,
        "start": 6118
      }
    ],
    "4707": [
      {
        "length": 32,
        "start": 6039
      }
    ]
  },
  "source": "// SPDX-License-Identifier: MIT\npragma solidity ^0.8.0;\n\nimport \"@openzeppelin/contracts/access/AccessControl.sol\";\nimport \"./BotPart.sol\";\nimport \"./BotHull.sol\";\nimport \"./GameDatabase.sol\";\nimport \"@openzeppelin/contracts/utils/cryptography/ECDSA.sol\";\nimport \"@openzeppelin/contracts/utils/cryptography/draft-EIP712.sol\";\nimport \"@openzeppelin/contracts/security/Pausable.sol\";\nimport \"@openzeppelin/contracts/security/ReentrancyGuard.sol\";\nimport \"abdk-libraries-solidity/ABDKMath64x64.sol\";\nimport \"./DevLaunchersToken.sol\";\n\ncontract MatchPayout is AccessControl, EIP712, Pausable {\n\n    uint256 constant public gameEnergyCost = 150; // 1 Unit of Energy = 1 Blockchain Block (~2seconds)\n    uint256 constant public maxEnergy = 1500;\n\n    address public gameDatabase;\n    address public devLaunchersToken;\n    address public botHullContract;\n\n    address public matchSigner;\n\n    mapping(uint256 => uint256) private lastGamePlayed;\n    mapping(uint256 => uint256) private botEnergy;\n\n    constructor() EIP712(\"DevBotsMatchPayout\",\"0.1\") {\n        _setRoleAdmin(DEFAULT_ADMIN_ROLE, DEFAULT_ADMIN_ROLE);\n        _setupRole(DEFAULT_ADMIN_ROLE, msg.sender);\n    }\n\n    function setGameDatabaseContract(address newGameDatabaseContract) external whenPaused() onlyRole(DEFAULT_ADMIN_ROLE) {\n        gameDatabase = newGameDatabaseContract;\n    }\n    \n    function setDevLaunchersTokenContract(address devLaunchersTokenContract) external whenPaused() onlyRole(DEFAULT_ADMIN_ROLE){\n        devLaunchersToken = devLaunchersTokenContract;\n    }\n\n    function setBotHullContract(address botHullContractAddress) external whenPaused() onlyRole(DEFAULT_ADMIN_ROLE){\n        botHullContract = botHullContractAddress;\n    }\n\n    function setMatchSignerAddress(address _matchSigner) external whenPaused() onlyRole(DEFAULT_ADMIN_ROLE){\n        matchSigner = _matchSigner;\n    }\n\n    function getBotEnergy(uint256 botID, uint256 blockNumber) internal view returns (uint256){\n        if(botEnergy[botID] == 0){\n            return maxEnergy;\n        }\n        uint256 energy = botEnergy[botID] + (blockNumber - lastGamePlayed[botID]);\n        if(energy > maxEnergy){\n            return maxEnergy;\n        }else{\n            return energy;\n        }\n    }\n\n    event Match(\n        uint256 indexed attackerBotID,\n        uint256 indexed defenderBotID,\n        uint256 attackerBotHash,\n        uint256 defenderBotHash,\n        uint160 attackerAddress,\n        uint32 attackerHealth,\n        uint64 executedBlockNumber,\n        uint160 defenderAddress,\n        uint32 defenderHealth\n    ) anonymous;\n\n    struct MatchResult {\n        uint256 attackerBotID;\n        bytes32 attackerBotHash;\n        uint256 defenderBotID;\n        bytes32 defenderBotHash;\n\n        uint160 attackerAddress;\n        uint32 attackerHealth;\n        uint64 blockNumber;\n        \n        uint160 defenderAddress;\n        uint32 defenderHealth;\n    }\n\n    bytes32 payoutTypeHash = keccak256(\"payout(MatchResult(uint256 attackerBotID,bytes32 attackerBotHash,uint256 defenderBotID,bytes32 defenderBotHash,uint160 attackerAddress,unit32 attackerHealth,uint64 blockNumber, uint160 defenderAddress,uint32 defenderHealth) result,uint256 signature)\");\n\n    uint256 constant maxBlocksSinceSigning = 1000; // (~2 sec/block)\n\n    function payout(MatchResult calldata result, bytes memory signature) public whenNotPaused() {\n        require(result.blockNumber >= block.number - maxBlocksSinceSigning);\n        require(result.blockNumber > lastGamePlayed[result.attackerBotID]);\n\n        lastGamePlayed[result.attackerBotID] = result.blockNumber;\n\n        uint256 energy = getBotEnergy(result.attackerBotID, result.blockNumber);\n        require(energy >= gameEnergyCost);\n\n        botEnergy[result.attackerBotID] = energy - gameEnergyCost;\n\n        GameDatabase database = GameDatabase(gameDatabase);\n\n        require(database.getBotHullSummaryHash(result.attackerBotID, [false, false, false, false, false]) == result.attackerBotHash);\n        require(database.getBotHullSummaryHash(result.defenderBotID, [false, false, false, false, false]) == result.defenderBotHash);\n\n        BotHull botHull = BotHull(botHullContract);\n\n        require(botHull.ownerOf(result.attackerBotID) == address(result.attackerAddress));\n        require(botHull.ownerOf(result.defenderBotID) == address(result.defenderAddress));\n\n        bytes32 digest = _hashTypedDataV4(keccak256(abi.encode(\n            payoutTypeHash,\n            result.attackerBotID,\n            result.attackerBotHash,\n            result.defenderBotID,\n            result.defenderBotHash,\n            result.attackerAddress,\n            result.attackerHealth,\n            result.blockNumber,\n            result.defenderAddress,\n            result.defenderHealth\n        )));\n\n        require(matchSigner != address(0x0));\n        require(ECDSA.recover(digest, signature) == matchSigner);\n\n        DevLaunchersToken token = DevLaunchersToken(devLaunchersToken);\n\n        uint256 winnerPayout = 0;\n        uint256 loserPayout = 0;\n\n        if(result.defenderHealth == 0){\n            (winnerPayout, loserPayout) = getPayoutAmount(scores[result.attackerBotID], scores[result.defenderBotID], result.attackerHealth);\n        }else{\n            (winnerPayout, loserPayout) = getPayoutAmount(scores[result.defenderBotID], scores[result.attackerBotID], result.defenderHealth);\n        }\n\n        require(token.balanceOf(address(this)) >= (winnerPayout + loserPayout));\n\n        updateScores(result.attackerBotID, result.defenderBotID, result.attackerHealth, result.defenderHealth);\n\n        if(result.defenderHealth == 0){\n            token.transfer(address(result.attackerAddress), winnerPayout);\n            token.transfer(address(result.defenderAddress), loserPayout);\n        }else{\n            token.transfer(address(result.defenderAddress), winnerPayout);\n            token.transfer(address(result.attackerAddress), loserPayout);\n        }\n\n    }\n\n    uint256 constant minimumPayout = 1 * 10**17; // = 0.1 Tokens\n    uint256 constant basePayout = 1 * 10**15;\n\n    function getPayoutAmount(uint256 winnerScore, uint256 loserScore, uint32 winnerHealth) pure internal returns (uint256, uint256) {\n        int128 multiplier = ABDKMath64x64.mul(ABDKMath64x64.fromUInt(winnerScore), ABDKMath64x64.divu(loserScore, winnerScore));\n\n        uint256 amount = ABDKMath64x64.toUInt(multiplier) * basePayout;\n\n        if(amount < minimumPayout){\n            return (minimumPayout, minimumPayout);\n        }else{\n            return (amount, amount / 10);\n        }\n    }\n\n    mapping(uint256 => uint256) public scores;\n\n    uint256 constant minScoreGain = 10;\n    uint256 constant scoreDivider = 10;\n\n    function updateScores(uint256 attackerBotID, uint256 defenderBotID, uint32 attackerHealth, uint32 defenderHealth) internal {\n        uint256 scoreGain = 0;\n        uint256 aBotScore = scores[attackerBotID];\n        uint256 dBotScore = scores[defenderBotID];\n        \n        if(attackerHealth > 0){\n            //Attacker won\n            if(aBotScore < dBotScore){\n                scoreGain = (dBotScore - aBotScore) / scoreDivider;\n            }\n            if(scoreGain < minScoreGain){\n                scores[attackerBotID]+=minScoreGain;\n            }else{\n                scores[attackerBotID]+=scoreGain;\n                scores[defenderBotID]-=scoreGain/4;\n            }\n        }else{\n            //Defender won\n            if(dBotScore < aBotScore){\n                scoreGain = (aBotScore - dBotScore) / scoreDivider;\n            }\n            if(scoreGain < minScoreGain){\n                scores[attackerBotID]-=minScoreGain;\n            }else{\n                scores[attackerBotID]-=scoreGain;\n                scores[defenderBotID]+=scoreGain/4;\n            }\n        }\n    }\n\n}",
  "sourcePath": "/home/zorro/git/blockchain__general/prototype/contracts/polygon/MatchPayout.sol",
  "compiler": {
    "name": "solc",
    "version": "0.8.4+commit.c7e474f2.Emscripten.clang"
  },
  "schemaVersion": "3.4.3",
  "updatedAt": "2021-08-26T18:15:28.740Z",
  "devdoc": {
    "kind": "dev",
    "methods": {
      "getRoleAdmin(bytes32)": {
        "details": "Returns the admin role that controls `role`. See {grantRole} and {revokeRole}. To change a role's admin, use {_setRoleAdmin}."
      },
      "grantRole(bytes32,address)": {
        "details": "Grants `role` to `account`. If `account` had not been already granted `role`, emits a {RoleGranted} event. Requirements: - the caller must have ``role``'s admin role."
      },
      "hasRole(bytes32,address)": {
        "details": "Returns `true` if `account` has been granted `role`."
      },
      "paused()": {
        "details": "Returns true if the contract is paused, and false otherwise."
      },
      "renounceRole(bytes32,address)": {
        "details": "Revokes `role` from the calling account. Roles are often managed via {grantRole} and {revokeRole}: this function's purpose is to provide a mechanism for accounts to lose their privileges if they are compromised (such as when a trusted device is misplaced). If the calling account had been granted `role`, emits a {RoleRevoked} event. Requirements: - the caller must be `account`."
      },
      "revokeRole(bytes32,address)": {
        "details": "Revokes `role` from `account`. If `account` had been granted `role`, emits a {RoleRevoked} event. Requirements: - the caller must have ``role``'s admin role."
      },
      "supportsInterface(bytes4)": {
        "details": "See {IERC165-supportsInterface}."
      }
    },
    "version": 1
  },
  "userdoc": {
    "kind": "user",
    "methods": {},
    "version": 1
  },
  "db": {
    "callBytecode": {
      "id": "0xc8d3945a35d34e0a798e8eda232555615356383a915fff076c44f2a719bdc9a4"
    },
    "createBytecode": {
      "id": "0x24d807211c253a35714fe65331707fa7bbbf6c18893a86d876c7d8ffd5abe0cf"
    },
    "contract": {
      "id": "0xdc771cc32270bcfd2917061778e414129bbbbe23d8efe98fbbd6ff56879b581d"
    }
  }
}